{
  "contractName": "Drone",
  "abi": [
    {
      "anonymous": false,
      "inputs": [
        {
          "indexed": true,
          "internalType": "address",
          "name": "owner",
          "type": "address"
        },
        {
          "indexed": true,
          "internalType": "address",
          "name": "approved",
          "type": "address"
        },
        {
          "indexed": true,
          "internalType": "uint256",
          "name": "tokenId",
          "type": "uint256"
        }
      ],
      "name": "Approval",
      "type": "event"
    },
    {
      "anonymous": false,
      "inputs": [
        {
          "indexed": true,
          "internalType": "address",
          "name": "owner",
          "type": "address"
        },
        {
          "indexed": true,
          "internalType": "address",
          "name": "operator",
          "type": "address"
        },
        {
          "indexed": false,
          "internalType": "bool",
          "name": "approved",
          "type": "bool"
        }
      ],
      "name": "ApprovalForAll",
      "type": "event"
    },
    {
      "anonymous": false,
      "inputs": [
        {
          "indexed": false,
          "internalType": "uint256",
          "name": "id",
          "type": "uint256"
        }
      ],
      "name": "NewDroneCreated",
      "type": "event"
    },
    {
      "anonymous": false,
      "inputs": [
        {
          "indexed": true,
          "internalType": "address",
          "name": "from",
          "type": "address"
        },
        {
          "indexed": true,
          "internalType": "address",
          "name": "to",
          "type": "address"
        },
        {
          "indexed": true,
          "internalType": "uint256",
          "name": "tokenId",
          "type": "uint256"
        }
      ],
      "name": "Transfer",
      "type": "event"
    },
    {
      "inputs": [
        {
          "internalType": "address",
          "name": "to",
          "type": "address"
        },
        {
          "internalType": "uint256",
          "name": "tokenId",
          "type": "uint256"
        }
      ],
      "name": "approve",
      "outputs": [],
      "stateMutability": "nonpayable",
      "type": "function"
    },
    {
      "inputs": [
        {
          "internalType": "address",
          "name": "owner",
          "type": "address"
        }
      ],
      "name": "balanceOf",
      "outputs": [
        {
          "internalType": "uint256",
          "name": "",
          "type": "uint256"
        }
      ],
      "stateMutability": "view",
      "type": "function",
      "constant": true
    },
    {
      "inputs": [
        {
          "internalType": "uint256",
          "name": "",
          "type": "uint256"
        }
      ],
      "name": "drones",
      "outputs": [
        {
          "internalType": "uint256",
          "name": "id",
          "type": "uint256"
        },
        {
          "internalType": "string",
          "name": "ownerName",
          "type": "string"
        },
        {
          "internalType": "string",
          "name": "model",
          "type": "string"
        },
        {
          "internalType": "uint256",
          "name": "maxFlightAltitude",
          "type": "uint256"
        },
        {
          "internalType": "uint256",
          "name": "minFlightAltitude",
          "type": "uint256"
        },
        {
          "internalType": "uint256",
          "name": "cost",
          "type": "uint256"
        },
        {
          "internalType": "uint8",
          "name": "velocity",
          "type": "uint8"
        },
        {
          "internalType": "address",
          "name": "owner",
          "type": "address"
        }
      ],
      "stateMutability": "view",
      "type": "function",
      "constant": true
    },
    {
      "inputs": [
        {
          "internalType": "uint256",
          "name": "tokenId",
          "type": "uint256"
        }
      ],
      "name": "getApproved",
      "outputs": [
        {
          "internalType": "address",
          "name": "",
          "type": "address"
        }
      ],
      "stateMutability": "view",
      "type": "function",
      "constant": true
    },
    {
      "inputs": [
        {
          "internalType": "address",
          "name": "owner",
          "type": "address"
        },
        {
          "internalType": "address",
          "name": "operator",
          "type": "address"
        }
      ],
      "name": "isApprovedForAll",
      "outputs": [
        {
          "internalType": "bool",
          "name": "",
          "type": "bool"
        }
      ],
      "stateMutability": "view",
      "type": "function",
      "constant": true
    },
    {
      "inputs": [
        {
          "internalType": "string",
          "name": "_ownerName",
          "type": "string"
        },
        {
          "internalType": "string",
          "name": "_model",
          "type": "string"
        },
        {
          "internalType": "uint256",
          "name": "_maxFlightAltitude",
          "type": "uint256"
        },
        {
          "internalType": "uint256",
          "name": "_minFlightAltitude",
          "type": "uint256"
        },
        {
          "internalType": "string[]",
          "name": "_pesticides",
          "type": "string[]"
        },
        {
          "internalType": "uint256",
          "name": "_cost",
          "type": "uint256"
        },
        {
          "internalType": "uint8",
          "name": "_velocity",
          "type": "uint8"
        }
      ],
      "name": "mintNewDrone",
      "outputs": [],
      "stateMutability": "nonpayable",
      "type": "function"
    },
    {
      "inputs": [],
      "name": "name",
      "outputs": [
        {
          "internalType": "string",
          "name": "",
          "type": "string"
        }
      ],
      "stateMutability": "view",
      "type": "function",
      "constant": true
    },
    {
      "inputs": [
        {
          "internalType": "uint256",
          "name": "tokenId",
          "type": "uint256"
        }
      ],
      "name": "ownerOf",
      "outputs": [
        {
          "internalType": "address",
          "name": "",
          "type": "address"
        }
      ],
      "stateMutability": "view",
      "type": "function",
      "constant": true
    },
    {
      "inputs": [
        {
          "internalType": "address",
          "name": "from",
          "type": "address"
        },
        {
          "internalType": "address",
          "name": "to",
          "type": "address"
        },
        {
          "internalType": "uint256",
          "name": "tokenId",
          "type": "uint256"
        }
      ],
      "name": "safeTransferFrom",
      "outputs": [],
      "stateMutability": "nonpayable",
      "type": "function"
    },
    {
      "inputs": [
        {
          "internalType": "address",
          "name": "from",
          "type": "address"
        },
        {
          "internalType": "address",
          "name": "to",
          "type": "address"
        },
        {
          "internalType": "uint256",
          "name": "tokenId",
          "type": "uint256"
        },
        {
          "internalType": "bytes",
          "name": "_data",
          "type": "bytes"
        }
      ],
      "name": "safeTransferFrom",
      "outputs": [],
      "stateMutability": "nonpayable",
      "type": "function"
    },
    {
      "inputs": [
        {
          "internalType": "address",
          "name": "operator",
          "type": "address"
        },
        {
          "internalType": "bool",
          "name": "approved",
          "type": "bool"
        }
      ],
      "name": "setApprovalForAll",
      "outputs": [],
      "stateMutability": "nonpayable",
      "type": "function"
    },
    {
      "inputs": [
        {
          "internalType": "bytes4",
          "name": "interfaceId",
          "type": "bytes4"
        }
      ],
      "name": "supportsInterface",
      "outputs": [
        {
          "internalType": "bool",
          "name": "",
          "type": "bool"
        }
      ],
      "stateMutability": "view",
      "type": "function",
      "constant": true
    },
    {
      "inputs": [],
      "name": "symbol",
      "outputs": [
        {
          "internalType": "string",
          "name": "",
          "type": "string"
        }
      ],
      "stateMutability": "view",
      "type": "function",
      "constant": true
    },
    {
      "inputs": [
        {
          "internalType": "uint256",
          "name": "tokenId",
          "type": "uint256"
        }
      ],
      "name": "tokenURI",
      "outputs": [
        {
          "internalType": "string",
          "name": "",
          "type": "string"
        }
      ],
      "stateMutability": "view",
      "type": "function",
      "constant": true
    },
    {
      "inputs": [
        {
          "internalType": "address",
          "name": "from",
          "type": "address"
        },
        {
          "internalType": "address",
          "name": "to",
          "type": "address"
        },
        {
          "internalType": "uint256",
          "name": "tokenId",
          "type": "uint256"
        }
      ],
      "name": "transferFrom",
      "outputs": [],
      "stateMutability": "nonpayable",
      "type": "function"
    },
    {
      "inputs": [
        {
          "internalType": "address",
          "name": "_owner",
          "type": "address"
        }
      ],
      "name": "getDronesByOwner",
      "outputs": [
        {
          "internalType": "uint256[]",
          "name": "",
          "type": "uint256[]"
        }
      ],
      "stateMutability": "view",
      "type": "function",
      "constant": true
    },
    {
      "inputs": [],
      "name": "getDrones",
      "outputs": [
        {
          "components": [
            {
              "internalType": "uint256",
              "name": "id",
              "type": "uint256"
            },
            {
              "internalType": "string",
              "name": "ownerName",
              "type": "string"
            },
            {
              "internalType": "string",
              "name": "model",
              "type": "string"
            },
            {
              "internalType": "uint256",
              "name": "maxFlightAltitude",
              "type": "uint256"
            },
            {
              "internalType": "uint256",
              "name": "minFlightAltitude",
              "type": "uint256"
            },
            {
              "internalType": "string[]",
              "name": "pesticides",
              "type": "string[]"
            },
            {
              "internalType": "uint256",
              "name": "cost",
              "type": "uint256"
            },
            {
              "internalType": "uint8",
              "name": "velocity",
              "type": "uint8"
            },
            {
              "internalType": "address",
              "name": "owner",
              "type": "address"
            }
          ],
          "internalType": "struct DroneModel.Drone[]",
          "name": "",
          "type": "tuple[]"
        }
      ],
      "stateMutability": "view",
      "type": "function",
      "constant": true
    },
    {
      "inputs": [
        {
          "internalType": "uint256",
          "name": "_index",
          "type": "uint256"
        }
      ],
      "name": "getDrone",
      "outputs": [
        {
          "components": [
            {
              "internalType": "uint256",
              "name": "id",
              "type": "uint256"
            },
            {
              "internalType": "string",
              "name": "ownerName",
              "type": "string"
            },
            {
              "internalType": "string",
              "name": "model",
              "type": "string"
            },
            {
              "internalType": "uint256",
              "name": "maxFlightAltitude",
              "type": "uint256"
            },
            {
              "internalType": "uint256",
              "name": "minFlightAltitude",
              "type": "uint256"
            },
            {
              "internalType": "string[]",
              "name": "pesticides",
              "type": "string[]"
            },
            {
              "internalType": "uint256",
              "name": "cost",
              "type": "uint256"
            },
            {
              "internalType": "uint8",
              "name": "velocity",
              "type": "uint8"
            },
            {
              "internalType": "address",
              "name": "owner",
              "type": "address"
            }
          ],
          "internalType": "struct DroneModel.Drone",
          "name": "",
          "type": "tuple"
        }
      ],
      "stateMutability": "view",
      "type": "function",
      "constant": true
    }
  ],
  "bytecode": "0x60806040523480156200001157600080fd5b506040518060400160405280600581526020017f44726f6e650000000000000000000000000000000000000000000000000000008152506040518060400160405280600381526020017f44524e0000000000000000000000000000000000000000000000000000000000815250816000908051906020019062000096929190620000b8565b508060019080519060200190620000af929190620000b8565b505050620001cc565b828054620000c69062000197565b90600052602060002090601f016020900481019282620000ea576000855562000136565b82601f106200010557805160ff191683800117855562000136565b8280016001018555821562000136579182015b828111156200013557825182559160200191906001019062000118565b5b50905062000145919062000149565b5090565b5b80821115620001645760008160009055506001016200014a565b5090565b7f4e487b7100000000000000000000000000000000000000000000000000000000600052602260045260246000fd5b60006002820490506001821680620001b057607f821691505b602082108103620001c657620001c562000168565b5b50919050565b613c5380620001dc6000396000f3fe608060405234801561001057600080fd5b50600436106101165760003560e01c806370a08231116100a2578063a38c915f11610071578063a38c915f1461030c578063b88d4fde14610328578063c87b56dd14610344578063dbd1be7714610374578063e985e9c5146103a457610116565b806370a082311461026b5780639341bc001461029b57806395d89b41146102d2578063a22cb465146102f057610116565b8063095ea7b3116100e9578063095ea7b3146101b757806323b872dd146101d35780633c15901e146101ef57806342842e0e1461021f5780636352211e1461023b57610116565b806301ffc9a71461011b57806306fdde031461014b57806307d5ebf514610169578063081812fc14610187575b600080fd5b610135600480360381019061013091906123d1565b6103d4565b6040516101429190612419565b60405180910390f35b6101536104b6565b60405161016091906124cd565b60405180910390f35b610171610548565b60405161017e9190612806565b60405180910390f35b6101a1600480360381019061019c9190612854565b610840565b6040516101ae9190612890565b60405180910390f35b6101d160048036038101906101cc91906128d7565b6108c5565b005b6101ed60048036038101906101e89190612917565b6109dc565b005b6102096004803603810190610204919061296a565b610a3c565b6040516102169190612a46565b60405180910390f35b61023960048036038101906102349190612917565b610b32565b005b61025560048036038101906102509190612854565b610b52565b6040516102629190612890565b60405180910390f35b6102856004803603810190610280919061296a565b610c03565b6040516102929190612a77565b60405180910390f35b6102b560048036038101906102b09190612854565b610cba565b6040516102c9989796959493929190612aa1565b60405180910390f35b6102da610e4f565b6040516102e791906124cd565b60405180910390f35b61030a60048036038101906103059190612b59565b610ee1565b005b61032660048036038101906103219190612de0565b610ef7565b005b610342600480360381019061033d9190612f77565b611086565b005b61035e60048036038101906103599190612854565b6110e8565b60405161036b91906124cd565b60405180910390f35b61038e60048036038101906103899190612854565b61118f565b60405161039b91906130cd565b60405180910390f35b6103be60048036038101906103b991906130ef565b611464565b6040516103cb9190612419565b60405180910390f35b60007f80ac58cd000000000000000000000000000000000000000000000000000000007bffffffffffffffffffffffffffffffffffffffffffffffffffffffff1916827bffffffffffffffffffffffffffffffffffffffffffffffffffffffff1916148061049f57507f5b5e139f000000000000000000000000000000000000000000000000000000007bffffffffffffffffffffffffffffffffffffffffffffffffffffffff1916827bffffffffffffffffffffffffffffffffffffffffffffffffffffffff1916145b806104af57506104ae826114f8565b5b9050919050565b6060600080546104c59061315e565b80601f01602080910402602001604051908101604052809291908181526020018280546104f19061315e565b801561053e5780601f106105135761010080835404028352916020019161053e565b820191906000526020600020905b81548152906001019060200180831161052157829003601f168201915b5050505050905090565b60606007805480602002602001604051908101604052809291908181526020016000905b82821015610837578382906000526020600020906008020160405180610120016040529081600082015481526020016001820180546105aa9061315e565b80601f01602080910402602001604051908101604052809291908181526020018280546105d69061315e565b80156106235780601f106105f857610100808354040283529160200191610623565b820191906000526020600020905b81548152906001019060200180831161060657829003601f168201915b5050505050815260200160028201805461063c9061315e565b80601f01602080910402602001604051908101604052809291908181526020018280546106689061315e565b80156106b55780601f1061068a576101008083540402835291602001916106b5565b820191906000526020600020905b81548152906001019060200180831161069857829003601f168201915b50505050508152602001600382015481526020016004820154815260200160058201805480602002602001604051908101604052809291908181526020016000905b828210156107a35783829060005260206000200180546107169061315e565b80601f01602080910402602001604051908101604052809291908181526020018280546107429061315e565b801561078f5780601f106107645761010080835404028352916020019161078f565b820191906000526020600020905b81548152906001019060200180831161077257829003601f168201915b5050505050815260200190600101906106f7565b505050508152602001600682015481526020016007820160009054906101000a900460ff1660ff1660ff1681526020016007820160019054906101000a900473ffffffffffffffffffffffffffffffffffffffff1673ffffffffffffffffffffffffffffffffffffffff1673ffffffffffffffffffffffffffffffffffffffff16815250508152602001906001019061056c565b50505050905090565b600061084b82611562565b61088a576040517f08c379a000000000000000000000000000000000000000000000000000000000815260040161088190613201565b60405180910390fd5b6004600083815260200190815260200160002060009054906101000a900473ffffffffffffffffffffffffffffffffffffffff169050919050565b60006108d082610b52565b90508073ffffffffffffffffffffffffffffffffffffffff168373ffffffffffffffffffffffffffffffffffffffff1603610940576040517f08c379a000000000000000000000000000000000000000000000000000000000815260040161093790613293565b60405180910390fd5b8073ffffffffffffffffffffffffffffffffffffffff1661095f6115ce565b73ffffffffffffffffffffffffffffffffffffffff16148061098e575061098d816109886115ce565b611464565b5b6109cd576040517f08c379a00000000000000000000000000000000000000000000000000000000081526004016109c490613325565b60405180910390fd5b6109d783836115d6565b505050565b6109ed6109e76115ce565b8261168f565b610a2c576040517f08c379a0000000000000000000000000000000000000000000000000000000008152600401610a23906133b7565b60405180910390fd5b610a3783838361176d565b505050565b60606000610a4983610c03565b905060008167ffffffffffffffff811115610a6757610a66612ba3565b5b604051908082528060200260200182016040528015610a955781602001602082028036833780820191505090505b5090506000805b600780549050811015610b26578573ffffffffffffffffffffffffffffffffffffffff16610ac982610b52565b73ffffffffffffffffffffffffffffffffffffffff1603610b135780838381518110610af857610af76133d7565b5b6020026020010181815250508180610b0f90613435565b9250505b8080610b1e90613435565b915050610a9c565b50819350505050919050565b610b4d83838360405180602001604052806000815250611086565b505050565b6000806002600084815260200190815260200160002060009054906101000a900473ffffffffffffffffffffffffffffffffffffffff169050600073ffffffffffffffffffffffffffffffffffffffff168173ffffffffffffffffffffffffffffffffffffffff1603610bfa576040517f08c379a0000000000000000000000000000000000000000000000000000000008152600401610bf1906134ef565b60405180910390fd5b80915050919050565b60008073ffffffffffffffffffffffffffffffffffffffff168273ffffffffffffffffffffffffffffffffffffffff1603610c73576040517f08c379a0000000000000000000000000000000000000000000000000000000008152600401610c6a90613581565b60405180910390fd5b600360008373ffffffffffffffffffffffffffffffffffffffff1673ffffffffffffffffffffffffffffffffffffffff168152602001908152602001600020549050919050565b60078181548110610cca57600080fd5b9060005260206000209060080201600091509050806000015490806001018054610cf39061315e565b80601f0160208091040260200160405190810160405280929190818152602001828054610d1f9061315e565b8015610d6c5780601f10610d4157610100808354040283529160200191610d6c565b820191906000526020600020905b815481529060010190602001808311610d4f57829003601f168201915b505050505090806002018054610d819061315e565b80601f0160208091040260200160405190810160405280929190818152602001828054610dad9061315e565b8015610dfa5780601f10610dcf57610100808354040283529160200191610dfa565b820191906000526020600020905b815481529060010190602001808311610ddd57829003601f168201915b5050505050908060030154908060040154908060060154908060070160009054906101000a900460ff16908060070160019054906101000a900473ffffffffffffffffffffffffffffffffffffffff16905088565b606060018054610e5e9061315e565b80601f0160208091040260200160405190810160405280929190818152602001828054610e8a9061315e565b8015610ed75780601f10610eac57610100808354040283529160200191610ed7565b820191906000526020600020905b815481529060010190602001808311610eba57829003601f168201915b5050505050905090565b610ef3610eec6115ce565b83836119d3565b5050565b60003390506007604051806101200160405280610f146006611b3f565b81526020018a81526020018981526020018881526020018781526020018681526020018581526020018460ff1681526020018373ffffffffffffffffffffffffffffffffffffffff168152509080600181540180825580915050600190039060005260206000209060080201600090919091909150600082015181600001556020820151816001019080519060200190610faf929190612199565b506040820151816002019080519060200190610fcc929190612199565b50606082015181600301556080820151816004015560a0820151816005019080519060200190610ffd92919061221f565b5060c0820151816006015560e08201518160070160006101000a81548160ff021916908360ff1602179055506101008201518160070160016101000a81548173ffffffffffffffffffffffffffffffffffffffff021916908373ffffffffffffffffffffffffffffffffffffffff160217905550505061107c81611b4d565b5050505050505050565b6110976110916115ce565b8361168f565b6110d6576040517f08c379a00000000000000000000000000000000000000000000000000000000081526004016110cd906133b7565b60405180910390fd5b6110e284848484611baa565b50505050565b60606110f382611562565b611132576040517f08c379a000000000000000000000000000000000000000000000000000000000815260040161112990613613565b60405180910390fd5b600061113c611c06565b9050600081511161115c5760405180602001604052806000815250611187565b8061116684611c1d565b60405160200161117792919061366f565b6040516020818303038152906040525b915050919050565b61119761227f565b600782815481106111ab576111aa6133d7565b5b906000526020600020906008020160405180610120016040529081600082015481526020016001820180546111df9061315e565b80601f016020809104026020016040519081016040528092919081815260200182805461120b9061315e565b80156112585780601f1061122d57610100808354040283529160200191611258565b820191906000526020600020905b81548152906001019060200180831161123b57829003601f168201915b505050505081526020016002820180546112719061315e565b80601f016020809104026020016040519081016040528092919081815260200182805461129d9061315e565b80156112ea5780601f106112bf576101008083540402835291602001916112ea565b820191906000526020600020905b8154815290600101906020018083116112cd57829003601f168201915b50505050508152602001600382015481526020016004820154815260200160058201805480602002602001604051908101604052809291908181526020016000905b828210156113d857838290600052602060002001805461134b9061315e565b80601f01602080910402602001604051908101604052809291908181526020018280546113779061315e565b80156113c45780601f10611399576101008083540402835291602001916113c4565b820191906000526020600020905b8154815290600101906020018083116113a757829003601f168201915b50505050508152602001906001019061132c565b505050508152602001600682015481526020016007820160009054906101000a900460ff1660ff1660ff1681526020016007820160019054906101000a900473ffffffffffffffffffffffffffffffffffffffff1673ffffffffffffffffffffffffffffffffffffffff1673ffffffffffffffffffffffffffffffffffffffff16815250509050919050565b6000600560008473ffffffffffffffffffffffffffffffffffffffff1673ffffffffffffffffffffffffffffffffffffffff16815260200190815260200160002060008373ffffffffffffffffffffffffffffffffffffffff1673ffffffffffffffffffffffffffffffffffffffff16815260200190815260200160002060009054906101000a900460ff16905092915050565b60007f01ffc9a7000000000000000000000000000000000000000000000000000000007bffffffffffffffffffffffffffffffffffffffffffffffffffffffff1916827bffffffffffffffffffffffffffffffffffffffffffffffffffffffff1916149050919050565b60008073ffffffffffffffffffffffffffffffffffffffff166002600084815260200190815260200160002060009054906101000a900473ffffffffffffffffffffffffffffffffffffffff1673ffffffffffffffffffffffffffffffffffffffff1614159050919050565b600033905090565b816004600083815260200190815260200160002060006101000a81548173ffffffffffffffffffffffffffffffffffffffff021916908373ffffffffffffffffffffffffffffffffffffffff160217905550808273ffffffffffffffffffffffffffffffffffffffff1661164983610b52565b73ffffffffffffffffffffffffffffffffffffffff167f8c5be1e5ebec7d5bd14f71427d1e84f3dd0314c0f7b2291e5b200ac8c7c3b92560405160405180910390a45050565b600061169a82611562565b6116d9576040517f08c379a00000000000000000000000000000000000000000000000000000000081526004016116d090613705565b60405180910390fd5b60006116e483610b52565b90508073ffffffffffffffffffffffffffffffffffffffff168473ffffffffffffffffffffffffffffffffffffffff16148061172657506117258185611464565b5b8061176457508373ffffffffffffffffffffffffffffffffffffffff1661174c84610840565b73ffffffffffffffffffffffffffffffffffffffff16145b91505092915050565b8273ffffffffffffffffffffffffffffffffffffffff1661178d82610b52565b73ffffffffffffffffffffffffffffffffffffffff16146117e3576040517f08c379a00000000000000000000000000000000000000000000000000000000081526004016117da90613797565b60405180910390fd5b600073ffffffffffffffffffffffffffffffffffffffff168273ffffffffffffffffffffffffffffffffffffffff1603611852576040517f08c379a000000000000000000000000000000000000000000000000000000000815260040161184990613829565b60405180910390fd5b61185d838383611d7d565b6118686000826115d6565b6001600360008573ffffffffffffffffffffffffffffffffffffffff1673ffffffffffffffffffffffffffffffffffffffff16815260200190815260200160002060008282546118b89190613849565b925050819055506001600360008473ffffffffffffffffffffffffffffffffffffffff1673ffffffffffffffffffffffffffffffffffffffff168152602001908152602001600020600082825461190f919061387d565b92505081905550816002600083815260200190815260200160002060006101000a81548173ffffffffffffffffffffffffffffffffffffffff021916908373ffffffffffffffffffffffffffffffffffffffff160217905550808273ffffffffffffffffffffffffffffffffffffffff168473ffffffffffffffffffffffffffffffffffffffff167fddf252ad1be2c89b69c2b068fc378daa952ba7f163c4a11628f55a4df523b3ef60405160405180910390a46119ce838383611d82565b505050565b8173ffffffffffffffffffffffffffffffffffffffff168373ffffffffffffffffffffffffffffffffffffffff1603611a41576040517f08c379a0000000000000000000000000000000000000000000000000000000008152600401611a389061391f565b60405180910390fd5b80600560008573ffffffffffffffffffffffffffffffffffffffff1673ffffffffffffffffffffffffffffffffffffffff16815260200190815260200160002060008473ffffffffffffffffffffffffffffffffffffffff1673ffffffffffffffffffffffffffffffffffffffff16815260200190815260200160002060006101000a81548160ff0219169083151502179055508173ffffffffffffffffffffffffffffffffffffffff168373ffffffffffffffffffffffffffffffffffffffff167f17307eab39ab6107e8899845ad3d59bd9653f200f220920489ca2b5937696c3183604051611b329190612419565b60405180910390a3505050565b600081600001549050919050565b6000611b596006611b3f565b9050611b658282611d87565b611b6f6006611da5565b7f564ba5ec5742b2e6afc952e92235671c7a1959fe20648c59ded66c272150954481604051611b9e9190612a77565b60405180910390a15050565b611bb584848461176d565b611bc184848484611dbb565b611c00576040517f08c379a0000000000000000000000000000000000000000000000000000000008152600401611bf7906139b1565b60405180910390fd5b50505050565b606060405180602001604052806000815250905090565b606060008203611c64576040518060400160405280600181526020017f30000000000000000000000000000000000000000000000000000000000000008152509050611d78565b600082905060005b60008214611c96578080611c7f90613435565b915050600a82611c8f9190613a00565b9150611c6c565b60008167ffffffffffffffff811115611cb257611cb1612ba3565b5b6040519080825280601f01601f191660200182016040528015611ce45781602001600182028036833780820191505090505b5090505b60008514611d7157600182611cfd9190613849565b9150600a85611d0c9190613a31565b6030611d18919061387d565b60f81b818381518110611d2e57611d2d6133d7565b5b60200101907effffffffffffffffffffffffffffffffffffffffffffffffffffffffffffff1916908160001a905350600a85611d6a9190613a00565b9450611ce8565b8093505050505b919050565b505050565b505050565b611da1828260405180602001604052806000815250611f42565b5050565b6001816000016000828254019250508190555050565b6000611ddc8473ffffffffffffffffffffffffffffffffffffffff16611f9d565b15611f35578373ffffffffffffffffffffffffffffffffffffffff1663150b7a02611e056115ce565b8786866040518563ffffffff1660e01b8152600401611e279493929190613ab7565b6020604051808303816000875af1925050508015611e6357506040513d601f19601f82011682018060405250810190611e609190613b18565b60015b611ee5573d8060008114611e93576040519150601f19603f3d011682016040523d82523d6000602084013e611e98565b606091505b506000815103611edd576040517f08c379a0000000000000000000000000000000000000000000000000000000008152600401611ed4906139b1565b60405180910390fd5b805181602001fd5b63150b7a0260e01b7bffffffffffffffffffffffffffffffffffffffffffffffffffffffff1916817bffffffffffffffffffffffffffffffffffffffffffffffffffffffff191614915050611f3a565b600190505b949350505050565b611f4c8383611fc0565b611f596000848484611dbb565b611f98576040517f08c379a0000000000000000000000000000000000000000000000000000000008152600401611f8f906139b1565b60405180910390fd5b505050565b6000808273ffffffffffffffffffffffffffffffffffffffff163b119050919050565b600073ffffffffffffffffffffffffffffffffffffffff168273ffffffffffffffffffffffffffffffffffffffff160361202f576040517f08c379a000000000000000000000000000000000000000000000000000000000815260040161202690613b91565b60405180910390fd5b61203881611562565b15612078576040517f08c379a000000000000000000000000000000000000000000000000000000000815260040161206f90613bfd565b60405180910390fd5b61208460008383611d7d565b6001600360008473ffffffffffffffffffffffffffffffffffffffff1673ffffffffffffffffffffffffffffffffffffffff16815260200190815260200160002060008282546120d4919061387d565b92505081905550816002600083815260200190815260200160002060006101000a81548173ffffffffffffffffffffffffffffffffffffffff021916908373ffffffffffffffffffffffffffffffffffffffff160217905550808273ffffffffffffffffffffffffffffffffffffffff16600073ffffffffffffffffffffffffffffffffffffffff167fddf252ad1be2c89b69c2b068fc378daa952ba7f163c4a11628f55a4df523b3ef60405160405180910390a461219560008383611d82565b5050565b8280546121a59061315e565b90600052602060002090601f0160209004810192826121c7576000855561220e565b82601f106121e057805160ff191683800117855561220e565b8280016001018555821561220e579182015b8281111561220d5782518255916020019190600101906121f2565b5b50905061221b91906122e4565b5090565b82805482825590600052602060002090810192821561226e579160200282015b8281111561226d57825182908051906020019061225d929190612199565b509160200191906001019061223f565b5b50905061227b9190612301565b5090565b60405180610120016040528060008152602001606081526020016060815260200160008152602001600081526020016060815260200160008152602001600060ff168152602001600073ffffffffffffffffffffffffffffffffffffffff1681525090565b5b808211156122fd5760008160009055506001016122e5565b5090565b5b8082111561232157600081816123189190612325565b50600101612302565b5090565b5080546123319061315e565b6000825580601f106123435750612362565b601f01602090049060005260206000209081019061236191906122e4565b5b50565b6000604051905090565b600080fd5b600080fd5b60007fffffffff0000000000000000000000000000000000000000000000000000000082169050919050565b6123ae81612379565b81146123b957600080fd5b50565b6000813590506123cb816123a5565b92915050565b6000602082840312156123e7576123e661236f565b5b60006123f5848285016123bc565b91505092915050565b60008115159050919050565b612413816123fe565b82525050565b600060208201905061242e600083018461240a565b92915050565b600081519050919050565b600082825260208201905092915050565b60005b8381101561246e578082015181840152602081019050612453565b8381111561247d576000848401525b50505050565b6000601f19601f8301169050919050565b600061249f82612434565b6124a9818561243f565b93506124b9818560208601612450565b6124c281612483565b840191505092915050565b600060208201905081810360008301526124e78184612494565b905092915050565b600081519050919050565b600082825260208201905092915050565b6000819050602082019050919050565b6000819050919050565b61252e8161251b565b82525050565b600082825260208201905092915050565b600061255082612434565b61255a8185612534565b935061256a818560208601612450565b61257381612483565b840191505092915050565b600081519050919050565b600082825260208201905092915050565b6000819050602082019050919050565b60006125b68383612545565b905092915050565b6000602082019050919050565b60006125d68261257e565b6125e08185612589565b9350836020820285016125f28561259a565b8060005b8581101561262e578484038952815161260f85826125aa565b945061261a836125be565b925060208a019950506001810190506125f6565b50829750879550505050505092915050565b600060ff82169050919050565b61265681612640565b82525050565b600073ffffffffffffffffffffffffffffffffffffffff82169050919050565b60006126878261265c565b9050919050565b6126978161267c565b82525050565b6000610120830160008301516126b66000860182612525565b50602083015184820360208601526126ce8282612545565b915050604083015184820360408601526126e88282612545565b91505060608301516126fd6060860182612525565b5060808301516127106080860182612525565b5060a083015184820360a086015261272882826125cb565b91505060c083015161273d60c0860182612525565b5060e083015161275060e086018261264d565b5061010083015161276561010086018261268e565b508091505092915050565b600061277c838361269d565b905092915050565b6000602082019050919050565b600061279c826124ef565b6127a681856124fa565b9350836020820285016127b88561250b565b8060005b858110156127f457848403895281516127d58582612770565b94506127e083612784565b925060208a019950506001810190506127bc565b50829750879550505050505092915050565b600060208201905081810360008301526128208184612791565b905092915050565b6128318161251b565b811461283c57600080fd5b50565b60008135905061284e81612828565b92915050565b60006020828403121561286a5761286961236f565b5b60006128788482850161283f565b91505092915050565b61288a8161267c565b82525050565b60006020820190506128a56000830184612881565b92915050565b6128b48161267c565b81146128bf57600080fd5b50565b6000813590506128d1816128ab565b92915050565b600080604083850312156128ee576128ed61236f565b5b60006128fc858286016128c2565b925050602061290d8582860161283f565b9150509250929050565b6000806000606084860312156129305761292f61236f565b5b600061293e868287016128c2565b935050602061294f868287016128c2565b92505060406129608682870161283f565b9150509250925092565b6000602082840312156129805761297f61236f565b5b600061298e848285016128c2565b91505092915050565b600081519050919050565b600082825260208201905092915050565b6000819050602082019050919050565b60006129cf8383612525565b60208301905092915050565b6000602082019050919050565b60006129f382612997565b6129fd81856129a2565b9350612a08836129b3565b8060005b83811015612a39578151612a2088826129c3565b9750612a2b836129db565b925050600181019050612a0c565b5085935050505092915050565b60006020820190508181036000830152612a6081846129e8565b905092915050565b612a718161251b565b82525050565b6000602082019050612a8c6000830184612a68565b92915050565b612a9b81612640565b82525050565b600061010082019050612ab7600083018b612a68565b8181036020830152612ac9818a612494565b90508181036040830152612add8189612494565b9050612aec6060830188612a68565b612af96080830187612a68565b612b0660a0830186612a68565b612b1360c0830185612a92565b612b2060e0830184612881565b9998505050505050505050565b612b36816123fe565b8114612b4157600080fd5b50565b600081359050612b5381612b2d565b92915050565b60008060408385031215612b7057612b6f61236f565b5b6000612b7e858286016128c2565b9250506020612b8f85828601612b44565b9150509250929050565b600080fd5b600080fd5b7f4e487b7100000000000000000000000000000000000000000000000000000000600052604160045260246000fd5b612bdb82612483565b810181811067ffffffffffffffff82111715612bfa57612bf9612ba3565b5b80604052505050565b6000612c0d612365565b9050612c198282612bd2565b919050565b600067ffffffffffffffff821115612c3957612c38612ba3565b5b612c4282612483565b9050602081019050919050565b82818337600083830152505050565b6000612c71612c6c84612c1e565b612c03565b905082815260208101848484011115612c8d57612c8c612b9e565b5b612c98848285612c4f565b509392505050565b600082601f830112612cb557612cb4612b99565b5b8135612cc5848260208601612c5e565b91505092915050565b600067ffffffffffffffff821115612ce957612ce8612ba3565b5b602082029050602081019050919050565b600080fd5b6000612d12612d0d84612cce565b612c03565b90508083825260208201905060208402830185811115612d3557612d34612cfa565b5b835b81811015612d7c57803567ffffffffffffffff811115612d5a57612d59612b99565b5b808601612d678982612ca0565b85526020850194505050602081019050612d37565b5050509392505050565b600082601f830112612d9b57612d9a612b99565b5b8135612dab848260208601612cff565b91505092915050565b612dbd81612640565b8114612dc857600080fd5b50565b600081359050612dda81612db4565b92915050565b600080600080600080600060e0888a031215612dff57612dfe61236f565b5b600088013567ffffffffffffffff811115612e1d57612e1c612374565b5b612e298a828b01612ca0565b975050602088013567ffffffffffffffff811115612e4a57612e49612374565b5b612e568a828b01612ca0565b9650506040612e678a828b0161283f565b9550506060612e788a828b0161283f565b945050608088013567ffffffffffffffff811115612e9957612e98612374565b5b612ea58a828b01612d86565b93505060a0612eb68a828b0161283f565b92505060c0612ec78a828b01612dcb565b91505092959891949750929550565b600067ffffffffffffffff821115612ef157612ef0612ba3565b5b612efa82612483565b9050602081019050919050565b6000612f1a612f1584612ed6565b612c03565b905082815260208101848484011115612f3657612f35612b9e565b5b612f41848285612c4f565b509392505050565b600082601f830112612f5e57612f5d612b99565b5b8135612f6e848260208601612f07565b91505092915050565b60008060008060808587031215612f9157612f9061236f565b5b6000612f9f878288016128c2565b9450506020612fb0878288016128c2565b9350506040612fc18782880161283f565b925050606085013567ffffffffffffffff811115612fe257612fe1612374565b5b612fee87828801612f49565b91505092959194509250565b6000610120830160008301516130136000860182612525565b506020830151848203602086015261302b8282612545565b915050604083015184820360408601526130458282612545565b915050606083015161305a6060860182612525565b50608083015161306d6080860182612525565b5060a083015184820360a086015261308582826125cb565b91505060c083015161309a60c0860182612525565b5060e08301516130ad60e086018261264d565b506101008301516130c261010086018261268e565b508091505092915050565b600060208201905081810360008301526130e78184612ffa565b905092915050565b600080604083850312156131065761310561236f565b5b6000613114858286016128c2565b9250506020613125858286016128c2565b9150509250929050565b7f4e487b7100000000000000000000000000000000000000000000000000000000600052602260045260246000fd5b6000600282049050600182168061317657607f821691505b6020821081036131895761318861312f565b5b50919050565b7f4552433732313a20617070726f76656420717565727920666f72206e6f6e657860008201527f697374656e7420746f6b656e0000000000000000000000000000000000000000602082015250565b60006131eb602c8361243f565b91506131f68261318f565b604082019050919050565b6000602082019050818103600083015261321a816131de565b9050919050565b7f4552433732313a20617070726f76616c20746f2063757272656e74206f776e6560008201527f7200000000000000000000000000000000000000000000000000000000000000602082015250565b600061327d60218361243f565b915061328882613221565b604082019050919050565b600060208201905081810360008301526132ac81613270565b9050919050565b7f4552433732313a20617070726f76652063616c6c6572206973206e6f74206f7760008201527f6e6572206e6f7220617070726f76656420666f7220616c6c0000000000000000602082015250565b600061330f60388361243f565b915061331a826132b3565b604082019050919050565b6000602082019050818103600083015261333e81613302565b9050919050565b7f4552433732313a207472616e736665722063616c6c6572206973206e6f74206f60008201527f776e6572206e6f7220617070726f766564000000000000000000000000000000602082015250565b60006133a160318361243f565b91506133ac82613345565b604082019050919050565b600060208201905081810360008301526133d081613394565b9050919050565b7f4e487b7100000000000000000000000000000000000000000000000000000000600052603260045260246000fd5b7f4e487b7100000000000000000000000000000000000000000000000000000000600052601160045260246000fd5b60006134408261251b565b91507fffffffffffffffffffffffffffffffffffffffffffffffffffffffffffffffff820361347257613471613406565b5b600182019050919050565b7f4552433732313a206f776e657220717565727920666f72206e6f6e657869737460008201527f656e7420746f6b656e0000000000000000000000000000000000000000000000602082015250565b60006134d960298361243f565b91506134e48261347d565b604082019050919050565b60006020820190508181036000830152613508816134cc565b9050919050565b7f4552433732313a2062616c616e636520717565727920666f7220746865207a6560008201527f726f206164647265737300000000000000000000000000000000000000000000602082015250565b600061356b602a8361243f565b91506135768261350f565b604082019050919050565b6000602082019050818103600083015261359a8161355e565b9050919050565b7f4552433732314d657461646174613a2055524920717565727920666f72206e6f60008201527f6e6578697374656e7420746f6b656e0000000000000000000000000000000000602082015250565b60006135fd602f8361243f565b9150613608826135a1565b604082019050919050565b6000602082019050818103600083015261362c816135f0565b9050919050565b600081905092915050565b600061364982612434565b6136538185613633565b9350613663818560208601612450565b80840191505092915050565b600061367b828561363e565b9150613687828461363e565b91508190509392505050565b7f4552433732313a206f70657261746f7220717565727920666f72206e6f6e657860008201527f697374656e7420746f6b656e0000000000000000000000000000000000000000602082015250565b60006136ef602c8361243f565b91506136fa82613693565b604082019050919050565b6000602082019050818103600083015261371e816136e2565b9050919050565b7f4552433732313a207472616e736665722066726f6d20696e636f72726563742060008201527f6f776e6572000000000000000000000000000000000000000000000000000000602082015250565b600061378160258361243f565b915061378c82613725565b604082019050919050565b600060208201905081810360008301526137b081613774565b9050919050565b7f4552433732313a207472616e7366657220746f20746865207a65726f2061646460008201527f7265737300000000000000000000000000000000000000000000000000000000602082015250565b600061381360248361243f565b915061381e826137b7565b604082019050919050565b6000602082019050818103600083015261384281613806565b9050919050565b60006138548261251b565b915061385f8361251b565b92508282101561387257613871613406565b5b828203905092915050565b60006138888261251b565b91506138938361251b565b9250827fffffffffffffffffffffffffffffffffffffffffffffffffffffffffffffffff038211156138c8576138c7613406565b5b828201905092915050565b7f4552433732313a20617070726f766520746f2063616c6c657200000000000000600082015250565b600061390960198361243f565b9150613914826138d3565b602082019050919050565b60006020820190508181036000830152613938816138fc565b9050919050565b7f4552433732313a207472616e7366657220746f206e6f6e20455243373231526560008201527f63656976657220696d706c656d656e7465720000000000000000000000000000602082015250565b600061399b60328361243f565b91506139a68261393f565b604082019050919050565b600060208201905081810360008301526139ca8161398e565b9050919050565b7f4e487b7100000000000000000000000000000000000000000000000000000000600052601260045260246000fd5b6000613a0b8261251b565b9150613a168361251b565b925082613a2657613a256139d1565b5b828204905092915050565b6000613a3c8261251b565b9150613a478361251b565b925082613a5757613a566139d1565b5b828206905092915050565b600081519050919050565b600082825260208201905092915050565b6000613a8982613a62565b613a938185613a6d565b9350613aa3818560208601612450565b613aac81612483565b840191505092915050565b6000608082019050613acc6000830187612881565b613ad96020830186612881565b613ae66040830185612a68565b8181036060830152613af88184613a7e565b905095945050505050565b600081519050613b12816123a5565b92915050565b600060208284031215613b2e57613b2d61236f565b5b6000613b3c84828501613b03565b91505092915050565b7f4552433732313a206d696e7420746f20746865207a65726f2061646472657373600082015250565b6000613b7b60208361243f565b9150613b8682613b45565b602082019050919050565b60006020820190508181036000830152613baa81613b6e565b9050919050565b7f4552433732313a20746f6b656e20616c7265616479206d696e74656400000000600082015250565b6000613be7601c8361243f565b9150613bf282613bb1565b602082019050919050565b60006020820190508181036000830152613c1681613bda565b905091905056fea2646970667358221220831f85f33dfaf77f2e6b446ddb9bfc89da0cd466f6ec4c69dc832a0f512b017664736f6c634300080e0033",
  "immutableReferences": {},
  "source": "// SPDX-License-Identifier: UNLICENCED\npragma solidity >=0.4.22 <0.9.0;\n\nimport \"./DroneNFT.sol\";\n\ncontract Drone is DroneNFT {\n    function getDronesByOwner(address _owner)\n        external\n        view\n        returns (uint256[] memory)\n    {\n        uint256 droneBalance = balanceOf(_owner);\n        uint256[] memory result = new uint256[](droneBalance);\n        uint256 counter = 0;\n        for (uint256 i = 0; i < drones.length; i++) {\n            if (ownerOf(i) == _owner) {\n                result[counter] = i;\n                counter++;\n            }\n        }\n        return result;\n    }\n\n    function getDrones() external view returns (Drone[] memory) {\n        return drones;\n    }\n\n    function getDrone(uint256 _index) external view returns (Drone memory) {\n        return drones[_index];\n    }\n}\n",
  "sourcePath": "/home/sergio/Documentos/sergio/projects/drones/smartcontracts/contracts/Drone.sol",
  "compiler": {
    "name": "solc",
    "version": "0.8.14+commit.80d49f37.Emscripten.clang"
  },
  "schemaVersion": "3.4.7",
  "updatedAt": "2022-07-03T19:20:10.501Z",
  "networkType": "ethereum",
  "devdoc": {
    "kind": "dev",
    "methods": {
      "approve(address,uint256)": {
        "details": "See {IERC721-approve}."
      },
      "balanceOf(address)": {
        "details": "See {IERC721-balanceOf}."
      },
      "getApproved(uint256)": {
        "details": "See {IERC721-getApproved}."
      },
      "isApprovedForAll(address,address)": {
        "details": "See {IERC721-isApprovedForAll}."
      },
      "name()": {
        "details": "See {IERC721Metadata-name}."
      },
      "ownerOf(uint256)": {
        "details": "See {IERC721-ownerOf}."
      },
      "safeTransferFrom(address,address,uint256)": {
        "details": "See {IERC721-safeTransferFrom}."
      },
      "safeTransferFrom(address,address,uint256,bytes)": {
        "details": "See {IERC721-safeTransferFrom}."
      },
      "setApprovalForAll(address,bool)": {
        "details": "See {IERC721-setApprovalForAll}."
      },
      "supportsInterface(bytes4)": {
        "details": "See {IERC165-supportsInterface}."
      },
      "symbol()": {
        "details": "See {IERC721Metadata-symbol}."
      },
      "tokenURI(uint256)": {
        "details": "See {IERC721Metadata-tokenURI}."
      },
      "transferFrom(address,address,uint256)": {
        "details": "See {IERC721-transferFrom}."
      }
    },
    "version": 1
  },
  "userdoc": {
    "kind": "user",
    "methods": {},
    "version": 1
  }
}