{
  "contractName": "Drone",
  "abi": [
    {
      "anonymous": false,
      "inputs": [
        {
          "indexed": true,
          "internalType": "address",
          "name": "owner",
          "type": "address"
        },
        {
          "indexed": true,
          "internalType": "address",
          "name": "approved",
          "type": "address"
        },
        {
          "indexed": true,
          "internalType": "uint256",
          "name": "tokenId",
          "type": "uint256"
        }
      ],
      "name": "Approval",
      "type": "event"
    },
    {
      "anonymous": false,
      "inputs": [
        {
          "indexed": true,
          "internalType": "address",
          "name": "owner",
          "type": "address"
        },
        {
          "indexed": true,
          "internalType": "address",
          "name": "operator",
          "type": "address"
        },
        {
          "indexed": false,
          "internalType": "bool",
          "name": "approved",
          "type": "bool"
        }
      ],
      "name": "ApprovalForAll",
      "type": "event"
    },
    {
      "anonymous": false,
      "inputs": [
        {
          "indexed": false,
          "internalType": "uint256",
          "name": "id",
          "type": "uint256"
        }
      ],
      "name": "NewDroneCreated",
      "type": "event"
    },
    {
      "anonymous": false,
      "inputs": [
        {
          "indexed": true,
          "internalType": "address",
          "name": "from",
          "type": "address"
        },
        {
          "indexed": true,
          "internalType": "address",
          "name": "to",
          "type": "address"
        },
        {
          "indexed": true,
          "internalType": "uint256",
          "name": "tokenId",
          "type": "uint256"
        }
      ],
      "name": "Transfer",
      "type": "event"
    },
    {
      "inputs": [
        {
          "internalType": "address",
          "name": "to",
          "type": "address"
        },
        {
          "internalType": "uint256",
          "name": "tokenId",
          "type": "uint256"
        }
      ],
      "name": "approve",
      "outputs": [],
      "stateMutability": "nonpayable",
      "type": "function"
    },
    {
      "inputs": [
        {
          "internalType": "address",
          "name": "owner",
          "type": "address"
        }
      ],
      "name": "balanceOf",
      "outputs": [
        {
          "internalType": "uint256",
          "name": "",
          "type": "uint256"
        }
      ],
      "stateMutability": "view",
      "type": "function",
      "constant": true
    },
    {
      "inputs": [
        {
          "internalType": "uint256",
          "name": "",
          "type": "uint256"
        }
      ],
      "name": "drones",
      "outputs": [
        {
          "internalType": "uint256",
          "name": "id",
          "type": "uint256"
        },
        {
          "internalType": "string",
          "name": "ownerName",
          "type": "string"
        },
        {
          "internalType": "string",
          "name": "model",
          "type": "string"
        },
        {
          "internalType": "uint256",
          "name": "maxFlightAltitude",
          "type": "uint256"
        },
        {
          "internalType": "uint256",
          "name": "minFlightAltitude",
          "type": "uint256"
        },
        {
          "internalType": "uint256",
          "name": "cost",
          "type": "uint256"
        },
        {
          "internalType": "address",
          "name": "owner",
          "type": "address"
        }
      ],
      "stateMutability": "view",
      "type": "function",
      "constant": true
    },
    {
      "inputs": [
        {
          "internalType": "uint256",
          "name": "tokenId",
          "type": "uint256"
        }
      ],
      "name": "getApproved",
      "outputs": [
        {
          "internalType": "address",
          "name": "",
          "type": "address"
        }
      ],
      "stateMutability": "view",
      "type": "function",
      "constant": true
    },
    {
      "inputs": [
        {
          "internalType": "address",
          "name": "owner",
          "type": "address"
        },
        {
          "internalType": "address",
          "name": "operator",
          "type": "address"
        }
      ],
      "name": "isApprovedForAll",
      "outputs": [
        {
          "internalType": "bool",
          "name": "",
          "type": "bool"
        }
      ],
      "stateMutability": "view",
      "type": "function",
      "constant": true
    },
    {
      "inputs": [
        {
          "internalType": "string",
          "name": "_ownerName",
          "type": "string"
        },
        {
          "internalType": "string",
          "name": "_model",
          "type": "string"
        },
        {
          "internalType": "uint256",
          "name": "_maxFlightAltitude",
          "type": "uint256"
        },
        {
          "internalType": "uint256",
          "name": "_minFlightAltitude",
          "type": "uint256"
        },
        {
          "internalType": "string[]",
          "name": "_pesticides",
          "type": "string[]"
        },
        {
          "internalType": "uint256",
          "name": "_cost",
          "type": "uint256"
        }
      ],
      "name": "mintNewDrone",
      "outputs": [],
      "stateMutability": "nonpayable",
      "type": "function"
    },
    {
      "inputs": [],
      "name": "name",
      "outputs": [
        {
          "internalType": "string",
          "name": "",
          "type": "string"
        }
      ],
      "stateMutability": "view",
      "type": "function",
      "constant": true
    },
    {
      "inputs": [
        {
          "internalType": "uint256",
          "name": "tokenId",
          "type": "uint256"
        }
      ],
      "name": "ownerOf",
      "outputs": [
        {
          "internalType": "address",
          "name": "",
          "type": "address"
        }
      ],
      "stateMutability": "view",
      "type": "function",
      "constant": true
    },
    {
      "inputs": [
        {
          "internalType": "address",
          "name": "from",
          "type": "address"
        },
        {
          "internalType": "address",
          "name": "to",
          "type": "address"
        },
        {
          "internalType": "uint256",
          "name": "tokenId",
          "type": "uint256"
        }
      ],
      "name": "safeTransferFrom",
      "outputs": [],
      "stateMutability": "nonpayable",
      "type": "function"
    },
    {
      "inputs": [
        {
          "internalType": "address",
          "name": "from",
          "type": "address"
        },
        {
          "internalType": "address",
          "name": "to",
          "type": "address"
        },
        {
          "internalType": "uint256",
          "name": "tokenId",
          "type": "uint256"
        },
        {
          "internalType": "bytes",
          "name": "_data",
          "type": "bytes"
        }
      ],
      "name": "safeTransferFrom",
      "outputs": [],
      "stateMutability": "nonpayable",
      "type": "function"
    },
    {
      "inputs": [
        {
          "internalType": "address",
          "name": "operator",
          "type": "address"
        },
        {
          "internalType": "bool",
          "name": "approved",
          "type": "bool"
        }
      ],
      "name": "setApprovalForAll",
      "outputs": [],
      "stateMutability": "nonpayable",
      "type": "function"
    },
    {
      "inputs": [
        {
          "internalType": "bytes4",
          "name": "interfaceId",
          "type": "bytes4"
        }
      ],
      "name": "supportsInterface",
      "outputs": [
        {
          "internalType": "bool",
          "name": "",
          "type": "bool"
        }
      ],
      "stateMutability": "view",
      "type": "function",
      "constant": true
    },
    {
      "inputs": [],
      "name": "symbol",
      "outputs": [
        {
          "internalType": "string",
          "name": "",
          "type": "string"
        }
      ],
      "stateMutability": "view",
      "type": "function",
      "constant": true
    },
    {
      "inputs": [
        {
          "internalType": "uint256",
          "name": "tokenId",
          "type": "uint256"
        }
      ],
      "name": "tokenURI",
      "outputs": [
        {
          "internalType": "string",
          "name": "",
          "type": "string"
        }
      ],
      "stateMutability": "view",
      "type": "function",
      "constant": true
    },
    {
      "inputs": [
        {
          "internalType": "address",
          "name": "from",
          "type": "address"
        },
        {
          "internalType": "address",
          "name": "to",
          "type": "address"
        },
        {
          "internalType": "uint256",
          "name": "tokenId",
          "type": "uint256"
        }
      ],
      "name": "transferFrom",
      "outputs": [],
      "stateMutability": "nonpayable",
      "type": "function"
    },
    {
      "inputs": [
        {
          "internalType": "address",
          "name": "_owner",
          "type": "address"
        }
      ],
      "name": "getDronesByOwner",
      "outputs": [
        {
          "internalType": "uint256[]",
          "name": "",
          "type": "uint256[]"
        }
      ],
      "stateMutability": "view",
      "type": "function",
      "constant": true
    },
    {
      "inputs": [],
      "name": "getDrones",
      "outputs": [
        {
          "components": [
            {
              "internalType": "uint256",
              "name": "id",
              "type": "uint256"
            },
            {
              "internalType": "string",
              "name": "ownerName",
              "type": "string"
            },
            {
              "internalType": "string",
              "name": "model",
              "type": "string"
            },
            {
              "internalType": "uint256",
              "name": "maxFlightAltitude",
              "type": "uint256"
            },
            {
              "internalType": "uint256",
              "name": "minFlightAltitude",
              "type": "uint256"
            },
            {
              "internalType": "string[]",
              "name": "pesticides",
              "type": "string[]"
            },
            {
              "internalType": "uint256",
              "name": "cost",
              "type": "uint256"
            },
            {
              "internalType": "address",
              "name": "owner",
              "type": "address"
            }
          ],
          "internalType": "struct DroneModel.Drone[]",
          "name": "",
          "type": "tuple[]"
        }
      ],
      "stateMutability": "view",
      "type": "function",
      "constant": true
    },
    {
      "inputs": [
        {
          "internalType": "uint256",
          "name": "_index",
          "type": "uint256"
        }
      ],
      "name": "getDrone",
      "outputs": [
        {
          "components": [
            {
              "internalType": "uint256",
              "name": "id",
              "type": "uint256"
            },
            {
              "internalType": "string",
              "name": "ownerName",
              "type": "string"
            },
            {
              "internalType": "string",
              "name": "model",
              "type": "string"
            },
            {
              "internalType": "uint256",
              "name": "maxFlightAltitude",
              "type": "uint256"
            },
            {
              "internalType": "uint256",
              "name": "minFlightAltitude",
              "type": "uint256"
            },
            {
              "internalType": "string[]",
              "name": "pesticides",
              "type": "string[]"
            },
            {
              "internalType": "uint256",
              "name": "cost",
              "type": "uint256"
            },
            {
              "internalType": "address",
              "name": "owner",
              "type": "address"
            }
          ],
          "internalType": "struct DroneModel.Drone",
          "name": "",
          "type": "tuple"
        }
      ],
      "stateMutability": "view",
      "type": "function",
      "constant": true
    }
  ],
  "bytecode": "0x60806040523480156200001157600080fd5b506040518060400160405280600581526020017f44726f6e650000000000000000000000000000000000000000000000000000008152506040518060400160405280600381526020017f44524e0000000000000000000000000000000000000000000000000000000000815250816000908051906020019062000096929190620000b8565b508060019080519060200190620000af929190620000b8565b505050620001cc565b828054620000c69062000197565b90600052602060002090601f016020900481019282620000ea576000855562000136565b82601f106200010557805160ff191683800117855562000136565b8280016001018555821562000136579182015b828111156200013557825182559160200191906001019062000118565b5b50905062000145919062000149565b5090565b5b80821115620001645760008160009055506001016200014a565b5090565b7f4e487b7100000000000000000000000000000000000000000000000000000000600052602260045260246000fd5b60006002820490506001821680620001b057607f821691505b602082108103620001c657620001c562000168565b5b50919050565b613b2a80620001dc6000396000f3fe608060405234801561001057600080fd5b50600436106101165760003560e01c80636352211e116100a2578063a22cb46511610071578063a22cb4651461030b578063b88d4fde14610327578063c87b56dd14610343578063dbd1be7714610373578063e985e9c5146103a357610116565b80636352211e1461025757806370a08231146102875780639341bc00146102b757806395d89b41146102ed57610116565b8063095ea7b3116100e9578063095ea7b3146101b757806323b872dd146101d35780633c15901e146101ef57806342842e0e1461021f5780634b1200b61461023b57610116565b806301ffc9a71461011b57806306fdde031461014b57806307d5ebf514610169578063081812fc14610187575b600080fd5b6101356004803603810190610130919061234d565b6103d3565b6040516101429190612395565b60405180910390f35b6101536104b5565b6040516101609190612449565b60405180910390f35b610171610547565b60405161017e9190612751565b60405180910390f35b6101a1600480360381019061019c919061279f565b610822565b6040516101ae91906127db565b60405180910390f35b6101d160048036038101906101cc9190612822565b6108a7565b005b6101ed60048036038101906101e89190612862565b6109be565b005b610209600480360381019061020491906128b5565b610a1e565b6040516102169190612991565b60405180910390f35b61023960048036038101906102349190612862565b610b14565b005b61025560048036038101906102509190612bce565b610b34565b005b610271600480360381019061026c919061279f565b610c97565b60405161027e91906127db565b60405180910390f35b6102a1600480360381019061029c91906128b5565b610d48565b6040516102ae9190612cbe565b60405180910390f35b6102d160048036038101906102cc919061279f565b610dff565b6040516102e49796959493929190612cd9565b60405180910390f35b6102f5610f81565b6040516103029190612449565b60405180910390f35b61032560048036038101906103209190612d82565b611013565b005b610341600480360381019061033c9190612e63565b611029565b005b61035d6004803603810190610358919061279f565b61108b565b60405161036a9190612449565b60405180910390f35b61038d6004803603810190610388919061279f565b611132565b60405161039a9190612fa4565b60405180910390f35b6103bd60048036038101906103b89190612fc6565b6113ea565b6040516103ca9190612395565b60405180910390f35b60007f80ac58cd000000000000000000000000000000000000000000000000000000007bffffffffffffffffffffffffffffffffffffffffffffffffffffffff1916827bffffffffffffffffffffffffffffffffffffffffffffffffffffffff1916148061049e57507f5b5e139f000000000000000000000000000000000000000000000000000000007bffffffffffffffffffffffffffffffffffffffffffffffffffffffff1916827bffffffffffffffffffffffffffffffffffffffffffffffffffffffff1916145b806104ae57506104ad8261147e565b5b9050919050565b6060600080546104c490613035565b80601f01602080910402602001604051908101604052809291908181526020018280546104f090613035565b801561053d5780601f106105125761010080835404028352916020019161053d565b820191906000526020600020905b81548152906001019060200180831161052057829003601f168201915b5050505050905090565b60606007805480602002602001604051908101604052809291908181526020016000905b82821015610819578382906000526020600020906008020160405180610100016040529081600082015481526020016001820180546105a990613035565b80601f01602080910402602001604051908101604052809291908181526020018280546105d590613035565b80156106225780601f106105f757610100808354040283529160200191610622565b820191906000526020600020905b81548152906001019060200180831161060557829003601f168201915b5050505050815260200160028201805461063b90613035565b80601f016020809104026020016040519081016040528092919081815260200182805461066790613035565b80156106b45780601f10610689576101008083540402835291602001916106b4565b820191906000526020600020905b81548152906001019060200180831161069757829003601f168201915b50505050508152602001600382015481526020016004820154815260200160058201805480602002602001604051908101604052809291908181526020016000905b828210156107a257838290600052602060002001805461071590613035565b80601f016020809104026020016040519081016040528092919081815260200182805461074190613035565b801561078e5780601f106107635761010080835404028352916020019161078e565b820191906000526020600020905b81548152906001019060200180831161077157829003601f168201915b5050505050815260200190600101906106f6565b505050508152602001600682015481526020016007820160009054906101000a900473ffffffffffffffffffffffffffffffffffffffff1673ffffffffffffffffffffffffffffffffffffffff1673ffffffffffffffffffffffffffffffffffffffff16815250508152602001906001019061056b565b50505050905090565b600061082d826114e8565b61086c576040517f08c379a0000000000000000000000000000000000000000000000000000000008152600401610863906130d8565b60405180910390fd5b6004600083815260200190815260200160002060009054906101000a900473ffffffffffffffffffffffffffffffffffffffff169050919050565b60006108b282610c97565b90508073ffffffffffffffffffffffffffffffffffffffff168373ffffffffffffffffffffffffffffffffffffffff1603610922576040517f08c379a00000000000000000000000000000000000000000000000000000000081526004016109199061316a565b60405180910390fd5b8073ffffffffffffffffffffffffffffffffffffffff16610941611554565b73ffffffffffffffffffffffffffffffffffffffff161480610970575061096f8161096a611554565b6113ea565b5b6109af576040517f08c379a00000000000000000000000000000000000000000000000000000000081526004016109a6906131fc565b60405180910390fd5b6109b9838361155c565b505050565b6109cf6109c9611554565b82611615565b610a0e576040517f08c379a0000000000000000000000000000000000000000000000000000000008152600401610a059061328e565b60405180910390fd5b610a198383836116f3565b505050565b60606000610a2b83610d48565b905060008167ffffffffffffffff811115610a4957610a486129bd565b5b604051908082528060200260200182016040528015610a775781602001602082028036833780820191505090505b5090506000805b600780549050811015610b08578573ffffffffffffffffffffffffffffffffffffffff16610aab82610c97565b73ffffffffffffffffffffffffffffffffffffffff1603610af55780838381518110610ada57610ad96132ae565b5b6020026020010181815250508180610af19061330c565b9250505b8080610b009061330c565b915050610a7e565b50819350505050919050565b610b2f83838360405180602001604052806000815250611029565b505050565b60003390506007604051806101000160405280610b516006611959565b81526020018981526020018881526020018781526020018681526020018581526020018481526020018373ffffffffffffffffffffffffffffffffffffffff168152509080600181540180825580915050600190039060005260206000209060080201600090919091909150600082015181600001556020820151816001019080519060200190610be392919061211f565b506040820151816002019080519060200190610c0092919061211f565b50606082015181600301556080820151816004015560a0820151816005019080519060200190610c319291906121a5565b5060c0820151816006015560e08201518160070160006101000a81548173ffffffffffffffffffffffffffffffffffffffff021916908373ffffffffffffffffffffffffffffffffffffffff1602179055505050610c8e81611967565b50505050505050565b6000806002600084815260200190815260200160002060009054906101000a900473ffffffffffffffffffffffffffffffffffffffff169050600073ffffffffffffffffffffffffffffffffffffffff168173ffffffffffffffffffffffffffffffffffffffff1603610d3f576040517f08c379a0000000000000000000000000000000000000000000000000000000008152600401610d36906133c6565b60405180910390fd5b80915050919050565b60008073ffffffffffffffffffffffffffffffffffffffff168273ffffffffffffffffffffffffffffffffffffffff1603610db8576040517f08c379a0000000000000000000000000000000000000000000000000000000008152600401610daf90613458565b60405180910390fd5b600360008373ffffffffffffffffffffffffffffffffffffffff1673ffffffffffffffffffffffffffffffffffffffff168152602001908152602001600020549050919050565b60078181548110610e0f57600080fd5b9060005260206000209060080201600091509050806000015490806001018054610e3890613035565b80601f0160208091040260200160405190810160405280929190818152602001828054610e6490613035565b8015610eb15780601f10610e8657610100808354040283529160200191610eb1565b820191906000526020600020905b815481529060010190602001808311610e9457829003601f168201915b505050505090806002018054610ec690613035565b80601f0160208091040260200160405190810160405280929190818152602001828054610ef290613035565b8015610f3f5780601f10610f1457610100808354040283529160200191610f3f565b820191906000526020600020905b815481529060010190602001808311610f2257829003601f168201915b5050505050908060030154908060040154908060060154908060070160009054906101000a900473ffffffffffffffffffffffffffffffffffffffff16905087565b606060018054610f9090613035565b80601f0160208091040260200160405190810160405280929190818152602001828054610fbc90613035565b80156110095780601f10610fde57610100808354040283529160200191611009565b820191906000526020600020905b815481529060010190602001808311610fec57829003601f168201915b5050505050905090565b61102561101e611554565b83836119c4565b5050565b61103a611034611554565b83611615565b611079576040517f08c379a00000000000000000000000000000000000000000000000000000000081526004016110709061328e565b60405180910390fd5b61108584848484611b30565b50505050565b6060611096826114e8565b6110d5576040517f08c379a00000000000000000000000000000000000000000000000000000000081526004016110cc906134ea565b60405180910390fd5b60006110df611b8c565b905060008151116110ff576040518060200160405280600081525061112a565b8061110984611ba3565b60405160200161111a929190613546565b6040516020818303038152906040525b915050919050565b61113a612205565b6007828154811061114e5761114d6132ae565b5b9060005260206000209060080201604051806101000160405290816000820154815260200160018201805461118290613035565b80601f01602080910402602001604051908101604052809291908181526020018280546111ae90613035565b80156111fb5780601f106111d0576101008083540402835291602001916111fb565b820191906000526020600020905b8154815290600101906020018083116111de57829003601f168201915b5050505050815260200160028201805461121490613035565b80601f016020809104026020016040519081016040528092919081815260200182805461124090613035565b801561128d5780601f106112625761010080835404028352916020019161128d565b820191906000526020600020905b81548152906001019060200180831161127057829003601f168201915b50505050508152602001600382015481526020016004820154815260200160058201805480602002602001604051908101604052809291908181526020016000905b8282101561137b5783829060005260206000200180546112ee90613035565b80601f016020809104026020016040519081016040528092919081815260200182805461131a90613035565b80156113675780601f1061133c57610100808354040283529160200191611367565b820191906000526020600020905b81548152906001019060200180831161134a57829003601f168201915b5050505050815260200190600101906112cf565b505050508152602001600682015481526020016007820160009054906101000a900473ffffffffffffffffffffffffffffffffffffffff1673ffffffffffffffffffffffffffffffffffffffff1673ffffffffffffffffffffffffffffffffffffffff16815250509050919050565b6000600560008473ffffffffffffffffffffffffffffffffffffffff1673ffffffffffffffffffffffffffffffffffffffff16815260200190815260200160002060008373ffffffffffffffffffffffffffffffffffffffff1673ffffffffffffffffffffffffffffffffffffffff16815260200190815260200160002060009054906101000a900460ff16905092915050565b60007f01ffc9a7000000000000000000000000000000000000000000000000000000007bffffffffffffffffffffffffffffffffffffffffffffffffffffffff1916827bffffffffffffffffffffffffffffffffffffffffffffffffffffffff1916149050919050565b60008073ffffffffffffffffffffffffffffffffffffffff166002600084815260200190815260200160002060009054906101000a900473ffffffffffffffffffffffffffffffffffffffff1673ffffffffffffffffffffffffffffffffffffffff1614159050919050565b600033905090565b816004600083815260200190815260200160002060006101000a81548173ffffffffffffffffffffffffffffffffffffffff021916908373ffffffffffffffffffffffffffffffffffffffff160217905550808273ffffffffffffffffffffffffffffffffffffffff166115cf83610c97565b73ffffffffffffffffffffffffffffffffffffffff167f8c5be1e5ebec7d5bd14f71427d1e84f3dd0314c0f7b2291e5b200ac8c7c3b92560405160405180910390a45050565b6000611620826114e8565b61165f576040517f08c379a0000000000000000000000000000000000000000000000000000000008152600401611656906135dc565b60405180910390fd5b600061166a83610c97565b90508073ffffffffffffffffffffffffffffffffffffffff168473ffffffffffffffffffffffffffffffffffffffff1614806116ac57506116ab81856113ea565b5b806116ea57508373ffffffffffffffffffffffffffffffffffffffff166116d284610822565b73ffffffffffffffffffffffffffffffffffffffff16145b91505092915050565b8273ffffffffffffffffffffffffffffffffffffffff1661171382610c97565b73ffffffffffffffffffffffffffffffffffffffff1614611769576040517f08c379a00000000000000000000000000000000000000000000000000000000081526004016117609061366e565b60405180910390fd5b600073ffffffffffffffffffffffffffffffffffffffff168273ffffffffffffffffffffffffffffffffffffffff16036117d8576040517f08c379a00000000000000000000000000000000000000000000000000000000081526004016117cf90613700565b60405180910390fd5b6117e3838383611d03565b6117ee60008261155c565b6001600360008573ffffffffffffffffffffffffffffffffffffffff1673ffffffffffffffffffffffffffffffffffffffff168152602001908152602001600020600082825461183e9190613720565b925050819055506001600360008473ffffffffffffffffffffffffffffffffffffffff1673ffffffffffffffffffffffffffffffffffffffff16815260200190815260200160002060008282546118959190613754565b92505081905550816002600083815260200190815260200160002060006101000a81548173ffffffffffffffffffffffffffffffffffffffff021916908373ffffffffffffffffffffffffffffffffffffffff160217905550808273ffffffffffffffffffffffffffffffffffffffff168473ffffffffffffffffffffffffffffffffffffffff167fddf252ad1be2c89b69c2b068fc378daa952ba7f163c4a11628f55a4df523b3ef60405160405180910390a4611954838383611d08565b505050565b600081600001549050919050565b60006119736006611959565b905061197f8282611d0d565b6119896006611d2b565b7f564ba5ec5742b2e6afc952e92235671c7a1959fe20648c59ded66c2721509544816040516119b89190612cbe565b60405180910390a15050565b8173ffffffffffffffffffffffffffffffffffffffff168373ffffffffffffffffffffffffffffffffffffffff1603611a32576040517f08c379a0000000000000000000000000000000000000000000000000000000008152600401611a29906137f6565b60405180910390fd5b80600560008573ffffffffffffffffffffffffffffffffffffffff1673ffffffffffffffffffffffffffffffffffffffff16815260200190815260200160002060008473ffffffffffffffffffffffffffffffffffffffff1673ffffffffffffffffffffffffffffffffffffffff16815260200190815260200160002060006101000a81548160ff0219169083151502179055508173ffffffffffffffffffffffffffffffffffffffff168373ffffffffffffffffffffffffffffffffffffffff167f17307eab39ab6107e8899845ad3d59bd9653f200f220920489ca2b5937696c3183604051611b239190612395565b60405180910390a3505050565b611b3b8484846116f3565b611b4784848484611d41565b611b86576040517f08c379a0000000000000000000000000000000000000000000000000000000008152600401611b7d90613888565b60405180910390fd5b50505050565b606060405180602001604052806000815250905090565b606060008203611bea576040518060400160405280600181526020017f30000000000000000000000000000000000000000000000000000000000000008152509050611cfe565b600082905060005b60008214611c1c578080611c059061330c565b915050600a82611c1591906138d7565b9150611bf2565b60008167ffffffffffffffff811115611c3857611c376129bd565b5b6040519080825280601f01601f191660200182016040528015611c6a5781602001600182028036833780820191505090505b5090505b60008514611cf757600182611c839190613720565b9150600a85611c929190613908565b6030611c9e9190613754565b60f81b818381518110611cb457611cb36132ae565b5b60200101907effffffffffffffffffffffffffffffffffffffffffffffffffffffffffffff1916908160001a905350600a85611cf091906138d7565b9450611c6e565b8093505050505b919050565b505050565b505050565b611d27828260405180602001604052806000815250611ec8565b5050565b6001816000016000828254019250508190555050565b6000611d628473ffffffffffffffffffffffffffffffffffffffff16611f23565b15611ebb578373ffffffffffffffffffffffffffffffffffffffff1663150b7a02611d8b611554565b8786866040518563ffffffff1660e01b8152600401611dad949392919061398e565b6020604051808303816000875af1925050508015611de957506040513d601f19601f82011682018060405250810190611de691906139ef565b60015b611e6b573d8060008114611e19576040519150601f19603f3d011682016040523d82523d6000602084013e611e1e565b606091505b506000815103611e63576040517f08c379a0000000000000000000000000000000000000000000000000000000008152600401611e5a90613888565b60405180910390fd5b805181602001fd5b63150b7a0260e01b7bffffffffffffffffffffffffffffffffffffffffffffffffffffffff1916817bffffffffffffffffffffffffffffffffffffffffffffffffffffffff191614915050611ec0565b600190505b949350505050565b611ed28383611f46565b611edf6000848484611d41565b611f1e576040517f08c379a0000000000000000000000000000000000000000000000000000000008152600401611f1590613888565b60405180910390fd5b505050565b6000808273ffffffffffffffffffffffffffffffffffffffff163b119050919050565b600073ffffffffffffffffffffffffffffffffffffffff168273ffffffffffffffffffffffffffffffffffffffff1603611fb5576040517f08c379a0000000000000000000000000000000000000000000000000000000008152600401611fac90613a68565b60405180910390fd5b611fbe816114e8565b15611ffe576040517f08c379a0000000000000000000000000000000000000000000000000000000008152600401611ff590613ad4565b60405180910390fd5b61200a60008383611d03565b6001600360008473ffffffffffffffffffffffffffffffffffffffff1673ffffffffffffffffffffffffffffffffffffffff168152602001908152602001600020600082825461205a9190613754565b92505081905550816002600083815260200190815260200160002060006101000a81548173ffffffffffffffffffffffffffffffffffffffff021916908373ffffffffffffffffffffffffffffffffffffffff160217905550808273ffffffffffffffffffffffffffffffffffffffff16600073ffffffffffffffffffffffffffffffffffffffff167fddf252ad1be2c89b69c2b068fc378daa952ba7f163c4a11628f55a4df523b3ef60405160405180910390a461211b60008383611d08565b5050565b82805461212b90613035565b90600052602060002090601f01602090048101928261214d5760008555612194565b82601f1061216657805160ff1916838001178555612194565b82800160010185558215612194579182015b82811115612193578251825591602001919060010190612178565b5b5090506121a19190612260565b5090565b8280548282559060005260206000209081019282156121f4579160200282015b828111156121f35782518290805190602001906121e392919061211f565b50916020019190600101906121c5565b5b509050612201919061227d565b5090565b60405180610100016040528060008152602001606081526020016060815260200160008152602001600081526020016060815260200160008152602001600073ffffffffffffffffffffffffffffffffffffffff1681525090565b5b80821115612279576000816000905550600101612261565b5090565b5b8082111561229d576000818161229491906122a1565b5060010161227e565b5090565b5080546122ad90613035565b6000825580601f106122bf57506122de565b601f0160209004906000526020600020908101906122dd9190612260565b5b50565b6000604051905090565b600080fd5b600080fd5b60007fffffffff0000000000000000000000000000000000000000000000000000000082169050919050565b61232a816122f5565b811461233557600080fd5b50565b60008135905061234781612321565b92915050565b600060208284031215612363576123626122eb565b5b600061237184828501612338565b91505092915050565b60008115159050919050565b61238f8161237a565b82525050565b60006020820190506123aa6000830184612386565b92915050565b600081519050919050565b600082825260208201905092915050565b60005b838110156123ea5780820151818401526020810190506123cf565b838111156123f9576000848401525b50505050565b6000601f19601f8301169050919050565b600061241b826123b0565b61242581856123bb565b93506124358185602086016123cc565b61243e816123ff565b840191505092915050565b600060208201905081810360008301526124638184612410565b905092915050565b600081519050919050565b600082825260208201905092915050565b6000819050602082019050919050565b6000819050919050565b6124aa81612497565b82525050565b600082825260208201905092915050565b60006124cc826123b0565b6124d681856124b0565b93506124e68185602086016123cc565b6124ef816123ff565b840191505092915050565b600081519050919050565b600082825260208201905092915050565b6000819050602082019050919050565b600061253283836124c1565b905092915050565b6000602082019050919050565b6000612552826124fa565b61255c8185612505565b93508360208202850161256e85612516565b8060005b858110156125aa578484038952815161258b8582612526565b94506125968361253a565b925060208a01995050600181019050612572565b50829750879550505050505092915050565b600073ffffffffffffffffffffffffffffffffffffffff82169050919050565b60006125e7826125bc565b9050919050565b6125f7816125dc565b82525050565b60006101008301600083015161261660008601826124a1565b506020830151848203602086015261262e82826124c1565b9150506040830151848203604086015261264882826124c1565b915050606083015161265d60608601826124a1565b50608083015161267060808601826124a1565b5060a083015184820360a08601526126888282612547565b91505060c083015161269d60c08601826124a1565b5060e08301516126b060e08601826125ee565b508091505092915050565b60006126c783836125fd565b905092915050565b6000602082019050919050565b60006126e78261246b565b6126f18185612476565b93508360208202850161270385612487565b8060005b8581101561273f578484038952815161272085826126bb565b945061272b836126cf565b925060208a01995050600181019050612707565b50829750879550505050505092915050565b6000602082019050818103600083015261276b81846126dc565b905092915050565b61277c81612497565b811461278757600080fd5b50565b60008135905061279981612773565b92915050565b6000602082840312156127b5576127b46122eb565b5b60006127c38482850161278a565b91505092915050565b6127d5816125dc565b82525050565b60006020820190506127f060008301846127cc565b92915050565b6127ff816125dc565b811461280a57600080fd5b50565b60008135905061281c816127f6565b92915050565b60008060408385031215612839576128386122eb565b5b60006128478582860161280d565b92505060206128588582860161278a565b9150509250929050565b60008060006060848603121561287b5761287a6122eb565b5b60006128898682870161280d565b935050602061289a8682870161280d565b92505060406128ab8682870161278a565b9150509250925092565b6000602082840312156128cb576128ca6122eb565b5b60006128d98482850161280d565b91505092915050565b600081519050919050565b600082825260208201905092915050565b6000819050602082019050919050565b600061291a83836124a1565b60208301905092915050565b6000602082019050919050565b600061293e826128e2565b61294881856128ed565b9350612953836128fe565b8060005b8381101561298457815161296b888261290e565b975061297683612926565b925050600181019050612957565b5085935050505092915050565b600060208201905081810360008301526129ab8184612933565b905092915050565b600080fd5b600080fd5b7f4e487b7100000000000000000000000000000000000000000000000000000000600052604160045260246000fd5b6129f5826123ff565b810181811067ffffffffffffffff82111715612a1457612a136129bd565b5b80604052505050565b6000612a276122e1565b9050612a3382826129ec565b919050565b600067ffffffffffffffff821115612a5357612a526129bd565b5b612a5c826123ff565b9050602081019050919050565b82818337600083830152505050565b6000612a8b612a8684612a38565b612a1d565b905082815260208101848484011115612aa757612aa66129b8565b5b612ab2848285612a69565b509392505050565b600082601f830112612acf57612ace6129b3565b5b8135612adf848260208601612a78565b91505092915050565b600067ffffffffffffffff821115612b0357612b026129bd565b5b602082029050602081019050919050565b600080fd5b6000612b2c612b2784612ae8565b612a1d565b90508083825260208201905060208402830185811115612b4f57612b4e612b14565b5b835b81811015612b9657803567ffffffffffffffff811115612b7457612b736129b3565b5b808601612b818982612aba565b85526020850194505050602081019050612b51565b5050509392505050565b600082601f830112612bb557612bb46129b3565b5b8135612bc5848260208601612b19565b91505092915050565b60008060008060008060c08789031215612beb57612bea6122eb565b5b600087013567ffffffffffffffff811115612c0957612c086122f0565b5b612c1589828a01612aba565b965050602087013567ffffffffffffffff811115612c3657612c356122f0565b5b612c4289828a01612aba565b9550506040612c5389828a0161278a565b9450506060612c6489828a0161278a565b935050608087013567ffffffffffffffff811115612c8557612c846122f0565b5b612c9189828a01612ba0565b92505060a0612ca289828a0161278a565b9150509295509295509295565b612cb881612497565b82525050565b6000602082019050612cd36000830184612caf565b92915050565b600060e082019050612cee600083018a612caf565b8181036020830152612d008189612410565b90508181036040830152612d148188612410565b9050612d236060830187612caf565b612d306080830186612caf565b612d3d60a0830185612caf565b612d4a60c08301846127cc565b98975050505050505050565b612d5f8161237a565b8114612d6a57600080fd5b50565b600081359050612d7c81612d56565b92915050565b60008060408385031215612d9957612d986122eb565b5b6000612da78582860161280d565b9250506020612db885828601612d6d565b9150509250929050565b600067ffffffffffffffff821115612ddd57612ddc6129bd565b5b612de6826123ff565b9050602081019050919050565b6000612e06612e0184612dc2565b612a1d565b905082815260208101848484011115612e2257612e216129b8565b5b612e2d848285612a69565b509392505050565b600082601f830112612e4a57612e496129b3565b5b8135612e5a848260208601612df3565b91505092915050565b60008060008060808587031215612e7d57612e7c6122eb565b5b6000612e8b8782880161280d565b9450506020612e9c8782880161280d565b9350506040612ead8782880161278a565b925050606085013567ffffffffffffffff811115612ece57612ecd6122f0565b5b612eda87828801612e35565b91505092959194509250565b600061010083016000830151612eff60008601826124a1565b5060208301518482036020860152612f1782826124c1565b91505060408301518482036040860152612f3182826124c1565b9150506060830151612f4660608601826124a1565b506080830151612f5960808601826124a1565b5060a083015184820360a0860152612f718282612547565b91505060c0830151612f8660c08601826124a1565b5060e0830151612f9960e08601826125ee565b508091505092915050565b60006020820190508181036000830152612fbe8184612ee6565b905092915050565b60008060408385031215612fdd57612fdc6122eb565b5b6000612feb8582860161280d565b9250506020612ffc8582860161280d565b9150509250929050565b7f4e487b7100000000000000000000000000000000000000000000000000000000600052602260045260246000fd5b6000600282049050600182168061304d57607f821691505b6020821081036130605761305f613006565b5b50919050565b7f4552433732313a20617070726f76656420717565727920666f72206e6f6e657860008201527f697374656e7420746f6b656e0000000000000000000000000000000000000000602082015250565b60006130c2602c836123bb565b91506130cd82613066565b604082019050919050565b600060208201905081810360008301526130f1816130b5565b9050919050565b7f4552433732313a20617070726f76616c20746f2063757272656e74206f776e6560008201527f7200000000000000000000000000000000000000000000000000000000000000602082015250565b60006131546021836123bb565b915061315f826130f8565b604082019050919050565b6000602082019050818103600083015261318381613147565b9050919050565b7f4552433732313a20617070726f76652063616c6c6572206973206e6f74206f7760008201527f6e6572206e6f7220617070726f76656420666f7220616c6c0000000000000000602082015250565b60006131e66038836123bb565b91506131f18261318a565b604082019050919050565b60006020820190508181036000830152613215816131d9565b9050919050565b7f4552433732313a207472616e736665722063616c6c6572206973206e6f74206f60008201527f776e6572206e6f7220617070726f766564000000000000000000000000000000602082015250565b60006132786031836123bb565b91506132838261321c565b604082019050919050565b600060208201905081810360008301526132a78161326b565b9050919050565b7f4e487b7100000000000000000000000000000000000000000000000000000000600052603260045260246000fd5b7f4e487b7100000000000000000000000000000000000000000000000000000000600052601160045260246000fd5b600061331782612497565b91507fffffffffffffffffffffffffffffffffffffffffffffffffffffffffffffffff8203613349576133486132dd565b5b600182019050919050565b7f4552433732313a206f776e657220717565727920666f72206e6f6e657869737460008201527f656e7420746f6b656e0000000000000000000000000000000000000000000000602082015250565b60006133b06029836123bb565b91506133bb82613354565b604082019050919050565b600060208201905081810360008301526133df816133a3565b9050919050565b7f4552433732313a2062616c616e636520717565727920666f7220746865207a6560008201527f726f206164647265737300000000000000000000000000000000000000000000602082015250565b6000613442602a836123bb565b915061344d826133e6565b604082019050919050565b6000602082019050818103600083015261347181613435565b9050919050565b7f4552433732314d657461646174613a2055524920717565727920666f72206e6f60008201527f6e6578697374656e7420746f6b656e0000000000000000000000000000000000602082015250565b60006134d4602f836123bb565b91506134df82613478565b604082019050919050565b60006020820190508181036000830152613503816134c7565b9050919050565b600081905092915050565b6000613520826123b0565b61352a818561350a565b935061353a8185602086016123cc565b80840191505092915050565b60006135528285613515565b915061355e8284613515565b91508190509392505050565b7f4552433732313a206f70657261746f7220717565727920666f72206e6f6e657860008201527f697374656e7420746f6b656e0000000000000000000000000000000000000000602082015250565b60006135c6602c836123bb565b91506135d18261356a565b604082019050919050565b600060208201905081810360008301526135f5816135b9565b9050919050565b7f4552433732313a207472616e736665722066726f6d20696e636f72726563742060008201527f6f776e6572000000000000000000000000000000000000000000000000000000602082015250565b60006136586025836123bb565b9150613663826135fc565b604082019050919050565b600060208201905081810360008301526136878161364b565b9050919050565b7f4552433732313a207472616e7366657220746f20746865207a65726f2061646460008201527f7265737300000000000000000000000000000000000000000000000000000000602082015250565b60006136ea6024836123bb565b91506136f58261368e565b604082019050919050565b60006020820190508181036000830152613719816136dd565b9050919050565b600061372b82612497565b915061373683612497565b925082821015613749576137486132dd565b5b828203905092915050565b600061375f82612497565b915061376a83612497565b9250827fffffffffffffffffffffffffffffffffffffffffffffffffffffffffffffffff0382111561379f5761379e6132dd565b5b828201905092915050565b7f4552433732313a20617070726f766520746f2063616c6c657200000000000000600082015250565b60006137e06019836123bb565b91506137eb826137aa565b602082019050919050565b6000602082019050818103600083015261380f816137d3565b9050919050565b7f4552433732313a207472616e7366657220746f206e6f6e20455243373231526560008201527f63656976657220696d706c656d656e7465720000000000000000000000000000602082015250565b60006138726032836123bb565b915061387d82613816565b604082019050919050565b600060208201905081810360008301526138a181613865565b9050919050565b7f4e487b7100000000000000000000000000000000000000000000000000000000600052601260045260246000fd5b60006138e282612497565b91506138ed83612497565b9250826138fd576138fc6138a8565b5b828204905092915050565b600061391382612497565b915061391e83612497565b92508261392e5761392d6138a8565b5b828206905092915050565b600081519050919050565b600082825260208201905092915050565b600061396082613939565b61396a8185613944565b935061397a8185602086016123cc565b613983816123ff565b840191505092915050565b60006080820190506139a360008301876127cc565b6139b060208301866127cc565b6139bd6040830185612caf565b81810360608301526139cf8184613955565b905095945050505050565b6000815190506139e981612321565b92915050565b600060208284031215613a0557613a046122eb565b5b6000613a13848285016139da565b91505092915050565b7f4552433732313a206d696e7420746f20746865207a65726f2061646472657373600082015250565b6000613a526020836123bb565b9150613a5d82613a1c565b602082019050919050565b60006020820190508181036000830152613a8181613a45565b9050919050565b7f4552433732313a20746f6b656e20616c7265616479206d696e74656400000000600082015250565b6000613abe601c836123bb565b9150613ac982613a88565b602082019050919050565b60006020820190508181036000830152613aed81613ab1565b905091905056fea26469706673582212201581ab0d382ee0f383806f158e2771fa84dccdecd6e11fb3ab903d818840c16264736f6c634300080e0033",
  "immutableReferences": {},
  "source": "// SPDX-License-Identifier: UNLICENCED\npragma solidity >=0.4.22 <0.9.0;\n\nimport \"./DroneNFT.sol\";\n\ncontract Drone is DroneNFT {\n    function getDronesByOwner(address _owner)\n        external\n        view\n        returns (uint256[] memory)\n    {\n        uint256 droneBalance = balanceOf(_owner);\n        uint256[] memory result = new uint256[](droneBalance);\n        uint256 counter = 0;\n        for (uint256 i = 0; i < drones.length; i++) {\n            if (ownerOf(i) == _owner) {\n                result[counter] = i;\n                counter++;\n            }\n        }\n        return result;\n    }\n\n    function getDrones() external view returns (Drone[] memory) {\n        return drones;\n    }\n\n    function getDrone(uint256 _index) external view returns (Drone memory) {\n        return drones[_index];\n    }\n}\n",
  "sourcePath": "/home/sergio/Documentos/sergio/projects/drones/smartcontracts/contracts/Drone.sol",
  "compiler": {
    "name": "solc",
    "version": "0.8.14+commit.80d49f37.Emscripten.clang"
  },
  "schemaVersion": "3.4.7",
  "updatedAt": "2022-07-04T18:35:19.576Z",
  "networkType": "ethereum",
  "devdoc": {
    "kind": "dev",
    "methods": {
      "approve(address,uint256)": {
        "details": "See {IERC721-approve}."
      },
      "balanceOf(address)": {
        "details": "See {IERC721-balanceOf}."
      },
      "getApproved(uint256)": {
        "details": "See {IERC721-getApproved}."
      },
      "isApprovedForAll(address,address)": {
        "details": "See {IERC721-isApprovedForAll}."
      },
      "name()": {
        "details": "See {IERC721Metadata-name}."
      },
      "ownerOf(uint256)": {
        "details": "See {IERC721-ownerOf}."
      },
      "safeTransferFrom(address,address,uint256)": {
        "details": "See {IERC721-safeTransferFrom}."
      },
      "safeTransferFrom(address,address,uint256,bytes)": {
        "details": "See {IERC721-safeTransferFrom}."
      },
      "setApprovalForAll(address,bool)": {
        "details": "See {IERC721-setApprovalForAll}."
      },
      "supportsInterface(bytes4)": {
        "details": "See {IERC165-supportsInterface}."
      },
      "symbol()": {
        "details": "See {IERC721Metadata-symbol}."
      },
      "tokenURI(uint256)": {
        "details": "See {IERC721Metadata-tokenURI}."
      },
      "transferFrom(address,address,uint256)": {
        "details": "See {IERC721-transferFrom}."
      }
    },
    "version": 1
  },
  "userdoc": {
    "kind": "user",
    "methods": {},
    "version": 1
  }
}