{
  "contractName": "Drone",
  "abi": [
    {
      "anonymous": false,
      "inputs": [
        {
          "indexed": true,
          "internalType": "address",
          "name": "owner",
          "type": "address"
        },
        {
          "indexed": true,
          "internalType": "address",
          "name": "approved",
          "type": "address"
        },
        {
          "indexed": true,
          "internalType": "uint256",
          "name": "tokenId",
          "type": "uint256"
        }
      ],
      "name": "Approval",
      "type": "event"
    },
    {
      "anonymous": false,
      "inputs": [
        {
          "indexed": true,
          "internalType": "address",
          "name": "owner",
          "type": "address"
        },
        {
          "indexed": true,
          "internalType": "address",
          "name": "operator",
          "type": "address"
        },
        {
          "indexed": false,
          "internalType": "bool",
          "name": "approved",
          "type": "bool"
        }
      ],
      "name": "ApprovalForAll",
      "type": "event"
    },
    {
      "anonymous": false,
      "inputs": [
        {
          "indexed": false,
          "internalType": "uint256",
          "name": "id",
          "type": "uint256"
        }
      ],
      "name": "NewDroneCreated",
      "type": "event"
    },
    {
      "anonymous": false,
      "inputs": [
        {
          "indexed": true,
          "internalType": "address",
          "name": "from",
          "type": "address"
        },
        {
          "indexed": true,
          "internalType": "address",
          "name": "to",
          "type": "address"
        },
        {
          "indexed": true,
          "internalType": "uint256",
          "name": "tokenId",
          "type": "uint256"
        }
      ],
      "name": "Transfer",
      "type": "event"
    },
    {
      "inputs": [
        {
          "internalType": "address",
          "name": "to",
          "type": "address"
        },
        {
          "internalType": "uint256",
          "name": "tokenId",
          "type": "uint256"
        }
      ],
      "name": "approve",
      "outputs": [],
      "stateMutability": "nonpayable",
      "type": "function"
    },
    {
      "inputs": [
        {
          "internalType": "address",
          "name": "owner",
          "type": "address"
        }
      ],
      "name": "balanceOf",
      "outputs": [
        {
          "internalType": "uint256",
          "name": "",
          "type": "uint256"
        }
      ],
      "stateMutability": "view",
      "type": "function",
      "constant": true
    },
    {
      "inputs": [
        {
          "internalType": "uint256",
          "name": "",
          "type": "uint256"
        }
      ],
      "name": "drones",
      "outputs": [
        {
          "internalType": "string",
          "name": "ownerName",
          "type": "string"
        },
        {
          "internalType": "string",
          "name": "model",
          "type": "string"
        },
        {
          "internalType": "uint256",
          "name": "maxFlightAltitude",
          "type": "uint256"
        },
        {
          "internalType": "uint256",
          "name": "minFlightAltitude",
          "type": "uint256"
        },
        {
          "internalType": "uint256",
          "name": "cost",
          "type": "uint256"
        },
        {
          "internalType": "uint8",
          "name": "velocity",
          "type": "uint8"
        },
        {
          "internalType": "address",
          "name": "owner",
          "type": "address"
        }
      ],
      "stateMutability": "view",
      "type": "function",
      "constant": true
    },
    {
      "inputs": [
        {
          "internalType": "uint256",
          "name": "tokenId",
          "type": "uint256"
        }
      ],
      "name": "getApproved",
      "outputs": [
        {
          "internalType": "address",
          "name": "",
          "type": "address"
        }
      ],
      "stateMutability": "view",
      "type": "function",
      "constant": true
    },
    {
      "inputs": [
        {
          "internalType": "address",
          "name": "owner",
          "type": "address"
        },
        {
          "internalType": "address",
          "name": "operator",
          "type": "address"
        }
      ],
      "name": "isApprovedForAll",
      "outputs": [
        {
          "internalType": "bool",
          "name": "",
          "type": "bool"
        }
      ],
      "stateMutability": "view",
      "type": "function",
      "constant": true
    },
    {
      "inputs": [
        {
          "internalType": "string",
          "name": "_ownerName",
          "type": "string"
        },
        {
          "internalType": "string",
          "name": "_model",
          "type": "string"
        },
        {
          "internalType": "uint256",
          "name": "_maxFlightAltitude",
          "type": "uint256"
        },
        {
          "internalType": "uint256",
          "name": "_minFlightAltitude",
          "type": "uint256"
        },
        {
          "internalType": "string[]",
          "name": "_pesticides",
          "type": "string[]"
        },
        {
          "internalType": "uint256",
          "name": "_cost",
          "type": "uint256"
        },
        {
          "internalType": "uint8",
          "name": "_velocity",
          "type": "uint8"
        }
      ],
      "name": "mintNewDrone",
      "outputs": [],
      "stateMutability": "nonpayable",
      "type": "function"
    },
    {
      "inputs": [],
      "name": "name",
      "outputs": [
        {
          "internalType": "string",
          "name": "",
          "type": "string"
        }
      ],
      "stateMutability": "view",
      "type": "function",
      "constant": true
    },
    {
      "inputs": [
        {
          "internalType": "uint256",
          "name": "tokenId",
          "type": "uint256"
        }
      ],
      "name": "ownerOf",
      "outputs": [
        {
          "internalType": "address",
          "name": "",
          "type": "address"
        }
      ],
      "stateMutability": "view",
      "type": "function",
      "constant": true
    },
    {
      "inputs": [
        {
          "internalType": "address",
          "name": "from",
          "type": "address"
        },
        {
          "internalType": "address",
          "name": "to",
          "type": "address"
        },
        {
          "internalType": "uint256",
          "name": "tokenId",
          "type": "uint256"
        }
      ],
      "name": "safeTransferFrom",
      "outputs": [],
      "stateMutability": "nonpayable",
      "type": "function"
    },
    {
      "inputs": [
        {
          "internalType": "address",
          "name": "from",
          "type": "address"
        },
        {
          "internalType": "address",
          "name": "to",
          "type": "address"
        },
        {
          "internalType": "uint256",
          "name": "tokenId",
          "type": "uint256"
        },
        {
          "internalType": "bytes",
          "name": "_data",
          "type": "bytes"
        }
      ],
      "name": "safeTransferFrom",
      "outputs": [],
      "stateMutability": "nonpayable",
      "type": "function"
    },
    {
      "inputs": [
        {
          "internalType": "address",
          "name": "operator",
          "type": "address"
        },
        {
          "internalType": "bool",
          "name": "approved",
          "type": "bool"
        }
      ],
      "name": "setApprovalForAll",
      "outputs": [],
      "stateMutability": "nonpayable",
      "type": "function"
    },
    {
      "inputs": [
        {
          "internalType": "bytes4",
          "name": "interfaceId",
          "type": "bytes4"
        }
      ],
      "name": "supportsInterface",
      "outputs": [
        {
          "internalType": "bool",
          "name": "",
          "type": "bool"
        }
      ],
      "stateMutability": "view",
      "type": "function",
      "constant": true
    },
    {
      "inputs": [],
      "name": "symbol",
      "outputs": [
        {
          "internalType": "string",
          "name": "",
          "type": "string"
        }
      ],
      "stateMutability": "view",
      "type": "function",
      "constant": true
    },
    {
      "inputs": [
        {
          "internalType": "uint256",
          "name": "tokenId",
          "type": "uint256"
        }
      ],
      "name": "tokenURI",
      "outputs": [
        {
          "internalType": "string",
          "name": "",
          "type": "string"
        }
      ],
      "stateMutability": "view",
      "type": "function",
      "constant": true
    },
    {
      "inputs": [
        {
          "internalType": "address",
          "name": "from",
          "type": "address"
        },
        {
          "internalType": "address",
          "name": "to",
          "type": "address"
        },
        {
          "internalType": "uint256",
          "name": "tokenId",
          "type": "uint256"
        }
      ],
      "name": "transferFrom",
      "outputs": [],
      "stateMutability": "nonpayable",
      "type": "function"
    },
    {
      "inputs": [
        {
          "internalType": "address",
          "name": "_owner",
          "type": "address"
        }
      ],
      "name": "getDronesByOwner",
      "outputs": [
        {
          "internalType": "uint256[]",
          "name": "",
          "type": "uint256[]"
        }
      ],
      "stateMutability": "view",
      "type": "function",
      "constant": true
    },
    {
      "inputs": [
        {
          "internalType": "uint256",
          "name": "_index",
          "type": "uint256"
        }
      ],
      "name": "getDrone",
      "outputs": [
        {
          "components": [
            {
              "internalType": "string",
              "name": "ownerName",
              "type": "string"
            },
            {
              "internalType": "string",
              "name": "model",
              "type": "string"
            },
            {
              "internalType": "uint256",
              "name": "maxFlightAltitude",
              "type": "uint256"
            },
            {
              "internalType": "uint256",
              "name": "minFlightAltitude",
              "type": "uint256"
            },
            {
              "internalType": "string[]",
              "name": "pesticides",
              "type": "string[]"
            },
            {
              "internalType": "uint256",
              "name": "cost",
              "type": "uint256"
            },
            {
              "internalType": "uint8",
              "name": "velocity",
              "type": "uint8"
            },
            {
              "internalType": "address",
              "name": "owner",
              "type": "address"
            }
          ],
          "internalType": "struct DroneModel.Drone",
          "name": "",
          "type": "tuple"
        }
      ],
      "stateMutability": "view",
      "type": "function",
      "constant": true
    }
  ],
  "bytecode": "0x60806040523480156200001157600080fd5b506040518060400160405280600581526020017f44726f6e650000000000000000000000000000000000000000000000000000008152506040518060400160405280600381526020017f44524e0000000000000000000000000000000000000000000000000000000000815250816000908051906020019062000096929190620000b8565b508060019080519060200190620000af929190620000b8565b505050620001cc565b828054620000c69062000197565b90600052602060002090601f016020900481019282620000ea576000855562000136565b82601f106200010557805160ff191683800117855562000136565b8280016001018555821562000136579182015b828111156200013557825182559160200191906001019062000118565b5b50905062000145919062000149565b5090565b5b80821115620001645760008160009055506001016200014a565b5090565b7f4e487b7100000000000000000000000000000000000000000000000000000000600052602260045260246000fd5b60006002820490506001821680620001b057607f821691505b602082108103620001c657620001c562000168565b5b50919050565b61372580620001dc6000396000f3fe608060405234801561001057600080fd5b506004361061010b5760003560e01c806370a08231116100a2578063a38c915f11610071578063a38c915f146102e2578063b88d4fde146102fe578063c87b56dd1461031a578063dbd1be771461034a578063e985e9c51461037a5761010b565b806370a08231146102425780639341bc001461027257806395d89b41146102a8578063a22cb465146102c65761010b565b806323b872dd116100de57806323b872dd146101aa5780633c15901e146101c657806342842e0e146101f65780636352211e146102125761010b565b806301ffc9a71461011057806306fdde0314610140578063081812fc1461015e578063095ea7b31461018e575b600080fd5b61012a6004803603810190610125919061207e565b6103aa565b60405161013791906120c6565b60405180910390f35b61014861048c565b604051610155919061217a565b60405180910390f35b610178600480360381019061017391906121d2565b61051e565b6040516101859190612240565b60405180910390f35b6101a860048036038101906101a39190612287565b6105a3565b005b6101c460048036038101906101bf91906122c7565b6106ba565b005b6101e060048036038101906101db919061231a565b61071a565b6040516101ed9190612405565b60405180910390f35b610210600480360381019061020b91906122c7565b610810565b005b61022c600480360381019061022791906121d2565b610830565b6040516102399190612240565b60405180910390f35b61025c6004803603810190610257919061231a565b6108e1565b6040516102699190612436565b60405180910390f35b61028c600480360381019061028791906121d2565b610998565b60405161029f979695949392919061246d565b60405180910390f35b6102b0610b27565b6040516102bd919061217a565b60405180910390f35b6102e060048036038101906102db9190612516565b610bb9565b005b6102fc60048036038101906102f7919061279d565b610bcf565b005b61031860048036038101906103139190612934565b610d44565b005b610334600480360381019061032f91906121d2565b610da6565b604051610341919061217a565b60405180910390f35b610364600480360381019061035f91906121d2565b610e4d565b6040516103719190612b9f565b60405180910390f35b610394600480360381019061038f9190612bc1565b611118565b6040516103a191906120c6565b60405180910390f35b60007f80ac58cd000000000000000000000000000000000000000000000000000000007bffffffffffffffffffffffffffffffffffffffffffffffffffffffff1916827bffffffffffffffffffffffffffffffffffffffffffffffffffffffff1916148061047557507f5b5e139f000000000000000000000000000000000000000000000000000000007bffffffffffffffffffffffffffffffffffffffffffffffffffffffff1916827bffffffffffffffffffffffffffffffffffffffffffffffffffffffff1916145b806104855750610484826111ac565b5b9050919050565b60606000805461049b90612c30565b80601f01602080910402602001604051908101604052809291908181526020018280546104c790612c30565b80156105145780601f106104e957610100808354040283529160200191610514565b820191906000526020600020905b8154815290600101906020018083116104f757829003601f168201915b5050505050905090565b600061052982611216565b610568576040517f08c379a000000000000000000000000000000000000000000000000000000000815260040161055f90612cd3565b60405180910390fd5b6004600083815260200190815260200160002060009054906101000a900473ffffffffffffffffffffffffffffffffffffffff169050919050565b60006105ae82610830565b90508073ffffffffffffffffffffffffffffffffffffffff168373ffffffffffffffffffffffffffffffffffffffff160361061e576040517f08c379a000000000000000000000000000000000000000000000000000000000815260040161061590612d65565b60405180910390fd5b8073ffffffffffffffffffffffffffffffffffffffff1661063d611282565b73ffffffffffffffffffffffffffffffffffffffff16148061066c575061066b81610666611282565b611118565b5b6106ab576040517f08c379a00000000000000000000000000000000000000000000000000000000081526004016106a290612df7565b60405180910390fd5b6106b5838361128a565b505050565b6106cb6106c5611282565b82611343565b61070a576040517f08c379a000000000000000000000000000000000000000000000000000000000815260040161070190612e89565b60405180910390fd5b610715838383611421565b505050565b60606000610727836108e1565b905060008167ffffffffffffffff81111561074557610744612560565b5b6040519080825280602002602001820160405280156107735781602001602082028036833780820191505090505b5090506000805b600780549050811015610804578573ffffffffffffffffffffffffffffffffffffffff166107a782610830565b73ffffffffffffffffffffffffffffffffffffffff16036107f157808383815181106107d6576107d5612ea9565b5b60200260200101818152505081806107ed90612f07565b9250505b80806107fc90612f07565b91505061077a565b50819350505050919050565b61082b83838360405180602001604052806000815250610d44565b505050565b6000806002600084815260200190815260200160002060009054906101000a900473ffffffffffffffffffffffffffffffffffffffff169050600073ffffffffffffffffffffffffffffffffffffffff168173ffffffffffffffffffffffffffffffffffffffff16036108d8576040517f08c379a00000000000000000000000000000000000000000000000000000000081526004016108cf90612fc1565b60405180910390fd5b80915050919050565b60008073ffffffffffffffffffffffffffffffffffffffff168273ffffffffffffffffffffffffffffffffffffffff1603610951576040517f08c379a000000000000000000000000000000000000000000000000000000000815260040161094890613053565b60405180910390fd5b600360008373ffffffffffffffffffffffffffffffffffffffff1673ffffffffffffffffffffffffffffffffffffffff168152602001908152602001600020549050919050565b600781815481106109a857600080fd5b90600052602060002090600702016000915090508060000180546109cb90612c30565b80601f01602080910402602001604051908101604052809291908181526020018280546109f790612c30565b8015610a445780601f10610a1957610100808354040283529160200191610a44565b820191906000526020600020905b815481529060010190602001808311610a2757829003601f168201915b505050505090806001018054610a5990612c30565b80601f0160208091040260200160405190810160405280929190818152602001828054610a8590612c30565b8015610ad25780601f10610aa757610100808354040283529160200191610ad2565b820191906000526020600020905b815481529060010190602001808311610ab557829003601f168201915b5050505050908060020154908060030154908060050154908060060160009054906101000a900460ff16908060060160019054906101000a900473ffffffffffffffffffffffffffffffffffffffff16905087565b606060018054610b3690612c30565b80601f0160208091040260200160405190810160405280929190818152602001828054610b6290612c30565b8015610baf5780601f10610b8457610100808354040283529160200191610baf565b820191906000526020600020905b815481529060010190602001808311610b9257829003601f168201915b5050505050905090565b610bcb610bc4611282565b8383611687565b5050565b600033905060076040518061010001604052808a81526020018981526020018881526020018781526020018681526020018581526020018460ff1681526020018373ffffffffffffffffffffffffffffffffffffffff1681525090806001815401808255809150506001900390600052602060002090600702016000909190919091506000820151816000019080519060200190610c6e929190611e4d565b506020820151816001019080519060200190610c8b929190611e4d565b5060408201518160020155606082015181600301556080820151816004019080519060200190610cbc929190611ed3565b5060a0820151816005015560c08201518160060160006101000a81548160ff021916908360ff16021790555060e08201518160060160016101000a81548173ffffffffffffffffffffffffffffffffffffffff021916908373ffffffffffffffffffffffffffffffffffffffff1602179055505050610d3a816117f3565b5050505050505050565b610d55610d4f611282565b83611343565b610d94576040517f08c379a0000000000000000000000000000000000000000000000000000000008152600401610d8b90612e89565b60405180910390fd5b610da084848484611850565b50505050565b6060610db182611216565b610df0576040517f08c379a0000000000000000000000000000000000000000000000000000000008152600401610de7906130e5565b60405180910390fd5b6000610dfa6118ac565b90506000815111610e1a5760405180602001604052806000815250610e45565b80610e24846118c3565b604051602001610e35929190613141565b6040516020818303038152906040525b915050919050565b610e55611f33565b60078281548110610e6957610e68612ea9565b5b906000526020600020906007020160405180610100016040529081600082018054610e9390612c30565b80601f0160208091040260200160405190810160405280929190818152602001828054610ebf90612c30565b8015610f0c5780601f10610ee157610100808354040283529160200191610f0c565b820191906000526020600020905b815481529060010190602001808311610eef57829003601f168201915b50505050508152602001600182018054610f2590612c30565b80601f0160208091040260200160405190810160405280929190818152602001828054610f5190612c30565b8015610f9e5780601f10610f7357610100808354040283529160200191610f9e565b820191906000526020600020905b815481529060010190602001808311610f8157829003601f168201915b50505050508152602001600282015481526020016003820154815260200160048201805480602002602001604051908101604052809291908181526020016000905b8282101561108c578382906000526020600020018054610fff90612c30565b80601f016020809104026020016040519081016040528092919081815260200182805461102b90612c30565b80156110785780601f1061104d57610100808354040283529160200191611078565b820191906000526020600020905b81548152906001019060200180831161105b57829003601f168201915b505050505081526020019060010190610fe0565b505050508152602001600582015481526020016006820160009054906101000a900460ff1660ff1660ff1681526020016006820160019054906101000a900473ffffffffffffffffffffffffffffffffffffffff1673ffffffffffffffffffffffffffffffffffffffff1673ffffffffffffffffffffffffffffffffffffffff16815250509050919050565b6000600560008473ffffffffffffffffffffffffffffffffffffffff1673ffffffffffffffffffffffffffffffffffffffff16815260200190815260200160002060008373ffffffffffffffffffffffffffffffffffffffff1673ffffffffffffffffffffffffffffffffffffffff16815260200190815260200160002060009054906101000a900460ff16905092915050565b60007f01ffc9a7000000000000000000000000000000000000000000000000000000007bffffffffffffffffffffffffffffffffffffffffffffffffffffffff1916827bffffffffffffffffffffffffffffffffffffffffffffffffffffffff1916149050919050565b60008073ffffffffffffffffffffffffffffffffffffffff166002600084815260200190815260200160002060009054906101000a900473ffffffffffffffffffffffffffffffffffffffff1673ffffffffffffffffffffffffffffffffffffffff1614159050919050565b600033905090565b816004600083815260200190815260200160002060006101000a81548173ffffffffffffffffffffffffffffffffffffffff021916908373ffffffffffffffffffffffffffffffffffffffff160217905550808273ffffffffffffffffffffffffffffffffffffffff166112fd83610830565b73ffffffffffffffffffffffffffffffffffffffff167f8c5be1e5ebec7d5bd14f71427d1e84f3dd0314c0f7b2291e5b200ac8c7c3b92560405160405180910390a45050565b600061134e82611216565b61138d576040517f08c379a0000000000000000000000000000000000000000000000000000000008152600401611384906131d7565b60405180910390fd5b600061139883610830565b90508073ffffffffffffffffffffffffffffffffffffffff168473ffffffffffffffffffffffffffffffffffffffff1614806113da57506113d98185611118565b5b8061141857508373ffffffffffffffffffffffffffffffffffffffff166114008461051e565b73ffffffffffffffffffffffffffffffffffffffff16145b91505092915050565b8273ffffffffffffffffffffffffffffffffffffffff1661144182610830565b73ffffffffffffffffffffffffffffffffffffffff1614611497576040517f08c379a000000000000000000000000000000000000000000000000000000000815260040161148e90613269565b60405180910390fd5b600073ffffffffffffffffffffffffffffffffffffffff168273ffffffffffffffffffffffffffffffffffffffff1603611506576040517f08c379a00000000000000000000000000000000000000000000000000000000081526004016114fd906132fb565b60405180910390fd5b611511838383611a23565b61151c60008261128a565b6001600360008573ffffffffffffffffffffffffffffffffffffffff1673ffffffffffffffffffffffffffffffffffffffff168152602001908152602001600020600082825461156c919061331b565b925050819055506001600360008473ffffffffffffffffffffffffffffffffffffffff1673ffffffffffffffffffffffffffffffffffffffff16815260200190815260200160002060008282546115c3919061334f565b92505081905550816002600083815260200190815260200160002060006101000a81548173ffffffffffffffffffffffffffffffffffffffff021916908373ffffffffffffffffffffffffffffffffffffffff160217905550808273ffffffffffffffffffffffffffffffffffffffff168473ffffffffffffffffffffffffffffffffffffffff167fddf252ad1be2c89b69c2b068fc378daa952ba7f163c4a11628f55a4df523b3ef60405160405180910390a4611682838383611a28565b505050565b8173ffffffffffffffffffffffffffffffffffffffff168373ffffffffffffffffffffffffffffffffffffffff16036116f5576040517f08c379a00000000000000000000000000000000000000000000000000000000081526004016116ec906133f1565b60405180910390fd5b80600560008573ffffffffffffffffffffffffffffffffffffffff1673ffffffffffffffffffffffffffffffffffffffff16815260200190815260200160002060008473ffffffffffffffffffffffffffffffffffffffff1673ffffffffffffffffffffffffffffffffffffffff16815260200190815260200160002060006101000a81548160ff0219169083151502179055508173ffffffffffffffffffffffffffffffffffffffff168373ffffffffffffffffffffffffffffffffffffffff167f17307eab39ab6107e8899845ad3d59bd9653f200f220920489ca2b5937696c31836040516117e691906120c6565b60405180910390a3505050565b60006117ff6006611a2d565b905061180b8282611a3b565b6118156006611a59565b7f564ba5ec5742b2e6afc952e92235671c7a1959fe20648c59ded66c2721509544816040516118449190612436565b60405180910390a15050565b61185b848484611421565b61186784848484611a6f565b6118a6576040517f08c379a000000000000000000000000000000000000000000000000000000000815260040161189d90613483565b60405180910390fd5b50505050565b606060405180602001604052806000815250905090565b60606000820361190a576040518060400160405280600181526020017f30000000000000000000000000000000000000000000000000000000000000008152509050611a1e565b600082905060005b6000821461193c57808061192590612f07565b915050600a8261193591906134d2565b9150611912565b60008167ffffffffffffffff81111561195857611957612560565b5b6040519080825280601f01601f19166020018201604052801561198a5781602001600182028036833780820191505090505b5090505b60008514611a17576001826119a3919061331b565b9150600a856119b29190613503565b60306119be919061334f565b60f81b8183815181106119d4576119d3612ea9565b5b60200101907effffffffffffffffffffffffffffffffffffffffffffffffffffffffffffff1916908160001a905350600a85611a1091906134d2565b945061198e565b8093505050505b919050565b505050565b505050565b600081600001549050919050565b611a55828260405180602001604052806000815250611bf6565b5050565b6001816000016000828254019250508190555050565b6000611a908473ffffffffffffffffffffffffffffffffffffffff16611c51565b15611be9578373ffffffffffffffffffffffffffffffffffffffff1663150b7a02611ab9611282565b8786866040518563ffffffff1660e01b8152600401611adb9493929190613589565b6020604051808303816000875af1925050508015611b1757506040513d601f19601f82011682018060405250810190611b1491906135ea565b60015b611b99573d8060008114611b47576040519150601f19603f3d011682016040523d82523d6000602084013e611b4c565b606091505b506000815103611b91576040517f08c379a0000000000000000000000000000000000000000000000000000000008152600401611b8890613483565b60405180910390fd5b805181602001fd5b63150b7a0260e01b7bffffffffffffffffffffffffffffffffffffffffffffffffffffffff1916817bffffffffffffffffffffffffffffffffffffffffffffffffffffffff191614915050611bee565b600190505b949350505050565b611c008383611c74565b611c0d6000848484611a6f565b611c4c576040517f08c379a0000000000000000000000000000000000000000000000000000000008152600401611c4390613483565b60405180910390fd5b505050565b6000808273ffffffffffffffffffffffffffffffffffffffff163b119050919050565b600073ffffffffffffffffffffffffffffffffffffffff168273ffffffffffffffffffffffffffffffffffffffff1603611ce3576040517f08c379a0000000000000000000000000000000000000000000000000000000008152600401611cda90613663565b60405180910390fd5b611cec81611216565b15611d2c576040517f08c379a0000000000000000000000000000000000000000000000000000000008152600401611d23906136cf565b60405180910390fd5b611d3860008383611a23565b6001600360008473ffffffffffffffffffffffffffffffffffffffff1673ffffffffffffffffffffffffffffffffffffffff1681526020019081526020016000206000828254611d88919061334f565b92505081905550816002600083815260200190815260200160002060006101000a81548173ffffffffffffffffffffffffffffffffffffffff021916908373ffffffffffffffffffffffffffffffffffffffff160217905550808273ffffffffffffffffffffffffffffffffffffffff16600073ffffffffffffffffffffffffffffffffffffffff167fddf252ad1be2c89b69c2b068fc378daa952ba7f163c4a11628f55a4df523b3ef60405160405180910390a4611e4960008383611a28565b5050565b828054611e5990612c30565b90600052602060002090601f016020900481019282611e7b5760008555611ec2565b82601f10611e9457805160ff1916838001178555611ec2565b82800160010185558215611ec2579182015b82811115611ec1578251825591602001919060010190611ea6565b5b509050611ecf9190611f91565b5090565b828054828255906000526020600020908101928215611f22579160200282015b82811115611f21578251829080519060200190611f11929190611e4d565b5091602001919060010190611ef3565b5b509050611f2f9190611fae565b5090565b604051806101000160405280606081526020016060815260200160008152602001600081526020016060815260200160008152602001600060ff168152602001600073ffffffffffffffffffffffffffffffffffffffff1681525090565b5b80821115611faa576000816000905550600101611f92565b5090565b5b80821115611fce5760008181611fc59190611fd2565b50600101611faf565b5090565b508054611fde90612c30565b6000825580601f10611ff0575061200f565b601f01602090049060005260206000209081019061200e9190611f91565b5b50565b6000604051905090565b600080fd5b600080fd5b60007fffffffff0000000000000000000000000000000000000000000000000000000082169050919050565b61205b81612026565b811461206657600080fd5b50565b60008135905061207881612052565b92915050565b6000602082840312156120945761209361201c565b5b60006120a284828501612069565b91505092915050565b60008115159050919050565b6120c0816120ab565b82525050565b60006020820190506120db60008301846120b7565b92915050565b600081519050919050565b600082825260208201905092915050565b60005b8381101561211b578082015181840152602081019050612100565b8381111561212a576000848401525b50505050565b6000601f19601f8301169050919050565b600061214c826120e1565b61215681856120ec565b93506121668185602086016120fd565b61216f81612130565b840191505092915050565b600060208201905081810360008301526121948184612141565b905092915050565b6000819050919050565b6121af8161219c565b81146121ba57600080fd5b50565b6000813590506121cc816121a6565b92915050565b6000602082840312156121e8576121e761201c565b5b60006121f6848285016121bd565b91505092915050565b600073ffffffffffffffffffffffffffffffffffffffff82169050919050565b600061222a826121ff565b9050919050565b61223a8161221f565b82525050565b60006020820190506122556000830184612231565b92915050565b6122648161221f565b811461226f57600080fd5b50565b6000813590506122818161225b565b92915050565b6000806040838503121561229e5761229d61201c565b5b60006122ac85828601612272565b92505060206122bd858286016121bd565b9150509250929050565b6000806000606084860312156122e0576122df61201c565b5b60006122ee86828701612272565b93505060206122ff86828701612272565b9250506040612310868287016121bd565b9150509250925092565b6000602082840312156123305761232f61201c565b5b600061233e84828501612272565b91505092915050565b600081519050919050565b600082825260208201905092915050565b6000819050602082019050919050565b61237c8161219c565b82525050565b600061238e8383612373565b60208301905092915050565b6000602082019050919050565b60006123b282612347565b6123bc8185612352565b93506123c783612363565b8060005b838110156123f85781516123df8882612382565b97506123ea8361239a565b9250506001810190506123cb565b5085935050505092915050565b6000602082019050818103600083015261241f81846123a7565b905092915050565b6124308161219c565b82525050565b600060208201905061244b6000830184612427565b92915050565b600060ff82169050919050565b61246781612451565b82525050565b600060e0820190508181036000830152612487818a612141565b9050818103602083015261249b8189612141565b90506124aa6040830188612427565b6124b76060830187612427565b6124c46080830186612427565b6124d160a083018561245e565b6124de60c0830184612231565b98975050505050505050565b6124f3816120ab565b81146124fe57600080fd5b50565b600081359050612510816124ea565b92915050565b6000806040838503121561252d5761252c61201c565b5b600061253b85828601612272565b925050602061254c85828601612501565b9150509250929050565b600080fd5b600080fd5b7f4e487b7100000000000000000000000000000000000000000000000000000000600052604160045260246000fd5b61259882612130565b810181811067ffffffffffffffff821117156125b7576125b6612560565b5b80604052505050565b60006125ca612012565b90506125d6828261258f565b919050565b600067ffffffffffffffff8211156125f6576125f5612560565b5b6125ff82612130565b9050602081019050919050565b82818337600083830152505050565b600061262e612629846125db565b6125c0565b90508281526020810184848401111561264a5761264961255b565b5b61265584828561260c565b509392505050565b600082601f83011261267257612671612556565b5b813561268284826020860161261b565b91505092915050565b600067ffffffffffffffff8211156126a6576126a5612560565b5b602082029050602081019050919050565b600080fd5b60006126cf6126ca8461268b565b6125c0565b905080838252602082019050602084028301858111156126f2576126f16126b7565b5b835b8181101561273957803567ffffffffffffffff81111561271757612716612556565b5b808601612724898261265d565b855260208501945050506020810190506126f4565b5050509392505050565b600082601f83011261275857612757612556565b5b81356127688482602086016126bc565b91505092915050565b61277a81612451565b811461278557600080fd5b50565b60008135905061279781612771565b92915050565b600080600080600080600060e0888a0312156127bc576127bb61201c565b5b600088013567ffffffffffffffff8111156127da576127d9612021565b5b6127e68a828b0161265d565b975050602088013567ffffffffffffffff81111561280757612806612021565b5b6128138a828b0161265d565b96505060406128248a828b016121bd565b95505060606128358a828b016121bd565b945050608088013567ffffffffffffffff81111561285657612855612021565b5b6128628a828b01612743565b93505060a06128738a828b016121bd565b92505060c06128848a828b01612788565b91505092959891949750929550565b600067ffffffffffffffff8211156128ae576128ad612560565b5b6128b782612130565b9050602081019050919050565b60006128d76128d284612893565b6125c0565b9050828152602081018484840111156128f3576128f261255b565b5b6128fe84828561260c565b509392505050565b600082601f83011261291b5761291a612556565b5b813561292b8482602086016128c4565b91505092915050565b6000806000806080858703121561294e5761294d61201c565b5b600061295c87828801612272565b945050602061296d87828801612272565b935050604061297e878288016121bd565b925050606085013567ffffffffffffffff81111561299f5761299e612021565b5b6129ab87828801612906565b91505092959194509250565b600082825260208201905092915050565b60006129d3826120e1565b6129dd81856129b7565b93506129ed8185602086016120fd565b6129f681612130565b840191505092915050565b600081519050919050565b600082825260208201905092915050565b6000819050602082019050919050565b6000612a3983836129c8565b905092915050565b6000602082019050919050565b6000612a5982612a01565b612a638185612a0c565b935083602082028501612a7585612a1d565b8060005b85811015612ab15784840389528151612a928582612a2d565b9450612a9d83612a41565b925060208a01995050600181019050612a79565b50829750879550505050505092915050565b612acc81612451565b82525050565b612adb8161221f565b82525050565b6000610100830160008301518482036000860152612aff82826129c8565b91505060208301518482036020860152612b1982826129c8565b9150506040830151612b2e6040860182612373565b506060830151612b416060860182612373565b5060808301518482036080860152612b598282612a4e565b91505060a0830151612b6e60a0860182612373565b5060c0830151612b8160c0860182612ac3565b5060e0830151612b9460e0860182612ad2565b508091505092915050565b60006020820190508181036000830152612bb98184612ae1565b905092915050565b60008060408385031215612bd857612bd761201c565b5b6000612be685828601612272565b9250506020612bf785828601612272565b9150509250929050565b7f4e487b7100000000000000000000000000000000000000000000000000000000600052602260045260246000fd5b60006002820490506001821680612c4857607f821691505b602082108103612c5b57612c5a612c01565b5b50919050565b7f4552433732313a20617070726f76656420717565727920666f72206e6f6e657860008201527f697374656e7420746f6b656e0000000000000000000000000000000000000000602082015250565b6000612cbd602c836120ec565b9150612cc882612c61565b604082019050919050565b60006020820190508181036000830152612cec81612cb0565b9050919050565b7f4552433732313a20617070726f76616c20746f2063757272656e74206f776e6560008201527f7200000000000000000000000000000000000000000000000000000000000000602082015250565b6000612d4f6021836120ec565b9150612d5a82612cf3565b604082019050919050565b60006020820190508181036000830152612d7e81612d42565b9050919050565b7f4552433732313a20617070726f76652063616c6c6572206973206e6f74206f7760008201527f6e6572206e6f7220617070726f76656420666f7220616c6c0000000000000000602082015250565b6000612de16038836120ec565b9150612dec82612d85565b604082019050919050565b60006020820190508181036000830152612e1081612dd4565b9050919050565b7f4552433732313a207472616e736665722063616c6c6572206973206e6f74206f60008201527f776e6572206e6f7220617070726f766564000000000000000000000000000000602082015250565b6000612e736031836120ec565b9150612e7e82612e17565b604082019050919050565b60006020820190508181036000830152612ea281612e66565b9050919050565b7f4e487b7100000000000000000000000000000000000000000000000000000000600052603260045260246000fd5b7f4e487b7100000000000000000000000000000000000000000000000000000000600052601160045260246000fd5b6000612f128261219c565b91507fffffffffffffffffffffffffffffffffffffffffffffffffffffffffffffffff8203612f4457612f43612ed8565b5b600182019050919050565b7f4552433732313a206f776e657220717565727920666f72206e6f6e657869737460008201527f656e7420746f6b656e0000000000000000000000000000000000000000000000602082015250565b6000612fab6029836120ec565b9150612fb682612f4f565b604082019050919050565b60006020820190508181036000830152612fda81612f9e565b9050919050565b7f4552433732313a2062616c616e636520717565727920666f7220746865207a6560008201527f726f206164647265737300000000000000000000000000000000000000000000602082015250565b600061303d602a836120ec565b915061304882612fe1565b604082019050919050565b6000602082019050818103600083015261306c81613030565b9050919050565b7f4552433732314d657461646174613a2055524920717565727920666f72206e6f60008201527f6e6578697374656e7420746f6b656e0000000000000000000000000000000000602082015250565b60006130cf602f836120ec565b91506130da82613073565b604082019050919050565b600060208201905081810360008301526130fe816130c2565b9050919050565b600081905092915050565b600061311b826120e1565b6131258185613105565b93506131358185602086016120fd565b80840191505092915050565b600061314d8285613110565b91506131598284613110565b91508190509392505050565b7f4552433732313a206f70657261746f7220717565727920666f72206e6f6e657860008201527f697374656e7420746f6b656e0000000000000000000000000000000000000000602082015250565b60006131c1602c836120ec565b91506131cc82613165565b604082019050919050565b600060208201905081810360008301526131f0816131b4565b9050919050565b7f4552433732313a207472616e736665722066726f6d20696e636f72726563742060008201527f6f776e6572000000000000000000000000000000000000000000000000000000602082015250565b60006132536025836120ec565b915061325e826131f7565b604082019050919050565b6000602082019050818103600083015261328281613246565b9050919050565b7f4552433732313a207472616e7366657220746f20746865207a65726f2061646460008201527f7265737300000000000000000000000000000000000000000000000000000000602082015250565b60006132e56024836120ec565b91506132f082613289565b604082019050919050565b60006020820190508181036000830152613314816132d8565b9050919050565b60006133268261219c565b91506133318361219c565b92508282101561334457613343612ed8565b5b828203905092915050565b600061335a8261219c565b91506133658361219c565b9250827fffffffffffffffffffffffffffffffffffffffffffffffffffffffffffffffff0382111561339a57613399612ed8565b5b828201905092915050565b7f4552433732313a20617070726f766520746f2063616c6c657200000000000000600082015250565b60006133db6019836120ec565b91506133e6826133a5565b602082019050919050565b6000602082019050818103600083015261340a816133ce565b9050919050565b7f4552433732313a207472616e7366657220746f206e6f6e20455243373231526560008201527f63656976657220696d706c656d656e7465720000000000000000000000000000602082015250565b600061346d6032836120ec565b915061347882613411565b604082019050919050565b6000602082019050818103600083015261349c81613460565b9050919050565b7f4e487b7100000000000000000000000000000000000000000000000000000000600052601260045260246000fd5b60006134dd8261219c565b91506134e88361219c565b9250826134f8576134f76134a3565b5b828204905092915050565b600061350e8261219c565b91506135198361219c565b925082613529576135286134a3565b5b828206905092915050565b600081519050919050565b600082825260208201905092915050565b600061355b82613534565b613565818561353f565b93506135758185602086016120fd565b61357e81612130565b840191505092915050565b600060808201905061359e6000830187612231565b6135ab6020830186612231565b6135b86040830185612427565b81810360608301526135ca8184613550565b905095945050505050565b6000815190506135e481612052565b92915050565b600060208284031215613600576135ff61201c565b5b600061360e848285016135d5565b91505092915050565b7f4552433732313a206d696e7420746f20746865207a65726f2061646472657373600082015250565b600061364d6020836120ec565b915061365882613617565b602082019050919050565b6000602082019050818103600083015261367c81613640565b9050919050565b7f4552433732313a20746f6b656e20616c7265616479206d696e74656400000000600082015250565b60006136b9601c836120ec565b91506136c482613683565b602082019050919050565b600060208201905081810360008301526136e8816136ac565b905091905056fea2646970667358221220a904b6496d985de03ca1bda46cb9c07ee76932ba87cfac1d2940da580ac7188864736f6c634300080e0033",
  "immutableReferences": {},
  "source": "// SPDX-License-Identifier: UNLICENCED\npragma solidity >=0.4.22 <0.9.0;\n\nimport \"./DroneNFT.sol\";\n\ncontract Drone is DroneNFT {\n    function getDronesByOwner(address _owner)\n        external\n        view\n        returns (uint256[] memory)\n    {\n        uint256 droneBalance = balanceOf(_owner);\n        uint256[] memory result = new uint256[](droneBalance);\n        uint256 counter = 0;\n        for (uint256 i = 0; i < drones.length; i++) {\n            if (ownerOf(i) == _owner) {\n                result[counter] = i;\n                counter++;\n            }\n        }\n        return result;\n    }\n\n    function getDrone(uint256 _index) external view returns (Drone memory) {\n        return drones[_index];\n    }\n}\n",
  "sourcePath": "/home/sergio/Documentos/sergio/projects/drones/smartcontracts/contracts/Drone.sol",
  "compiler": {
    "name": "solc",
    "version": "0.8.14+commit.80d49f37.Emscripten.clang"
  },
  "schemaVersion": "3.4.7",
  "updatedAt": "2022-07-03T12:33:10.340Z",
  "networkType": "ethereum",
  "devdoc": {
    "kind": "dev",
    "methods": {
      "approve(address,uint256)": {
        "details": "See {IERC721-approve}."
      },
      "balanceOf(address)": {
        "details": "See {IERC721-balanceOf}."
      },
      "getApproved(uint256)": {
        "details": "See {IERC721-getApproved}."
      },
      "isApprovedForAll(address,address)": {
        "details": "See {IERC721-isApprovedForAll}."
      },
      "name()": {
        "details": "See {IERC721Metadata-name}."
      },
      "ownerOf(uint256)": {
        "details": "See {IERC721-ownerOf}."
      },
      "safeTransferFrom(address,address,uint256)": {
        "details": "See {IERC721-safeTransferFrom}."
      },
      "safeTransferFrom(address,address,uint256,bytes)": {
        "details": "See {IERC721-safeTransferFrom}."
      },
      "setApprovalForAll(address,bool)": {
        "details": "See {IERC721-setApprovalForAll}."
      },
      "supportsInterface(bytes4)": {
        "details": "See {IERC165-supportsInterface}."
      },
      "symbol()": {
        "details": "See {IERC721Metadata-symbol}."
      },
      "tokenURI(uint256)": {
        "details": "See {IERC721Metadata-tokenURI}."
      },
      "transferFrom(address,address,uint256)": {
        "details": "See {IERC721-transferFrom}."
      }
    },
    "version": 1
  },
  "userdoc": {
    "kind": "user",
    "methods": {},
    "version": 1
  }
}