{
  "contractName": "Drone",
  "abi": [
    {
      "anonymous": false,
      "inputs": [
        {
          "indexed": true,
          "internalType": "address",
          "name": "owner",
          "type": "address"
        },
        {
          "indexed": true,
          "internalType": "address",
          "name": "approved",
          "type": "address"
        },
        {
          "indexed": true,
          "internalType": "uint256",
          "name": "tokenId",
          "type": "uint256"
        }
      ],
      "name": "Approval",
      "type": "event"
    },
    {
      "anonymous": false,
      "inputs": [
        {
          "indexed": true,
          "internalType": "address",
          "name": "owner",
          "type": "address"
        },
        {
          "indexed": true,
          "internalType": "address",
          "name": "operator",
          "type": "address"
        },
        {
          "indexed": false,
          "internalType": "bool",
          "name": "approved",
          "type": "bool"
        }
      ],
      "name": "ApprovalForAll",
      "type": "event"
    },
    {
      "anonymous": false,
      "inputs": [
        {
          "indexed": false,
          "internalType": "uint256",
          "name": "id",
          "type": "uint256"
        }
      ],
      "name": "NewDroneCreated",
      "type": "event"
    },
    {
      "anonymous": false,
      "inputs": [
        {
          "indexed": true,
          "internalType": "address",
          "name": "from",
          "type": "address"
        },
        {
          "indexed": true,
          "internalType": "address",
          "name": "to",
          "type": "address"
        },
        {
          "indexed": true,
          "internalType": "uint256",
          "name": "tokenId",
          "type": "uint256"
        }
      ],
      "name": "Transfer",
      "type": "event"
    },
    {
      "inputs": [
        {
          "internalType": "address",
          "name": "to",
          "type": "address"
        },
        {
          "internalType": "uint256",
          "name": "tokenId",
          "type": "uint256"
        }
      ],
      "name": "approve",
      "outputs": [],
      "stateMutability": "nonpayable",
      "type": "function"
    },
    {
      "inputs": [
        {
          "internalType": "address",
          "name": "owner",
          "type": "address"
        }
      ],
      "name": "balanceOf",
      "outputs": [
        {
          "internalType": "uint256",
          "name": "",
          "type": "uint256"
        }
      ],
      "stateMutability": "view",
      "type": "function",
      "constant": true
    },
    {
      "inputs": [
        {
          "internalType": "uint256",
          "name": "",
          "type": "uint256"
        }
      ],
      "name": "drones",
      "outputs": [
        {
          "internalType": "string",
          "name": "ownerName",
          "type": "string"
        },
        {
          "internalType": "string",
          "name": "model",
          "type": "string"
        },
        {
          "internalType": "uint256",
          "name": "maxFlightAltitude",
          "type": "uint256"
        },
        {
          "internalType": "uint256",
          "name": "minFlightAltitude",
          "type": "uint256"
        },
        {
          "internalType": "uint256",
          "name": "cost",
          "type": "uint256"
        },
        {
          "internalType": "uint8",
          "name": "velocity",
          "type": "uint8"
        },
        {
          "internalType": "address",
          "name": "owner",
          "type": "address"
        }
      ],
      "stateMutability": "view",
      "type": "function",
      "constant": true
    },
    {
      "inputs": [
        {
          "internalType": "uint256",
          "name": "tokenId",
          "type": "uint256"
        }
      ],
      "name": "getApproved",
      "outputs": [
        {
          "internalType": "address",
          "name": "",
          "type": "address"
        }
      ],
      "stateMutability": "view",
      "type": "function",
      "constant": true
    },
    {
      "inputs": [
        {
          "internalType": "address",
          "name": "owner",
          "type": "address"
        },
        {
          "internalType": "address",
          "name": "operator",
          "type": "address"
        }
      ],
      "name": "isApprovedForAll",
      "outputs": [
        {
          "internalType": "bool",
          "name": "",
          "type": "bool"
        }
      ],
      "stateMutability": "view",
      "type": "function",
      "constant": true
    },
    {
      "inputs": [
        {
          "internalType": "string",
          "name": "_ownerName",
          "type": "string"
        },
        {
          "internalType": "string",
          "name": "_model",
          "type": "string"
        },
        {
          "internalType": "uint256",
          "name": "_maxFlightAltitude",
          "type": "uint256"
        },
        {
          "internalType": "uint256",
          "name": "_minFlightAltitude",
          "type": "uint256"
        },
        {
          "internalType": "string[]",
          "name": "_pesticides",
          "type": "string[]"
        },
        {
          "internalType": "uint256",
          "name": "_cost",
          "type": "uint256"
        },
        {
          "internalType": "uint8",
          "name": "_velocity",
          "type": "uint8"
        }
      ],
      "name": "mintNewDrone",
      "outputs": [],
      "stateMutability": "nonpayable",
      "type": "function"
    },
    {
      "inputs": [],
      "name": "name",
      "outputs": [
        {
          "internalType": "string",
          "name": "",
          "type": "string"
        }
      ],
      "stateMutability": "view",
      "type": "function",
      "constant": true
    },
    {
      "inputs": [
        {
          "internalType": "uint256",
          "name": "tokenId",
          "type": "uint256"
        }
      ],
      "name": "ownerOf",
      "outputs": [
        {
          "internalType": "address",
          "name": "",
          "type": "address"
        }
      ],
      "stateMutability": "view",
      "type": "function",
      "constant": true
    },
    {
      "inputs": [
        {
          "internalType": "address",
          "name": "from",
          "type": "address"
        },
        {
          "internalType": "address",
          "name": "to",
          "type": "address"
        },
        {
          "internalType": "uint256",
          "name": "tokenId",
          "type": "uint256"
        }
      ],
      "name": "safeTransferFrom",
      "outputs": [],
      "stateMutability": "nonpayable",
      "type": "function"
    },
    {
      "inputs": [
        {
          "internalType": "address",
          "name": "from",
          "type": "address"
        },
        {
          "internalType": "address",
          "name": "to",
          "type": "address"
        },
        {
          "internalType": "uint256",
          "name": "tokenId",
          "type": "uint256"
        },
        {
          "internalType": "bytes",
          "name": "_data",
          "type": "bytes"
        }
      ],
      "name": "safeTransferFrom",
      "outputs": [],
      "stateMutability": "nonpayable",
      "type": "function"
    },
    {
      "inputs": [
        {
          "internalType": "address",
          "name": "operator",
          "type": "address"
        },
        {
          "internalType": "bool",
          "name": "approved",
          "type": "bool"
        }
      ],
      "name": "setApprovalForAll",
      "outputs": [],
      "stateMutability": "nonpayable",
      "type": "function"
    },
    {
      "inputs": [
        {
          "internalType": "bytes4",
          "name": "interfaceId",
          "type": "bytes4"
        }
      ],
      "name": "supportsInterface",
      "outputs": [
        {
          "internalType": "bool",
          "name": "",
          "type": "bool"
        }
      ],
      "stateMutability": "view",
      "type": "function",
      "constant": true
    },
    {
      "inputs": [],
      "name": "symbol",
      "outputs": [
        {
          "internalType": "string",
          "name": "",
          "type": "string"
        }
      ],
      "stateMutability": "view",
      "type": "function",
      "constant": true
    },
    {
      "inputs": [
        {
          "internalType": "uint256",
          "name": "tokenId",
          "type": "uint256"
        }
      ],
      "name": "tokenURI",
      "outputs": [
        {
          "internalType": "string",
          "name": "",
          "type": "string"
        }
      ],
      "stateMutability": "view",
      "type": "function",
      "constant": true
    },
    {
      "inputs": [
        {
          "internalType": "address",
          "name": "from",
          "type": "address"
        },
        {
          "internalType": "address",
          "name": "to",
          "type": "address"
        },
        {
          "internalType": "uint256",
          "name": "tokenId",
          "type": "uint256"
        }
      ],
      "name": "transferFrom",
      "outputs": [],
      "stateMutability": "nonpayable",
      "type": "function"
    },
    {
      "inputs": [
        {
          "internalType": "address",
          "name": "_owner",
          "type": "address"
        }
      ],
      "name": "getDronesByOwner",
      "outputs": [
        {
          "internalType": "uint256[]",
          "name": "",
          "type": "uint256[]"
        }
      ],
      "stateMutability": "view",
      "type": "function",
      "constant": true
    },
    {
      "inputs": [],
      "name": "getDrones",
      "outputs": [
        {
          "components": [
            {
              "internalType": "string",
              "name": "ownerName",
              "type": "string"
            },
            {
              "internalType": "string",
              "name": "model",
              "type": "string"
            },
            {
              "internalType": "uint256",
              "name": "maxFlightAltitude",
              "type": "uint256"
            },
            {
              "internalType": "uint256",
              "name": "minFlightAltitude",
              "type": "uint256"
            },
            {
              "internalType": "string[]",
              "name": "pesticides",
              "type": "string[]"
            },
            {
              "internalType": "uint256",
              "name": "cost",
              "type": "uint256"
            },
            {
              "internalType": "uint8",
              "name": "velocity",
              "type": "uint8"
            },
            {
              "internalType": "address",
              "name": "owner",
              "type": "address"
            }
          ],
          "internalType": "struct DroneModel.Drone[]",
          "name": "",
          "type": "tuple[]"
        }
      ],
      "stateMutability": "view",
      "type": "function",
      "constant": true
    },
    {
      "inputs": [
        {
          "internalType": "uint256",
          "name": "_index",
          "type": "uint256"
        }
      ],
      "name": "getDrone",
      "outputs": [
        {
          "components": [
            {
              "internalType": "string",
              "name": "ownerName",
              "type": "string"
            },
            {
              "internalType": "string",
              "name": "model",
              "type": "string"
            },
            {
              "internalType": "uint256",
              "name": "maxFlightAltitude",
              "type": "uint256"
            },
            {
              "internalType": "uint256",
              "name": "minFlightAltitude",
              "type": "uint256"
            },
            {
              "internalType": "string[]",
              "name": "pesticides",
              "type": "string[]"
            },
            {
              "internalType": "uint256",
              "name": "cost",
              "type": "uint256"
            },
            {
              "internalType": "uint8",
              "name": "velocity",
              "type": "uint8"
            },
            {
              "internalType": "address",
              "name": "owner",
              "type": "address"
            }
          ],
          "internalType": "struct DroneModel.Drone",
          "name": "",
          "type": "tuple"
        }
      ],
      "stateMutability": "view",
      "type": "function",
      "constant": true
    }
  ],
  "bytecode": "0x60806040523480156200001157600080fd5b506040518060400160405280600581526020017f44726f6e650000000000000000000000000000000000000000000000000000008152506040518060400160405280600381526020017f44524e0000000000000000000000000000000000000000000000000000000000815250816000908051906020019062000096929190620000b8565b508060019080519060200190620000af929190620000b8565b505050620001cc565b828054620000c69062000197565b90600052602060002090601f016020900481019282620000ea576000855562000136565b82601f106200010557805160ff191683800117855562000136565b8280016001018555821562000136579182015b828111156200013557825182559160200191906001019062000118565b5b50905062000145919062000149565b5090565b5b80821115620001645760008160009055506001016200014a565b5090565b7f4e487b7100000000000000000000000000000000000000000000000000000000600052602260045260246000fd5b60006002820490506001821680620001b057607f821691505b602082108103620001c657620001c562000168565b5b50919050565b613bde80620001dc6000396000f3fe608060405234801561001057600080fd5b50600436106101165760003560e01c806370a08231116100a2578063a38c915f11610071578063a38c915f1461030b578063b88d4fde14610327578063c87b56dd14610343578063dbd1be7714610373578063e985e9c5146103a357610116565b806370a082311461026b5780639341bc001461029b57806395d89b41146102d1578063a22cb465146102ef57610116565b8063095ea7b3116100e9578063095ea7b3146101b757806323b872dd146101d35780633c15901e146101ef57806342842e0e1461021f5780636352211e1461023b57610116565b806301ffc9a71461011b57806306fdde031461014b57806307d5ebf514610169578063081812fc14610187575b600080fd5b61013560048036038101906101309190612395565b6103d3565b60405161014291906123dd565b60405180910390f35b6101536104b5565b6040516101609190612491565b60405180910390f35b610171610547565b60405161017e91906127b5565b60405180910390f35b6101a1600480360381019061019c9190612803565b610835565b6040516101ae919061283f565b60405180910390f35b6101d160048036038101906101cc9190612886565b6108ba565b005b6101ed60048036038101906101e891906128c6565b6109d1565b005b61020960048036038101906102049190612919565b610a31565b60405161021691906129f5565b60405180910390f35b610239600480360381019061023491906128c6565b610b27565b005b61025560048036038101906102509190612803565b610b47565b604051610262919061283f565b60405180910390f35b61028560048036038101906102809190612919565b610bf8565b6040516102929190612a26565b60405180910390f35b6102b560048036038101906102b09190612803565b610caf565b6040516102c89796959493929190612a50565b60405180910390f35b6102d9610e3e565b6040516102e69190612491565b60405180910390f35b61030960048036038101906103049190612af9565b610ed0565b005b61032560048036038101906103209190612d80565b610ee6565b005b610341600480360381019061033c9190612f17565b61105b565b005b61035d60048036038101906103589190612803565b6110bd565b60405161036a9190612491565b60405180910390f35b61038d60048036038101906103889190612803565b611164565b60405161039a9190613058565b60405180910390f35b6103bd60048036038101906103b8919061307a565b61142f565b6040516103ca91906123dd565b60405180910390f35b60007f80ac58cd000000000000000000000000000000000000000000000000000000007bffffffffffffffffffffffffffffffffffffffffffffffffffffffff1916827bffffffffffffffffffffffffffffffffffffffffffffffffffffffff1916148061049e57507f5b5e139f000000000000000000000000000000000000000000000000000000007bffffffffffffffffffffffffffffffffffffffffffffffffffffffff1916827bffffffffffffffffffffffffffffffffffffffffffffffffffffffff1916145b806104ae57506104ad826114c3565b5b9050919050565b6060600080546104c4906130e9565b80601f01602080910402602001604051908101604052809291908181526020018280546104f0906130e9565b801561053d5780601f106105125761010080835404028352916020019161053d565b820191906000526020600020905b81548152906001019060200180831161052057829003601f168201915b5050505050905090565b60606007805480602002602001604051908101604052809291908181526020016000905b8282101561082c57838290600052602060002090600702016040518061010001604052908160008201805461059f906130e9565b80601f01602080910402602001604051908101604052809291908181526020018280546105cb906130e9565b80156106185780601f106105ed57610100808354040283529160200191610618565b820191906000526020600020905b8154815290600101906020018083116105fb57829003601f168201915b50505050508152602001600182018054610631906130e9565b80601f016020809104026020016040519081016040528092919081815260200182805461065d906130e9565b80156106aa5780601f1061067f576101008083540402835291602001916106aa565b820191906000526020600020905b81548152906001019060200180831161068d57829003601f168201915b50505050508152602001600282015481526020016003820154815260200160048201805480602002602001604051908101604052809291908181526020016000905b8282101561079857838290600052602060002001805461070b906130e9565b80601f0160208091040260200160405190810160405280929190818152602001828054610737906130e9565b80156107845780601f1061075957610100808354040283529160200191610784565b820191906000526020600020905b81548152906001019060200180831161076757829003601f168201915b5050505050815260200190600101906106ec565b505050508152602001600582015481526020016006820160009054906101000a900460ff1660ff1660ff1681526020016006820160019054906101000a900473ffffffffffffffffffffffffffffffffffffffff1673ffffffffffffffffffffffffffffffffffffffff1673ffffffffffffffffffffffffffffffffffffffff16815250508152602001906001019061056b565b50505050905090565b60006108408261152d565b61087f576040517f08c379a00000000000000000000000000000000000000000000000000000000081526004016108769061318c565b60405180910390fd5b6004600083815260200190815260200160002060009054906101000a900473ffffffffffffffffffffffffffffffffffffffff169050919050565b60006108c582610b47565b90508073ffffffffffffffffffffffffffffffffffffffff168373ffffffffffffffffffffffffffffffffffffffff1603610935576040517f08c379a000000000000000000000000000000000000000000000000000000000815260040161092c9061321e565b60405180910390fd5b8073ffffffffffffffffffffffffffffffffffffffff16610954611599565b73ffffffffffffffffffffffffffffffffffffffff16148061098357506109828161097d611599565b61142f565b5b6109c2576040517f08c379a00000000000000000000000000000000000000000000000000000000081526004016109b9906132b0565b60405180910390fd5b6109cc83836115a1565b505050565b6109e26109dc611599565b8261165a565b610a21576040517f08c379a0000000000000000000000000000000000000000000000000000000008152600401610a1890613342565b60405180910390fd5b610a2c838383611738565b505050565b60606000610a3e83610bf8565b905060008167ffffffffffffffff811115610a5c57610a5b612b43565b5b604051908082528060200260200182016040528015610a8a5781602001602082028036833780820191505090505b5090506000805b600780549050811015610b1b578573ffffffffffffffffffffffffffffffffffffffff16610abe82610b47565b73ffffffffffffffffffffffffffffffffffffffff1603610b085780838381518110610aed57610aec613362565b5b6020026020010181815250508180610b04906133c0565b9250505b8080610b13906133c0565b915050610a91565b50819350505050919050565b610b428383836040518060200160405280600081525061105b565b505050565b6000806002600084815260200190815260200160002060009054906101000a900473ffffffffffffffffffffffffffffffffffffffff169050600073ffffffffffffffffffffffffffffffffffffffff168173ffffffffffffffffffffffffffffffffffffffff1603610bef576040517f08c379a0000000000000000000000000000000000000000000000000000000008152600401610be69061347a565b60405180910390fd5b80915050919050565b60008073ffffffffffffffffffffffffffffffffffffffff168273ffffffffffffffffffffffffffffffffffffffff1603610c68576040517f08c379a0000000000000000000000000000000000000000000000000000000008152600401610c5f9061350c565b60405180910390fd5b600360008373ffffffffffffffffffffffffffffffffffffffff1673ffffffffffffffffffffffffffffffffffffffff168152602001908152602001600020549050919050565b60078181548110610cbf57600080fd5b9060005260206000209060070201600091509050806000018054610ce2906130e9565b80601f0160208091040260200160405190810160405280929190818152602001828054610d0e906130e9565b8015610d5b5780601f10610d3057610100808354040283529160200191610d5b565b820191906000526020600020905b815481529060010190602001808311610d3e57829003601f168201915b505050505090806001018054610d70906130e9565b80601f0160208091040260200160405190810160405280929190818152602001828054610d9c906130e9565b8015610de95780601f10610dbe57610100808354040283529160200191610de9565b820191906000526020600020905b815481529060010190602001808311610dcc57829003601f168201915b5050505050908060020154908060030154908060050154908060060160009054906101000a900460ff16908060060160019054906101000a900473ffffffffffffffffffffffffffffffffffffffff16905087565b606060018054610e4d906130e9565b80601f0160208091040260200160405190810160405280929190818152602001828054610e79906130e9565b8015610ec65780601f10610e9b57610100808354040283529160200191610ec6565b820191906000526020600020905b815481529060010190602001808311610ea957829003601f168201915b5050505050905090565b610ee2610edb611599565b838361199e565b5050565b600033905060076040518061010001604052808a81526020018981526020018881526020018781526020018681526020018581526020018460ff1681526020018373ffffffffffffffffffffffffffffffffffffffff1681525090806001815401808255809150506001900390600052602060002090600702016000909190919091506000820151816000019080519060200190610f85929190612164565b506020820151816001019080519060200190610fa2929190612164565b5060408201518160020155606082015181600301556080820151816004019080519060200190610fd39291906121ea565b5060a0820151816005015560c08201518160060160006101000a81548160ff021916908360ff16021790555060e08201518160060160016101000a81548173ffffffffffffffffffffffffffffffffffffffff021916908373ffffffffffffffffffffffffffffffffffffffff160217905550505061105181611b0a565b5050505050505050565b61106c611066611599565b8361165a565b6110ab576040517f08c379a00000000000000000000000000000000000000000000000000000000081526004016110a290613342565b60405180910390fd5b6110b784848484611b67565b50505050565b60606110c88261152d565b611107576040517f08c379a00000000000000000000000000000000000000000000000000000000081526004016110fe9061359e565b60405180910390fd5b6000611111611bc3565b90506000815111611131576040518060200160405280600081525061115c565b8061113b84611bda565b60405160200161114c9291906135fa565b6040516020818303038152906040525b915050919050565b61116c61224a565b600782815481106111805761117f613362565b5b9060005260206000209060070201604051806101000160405290816000820180546111aa906130e9565b80601f01602080910402602001604051908101604052809291908181526020018280546111d6906130e9565b80156112235780601f106111f857610100808354040283529160200191611223565b820191906000526020600020905b81548152906001019060200180831161120657829003601f168201915b5050505050815260200160018201805461123c906130e9565b80601f0160208091040260200160405190810160405280929190818152602001828054611268906130e9565b80156112b55780601f1061128a576101008083540402835291602001916112b5565b820191906000526020600020905b81548152906001019060200180831161129857829003601f168201915b50505050508152602001600282015481526020016003820154815260200160048201805480602002602001604051908101604052809291908181526020016000905b828210156113a3578382906000526020600020018054611316906130e9565b80601f0160208091040260200160405190810160405280929190818152602001828054611342906130e9565b801561138f5780601f106113645761010080835404028352916020019161138f565b820191906000526020600020905b81548152906001019060200180831161137257829003601f168201915b5050505050815260200190600101906112f7565b505050508152602001600582015481526020016006820160009054906101000a900460ff1660ff1660ff1681526020016006820160019054906101000a900473ffffffffffffffffffffffffffffffffffffffff1673ffffffffffffffffffffffffffffffffffffffff1673ffffffffffffffffffffffffffffffffffffffff16815250509050919050565b6000600560008473ffffffffffffffffffffffffffffffffffffffff1673ffffffffffffffffffffffffffffffffffffffff16815260200190815260200160002060008373ffffffffffffffffffffffffffffffffffffffff1673ffffffffffffffffffffffffffffffffffffffff16815260200190815260200160002060009054906101000a900460ff16905092915050565b60007f01ffc9a7000000000000000000000000000000000000000000000000000000007bffffffffffffffffffffffffffffffffffffffffffffffffffffffff1916827bffffffffffffffffffffffffffffffffffffffffffffffffffffffff1916149050919050565b60008073ffffffffffffffffffffffffffffffffffffffff166002600084815260200190815260200160002060009054906101000a900473ffffffffffffffffffffffffffffffffffffffff1673ffffffffffffffffffffffffffffffffffffffff1614159050919050565b600033905090565b816004600083815260200190815260200160002060006101000a81548173ffffffffffffffffffffffffffffffffffffffff021916908373ffffffffffffffffffffffffffffffffffffffff160217905550808273ffffffffffffffffffffffffffffffffffffffff1661161483610b47565b73ffffffffffffffffffffffffffffffffffffffff167f8c5be1e5ebec7d5bd14f71427d1e84f3dd0314c0f7b2291e5b200ac8c7c3b92560405160405180910390a45050565b60006116658261152d565b6116a4576040517f08c379a000000000000000000000000000000000000000000000000000000000815260040161169b90613690565b60405180910390fd5b60006116af83610b47565b90508073ffffffffffffffffffffffffffffffffffffffff168473ffffffffffffffffffffffffffffffffffffffff1614806116f157506116f0818561142f565b5b8061172f57508373ffffffffffffffffffffffffffffffffffffffff1661171784610835565b73ffffffffffffffffffffffffffffffffffffffff16145b91505092915050565b8273ffffffffffffffffffffffffffffffffffffffff1661175882610b47565b73ffffffffffffffffffffffffffffffffffffffff16146117ae576040517f08c379a00000000000000000000000000000000000000000000000000000000081526004016117a590613722565b60405180910390fd5b600073ffffffffffffffffffffffffffffffffffffffff168273ffffffffffffffffffffffffffffffffffffffff160361181d576040517f08c379a0000000000000000000000000000000000000000000000000000000008152600401611814906137b4565b60405180910390fd5b611828838383611d3a565b6118336000826115a1565b6001600360008573ffffffffffffffffffffffffffffffffffffffff1673ffffffffffffffffffffffffffffffffffffffff168152602001908152602001600020600082825461188391906137d4565b925050819055506001600360008473ffffffffffffffffffffffffffffffffffffffff1673ffffffffffffffffffffffffffffffffffffffff16815260200190815260200160002060008282546118da9190613808565b92505081905550816002600083815260200190815260200160002060006101000a81548173ffffffffffffffffffffffffffffffffffffffff021916908373ffffffffffffffffffffffffffffffffffffffff160217905550808273ffffffffffffffffffffffffffffffffffffffff168473ffffffffffffffffffffffffffffffffffffffff167fddf252ad1be2c89b69c2b068fc378daa952ba7f163c4a11628f55a4df523b3ef60405160405180910390a4611999838383611d3f565b505050565b8173ffffffffffffffffffffffffffffffffffffffff168373ffffffffffffffffffffffffffffffffffffffff1603611a0c576040517f08c379a0000000000000000000000000000000000000000000000000000000008152600401611a03906138aa565b60405180910390fd5b80600560008573ffffffffffffffffffffffffffffffffffffffff1673ffffffffffffffffffffffffffffffffffffffff16815260200190815260200160002060008473ffffffffffffffffffffffffffffffffffffffff1673ffffffffffffffffffffffffffffffffffffffff16815260200190815260200160002060006101000a81548160ff0219169083151502179055508173ffffffffffffffffffffffffffffffffffffffff168373ffffffffffffffffffffffffffffffffffffffff167f17307eab39ab6107e8899845ad3d59bd9653f200f220920489ca2b5937696c3183604051611afd91906123dd565b60405180910390a3505050565b6000611b166006611d44565b9050611b228282611d52565b611b2c6006611d70565b7f564ba5ec5742b2e6afc952e92235671c7a1959fe20648c59ded66c272150954481604051611b5b9190612a26565b60405180910390a15050565b611b72848484611738565b611b7e84848484611d86565b611bbd576040517f08c379a0000000000000000000000000000000000000000000000000000000008152600401611bb49061393c565b60405180910390fd5b50505050565b606060405180602001604052806000815250905090565b606060008203611c21576040518060400160405280600181526020017f30000000000000000000000000000000000000000000000000000000000000008152509050611d35565b600082905060005b60008214611c53578080611c3c906133c0565b915050600a82611c4c919061398b565b9150611c29565b60008167ffffffffffffffff811115611c6f57611c6e612b43565b5b6040519080825280601f01601f191660200182016040528015611ca15781602001600182028036833780820191505090505b5090505b60008514611d2e57600182611cba91906137d4565b9150600a85611cc991906139bc565b6030611cd59190613808565b60f81b818381518110611ceb57611cea613362565b5b60200101907effffffffffffffffffffffffffffffffffffffffffffffffffffffffffffff1916908160001a905350600a85611d27919061398b565b9450611ca5565b8093505050505b919050565b505050565b505050565b600081600001549050919050565b611d6c828260405180602001604052806000815250611f0d565b5050565b6001816000016000828254019250508190555050565b6000611da78473ffffffffffffffffffffffffffffffffffffffff16611f68565b15611f00578373ffffffffffffffffffffffffffffffffffffffff1663150b7a02611dd0611599565b8786866040518563ffffffff1660e01b8152600401611df29493929190613a42565b6020604051808303816000875af1925050508015611e2e57506040513d601f19601f82011682018060405250810190611e2b9190613aa3565b60015b611eb0573d8060008114611e5e576040519150601f19603f3d011682016040523d82523d6000602084013e611e63565b606091505b506000815103611ea8576040517f08c379a0000000000000000000000000000000000000000000000000000000008152600401611e9f9061393c565b60405180910390fd5b805181602001fd5b63150b7a0260e01b7bffffffffffffffffffffffffffffffffffffffffffffffffffffffff1916817bffffffffffffffffffffffffffffffffffffffffffffffffffffffff191614915050611f05565b600190505b949350505050565b611f178383611f8b565b611f246000848484611d86565b611f63576040517f08c379a0000000000000000000000000000000000000000000000000000000008152600401611f5a9061393c565b60405180910390fd5b505050565b6000808273ffffffffffffffffffffffffffffffffffffffff163b119050919050565b600073ffffffffffffffffffffffffffffffffffffffff168273ffffffffffffffffffffffffffffffffffffffff1603611ffa576040517f08c379a0000000000000000000000000000000000000000000000000000000008152600401611ff190613b1c565b60405180910390fd5b6120038161152d565b15612043576040517f08c379a000000000000000000000000000000000000000000000000000000000815260040161203a90613b88565b60405180910390fd5b61204f60008383611d3a565b6001600360008473ffffffffffffffffffffffffffffffffffffffff1673ffffffffffffffffffffffffffffffffffffffff168152602001908152602001600020600082825461209f9190613808565b92505081905550816002600083815260200190815260200160002060006101000a81548173ffffffffffffffffffffffffffffffffffffffff021916908373ffffffffffffffffffffffffffffffffffffffff160217905550808273ffffffffffffffffffffffffffffffffffffffff16600073ffffffffffffffffffffffffffffffffffffffff167fddf252ad1be2c89b69c2b068fc378daa952ba7f163c4a11628f55a4df523b3ef60405160405180910390a461216060008383611d3f565b5050565b828054612170906130e9565b90600052602060002090601f01602090048101928261219257600085556121d9565b82601f106121ab57805160ff19168380011785556121d9565b828001600101855582156121d9579182015b828111156121d85782518255916020019190600101906121bd565b5b5090506121e691906122a8565b5090565b828054828255906000526020600020908101928215612239579160200282015b82811115612238578251829080519060200190612228929190612164565b509160200191906001019061220a565b5b50905061224691906122c5565b5090565b604051806101000160405280606081526020016060815260200160008152602001600081526020016060815260200160008152602001600060ff168152602001600073ffffffffffffffffffffffffffffffffffffffff1681525090565b5b808211156122c15760008160009055506001016122a9565b5090565b5b808211156122e557600081816122dc91906122e9565b506001016122c6565b5090565b5080546122f5906130e9565b6000825580601f106123075750612326565b601f01602090049060005260206000209081019061232591906122a8565b5b50565b6000604051905090565b600080fd5b600080fd5b60007fffffffff0000000000000000000000000000000000000000000000000000000082169050919050565b6123728161233d565b811461237d57600080fd5b50565b60008135905061238f81612369565b92915050565b6000602082840312156123ab576123aa612333565b5b60006123b984828501612380565b91505092915050565b60008115159050919050565b6123d7816123c2565b82525050565b60006020820190506123f260008301846123ce565b92915050565b600081519050919050565b600082825260208201905092915050565b60005b83811015612432578082015181840152602081019050612417565b83811115612441576000848401525b50505050565b6000601f19601f8301169050919050565b6000612463826123f8565b61246d8185612403565b935061247d818560208601612414565b61248681612447565b840191505092915050565b600060208201905081810360008301526124ab8184612458565b905092915050565b600081519050919050565b600082825260208201905092915050565b6000819050602082019050919050565b600082825260208201905092915050565b60006124fb826123f8565b61250581856124df565b9350612515818560208601612414565b61251e81612447565b840191505092915050565b6000819050919050565b61253c81612529565b82525050565b600081519050919050565b600082825260208201905092915050565b6000819050602082019050919050565b600061257a83836124f0565b905092915050565b6000602082019050919050565b600061259a82612542565b6125a4818561254d565b9350836020820285016125b68561255e565b8060005b858110156125f257848403895281516125d3858261256e565b94506125de83612582565b925060208a019950506001810190506125ba565b50829750879550505050505092915050565b600060ff82169050919050565b61261a81612604565b82525050565b600073ffffffffffffffffffffffffffffffffffffffff82169050919050565b600061264b82612620565b9050919050565b61265b81612640565b82525050565b600061010083016000830151848203600086015261267f82826124f0565b9150506020830151848203602086015261269982826124f0565b91505060408301516126ae6040860182612533565b5060608301516126c16060860182612533565b50608083015184820360808601526126d9828261258f565b91505060a08301516126ee60a0860182612533565b5060c083015161270160c0860182612611565b5060e083015161271460e0860182612652565b508091505092915050565b600061272b8383612661565b905092915050565b6000602082019050919050565b600061274b826124b3565b61275581856124be565b935083602082028501612767856124cf565b8060005b858110156127a35784840389528151612784858261271f565b945061278f83612733565b925060208a0199505060018101905061276b565b50829750879550505050505092915050565b600060208201905081810360008301526127cf8184612740565b905092915050565b6127e081612529565b81146127eb57600080fd5b50565b6000813590506127fd816127d7565b92915050565b60006020828403121561281957612818612333565b5b6000612827848285016127ee565b91505092915050565b61283981612640565b82525050565b60006020820190506128546000830184612830565b92915050565b61286381612640565b811461286e57600080fd5b50565b6000813590506128808161285a565b92915050565b6000806040838503121561289d5761289c612333565b5b60006128ab85828601612871565b92505060206128bc858286016127ee565b9150509250929050565b6000806000606084860312156128df576128de612333565b5b60006128ed86828701612871565b93505060206128fe86828701612871565b925050604061290f868287016127ee565b9150509250925092565b60006020828403121561292f5761292e612333565b5b600061293d84828501612871565b91505092915050565b600081519050919050565b600082825260208201905092915050565b6000819050602082019050919050565b600061297e8383612533565b60208301905092915050565b6000602082019050919050565b60006129a282612946565b6129ac8185612951565b93506129b783612962565b8060005b838110156129e85781516129cf8882612972565b97506129da8361298a565b9250506001810190506129bb565b5085935050505092915050565b60006020820190508181036000830152612a0f8184612997565b905092915050565b612a2081612529565b82525050565b6000602082019050612a3b6000830184612a17565b92915050565b612a4a81612604565b82525050565b600060e0820190508181036000830152612a6a818a612458565b90508181036020830152612a7e8189612458565b9050612a8d6040830188612a17565b612a9a6060830187612a17565b612aa76080830186612a17565b612ab460a0830185612a41565b612ac160c0830184612830565b98975050505050505050565b612ad6816123c2565b8114612ae157600080fd5b50565b600081359050612af381612acd565b92915050565b60008060408385031215612b1057612b0f612333565b5b6000612b1e85828601612871565b9250506020612b2f85828601612ae4565b9150509250929050565b600080fd5b600080fd5b7f4e487b7100000000000000000000000000000000000000000000000000000000600052604160045260246000fd5b612b7b82612447565b810181811067ffffffffffffffff82111715612b9a57612b99612b43565b5b80604052505050565b6000612bad612329565b9050612bb98282612b72565b919050565b600067ffffffffffffffff821115612bd957612bd8612b43565b5b612be282612447565b9050602081019050919050565b82818337600083830152505050565b6000612c11612c0c84612bbe565b612ba3565b905082815260208101848484011115612c2d57612c2c612b3e565b5b612c38848285612bef565b509392505050565b600082601f830112612c5557612c54612b39565b5b8135612c65848260208601612bfe565b91505092915050565b600067ffffffffffffffff821115612c8957612c88612b43565b5b602082029050602081019050919050565b600080fd5b6000612cb2612cad84612c6e565b612ba3565b90508083825260208201905060208402830185811115612cd557612cd4612c9a565b5b835b81811015612d1c57803567ffffffffffffffff811115612cfa57612cf9612b39565b5b808601612d078982612c40565b85526020850194505050602081019050612cd7565b5050509392505050565b600082601f830112612d3b57612d3a612b39565b5b8135612d4b848260208601612c9f565b91505092915050565b612d5d81612604565b8114612d6857600080fd5b50565b600081359050612d7a81612d54565b92915050565b600080600080600080600060e0888a031215612d9f57612d9e612333565b5b600088013567ffffffffffffffff811115612dbd57612dbc612338565b5b612dc98a828b01612c40565b975050602088013567ffffffffffffffff811115612dea57612de9612338565b5b612df68a828b01612c40565b9650506040612e078a828b016127ee565b9550506060612e188a828b016127ee565b945050608088013567ffffffffffffffff811115612e3957612e38612338565b5b612e458a828b01612d26565b93505060a0612e568a828b016127ee565b92505060c0612e678a828b01612d6b565b91505092959891949750929550565b600067ffffffffffffffff821115612e9157612e90612b43565b5b612e9a82612447565b9050602081019050919050565b6000612eba612eb584612e76565b612ba3565b905082815260208101848484011115612ed657612ed5612b3e565b5b612ee1848285612bef565b509392505050565b600082601f830112612efe57612efd612b39565b5b8135612f0e848260208601612ea7565b91505092915050565b60008060008060808587031215612f3157612f30612333565b5b6000612f3f87828801612871565b9450506020612f5087828801612871565b9350506040612f61878288016127ee565b925050606085013567ffffffffffffffff811115612f8257612f81612338565b5b612f8e87828801612ee9565b91505092959194509250565b6000610100830160008301518482036000860152612fb882826124f0565b91505060208301518482036020860152612fd282826124f0565b9150506040830151612fe76040860182612533565b506060830151612ffa6060860182612533565b5060808301518482036080860152613012828261258f565b91505060a083015161302760a0860182612533565b5060c083015161303a60c0860182612611565b5060e083015161304d60e0860182612652565b508091505092915050565b600060208201905081810360008301526130728184612f9a565b905092915050565b6000806040838503121561309157613090612333565b5b600061309f85828601612871565b92505060206130b085828601612871565b9150509250929050565b7f4e487b7100000000000000000000000000000000000000000000000000000000600052602260045260246000fd5b6000600282049050600182168061310157607f821691505b602082108103613114576131136130ba565b5b50919050565b7f4552433732313a20617070726f76656420717565727920666f72206e6f6e657860008201527f697374656e7420746f6b656e0000000000000000000000000000000000000000602082015250565b6000613176602c83612403565b91506131818261311a565b604082019050919050565b600060208201905081810360008301526131a581613169565b9050919050565b7f4552433732313a20617070726f76616c20746f2063757272656e74206f776e6560008201527f7200000000000000000000000000000000000000000000000000000000000000602082015250565b6000613208602183612403565b9150613213826131ac565b604082019050919050565b60006020820190508181036000830152613237816131fb565b9050919050565b7f4552433732313a20617070726f76652063616c6c6572206973206e6f74206f7760008201527f6e6572206e6f7220617070726f76656420666f7220616c6c0000000000000000602082015250565b600061329a603883612403565b91506132a58261323e565b604082019050919050565b600060208201905081810360008301526132c98161328d565b9050919050565b7f4552433732313a207472616e736665722063616c6c6572206973206e6f74206f60008201527f776e6572206e6f7220617070726f766564000000000000000000000000000000602082015250565b600061332c603183612403565b9150613337826132d0565b604082019050919050565b6000602082019050818103600083015261335b8161331f565b9050919050565b7f4e487b7100000000000000000000000000000000000000000000000000000000600052603260045260246000fd5b7f4e487b7100000000000000000000000000000000000000000000000000000000600052601160045260246000fd5b60006133cb82612529565b91507fffffffffffffffffffffffffffffffffffffffffffffffffffffffffffffffff82036133fd576133fc613391565b5b600182019050919050565b7f4552433732313a206f776e657220717565727920666f72206e6f6e657869737460008201527f656e7420746f6b656e0000000000000000000000000000000000000000000000602082015250565b6000613464602983612403565b915061346f82613408565b604082019050919050565b6000602082019050818103600083015261349381613457565b9050919050565b7f4552433732313a2062616c616e636520717565727920666f7220746865207a6560008201527f726f206164647265737300000000000000000000000000000000000000000000602082015250565b60006134f6602a83612403565b91506135018261349a565b604082019050919050565b60006020820190508181036000830152613525816134e9565b9050919050565b7f4552433732314d657461646174613a2055524920717565727920666f72206e6f60008201527f6e6578697374656e7420746f6b656e0000000000000000000000000000000000602082015250565b6000613588602f83612403565b91506135938261352c565b604082019050919050565b600060208201905081810360008301526135b78161357b565b9050919050565b600081905092915050565b60006135d4826123f8565b6135de81856135be565b93506135ee818560208601612414565b80840191505092915050565b600061360682856135c9565b915061361282846135c9565b91508190509392505050565b7f4552433732313a206f70657261746f7220717565727920666f72206e6f6e657860008201527f697374656e7420746f6b656e0000000000000000000000000000000000000000602082015250565b600061367a602c83612403565b91506136858261361e565b604082019050919050565b600060208201905081810360008301526136a98161366d565b9050919050565b7f4552433732313a207472616e736665722066726f6d20696e636f72726563742060008201527f6f776e6572000000000000000000000000000000000000000000000000000000602082015250565b600061370c602583612403565b9150613717826136b0565b604082019050919050565b6000602082019050818103600083015261373b816136ff565b9050919050565b7f4552433732313a207472616e7366657220746f20746865207a65726f2061646460008201527f7265737300000000000000000000000000000000000000000000000000000000602082015250565b600061379e602483612403565b91506137a982613742565b604082019050919050565b600060208201905081810360008301526137cd81613791565b9050919050565b60006137df82612529565b91506137ea83612529565b9250828210156137fd576137fc613391565b5b828203905092915050565b600061381382612529565b915061381e83612529565b9250827fffffffffffffffffffffffffffffffffffffffffffffffffffffffffffffffff0382111561385357613852613391565b5b828201905092915050565b7f4552433732313a20617070726f766520746f2063616c6c657200000000000000600082015250565b6000613894601983612403565b915061389f8261385e565b602082019050919050565b600060208201905081810360008301526138c381613887565b9050919050565b7f4552433732313a207472616e7366657220746f206e6f6e20455243373231526560008201527f63656976657220696d706c656d656e7465720000000000000000000000000000602082015250565b6000613926603283612403565b9150613931826138ca565b604082019050919050565b6000602082019050818103600083015261395581613919565b9050919050565b7f4e487b7100000000000000000000000000000000000000000000000000000000600052601260045260246000fd5b600061399682612529565b91506139a183612529565b9250826139b1576139b061395c565b5b828204905092915050565b60006139c782612529565b91506139d283612529565b9250826139e2576139e161395c565b5b828206905092915050565b600081519050919050565b600082825260208201905092915050565b6000613a14826139ed565b613a1e81856139f8565b9350613a2e818560208601612414565b613a3781612447565b840191505092915050565b6000608082019050613a576000830187612830565b613a646020830186612830565b613a716040830185612a17565b8181036060830152613a838184613a09565b905095945050505050565b600081519050613a9d81612369565b92915050565b600060208284031215613ab957613ab8612333565b5b6000613ac784828501613a8e565b91505092915050565b7f4552433732313a206d696e7420746f20746865207a65726f2061646472657373600082015250565b6000613b06602083612403565b9150613b1182613ad0565b602082019050919050565b60006020820190508181036000830152613b3581613af9565b9050919050565b7f4552433732313a20746f6b656e20616c7265616479206d696e74656400000000600082015250565b6000613b72601c83612403565b9150613b7d82613b3c565b602082019050919050565b60006020820190508181036000830152613ba181613b65565b905091905056fea26469706673582212208925e2cca18dc11db883811818d928f78c56d5975a52f23a32b06e78fa7bf37164736f6c634300080e0033",
  "immutableReferences": {},
  "source": "// SPDX-License-Identifier: UNLICENCED\npragma solidity >=0.4.22 <0.9.0;\n\nimport \"./DroneNFT.sol\";\n\ncontract Drone is DroneNFT {\n    function getDronesByOwner(address _owner)\n        external\n        view\n        returns (uint256[] memory)\n    {\n        uint256 droneBalance = balanceOf(_owner);\n        uint256[] memory result = new uint256[](droneBalance);\n        uint256 counter = 0;\n        for (uint256 i = 0; i < drones.length; i++) {\n            if (ownerOf(i) == _owner) {\n                result[counter] = i;\n                counter++;\n            }\n        }\n        return result;\n    }\n\n    function getDrones() external view returns (Drone[] memory) {\n        return drones;\n    }\n\n    function getDrone(uint256 _index) external view returns (Drone memory) {\n        return drones[_index];\n    }\n}\n",
  "sourcePath": "/home/sergio/Documentos/sergio/projects/drones/smartcontracts/contracts/Drone.sol",
  "compiler": {
    "name": "solc",
    "version": "0.8.14+commit.80d49f37.Emscripten.clang"
  },
  "schemaVersion": "3.4.7",
  "updatedAt": "2022-07-03T13:23:16.765Z",
  "networkType": "ethereum",
  "devdoc": {
    "kind": "dev",
    "methods": {
      "approve(address,uint256)": {
        "details": "See {IERC721-approve}."
      },
      "balanceOf(address)": {
        "details": "See {IERC721-balanceOf}."
      },
      "getApproved(uint256)": {
        "details": "See {IERC721-getApproved}."
      },
      "isApprovedForAll(address,address)": {
        "details": "See {IERC721-isApprovedForAll}."
      },
      "name()": {
        "details": "See {IERC721Metadata-name}."
      },
      "ownerOf(uint256)": {
        "details": "See {IERC721-ownerOf}."
      },
      "safeTransferFrom(address,address,uint256)": {
        "details": "See {IERC721-safeTransferFrom}."
      },
      "safeTransferFrom(address,address,uint256,bytes)": {
        "details": "See {IERC721-safeTransferFrom}."
      },
      "setApprovalForAll(address,bool)": {
        "details": "See {IERC721-setApprovalForAll}."
      },
      "supportsInterface(bytes4)": {
        "details": "See {IERC165-supportsInterface}."
      },
      "symbol()": {
        "details": "See {IERC721Metadata-symbol}."
      },
      "tokenURI(uint256)": {
        "details": "See {IERC721Metadata-tokenURI}."
      },
      "transferFrom(address,address,uint256)": {
        "details": "See {IERC721-transferFrom}."
      }
    },
    "version": 1
  },
  "userdoc": {
    "kind": "user",
    "methods": {},
    "version": 1
  }
}