{
  "contractName": "Manager",
  "abi": [
    {
      "inputs": [],
      "stateMutability": "nonpayable",
      "type": "constructor"
    },
    {
      "anonymous": false,
      "inputs": [
        {
          "indexed": true,
          "internalType": "address",
          "name": "previousOwner",
          "type": "address"
        },
        {
          "indexed": true,
          "internalType": "address",
          "name": "newOwner",
          "type": "address"
        }
      ],
      "name": "OwnershipTransferred",
      "type": "event"
    },
    {
      "inputs": [
        {
          "internalType": "uint256",
          "name": "",
          "type": "uint256"
        }
      ],
      "name": "jobs",
      "outputs": [
        {
          "internalType": "uint256",
          "name": "droneId",
          "type": "uint256"
        },
        {
          "internalType": "uint256",
          "name": "plotId",
          "type": "uint256"
        }
      ],
      "stateMutability": "view",
      "type": "function",
      "constant": true
    },
    {
      "inputs": [],
      "name": "owner",
      "outputs": [
        {
          "internalType": "address",
          "name": "",
          "type": "address"
        }
      ],
      "stateMutability": "view",
      "type": "function",
      "constant": true
    },
    {
      "inputs": [],
      "name": "renounceOwnership",
      "outputs": [],
      "stateMutability": "nonpayable",
      "type": "function"
    },
    {
      "inputs": [
        {
          "internalType": "address",
          "name": "newOwner",
          "type": "address"
        }
      ],
      "name": "transferOwnership",
      "outputs": [],
      "stateMutability": "nonpayable",
      "type": "function"
    },
    {
      "inputs": [
        {
          "internalType": "address",
          "name": "_address",
          "type": "address"
        }
      ],
      "name": "setDroneContractAddress",
      "outputs": [],
      "stateMutability": "nonpayable",
      "type": "function"
    },
    {
      "inputs": [
        {
          "internalType": "address",
          "name": "_address",
          "type": "address"
        }
      ],
      "name": "setPlotContractAddress",
      "outputs": [],
      "stateMutability": "nonpayable",
      "type": "function"
    },
    {
      "inputs": [
        {
          "internalType": "uint256",
          "name": "_droneId",
          "type": "uint256"
        },
        {
          "internalType": "uint256",
          "name": "_plotId",
          "type": "uint256"
        }
      ],
      "name": "setPendingJob",
      "outputs": [],
      "stateMutability": "nonpayable",
      "type": "function"
    }
  ],
  "bytecode": "0x608060405234801561001057600080fd5b5061002d6100226100dc60201b60201c565b6100e460201b60201c565b7344e6106733ba7cbf2ab3b29b20e2d7957689d4b0600160006101000a81548173ffffffffffffffffffffffffffffffffffffffff021916908373ffffffffffffffffffffffffffffffffffffffff16021790555073d7c53a5ab24d0d5e083f50a2e520859ccf0fe76c600260006101000a81548173ffffffffffffffffffffffffffffffffffffffff021916908373ffffffffffffffffffffffffffffffffffffffff1602179055506101a8565b600033905090565b60008060009054906101000a900473ffffffffffffffffffffffffffffffffffffffff169050816000806101000a81548173ffffffffffffffffffffffffffffffffffffffff021916908373ffffffffffffffffffffffffffffffffffffffff1602179055508173ffffffffffffffffffffffffffffffffffffffff168173ffffffffffffffffffffffffffffffffffffffff167f8be0079c531659141344cd1fd0a4f28419497f9722a3daafe3b4186f6b6457e060405160405180910390a35050565b610fb4806101b76000396000f3fe608060405234801561001057600080fd5b506004361061007d5760003560e01c8063783166d91161005b578063783166d9146100d95780638da5cb5b146100f5578063e6d6bca514610113578063f2fde38b1461012f5761007d565b8063180aedf314610082578063394ad0da146100b3578063715018a6146100cf575b600080fd5b61009c600480360381019061009791906107c9565b61014b565b6040516100aa929190610805565b60405180910390f35b6100cd60048036038101906100c8919061088c565b61017f565b005b6100d761023f565b005b6100f360048036038101906100ee91906108b9565b6102c7565b005b6100fd6104d3565b60405161010a9190610908565b60405180910390f35b61012d6004803603810190610128919061088c565b6104fc565b005b6101496004803603810190610144919061088c565b6105bc565b005b6003818154811061015b57600080fd5b90600052602060002090600202016000915090508060000154908060010154905082565b6101876106b3565b73ffffffffffffffffffffffffffffffffffffffff166101a56104d3565b73ffffffffffffffffffffffffffffffffffffffff16146101fb576040517f08c379a00000000000000000000000000000000000000000000000000000000081526004016101f290610980565b60405180910390fd5b80600260006101000a81548173ffffffffffffffffffffffffffffffffffffffff021916908373ffffffffffffffffffffffffffffffffffffffff16021790555050565b6102476106b3565b73ffffffffffffffffffffffffffffffffffffffff166102656104d3565b73ffffffffffffffffffffffffffffffffffffffff16146102bb576040517f08c379a00000000000000000000000000000000000000000000000000000000081526004016102b290610980565b60405180910390fd5b6102c560006106bb565b565b6000600260009054906101000a900473ffffffffffffffffffffffffffffffffffffffff1673ffffffffffffffffffffffffffffffffffffffff1663cfdd4fbd836040518263ffffffff1660e01b815260040161032491906109a0565b600060405180830381865afa158015610341573d6000803e3d6000fd5b505050506040513d6000823e3d601f19601f8201168201806040525081019061036a9190610c1d565b90506000600160009054906101000a900473ffffffffffffffffffffffffffffffffffffffff1673ffffffffffffffffffffffffffffffffffffffff1663dbd1be77856040518263ffffffff1660e01b81526004016103c991906109a0565b600060405180830381865afa1580156103e6573d6000803e3d6000fd5b505050506040513d6000823e3d601f19601f8201168201806040525081019061040f9190610ea3565b9050816080015173ffffffffffffffffffffffffffffffffffffffff163373ffffffffffffffffffffffffffffffffffffffff161461044d57600080fd5b80604001518260400151101561046257600080fd5b80606001518260600151101561047757600080fd5b600360405180604001604052808681526020018581525090806001815401808255809150506001900390600052602060002090600202016000909190919091506000820151816000015560208201518160010155505050505050565b60008060009054906101000a900473ffffffffffffffffffffffffffffffffffffffff16905090565b6105046106b3565b73ffffffffffffffffffffffffffffffffffffffff166105226104d3565b73ffffffffffffffffffffffffffffffffffffffff1614610578576040517f08c379a000000000000000000000000000000000000000000000000000000000815260040161056f90610980565b60405180910390fd5b80600160006101000a81548173ffffffffffffffffffffffffffffffffffffffff021916908373ffffffffffffffffffffffffffffffffffffffff16021790555050565b6105c46106b3565b73ffffffffffffffffffffffffffffffffffffffff166105e26104d3565b73ffffffffffffffffffffffffffffffffffffffff1614610638576040517f08c379a000000000000000000000000000000000000000000000000000000000815260040161062f90610980565b60405180910390fd5b600073ffffffffffffffffffffffffffffffffffffffff168173ffffffffffffffffffffffffffffffffffffffff16036106a7576040517f08c379a000000000000000000000000000000000000000000000000000000000815260040161069e90610f5e565b60405180910390fd5b6106b0816106bb565b50565b600033905090565b60008060009054906101000a900473ffffffffffffffffffffffffffffffffffffffff169050816000806101000a81548173ffffffffffffffffffffffffffffffffffffffff021916908373ffffffffffffffffffffffffffffffffffffffff1602179055508173ffffffffffffffffffffffffffffffffffffffff168173ffffffffffffffffffffffffffffffffffffffff167f8be0079c531659141344cd1fd0a4f28419497f9722a3daafe3b4186f6b6457e060405160405180910390a35050565b6000604051905090565b600080fd5b600080fd5b6000819050919050565b6107a681610793565b81146107b157600080fd5b50565b6000813590506107c38161079d565b92915050565b6000602082840312156107df576107de610789565b5b60006107ed848285016107b4565b91505092915050565b6107ff81610793565b82525050565b600060408201905061081a60008301856107f6565b61082760208301846107f6565b9392505050565b600073ffffffffffffffffffffffffffffffffffffffff82169050919050565b60006108598261082e565b9050919050565b6108698161084e565b811461087457600080fd5b50565b60008135905061088681610860565b92915050565b6000602082840312156108a2576108a1610789565b5b60006108b084828501610877565b91505092915050565b600080604083850312156108d0576108cf610789565b5b60006108de858286016107b4565b92505060206108ef858286016107b4565b9150509250929050565b6109028161084e565b82525050565b600060208201905061091d60008301846108f9565b92915050565b600082825260208201905092915050565b7f4f776e61626c653a2063616c6c6572206973206e6f7420746865206f776e6572600082015250565b600061096a602083610923565b915061097582610934565b602082019050919050565b600060208201905081810360008301526109998161095d565b9050919050565b60006020820190506109b560008301846107f6565b92915050565b600080fd5b6000601f19601f8301169050919050565b7f4e487b7100000000000000000000000000000000000000000000000000000000600052604160045260246000fd5b610a09826109c0565b810181811067ffffffffffffffff82111715610a2857610a276109d1565b5b80604052505050565b6000610a3b61077f565b9050610a478282610a00565b919050565b600080fd5b600080fd5b600080fd5b600067ffffffffffffffff821115610a7657610a756109d1565b5b610a7f826109c0565b9050602081019050919050565b60005b83811015610aaa578082015181840152602081019050610a8f565b83811115610ab9576000848401525b50505050565b6000610ad2610acd84610a5b565b610a31565b905082815260208101848484011115610aee57610aed610a56565b5b610af9848285610a8c565b509392505050565b600082601f830112610b1657610b15610a51565b5b8151610b26848260208601610abf565b91505092915050565b600081519050610b3e8161079d565b92915050565b600081519050610b5381610860565b92915050565b600060a08284031215610b6f57610b6e6109bb565b5b610b7960a0610a31565b9050600082015167ffffffffffffffff811115610b9957610b98610a4c565b5b610ba584828501610b01565b600083015250602082015167ffffffffffffffff811115610bc957610bc8610a4c565b5b610bd584828501610b01565b6020830152506040610be984828501610b2f565b6040830152506060610bfd84828501610b2f565b6060830152506080610c1184828501610b44565b60808301525092915050565b600060208284031215610c3357610c32610789565b5b600082015167ffffffffffffffff811115610c5157610c5061078e565b5b610c5d84828501610b59565b91505092915050565b600067ffffffffffffffff821115610c8157610c806109d1565b5b602082029050602081019050919050565b600080fd5b6000610caa610ca584610c66565b610a31565b90508083825260208201905060208402830185811115610ccd57610ccc610c92565b5b835b81811015610d1457805167ffffffffffffffff811115610cf257610cf1610a51565b5b808601610cff8982610b01565b85526020850194505050602081019050610ccf565b5050509392505050565b600082601f830112610d3357610d32610a51565b5b8151610d43848260208601610c97565b91505092915050565b600060ff82169050919050565b610d6281610d4c565b8114610d6d57600080fd5b50565b600081519050610d7f81610d59565b92915050565b60006101008284031215610d9c57610d9b6109bb565b5b610da7610100610a31565b9050600082015167ffffffffffffffff811115610dc757610dc6610a4c565b5b610dd384828501610b01565b600083015250602082015167ffffffffffffffff811115610df757610df6610a4c565b5b610e0384828501610b01565b6020830152506040610e1784828501610b2f565b6040830152506060610e2b84828501610b2f565b606083015250608082015167ffffffffffffffff811115610e4f57610e4e610a4c565b5b610e5b84828501610d1e565b60808301525060a0610e6f84828501610b2f565b60a08301525060c0610e8384828501610d70565b60c08301525060e0610e9784828501610b44565b60e08301525092915050565b600060208284031215610eb957610eb8610789565b5b600082015167ffffffffffffffff811115610ed757610ed661078e565b5b610ee384828501610d85565b91505092915050565b7f4f776e61626c653a206e6577206f776e657220697320746865207a65726f206160008201527f6464726573730000000000000000000000000000000000000000000000000000602082015250565b6000610f48602683610923565b9150610f5382610eec565b604082019050919050565b60006020820190508181036000830152610f7781610f3b565b905091905056fea2646970667358221220cd99995a7ea337149276c4fcbdd257e94cd3a2aeaada5997975615ac20d2fe8964736f6c634300080e0033",
  "immutableReferences": {},
  "source": "// SPDX-License-Identifier: UNLICENCED\npragma solidity >=0.4.22 <0.9.0;\n\nimport \"./models/JobModel.sol\";\nimport \"./models/DroneModel.sol\";\nimport \"./models/PlotModel.sol\";\nimport \"@openzeppelin/contracts/access/Ownable.sol\";\n\ninterface DroneInterface is DroneModel {\n    function getDrone(uint256 _index) external view returns (Drone memory);\n}\n\ninterface PlotInterface is PlotModel {\n    function getPlot(uint256 _index) external view returns (Plot memory);\n}\n\ncontract Manager is JobModel, PlotModel, DroneModel, Ownable {\n    DroneInterface droneContract;\n    PlotInterface plotContract;\n\n    constructor() {\n        droneContract = DroneInterface(\n            address(0x44E6106733Ba7cbf2ab3B29b20E2d7957689D4b0)\n        );\n        plotContract = PlotInterface(\n            address(0xD7C53A5aB24D0D5e083f50A2e520859Ccf0Fe76c)\n        );\n    }\n\n    Job[] public jobs;\n\n    function setDroneContractAddress(address _address) external onlyOwner {\n        droneContract = DroneInterface(_address);\n    }\n\n    function setPlotContractAddress(address _address) external onlyOwner {\n        plotContract = PlotInterface(_address);\n    }\n\n    function setPendingJob(uint256 _droneId, uint256 _plotId) public {\n        Plot memory currentPlot = plotContract.getPlot(_plotId);\n        Drone memory currentDrone = droneContract.getDrone(_droneId);\n        require(msg.sender == currentPlot.owner);\n        require(\n            currentPlot.allowedMaxFlightAltitude >=\n                currentDrone.maxFlightAltitude\n        );\n        require(\n            currentPlot.allowedMinFlightAltitude >=\n                currentDrone.minFlightAltitude\n        );\n\n        jobs.push(Job(_droneId, _plotId));\n    }\n}\n",
  "sourcePath": "/home/sergio/Documentos/sergio/projects/drones/smartcontracts/contracts/Manager.sol",
  "compiler": {
    "name": "solc",
    "version": "0.8.14+commit.80d49f37.Emscripten.clang"
  },
  "schemaVersion": "3.4.7",
  "updatedAt": "2022-07-03T13:03:38.811Z",
  "networkType": "ethereum",
  "devdoc": {
    "kind": "dev",
    "methods": {
      "owner()": {
        "details": "Returns the address of the current owner."
      },
      "renounceOwnership()": {
        "details": "Leaves the contract without owner. It will not be possible to call `onlyOwner` functions anymore. Can only be called by the current owner. NOTE: Renouncing ownership will leave the contract without an owner, thereby removing any functionality that is only available to the owner."
      },
      "transferOwnership(address)": {
        "details": "Transfers ownership of the contract to a new account (`newOwner`). Can only be called by the current owner."
      }
    },
    "version": 1
  },
  "userdoc": {
    "kind": "user",
    "methods": {},
    "version": 1
  }
}