{
  "contractName": "Plot",
  "abi": [
    {
      "anonymous": false,
      "inputs": [
        {
          "indexed": true,
          "internalType": "address",
          "name": "owner",
          "type": "address"
        },
        {
          "indexed": true,
          "internalType": "address",
          "name": "approved",
          "type": "address"
        },
        {
          "indexed": true,
          "internalType": "uint256",
          "name": "tokenId",
          "type": "uint256"
        }
      ],
      "name": "Approval",
      "type": "event"
    },
    {
      "anonymous": false,
      "inputs": [
        {
          "indexed": true,
          "internalType": "address",
          "name": "owner",
          "type": "address"
        },
        {
          "indexed": true,
          "internalType": "address",
          "name": "operator",
          "type": "address"
        },
        {
          "indexed": false,
          "internalType": "bool",
          "name": "approved",
          "type": "bool"
        }
      ],
      "name": "ApprovalForAll",
      "type": "event"
    },
    {
      "anonymous": false,
      "inputs": [
        {
          "indexed": false,
          "internalType": "uint256",
          "name": "id",
          "type": "uint256"
        }
      ],
      "name": "NewPlotCreated",
      "type": "event"
    },
    {
      "anonymous": false,
      "inputs": [
        {
          "indexed": true,
          "internalType": "address",
          "name": "from",
          "type": "address"
        },
        {
          "indexed": true,
          "internalType": "address",
          "name": "to",
          "type": "address"
        },
        {
          "indexed": true,
          "internalType": "uint256",
          "name": "tokenId",
          "type": "uint256"
        }
      ],
      "name": "Transfer",
      "type": "event"
    },
    {
      "inputs": [
        {
          "internalType": "address",
          "name": "to",
          "type": "address"
        },
        {
          "internalType": "uint256",
          "name": "tokenId",
          "type": "uint256"
        }
      ],
      "name": "approve",
      "outputs": [],
      "stateMutability": "nonpayable",
      "type": "function"
    },
    {
      "inputs": [
        {
          "internalType": "address",
          "name": "owner",
          "type": "address"
        }
      ],
      "name": "balanceOf",
      "outputs": [
        {
          "internalType": "uint256",
          "name": "",
          "type": "uint256"
        }
      ],
      "stateMutability": "view",
      "type": "function",
      "constant": true
    },
    {
      "inputs": [
        {
          "internalType": "uint256",
          "name": "tokenId",
          "type": "uint256"
        }
      ],
      "name": "getApproved",
      "outputs": [
        {
          "internalType": "address",
          "name": "",
          "type": "address"
        }
      ],
      "stateMutability": "view",
      "type": "function",
      "constant": true
    },
    {
      "inputs": [
        {
          "internalType": "address",
          "name": "owner",
          "type": "address"
        },
        {
          "internalType": "address",
          "name": "operator",
          "type": "address"
        }
      ],
      "name": "isApprovedForAll",
      "outputs": [
        {
          "internalType": "bool",
          "name": "",
          "type": "bool"
        }
      ],
      "stateMutability": "view",
      "type": "function",
      "constant": true
    },
    {
      "inputs": [
        {
          "internalType": "string",
          "name": "_ownerName",
          "type": "string"
        },
        {
          "internalType": "uint256",
          "name": "_allowedMaxFlightAltitude",
          "type": "uint256"
        },
        {
          "internalType": "uint256",
          "name": "_allowedMinFlightAltitude",
          "type": "uint256"
        },
        {
          "internalType": "string",
          "name": "_pesticide",
          "type": "string"
        }
      ],
      "name": "mintNewPlot",
      "outputs": [],
      "stateMutability": "nonpayable",
      "type": "function"
    },
    {
      "inputs": [],
      "name": "name",
      "outputs": [
        {
          "internalType": "string",
          "name": "",
          "type": "string"
        }
      ],
      "stateMutability": "view",
      "type": "function",
      "constant": true
    },
    {
      "inputs": [
        {
          "internalType": "uint256",
          "name": "tokenId",
          "type": "uint256"
        }
      ],
      "name": "ownerOf",
      "outputs": [
        {
          "internalType": "address",
          "name": "",
          "type": "address"
        }
      ],
      "stateMutability": "view",
      "type": "function",
      "constant": true
    },
    {
      "inputs": [
        {
          "internalType": "uint256",
          "name": "",
          "type": "uint256"
        }
      ],
      "name": "plots",
      "outputs": [
        {
          "internalType": "string",
          "name": "ownerName",
          "type": "string"
        },
        {
          "internalType": "string",
          "name": "acceptedPesticide",
          "type": "string"
        },
        {
          "internalType": "uint256",
          "name": "allowedMaxFlightAltitude",
          "type": "uint256"
        },
        {
          "internalType": "uint256",
          "name": "allowedMinFlightAltitude",
          "type": "uint256"
        },
        {
          "internalType": "address",
          "name": "owner",
          "type": "address"
        }
      ],
      "stateMutability": "view",
      "type": "function",
      "constant": true
    },
    {
      "inputs": [
        {
          "internalType": "address",
          "name": "from",
          "type": "address"
        },
        {
          "internalType": "address",
          "name": "to",
          "type": "address"
        },
        {
          "internalType": "uint256",
          "name": "tokenId",
          "type": "uint256"
        }
      ],
      "name": "safeTransferFrom",
      "outputs": [],
      "stateMutability": "nonpayable",
      "type": "function"
    },
    {
      "inputs": [
        {
          "internalType": "address",
          "name": "from",
          "type": "address"
        },
        {
          "internalType": "address",
          "name": "to",
          "type": "address"
        },
        {
          "internalType": "uint256",
          "name": "tokenId",
          "type": "uint256"
        },
        {
          "internalType": "bytes",
          "name": "_data",
          "type": "bytes"
        }
      ],
      "name": "safeTransferFrom",
      "outputs": [],
      "stateMutability": "nonpayable",
      "type": "function"
    },
    {
      "inputs": [
        {
          "internalType": "address",
          "name": "operator",
          "type": "address"
        },
        {
          "internalType": "bool",
          "name": "approved",
          "type": "bool"
        }
      ],
      "name": "setApprovalForAll",
      "outputs": [],
      "stateMutability": "nonpayable",
      "type": "function"
    },
    {
      "inputs": [
        {
          "internalType": "bytes4",
          "name": "interfaceId",
          "type": "bytes4"
        }
      ],
      "name": "supportsInterface",
      "outputs": [
        {
          "internalType": "bool",
          "name": "",
          "type": "bool"
        }
      ],
      "stateMutability": "view",
      "type": "function",
      "constant": true
    },
    {
      "inputs": [],
      "name": "symbol",
      "outputs": [
        {
          "internalType": "string",
          "name": "",
          "type": "string"
        }
      ],
      "stateMutability": "view",
      "type": "function",
      "constant": true
    },
    {
      "inputs": [
        {
          "internalType": "uint256",
          "name": "tokenId",
          "type": "uint256"
        }
      ],
      "name": "tokenURI",
      "outputs": [
        {
          "internalType": "string",
          "name": "",
          "type": "string"
        }
      ],
      "stateMutability": "view",
      "type": "function",
      "constant": true
    },
    {
      "inputs": [
        {
          "internalType": "address",
          "name": "from",
          "type": "address"
        },
        {
          "internalType": "address",
          "name": "to",
          "type": "address"
        },
        {
          "internalType": "uint256",
          "name": "tokenId",
          "type": "uint256"
        }
      ],
      "name": "transferFrom",
      "outputs": [],
      "stateMutability": "nonpayable",
      "type": "function"
    },
    {
      "inputs": [
        {
          "internalType": "address",
          "name": "_owner",
          "type": "address"
        }
      ],
      "name": "getPlotsByOwner",
      "outputs": [
        {
          "internalType": "uint256[]",
          "name": "",
          "type": "uint256[]"
        }
      ],
      "stateMutability": "view",
      "type": "function",
      "constant": true
    },
    {
      "inputs": [
        {
          "internalType": "uint256",
          "name": "_index",
          "type": "uint256"
        }
      ],
      "name": "getPlot",
      "outputs": [
        {
          "components": [
            {
              "internalType": "string",
              "name": "ownerName",
              "type": "string"
            },
            {
              "internalType": "string",
              "name": "acceptedPesticide",
              "type": "string"
            },
            {
              "internalType": "uint256",
              "name": "allowedMaxFlightAltitude",
              "type": "uint256"
            },
            {
              "internalType": "uint256",
              "name": "allowedMinFlightAltitude",
              "type": "uint256"
            },
            {
              "internalType": "address",
              "name": "owner",
              "type": "address"
            }
          ],
          "internalType": "struct PlotModel.Plot",
          "name": "",
          "type": "tuple"
        }
      ],
      "stateMutability": "view",
      "type": "function",
      "constant": true
    }
  ],
  "bytecode": "0x60806040523480156200001157600080fd5b506040518060400160405280600481526020017f504c4f54000000000000000000000000000000000000000000000000000000008152506040518060400160405280600381526020017f504c540000000000000000000000000000000000000000000000000000000000815250816000908051906020019062000096929190620000b8565b508060019080519060200190620000af929190620000b8565b505050620001cc565b828054620000c69062000197565b90600052602060002090601f016020900481019282620000ea576000855562000136565b82601f106200010557805160ff191683800117855562000136565b8280016001018555821562000136579182015b828111156200013557825182559160200191906001019062000118565b5b50905062000145919062000149565b5090565b5b80821115620001645760008160009055506001016200014a565b5090565b7f4e487b7100000000000000000000000000000000000000000000000000000000600052602260045260246000fd5b60006002820490506001821680620001b057607f821691505b602082108103620001c657620001c562000168565b5b50919050565b61321880620001dc6000396000f3fe608060405234801561001057600080fd5b506004361061010b5760003560e01c806370a08231116100a2578063b88d4fde11610071578063b88d4fde146102cc578063c87b56dd146102e8578063cfdd4fbd14610318578063e985e9c514610348578063ed9bfe94146103785761010b565b806370a082311461024657806395d89b4114610276578063a22cb46514610294578063a63f08a7146102b05761010b565b806323b872dd116100de57806323b872dd146101aa57806342842e0e146101c657806361bf49ee146101e25780636352211e146102165761010b565b806301ffc9a71461011057806306fdde0314610140578063081812fc1461015e578063095ea7b31461018e575b600080fd5b61012a60048036038101906101259190611e24565b6103a8565b6040516101379190611e6c565b60405180910390f35b61014861048a565b6040516101559190611f20565b60405180910390f35b61017860048036038101906101739190611f78565b61051c565b6040516101859190611fe6565b60405180910390f35b6101a860048036038101906101a3919061202d565b6105a1565b005b6101c460048036038101906101bf919061206d565b6106b8565b005b6101e060048036038101906101db919061206d565b610718565b005b6101fc60048036038101906101f79190611f78565b610738565b60405161020d9594939291906120cf565b60405180910390f35b610230600480360381019061022b9190611f78565b6108ae565b60405161023d9190611fe6565b60405180910390f35b610260600480360381019061025b9190612130565b61095f565b60405161026d919061215d565b60405180910390f35b61027e610a16565b60405161028b9190611f20565b60405180910390f35b6102ae60048036038101906102a991906121a4565b610aa8565b005b6102ca60048036038101906102c59190612319565b610abe565b005b6102e660048036038101906102e19190612459565b610bd2565b005b61030260048036038101906102fd9190611f78565b610c34565b60405161030f9190611f20565b60405180910390f35b610332600480360381019061032d9190611f78565b610cdb565b60405161033f91906125c1565b60405180910390f35b610362600480360381019061035d91906125e3565b610ea5565b60405161036f9190611e6c565b60405180910390f35b610392600480360381019061038d9190612130565b610f39565b60405161039f91906126d2565b60405180910390f35b60007f80ac58cd000000000000000000000000000000000000000000000000000000007bffffffffffffffffffffffffffffffffffffffffffffffffffffffff1916827bffffffffffffffffffffffffffffffffffffffffffffffffffffffff1916148061047357507f5b5e139f000000000000000000000000000000000000000000000000000000007bffffffffffffffffffffffffffffffffffffffffffffffffffffffff1916827bffffffffffffffffffffffffffffffffffffffffffffffffffffffff1916145b8061048357506104828261102f565b5b9050919050565b60606000805461049990612723565b80601f01602080910402602001604051908101604052809291908181526020018280546104c590612723565b80156105125780601f106104e757610100808354040283529160200191610512565b820191906000526020600020905b8154815290600101906020018083116104f557829003601f168201915b5050505050905090565b600061052782611099565b610566576040517f08c379a000000000000000000000000000000000000000000000000000000000815260040161055d906127c6565b60405180910390fd5b6004600083815260200190815260200160002060009054906101000a900473ffffffffffffffffffffffffffffffffffffffff169050919050565b60006105ac826108ae565b90508073ffffffffffffffffffffffffffffffffffffffff168373ffffffffffffffffffffffffffffffffffffffff160361061c576040517f08c379a000000000000000000000000000000000000000000000000000000000815260040161061390612858565b60405180910390fd5b8073ffffffffffffffffffffffffffffffffffffffff1661063b611105565b73ffffffffffffffffffffffffffffffffffffffff16148061066a575061066981610664611105565b610ea5565b5b6106a9576040517f08c379a00000000000000000000000000000000000000000000000000000000081526004016106a0906128ea565b60405180910390fd5b6106b3838361110d565b505050565b6106c96106c3611105565b826111c6565b610708576040517f08c379a00000000000000000000000000000000000000000000000000000000081526004016106ff9061297c565b60405180910390fd5b6107138383836112a4565b505050565b61073383838360405180602001604052806000815250610bd2565b505050565b6007818154811061074857600080fd5b906000526020600020906005020160009150905080600001805461076b90612723565b80601f016020809104026020016040519081016040528092919081815260200182805461079790612723565b80156107e45780601f106107b9576101008083540402835291602001916107e4565b820191906000526020600020905b8154815290600101906020018083116107c757829003601f168201915b5050505050908060010180546107f990612723565b80601f016020809104026020016040519081016040528092919081815260200182805461082590612723565b80156108725780601f1061084757610100808354040283529160200191610872565b820191906000526020600020905b81548152906001019060200180831161085557829003601f168201915b5050505050908060020154908060030154908060040160009054906101000a900473ffffffffffffffffffffffffffffffffffffffff16905085565b6000806002600084815260200190815260200160002060009054906101000a900473ffffffffffffffffffffffffffffffffffffffff169050600073ffffffffffffffffffffffffffffffffffffffff168173ffffffffffffffffffffffffffffffffffffffff1603610956576040517f08c379a000000000000000000000000000000000000000000000000000000000815260040161094d90612a0e565b60405180910390fd5b80915050919050565b60008073ffffffffffffffffffffffffffffffffffffffff168273ffffffffffffffffffffffffffffffffffffffff16036109cf576040517f08c379a00000000000000000000000000000000000000000000000000000000081526004016109c690612aa0565b60405180910390fd5b600360008373ffffffffffffffffffffffffffffffffffffffff1673ffffffffffffffffffffffffffffffffffffffff168152602001908152602001600020549050919050565b606060018054610a2590612723565b80601f0160208091040260200160405190810160405280929190818152602001828054610a5190612723565b8015610a9e5780601f10610a7357610100808354040283529160200191610a9e565b820191906000526020600020905b815481529060010190602001808311610a8157829003601f168201915b5050505050905090565b610aba610ab3611105565b838361150a565b5050565b600033905060076040518060a001604052808781526020018481526020018681526020018581526020018373ffffffffffffffffffffffffffffffffffffffff1681525090806001815401808255809150506001900390600052602060002090600502016000909190919091506000820151816000019080519060200190610b47929190611cd0565b506020820151816001019080519060200190610b64929190611cd0565b50604082015181600201556060820151816003015560808201518160040160006101000a81548173ffffffffffffffffffffffffffffffffffffffff021916908373ffffffffffffffffffffffffffffffffffffffff1602179055505050610bcb81611676565b5050505050565b610be3610bdd611105565b836111c6565b610c22576040517f08c379a0000000000000000000000000000000000000000000000000000000008152600401610c199061297c565b60405180910390fd5b610c2e848484846116d3565b50505050565b6060610c3f82611099565b610c7e576040517f08c379a0000000000000000000000000000000000000000000000000000000008152600401610c7590612b32565b60405180910390fd5b6000610c8861172f565b90506000815111610ca85760405180602001604052806000815250610cd3565b80610cb284611746565b604051602001610cc3929190612b8e565b6040516020818303038152906040525b915050919050565b610ce3611d56565b60078281548110610cf757610cf6612bb2565b5b90600052602060002090600502016040518060a0016040529081600082018054610d2090612723565b80601f0160208091040260200160405190810160405280929190818152602001828054610d4c90612723565b8015610d995780601f10610d6e57610100808354040283529160200191610d99565b820191906000526020600020905b815481529060010190602001808311610d7c57829003601f168201915b50505050508152602001600182018054610db290612723565b80601f0160208091040260200160405190810160405280929190818152602001828054610dde90612723565b8015610e2b5780601f10610e0057610100808354040283529160200191610e2b565b820191906000526020600020905b815481529060010190602001808311610e0e57829003601f168201915b5050505050815260200160028201548152602001600382015481526020016004820160009054906101000a900473ffffffffffffffffffffffffffffffffffffffff1673ffffffffffffffffffffffffffffffffffffffff1673ffffffffffffffffffffffffffffffffffffffff16815250509050919050565b6000600560008473ffffffffffffffffffffffffffffffffffffffff1673ffffffffffffffffffffffffffffffffffffffff16815260200190815260200160002060008373ffffffffffffffffffffffffffffffffffffffff1673ffffffffffffffffffffffffffffffffffffffff16815260200190815260200160002060009054906101000a900460ff16905092915050565b60606000610f468361095f565b905060008167ffffffffffffffff811115610f6457610f636121ee565b5b604051908082528060200260200182016040528015610f925781602001602082028036833780820191505090505b5090506000805b600780549050811015611023578573ffffffffffffffffffffffffffffffffffffffff16610fc6826108ae565b73ffffffffffffffffffffffffffffffffffffffff16036110105780838381518110610ff557610ff4612bb2565b5b602002602001018181525050818061100c90612c10565b9250505b808061101b90612c10565b915050610f99565b50819350505050919050565b60007f01ffc9a7000000000000000000000000000000000000000000000000000000007bffffffffffffffffffffffffffffffffffffffffffffffffffffffff1916827bffffffffffffffffffffffffffffffffffffffffffffffffffffffff1916149050919050565b60008073ffffffffffffffffffffffffffffffffffffffff166002600084815260200190815260200160002060009054906101000a900473ffffffffffffffffffffffffffffffffffffffff1673ffffffffffffffffffffffffffffffffffffffff1614159050919050565b600033905090565b816004600083815260200190815260200160002060006101000a81548173ffffffffffffffffffffffffffffffffffffffff021916908373ffffffffffffffffffffffffffffffffffffffff160217905550808273ffffffffffffffffffffffffffffffffffffffff16611180836108ae565b73ffffffffffffffffffffffffffffffffffffffff167f8c5be1e5ebec7d5bd14f71427d1e84f3dd0314c0f7b2291e5b200ac8c7c3b92560405160405180910390a45050565b60006111d182611099565b611210576040517f08c379a000000000000000000000000000000000000000000000000000000000815260040161120790612cca565b60405180910390fd5b600061121b836108ae565b90508073ffffffffffffffffffffffffffffffffffffffff168473ffffffffffffffffffffffffffffffffffffffff16148061125d575061125c8185610ea5565b5b8061129b57508373ffffffffffffffffffffffffffffffffffffffff166112838461051c565b73ffffffffffffffffffffffffffffffffffffffff16145b91505092915050565b8273ffffffffffffffffffffffffffffffffffffffff166112c4826108ae565b73ffffffffffffffffffffffffffffffffffffffff161461131a576040517f08c379a000000000000000000000000000000000000000000000000000000000815260040161131190612d5c565b60405180910390fd5b600073ffffffffffffffffffffffffffffffffffffffff168273ffffffffffffffffffffffffffffffffffffffff1603611389576040517f08c379a000000000000000000000000000000000000000000000000000000000815260040161138090612dee565b60405180910390fd5b6113948383836118a6565b61139f60008261110d565b6001600360008573ffffffffffffffffffffffffffffffffffffffff1673ffffffffffffffffffffffffffffffffffffffff16815260200190815260200160002060008282546113ef9190612e0e565b925050819055506001600360008473ffffffffffffffffffffffffffffffffffffffff1673ffffffffffffffffffffffffffffffffffffffff16815260200190815260200160002060008282546114469190612e42565b92505081905550816002600083815260200190815260200160002060006101000a81548173ffffffffffffffffffffffffffffffffffffffff021916908373ffffffffffffffffffffffffffffffffffffffff160217905550808273ffffffffffffffffffffffffffffffffffffffff168473ffffffffffffffffffffffffffffffffffffffff167fddf252ad1be2c89b69c2b068fc378daa952ba7f163c4a11628f55a4df523b3ef60405160405180910390a46115058383836118ab565b505050565b8173ffffffffffffffffffffffffffffffffffffffff168373ffffffffffffffffffffffffffffffffffffffff1603611578576040517f08c379a000000000000000000000000000000000000000000000000000000000815260040161156f90612ee4565b60405180910390fd5b80600560008573ffffffffffffffffffffffffffffffffffffffff1673ffffffffffffffffffffffffffffffffffffffff16815260200190815260200160002060008473ffffffffffffffffffffffffffffffffffffffff1673ffffffffffffffffffffffffffffffffffffffff16815260200190815260200160002060006101000a81548160ff0219169083151502179055508173ffffffffffffffffffffffffffffffffffffffff168373ffffffffffffffffffffffffffffffffffffffff167f17307eab39ab6107e8899845ad3d59bd9653f200f220920489ca2b5937696c31836040516116699190611e6c565b60405180910390a3505050565b600061168260066118b0565b905061168e82826118be565b61169860066118dc565b7fa45ff7f93c63954d431581aff2486c78fce6c5caad8de2a034753a6ae70e8f72816040516116c7919061215d565b60405180910390a15050565b6116de8484846112a4565b6116ea848484846118f2565b611729576040517f08c379a000000000000000000000000000000000000000000000000000000000815260040161172090612f76565b60405180910390fd5b50505050565b606060405180602001604052806000815250905090565b60606000820361178d576040518060400160405280600181526020017f300000000000000000000000000000000000000000000000000000000000000081525090506118a1565b600082905060005b600082146117bf5780806117a890612c10565b915050600a826117b89190612fc5565b9150611795565b60008167ffffffffffffffff8111156117db576117da6121ee565b5b6040519080825280601f01601f19166020018201604052801561180d5781602001600182028036833780820191505090505b5090505b6000851461189a576001826118269190612e0e565b9150600a856118359190612ff6565b60306118419190612e42565b60f81b81838151811061185757611856612bb2565b5b60200101907effffffffffffffffffffffffffffffffffffffffffffffffffffffffffffff1916908160001a905350600a856118939190612fc5565b9450611811565b8093505050505b919050565b505050565b505050565b600081600001549050919050565b6118d8828260405180602001604052806000815250611a79565b5050565b6001816000016000828254019250508190555050565b60006119138473ffffffffffffffffffffffffffffffffffffffff16611ad4565b15611a6c578373ffffffffffffffffffffffffffffffffffffffff1663150b7a0261193c611105565b8786866040518563ffffffff1660e01b815260040161195e949392919061307c565b6020604051808303816000875af192505050801561199a57506040513d601f19601f8201168201806040525081019061199791906130dd565b60015b611a1c573d80600081146119ca576040519150601f19603f3d011682016040523d82523d6000602084013e6119cf565b606091505b506000815103611a14576040517f08c379a0000000000000000000000000000000000000000000000000000000008152600401611a0b90612f76565b60405180910390fd5b805181602001fd5b63150b7a0260e01b7bffffffffffffffffffffffffffffffffffffffffffffffffffffffff1916817bffffffffffffffffffffffffffffffffffffffffffffffffffffffff191614915050611a71565b600190505b949350505050565b611a838383611af7565b611a9060008484846118f2565b611acf576040517f08c379a0000000000000000000000000000000000000000000000000000000008152600401611ac690612f76565b60405180910390fd5b505050565b6000808273ffffffffffffffffffffffffffffffffffffffff163b119050919050565b600073ffffffffffffffffffffffffffffffffffffffff168273ffffffffffffffffffffffffffffffffffffffff1603611b66576040517f08c379a0000000000000000000000000000000000000000000000000000000008152600401611b5d90613156565b60405180910390fd5b611b6f81611099565b15611baf576040517f08c379a0000000000000000000000000000000000000000000000000000000008152600401611ba6906131c2565b60405180910390fd5b611bbb600083836118a6565b6001600360008473ffffffffffffffffffffffffffffffffffffffff1673ffffffffffffffffffffffffffffffffffffffff1681526020019081526020016000206000828254611c0b9190612e42565b92505081905550816002600083815260200190815260200160002060006101000a81548173ffffffffffffffffffffffffffffffffffffffff021916908373ffffffffffffffffffffffffffffffffffffffff160217905550808273ffffffffffffffffffffffffffffffffffffffff16600073ffffffffffffffffffffffffffffffffffffffff167fddf252ad1be2c89b69c2b068fc378daa952ba7f163c4a11628f55a4df523b3ef60405160405180910390a4611ccc600083836118ab565b5050565b828054611cdc90612723565b90600052602060002090601f016020900481019282611cfe5760008555611d45565b82601f10611d1757805160ff1916838001178555611d45565b82800160010185558215611d45579182015b82811115611d44578251825591602001919060010190611d29565b5b509050611d529190611d9b565b5090565b6040518060a0016040528060608152602001606081526020016000815260200160008152602001600073ffffffffffffffffffffffffffffffffffffffff1681525090565b5b80821115611db4576000816000905550600101611d9c565b5090565b6000604051905090565b600080fd5b600080fd5b60007fffffffff0000000000000000000000000000000000000000000000000000000082169050919050565b611e0181611dcc565b8114611e0c57600080fd5b50565b600081359050611e1e81611df8565b92915050565b600060208284031215611e3a57611e39611dc2565b5b6000611e4884828501611e0f565b91505092915050565b60008115159050919050565b611e6681611e51565b82525050565b6000602082019050611e816000830184611e5d565b92915050565b600081519050919050565b600082825260208201905092915050565b60005b83811015611ec1578082015181840152602081019050611ea6565b83811115611ed0576000848401525b50505050565b6000601f19601f8301169050919050565b6000611ef282611e87565b611efc8185611e92565b9350611f0c818560208601611ea3565b611f1581611ed6565b840191505092915050565b60006020820190508181036000830152611f3a8184611ee7565b905092915050565b6000819050919050565b611f5581611f42565b8114611f6057600080fd5b50565b600081359050611f7281611f4c565b92915050565b600060208284031215611f8e57611f8d611dc2565b5b6000611f9c84828501611f63565b91505092915050565b600073ffffffffffffffffffffffffffffffffffffffff82169050919050565b6000611fd082611fa5565b9050919050565b611fe081611fc5565b82525050565b6000602082019050611ffb6000830184611fd7565b92915050565b61200a81611fc5565b811461201557600080fd5b50565b60008135905061202781612001565b92915050565b6000806040838503121561204457612043611dc2565b5b600061205285828601612018565b925050602061206385828601611f63565b9150509250929050565b60008060006060848603121561208657612085611dc2565b5b600061209486828701612018565b93505060206120a586828701612018565b92505060406120b686828701611f63565b9150509250925092565b6120c981611f42565b82525050565b600060a08201905081810360008301526120e98188611ee7565b905081810360208301526120fd8187611ee7565b905061210c60408301866120c0565b61211960608301856120c0565b6121266080830184611fd7565b9695505050505050565b60006020828403121561214657612145611dc2565b5b600061215484828501612018565b91505092915050565b600060208201905061217260008301846120c0565b92915050565b61218181611e51565b811461218c57600080fd5b50565b60008135905061219e81612178565b92915050565b600080604083850312156121bb576121ba611dc2565b5b60006121c985828601612018565b92505060206121da8582860161218f565b9150509250929050565b600080fd5b600080fd5b7f4e487b7100000000000000000000000000000000000000000000000000000000600052604160045260246000fd5b61222682611ed6565b810181811067ffffffffffffffff82111715612245576122446121ee565b5b80604052505050565b6000612258611db8565b9050612264828261221d565b919050565b600067ffffffffffffffff821115612284576122836121ee565b5b61228d82611ed6565b9050602081019050919050565b82818337600083830152505050565b60006122bc6122b784612269565b61224e565b9050828152602081018484840111156122d8576122d76121e9565b5b6122e384828561229a565b509392505050565b600082601f830112612300576122ff6121e4565b5b81356123108482602086016122a9565b91505092915050565b6000806000806080858703121561233357612332611dc2565b5b600085013567ffffffffffffffff81111561235157612350611dc7565b5b61235d878288016122eb565b945050602061236e87828801611f63565b935050604061237f87828801611f63565b925050606085013567ffffffffffffffff8111156123a05761239f611dc7565b5b6123ac878288016122eb565b91505092959194509250565b600067ffffffffffffffff8211156123d3576123d26121ee565b5b6123dc82611ed6565b9050602081019050919050565b60006123fc6123f7846123b8565b61224e565b905082815260208101848484011115612418576124176121e9565b5b61242384828561229a565b509392505050565b600082601f8301126124405761243f6121e4565b5b81356124508482602086016123e9565b91505092915050565b6000806000806080858703121561247357612472611dc2565b5b600061248187828801612018565b945050602061249287828801612018565b93505060406124a387828801611f63565b925050606085013567ffffffffffffffff8111156124c4576124c3611dc7565b5b6124d08782880161242b565b91505092959194509250565b600082825260208201905092915050565b60006124f882611e87565b61250281856124dc565b9350612512818560208601611ea3565b61251b81611ed6565b840191505092915050565b61252f81611f42565b82525050565b61253e81611fc5565b82525050565b600060a083016000830151848203600086015261256182826124ed565b9150506020830151848203602086015261257b82826124ed565b91505060408301516125906040860182612526565b5060608301516125a36060860182612526565b5060808301516125b66080860182612535565b508091505092915050565b600060208201905081810360008301526125db8184612544565b905092915050565b600080604083850312156125fa576125f9611dc2565b5b600061260885828601612018565b925050602061261985828601612018565b9150509250929050565b600081519050919050565b600082825260208201905092915050565b6000819050602082019050919050565b600061265b8383612526565b60208301905092915050565b6000602082019050919050565b600061267f82612623565b612689818561262e565b93506126948361263f565b8060005b838110156126c55781516126ac888261264f565b97506126b783612667565b925050600181019050612698565b5085935050505092915050565b600060208201905081810360008301526126ec8184612674565b905092915050565b7f4e487b7100000000000000000000000000000000000000000000000000000000600052602260045260246000fd5b6000600282049050600182168061273b57607f821691505b60208210810361274e5761274d6126f4565b5b50919050565b7f4552433732313a20617070726f76656420717565727920666f72206e6f6e657860008201527f697374656e7420746f6b656e0000000000000000000000000000000000000000602082015250565b60006127b0602c83611e92565b91506127bb82612754565b604082019050919050565b600060208201905081810360008301526127df816127a3565b9050919050565b7f4552433732313a20617070726f76616c20746f2063757272656e74206f776e6560008201527f7200000000000000000000000000000000000000000000000000000000000000602082015250565b6000612842602183611e92565b915061284d826127e6565b604082019050919050565b6000602082019050818103600083015261287181612835565b9050919050565b7f4552433732313a20617070726f76652063616c6c6572206973206e6f74206f7760008201527f6e6572206e6f7220617070726f76656420666f7220616c6c0000000000000000602082015250565b60006128d4603883611e92565b91506128df82612878565b604082019050919050565b60006020820190508181036000830152612903816128c7565b9050919050565b7f4552433732313a207472616e736665722063616c6c6572206973206e6f74206f60008201527f776e6572206e6f7220617070726f766564000000000000000000000000000000602082015250565b6000612966603183611e92565b91506129718261290a565b604082019050919050565b6000602082019050818103600083015261299581612959565b9050919050565b7f4552433732313a206f776e657220717565727920666f72206e6f6e657869737460008201527f656e7420746f6b656e0000000000000000000000000000000000000000000000602082015250565b60006129f8602983611e92565b9150612a038261299c565b604082019050919050565b60006020820190508181036000830152612a27816129eb565b9050919050565b7f4552433732313a2062616c616e636520717565727920666f7220746865207a6560008201527f726f206164647265737300000000000000000000000000000000000000000000602082015250565b6000612a8a602a83611e92565b9150612a9582612a2e565b604082019050919050565b60006020820190508181036000830152612ab981612a7d565b9050919050565b7f4552433732314d657461646174613a2055524920717565727920666f72206e6f60008201527f6e6578697374656e7420746f6b656e0000000000000000000000000000000000602082015250565b6000612b1c602f83611e92565b9150612b2782612ac0565b604082019050919050565b60006020820190508181036000830152612b4b81612b0f565b9050919050565b600081905092915050565b6000612b6882611e87565b612b728185612b52565b9350612b82818560208601611ea3565b80840191505092915050565b6000612b9a8285612b5d565b9150612ba68284612b5d565b91508190509392505050565b7f4e487b7100000000000000000000000000000000000000000000000000000000600052603260045260246000fd5b7f4e487b7100000000000000000000000000000000000000000000000000000000600052601160045260246000fd5b6000612c1b82611f42565b91507fffffffffffffffffffffffffffffffffffffffffffffffffffffffffffffffff8203612c4d57612c4c612be1565b5b600182019050919050565b7f4552433732313a206f70657261746f7220717565727920666f72206e6f6e657860008201527f697374656e7420746f6b656e0000000000000000000000000000000000000000602082015250565b6000612cb4602c83611e92565b9150612cbf82612c58565b604082019050919050565b60006020820190508181036000830152612ce381612ca7565b9050919050565b7f4552433732313a207472616e736665722066726f6d20696e636f72726563742060008201527f6f776e6572000000000000000000000000000000000000000000000000000000602082015250565b6000612d46602583611e92565b9150612d5182612cea565b604082019050919050565b60006020820190508181036000830152612d7581612d39565b9050919050565b7f4552433732313a207472616e7366657220746f20746865207a65726f2061646460008201527f7265737300000000000000000000000000000000000000000000000000000000602082015250565b6000612dd8602483611e92565b9150612de382612d7c565b604082019050919050565b60006020820190508181036000830152612e0781612dcb565b9050919050565b6000612e1982611f42565b9150612e2483611f42565b925082821015612e3757612e36612be1565b5b828203905092915050565b6000612e4d82611f42565b9150612e5883611f42565b9250827fffffffffffffffffffffffffffffffffffffffffffffffffffffffffffffffff03821115612e8d57612e8c612be1565b5b828201905092915050565b7f4552433732313a20617070726f766520746f2063616c6c657200000000000000600082015250565b6000612ece601983611e92565b9150612ed982612e98565b602082019050919050565b60006020820190508181036000830152612efd81612ec1565b9050919050565b7f4552433732313a207472616e7366657220746f206e6f6e20455243373231526560008201527f63656976657220696d706c656d656e7465720000000000000000000000000000602082015250565b6000612f60603283611e92565b9150612f6b82612f04565b604082019050919050565b60006020820190508181036000830152612f8f81612f53565b9050919050565b7f4e487b7100000000000000000000000000000000000000000000000000000000600052601260045260246000fd5b6000612fd082611f42565b9150612fdb83611f42565b925082612feb57612fea612f96565b5b828204905092915050565b600061300182611f42565b915061300c83611f42565b92508261301c5761301b612f96565b5b828206905092915050565b600081519050919050565b600082825260208201905092915050565b600061304e82613027565b6130588185613032565b9350613068818560208601611ea3565b61307181611ed6565b840191505092915050565b60006080820190506130916000830187611fd7565b61309e6020830186611fd7565b6130ab60408301856120c0565b81810360608301526130bd8184613043565b905095945050505050565b6000815190506130d781611df8565b92915050565b6000602082840312156130f3576130f2611dc2565b5b6000613101848285016130c8565b91505092915050565b7f4552433732313a206d696e7420746f20746865207a65726f2061646472657373600082015250565b6000613140602083611e92565b915061314b8261310a565b602082019050919050565b6000602082019050818103600083015261316f81613133565b9050919050565b7f4552433732313a20746f6b656e20616c7265616479206d696e74656400000000600082015250565b60006131ac601c83611e92565b91506131b782613176565b602082019050919050565b600060208201905081810360008301526131db8161319f565b905091905056fea2646970667358221220dc7cba6cb1941b3b20ba526c709eef09607b114d25231050d52e9e760baf119764736f6c634300080e0033",
  "immutableReferences": {},
  "source": "// SPDX-License-Identifier: UNLICENCED\npragma solidity >=0.4.22 <0.9.0;\n\nimport \"./PlotNFT.sol\";\n\ncontract Plot is PlotNFT {\n    function getPlotsByOwner(address _owner)\n        external\n        view\n        returns (uint256[] memory)\n    {\n        uint256 plotBalance = balanceOf(_owner);\n        uint256[] memory result = new uint256[](plotBalance);\n        uint256 counter = 0;\n        for (uint256 i = 0; i < plots.length; i++) {\n            if (ownerOf(i) == _owner) {\n                result[counter] = i;\n                counter++;\n            }\n        }\n        return result;\n    }\n\n    function getPlot(uint256 _index) external view returns (Plot memory) {\n        return plots[_index];\n    }\n}\n",
  "sourcePath": "/home/sergio/Documentos/sergio/projects/drones/smartcontracts/contracts/Plot.sol",
  "compiler": {
    "name": "solc",
    "version": "0.8.14+commit.80d49f37.Emscripten.clang"
  },
  "schemaVersion": "3.4.7",
  "updatedAt": "2022-07-03T12:33:11.680Z",
  "networkType": "ethereum",
  "devdoc": {
    "kind": "dev",
    "methods": {
      "approve(address,uint256)": {
        "details": "See {IERC721-approve}."
      },
      "balanceOf(address)": {
        "details": "See {IERC721-balanceOf}."
      },
      "getApproved(uint256)": {
        "details": "See {IERC721-getApproved}."
      },
      "isApprovedForAll(address,address)": {
        "details": "See {IERC721-isApprovedForAll}."
      },
      "name()": {
        "details": "See {IERC721Metadata-name}."
      },
      "ownerOf(uint256)": {
        "details": "See {IERC721-ownerOf}."
      },
      "safeTransferFrom(address,address,uint256)": {
        "details": "See {IERC721-safeTransferFrom}."
      },
      "safeTransferFrom(address,address,uint256,bytes)": {
        "details": "See {IERC721-safeTransferFrom}."
      },
      "setApprovalForAll(address,bool)": {
        "details": "See {IERC721-setApprovalForAll}."
      },
      "supportsInterface(bytes4)": {
        "details": "See {IERC165-supportsInterface}."
      },
      "symbol()": {
        "details": "See {IERC721Metadata-symbol}."
      },
      "tokenURI(uint256)": {
        "details": "See {IERC721Metadata-tokenURI}."
      },
      "transferFrom(address,address,uint256)": {
        "details": "See {IERC721-transferFrom}."
      }
    },
    "version": 1
  },
  "userdoc": {
    "kind": "user",
    "methods": {},
    "version": 1
  }
}