{
  "contractName": "DroneNFT",
  "abi": [
    {
      "inputs": [],
      "stateMutability": "nonpayable",
      "type": "constructor"
    },
    {
      "anonymous": false,
      "inputs": [
        {
          "indexed": true,
          "internalType": "address",
          "name": "owner",
          "type": "address"
        },
        {
          "indexed": true,
          "internalType": "address",
          "name": "approved",
          "type": "address"
        },
        {
          "indexed": true,
          "internalType": "uint256",
          "name": "tokenId",
          "type": "uint256"
        }
      ],
      "name": "Approval",
      "type": "event"
    },
    {
      "anonymous": false,
      "inputs": [
        {
          "indexed": true,
          "internalType": "address",
          "name": "owner",
          "type": "address"
        },
        {
          "indexed": true,
          "internalType": "address",
          "name": "operator",
          "type": "address"
        },
        {
          "indexed": false,
          "internalType": "bool",
          "name": "approved",
          "type": "bool"
        }
      ],
      "name": "ApprovalForAll",
      "type": "event"
    },
    {
      "anonymous": false,
      "inputs": [
        {
          "indexed": false,
          "internalType": "uint256",
          "name": "id",
          "type": "uint256"
        }
      ],
      "name": "NewDroneCreated",
      "type": "event"
    },
    {
      "anonymous": false,
      "inputs": [
        {
          "indexed": true,
          "internalType": "address",
          "name": "from",
          "type": "address"
        },
        {
          "indexed": true,
          "internalType": "address",
          "name": "to",
          "type": "address"
        },
        {
          "indexed": true,
          "internalType": "uint256",
          "name": "tokenId",
          "type": "uint256"
        }
      ],
      "name": "Transfer",
      "type": "event"
    },
    {
      "inputs": [
        {
          "internalType": "address",
          "name": "to",
          "type": "address"
        },
        {
          "internalType": "uint256",
          "name": "tokenId",
          "type": "uint256"
        }
      ],
      "name": "approve",
      "outputs": [],
      "stateMutability": "nonpayable",
      "type": "function"
    },
    {
      "inputs": [
        {
          "internalType": "address",
          "name": "owner",
          "type": "address"
        }
      ],
      "name": "balanceOf",
      "outputs": [
        {
          "internalType": "uint256",
          "name": "",
          "type": "uint256"
        }
      ],
      "stateMutability": "view",
      "type": "function"
    },
    {
      "inputs": [
        {
          "internalType": "uint256",
          "name": "",
          "type": "uint256"
        }
      ],
      "name": "drones",
      "outputs": [
        {
          "internalType": "uint256",
          "name": "id",
          "type": "uint256"
        },
        {
          "internalType": "string",
          "name": "ownerName",
          "type": "string"
        },
        {
          "internalType": "string",
          "name": "model",
          "type": "string"
        },
        {
          "internalType": "uint256",
          "name": "maxFlightAltitude",
          "type": "uint256"
        },
        {
          "internalType": "uint256",
          "name": "minFlightAltitude",
          "type": "uint256"
        },
        {
          "internalType": "uint256",
          "name": "cost",
          "type": "uint256"
        },
        {
          "internalType": "uint8",
          "name": "velocity",
          "type": "uint8"
        },
        {
          "internalType": "address",
          "name": "owner",
          "type": "address"
        }
      ],
      "stateMutability": "view",
      "type": "function"
    },
    {
      "inputs": [
        {
          "internalType": "uint256",
          "name": "tokenId",
          "type": "uint256"
        }
      ],
      "name": "getApproved",
      "outputs": [
        {
          "internalType": "address",
          "name": "",
          "type": "address"
        }
      ],
      "stateMutability": "view",
      "type": "function"
    },
    {
      "inputs": [
        {
          "internalType": "address",
          "name": "owner",
          "type": "address"
        },
        {
          "internalType": "address",
          "name": "operator",
          "type": "address"
        }
      ],
      "name": "isApprovedForAll",
      "outputs": [
        {
          "internalType": "bool",
          "name": "",
          "type": "bool"
        }
      ],
      "stateMutability": "view",
      "type": "function"
    },
    {
      "inputs": [],
      "name": "name",
      "outputs": [
        {
          "internalType": "string",
          "name": "",
          "type": "string"
        }
      ],
      "stateMutability": "view",
      "type": "function"
    },
    {
      "inputs": [
        {
          "internalType": "uint256",
          "name": "tokenId",
          "type": "uint256"
        }
      ],
      "name": "ownerOf",
      "outputs": [
        {
          "internalType": "address",
          "name": "",
          "type": "address"
        }
      ],
      "stateMutability": "view",
      "type": "function"
    },
    {
      "inputs": [
        {
          "internalType": "address",
          "name": "from",
          "type": "address"
        },
        {
          "internalType": "address",
          "name": "to",
          "type": "address"
        },
        {
          "internalType": "uint256",
          "name": "tokenId",
          "type": "uint256"
        }
      ],
      "name": "safeTransferFrom",
      "outputs": [],
      "stateMutability": "nonpayable",
      "type": "function"
    },
    {
      "inputs": [
        {
          "internalType": "address",
          "name": "from",
          "type": "address"
        },
        {
          "internalType": "address",
          "name": "to",
          "type": "address"
        },
        {
          "internalType": "uint256",
          "name": "tokenId",
          "type": "uint256"
        },
        {
          "internalType": "bytes",
          "name": "_data",
          "type": "bytes"
        }
      ],
      "name": "safeTransferFrom",
      "outputs": [],
      "stateMutability": "nonpayable",
      "type": "function"
    },
    {
      "inputs": [
        {
          "internalType": "address",
          "name": "operator",
          "type": "address"
        },
        {
          "internalType": "bool",
          "name": "approved",
          "type": "bool"
        }
      ],
      "name": "setApprovalForAll",
      "outputs": [],
      "stateMutability": "nonpayable",
      "type": "function"
    },
    {
      "inputs": [
        {
          "internalType": "bytes4",
          "name": "interfaceId",
          "type": "bytes4"
        }
      ],
      "name": "supportsInterface",
      "outputs": [
        {
          "internalType": "bool",
          "name": "",
          "type": "bool"
        }
      ],
      "stateMutability": "view",
      "type": "function"
    },
    {
      "inputs": [],
      "name": "symbol",
      "outputs": [
        {
          "internalType": "string",
          "name": "",
          "type": "string"
        }
      ],
      "stateMutability": "view",
      "type": "function"
    },
    {
      "inputs": [
        {
          "internalType": "uint256",
          "name": "tokenId",
          "type": "uint256"
        }
      ],
      "name": "tokenURI",
      "outputs": [
        {
          "internalType": "string",
          "name": "",
          "type": "string"
        }
      ],
      "stateMutability": "view",
      "type": "function"
    },
    {
      "inputs": [
        {
          "internalType": "address",
          "name": "from",
          "type": "address"
        },
        {
          "internalType": "address",
          "name": "to",
          "type": "address"
        },
        {
          "internalType": "uint256",
          "name": "tokenId",
          "type": "uint256"
        }
      ],
      "name": "transferFrom",
      "outputs": [],
      "stateMutability": "nonpayable",
      "type": "function"
    },
    {
      "inputs": [
        {
          "internalType": "string",
          "name": "_ownerName",
          "type": "string"
        },
        {
          "internalType": "string",
          "name": "_model",
          "type": "string"
        },
        {
          "internalType": "uint256",
          "name": "_maxFlightAltitude",
          "type": "uint256"
        },
        {
          "internalType": "uint256",
          "name": "_minFlightAltitude",
          "type": "uint256"
        },
        {
          "internalType": "string[]",
          "name": "_pesticides",
          "type": "string[]"
        },
        {
          "internalType": "uint256",
          "name": "_cost",
          "type": "uint256"
        },
        {
          "internalType": "uint8",
          "name": "_velocity",
          "type": "uint8"
        }
      ],
      "name": "mintNewDrone",
      "outputs": [],
      "stateMutability": "nonpayable",
      "type": "function"
    }
  ],
  "bytecode": "0x60806040523480156200001157600080fd5b506040518060400160405280600581526020017f44726f6e650000000000000000000000000000000000000000000000000000008152506040518060400160405280600381526020017f44524e0000000000000000000000000000000000000000000000000000000000815250816000908051906020019062000096929190620000b8565b508060019080519060200190620000af929190620000b8565b505050620001cc565b828054620000c69062000197565b90600052602060002090601f016020900481019282620000ea576000855562000136565b82601f106200010557805160ff191683800117855562000136565b8280016001018555821562000136579182015b828111156200013557825182559160200191906001019062000118565b5b50905062000145919062000149565b5090565b5b80821115620001645760008160009055506001016200014a565b5090565b7f4e487b7100000000000000000000000000000000000000000000000000000000600052602260045260246000fd5b60006002820490506001821680620001b057607f821691505b602082108103620001c657620001c562000168565b5b50919050565b612fd680620001dc6000396000f3fe608060405234801561001057600080fd5b50600436106100f55760003560e01c806370a0823111610097578063a38c915f11610066578063a38c915f1461029d578063b88d4fde146102b9578063c87b56dd146102d5578063e985e9c514610305576100f5565b806370a08231146101fc5780639341bc001461022c57806395d89b4114610263578063a22cb46514610281576100f5565b8063095ea7b3116100d3578063095ea7b31461017857806323b872dd1461019457806342842e0e146101b05780636352211e146101cc576100f5565b806301ffc9a7146100fa57806306fdde031461012a578063081812fc14610148575b600080fd5b610114600480360381019061010f9190611c0a565b610335565b6040516101219190611c52565b60405180910390f35b610132610417565b60405161013f9190611d06565b60405180910390f35b610162600480360381019061015d9190611d5e565b6104a9565b60405161016f9190611dcc565b60405180910390f35b610192600480360381019061018d9190611e13565b61052e565b005b6101ae60048036038101906101a99190611e53565b610645565b005b6101ca60048036038101906101c59190611e53565b6106a5565b005b6101e660048036038101906101e19190611d5e565b6106c5565b6040516101f39190611dcc565b60405180910390f35b61021660048036038101906102119190611ea6565b610776565b6040516102239190611ee2565b60405180910390f35b61024660048036038101906102419190611d5e565b61082d565b60405161025a989796959493929190611f19565b60405180910390f35b61026b6109c2565b6040516102789190611d06565b60405180910390f35b61029b60048036038101906102969190611fd1565b610a54565b005b6102b760048036038101906102b29190612258565b610a6a565b005b6102d360048036038101906102ce91906123ef565b610bf9565b005b6102ef60048036038101906102ea9190611d5e565b610c5b565b6040516102fc9190611d06565b60405180910390f35b61031f600480360381019061031a9190612472565b610d02565b60405161032c9190611c52565b60405180910390f35b60007f80ac58cd000000000000000000000000000000000000000000000000000000007bffffffffffffffffffffffffffffffffffffffffffffffffffffffff1916827bffffffffffffffffffffffffffffffffffffffffffffffffffffffff1916148061040057507f5b5e139f000000000000000000000000000000000000000000000000000000007bffffffffffffffffffffffffffffffffffffffffffffffffffffffff1916827bffffffffffffffffffffffffffffffffffffffffffffffffffffffff1916145b80610410575061040f82610d96565b5b9050919050565b606060008054610426906124e1565b80601f0160208091040260200160405190810160405280929190818152602001828054610452906124e1565b801561049f5780601f106104745761010080835404028352916020019161049f565b820191906000526020600020905b81548152906001019060200180831161048257829003601f168201915b5050505050905090565b60006104b482610e00565b6104f3576040517f08c379a00000000000000000000000000000000000000000000000000000000081526004016104ea90612584565b60405180910390fd5b6004600083815260200190815260200160002060009054906101000a900473ffffffffffffffffffffffffffffffffffffffff169050919050565b6000610539826106c5565b90508073ffffffffffffffffffffffffffffffffffffffff168373ffffffffffffffffffffffffffffffffffffffff16036105a9576040517f08c379a00000000000000000000000000000000000000000000000000000000081526004016105a090612616565b60405180910390fd5b8073ffffffffffffffffffffffffffffffffffffffff166105c8610e6c565b73ffffffffffffffffffffffffffffffffffffffff1614806105f757506105f6816105f1610e6c565b610d02565b5b610636576040517f08c379a000000000000000000000000000000000000000000000000000000000815260040161062d906126a8565b60405180910390fd5b6106408383610e74565b505050565b610656610650610e6c565b82610f2d565b610695576040517f08c379a000000000000000000000000000000000000000000000000000000000815260040161068c9061273a565b60405180910390fd5b6106a083838361100b565b505050565b6106c083838360405180602001604052806000815250610bf9565b505050565b6000806002600084815260200190815260200160002060009054906101000a900473ffffffffffffffffffffffffffffffffffffffff169050600073ffffffffffffffffffffffffffffffffffffffff168173ffffffffffffffffffffffffffffffffffffffff160361076d576040517f08c379a0000000000000000000000000000000000000000000000000000000008152600401610764906127cc565b60405180910390fd5b80915050919050565b60008073ffffffffffffffffffffffffffffffffffffffff168273ffffffffffffffffffffffffffffffffffffffff16036107e6576040517f08c379a00000000000000000000000000000000000000000000000000000000081526004016107dd9061285e565b60405180910390fd5b600360008373ffffffffffffffffffffffffffffffffffffffff1673ffffffffffffffffffffffffffffffffffffffff168152602001908152602001600020549050919050565b6007818154811061083d57600080fd5b9060005260206000209060080201600091509050806000015490806001018054610866906124e1565b80601f0160208091040260200160405190810160405280929190818152602001828054610892906124e1565b80156108df5780601f106108b4576101008083540402835291602001916108df565b820191906000526020600020905b8154815290600101906020018083116108c257829003601f168201915b5050505050908060020180546108f4906124e1565b80601f0160208091040260200160405190810160405280929190818152602001828054610920906124e1565b801561096d5780601f106109425761010080835404028352916020019161096d565b820191906000526020600020905b81548152906001019060200180831161095057829003601f168201915b5050505050908060030154908060040154908060060154908060070160009054906101000a900460ff16908060070160019054906101000a900473ffffffffffffffffffffffffffffffffffffffff16905088565b6060600180546109d1906124e1565b80601f01602080910402602001604051908101604052809291908181526020018280546109fd906124e1565b8015610a4a5780601f10610a1f57610100808354040283529160200191610a4a565b820191906000526020600020905b815481529060010190602001808311610a2d57829003601f168201915b5050505050905090565b610a66610a5f610e6c565b8383611271565b5050565b60003390506007604051806101200160405280610a8760066113dd565b81526020018a81526020018981526020018881526020018781526020018681526020018581526020018460ff1681526020018373ffffffffffffffffffffffffffffffffffffffff168152509080600181540180825580915050600190039060005260206000209060080201600090919091909150600082015181600001556020820151816001019080519060200190610b22929190611a37565b506040820151816002019080519060200190610b3f929190611a37565b50606082015181600301556080820151816004015560a0820151816005019080519060200190610b70929190611abd565b5060c0820151816006015560e08201518160070160006101000a81548160ff021916908360ff1602179055506101008201518160070160016101000a81548173ffffffffffffffffffffffffffffffffffffffff021916908373ffffffffffffffffffffffffffffffffffffffff1602179055505050610bef816113eb565b5050505050505050565b610c0a610c04610e6c565b83610f2d565b610c49576040517f08c379a0000000000000000000000000000000000000000000000000000000008152600401610c409061273a565b60405180910390fd5b610c5584848484611448565b50505050565b6060610c6682610e00565b610ca5576040517f08c379a0000000000000000000000000000000000000000000000000000000008152600401610c9c906128f0565b60405180910390fd5b6000610caf6114a4565b90506000815111610ccf5760405180602001604052806000815250610cfa565b80610cd9846114bb565b604051602001610cea92919061294c565b6040516020818303038152906040525b915050919050565b6000600560008473ffffffffffffffffffffffffffffffffffffffff1673ffffffffffffffffffffffffffffffffffffffff16815260200190815260200160002060008373ffffffffffffffffffffffffffffffffffffffff1673ffffffffffffffffffffffffffffffffffffffff16815260200190815260200160002060009054906101000a900460ff16905092915050565b60007f01ffc9a7000000000000000000000000000000000000000000000000000000007bffffffffffffffffffffffffffffffffffffffffffffffffffffffff1916827bffffffffffffffffffffffffffffffffffffffffffffffffffffffff1916149050919050565b60008073ffffffffffffffffffffffffffffffffffffffff166002600084815260200190815260200160002060009054906101000a900473ffffffffffffffffffffffffffffffffffffffff1673ffffffffffffffffffffffffffffffffffffffff1614159050919050565b600033905090565b816004600083815260200190815260200160002060006101000a81548173ffffffffffffffffffffffffffffffffffffffff021916908373ffffffffffffffffffffffffffffffffffffffff160217905550808273ffffffffffffffffffffffffffffffffffffffff16610ee7836106c5565b73ffffffffffffffffffffffffffffffffffffffff167f8c5be1e5ebec7d5bd14f71427d1e84f3dd0314c0f7b2291e5b200ac8c7c3b92560405160405180910390a45050565b6000610f3882610e00565b610f77576040517f08c379a0000000000000000000000000000000000000000000000000000000008152600401610f6e906129e2565b60405180910390fd5b6000610f82836106c5565b90508073ffffffffffffffffffffffffffffffffffffffff168473ffffffffffffffffffffffffffffffffffffffff161480610fc45750610fc38185610d02565b5b8061100257508373ffffffffffffffffffffffffffffffffffffffff16610fea846104a9565b73ffffffffffffffffffffffffffffffffffffffff16145b91505092915050565b8273ffffffffffffffffffffffffffffffffffffffff1661102b826106c5565b73ffffffffffffffffffffffffffffffffffffffff1614611081576040517f08c379a000000000000000000000000000000000000000000000000000000000815260040161107890612a74565b60405180910390fd5b600073ffffffffffffffffffffffffffffffffffffffff168273ffffffffffffffffffffffffffffffffffffffff16036110f0576040517f08c379a00000000000000000000000000000000000000000000000000000000081526004016110e790612b06565b60405180910390fd5b6110fb83838361161b565b611106600082610e74565b6001600360008573ffffffffffffffffffffffffffffffffffffffff1673ffffffffffffffffffffffffffffffffffffffff16815260200190815260200160002060008282546111569190612b55565b925050819055506001600360008473ffffffffffffffffffffffffffffffffffffffff1673ffffffffffffffffffffffffffffffffffffffff16815260200190815260200160002060008282546111ad9190612b89565b92505081905550816002600083815260200190815260200160002060006101000a81548173ffffffffffffffffffffffffffffffffffffffff021916908373ffffffffffffffffffffffffffffffffffffffff160217905550808273ffffffffffffffffffffffffffffffffffffffff168473ffffffffffffffffffffffffffffffffffffffff167fddf252ad1be2c89b69c2b068fc378daa952ba7f163c4a11628f55a4df523b3ef60405160405180910390a461126c838383611620565b505050565b8173ffffffffffffffffffffffffffffffffffffffff168373ffffffffffffffffffffffffffffffffffffffff16036112df576040517f08c379a00000000000000000000000000000000000000000000000000000000081526004016112d690612c2b565b60405180910390fd5b80600560008573ffffffffffffffffffffffffffffffffffffffff1673ffffffffffffffffffffffffffffffffffffffff16815260200190815260200160002060008473ffffffffffffffffffffffffffffffffffffffff1673ffffffffffffffffffffffffffffffffffffffff16815260200190815260200160002060006101000a81548160ff0219169083151502179055508173ffffffffffffffffffffffffffffffffffffffff168373ffffffffffffffffffffffffffffffffffffffff167f17307eab39ab6107e8899845ad3d59bd9653f200f220920489ca2b5937696c31836040516113d09190611c52565b60405180910390a3505050565b600081600001549050919050565b60006113f760066113dd565b90506114038282611625565b61140d6006611643565b7f564ba5ec5742b2e6afc952e92235671c7a1959fe20648c59ded66c27215095448160405161143c9190611ee2565b60405180910390a15050565b61145384848461100b565b61145f84848484611659565b61149e576040517f08c379a000000000000000000000000000000000000000000000000000000000815260040161149590612cbd565b60405180910390fd5b50505050565b606060405180602001604052806000815250905090565b606060008203611502576040518060400160405280600181526020017f30000000000000000000000000000000000000000000000000000000000000008152509050611616565b600082905060005b6000821461153457808061151d90612cdd565b915050600a8261152d9190612d54565b915061150a565b60008167ffffffffffffffff8111156115505761154f61201b565b5b6040519080825280601f01601f1916602001820160405280156115825781602001600182028036833780820191505090505b5090505b6000851461160f5760018261159b9190612b55565b9150600a856115aa9190612d85565b60306115b69190612b89565b60f81b8183815181106115cc576115cb612db6565b5b60200101907effffffffffffffffffffffffffffffffffffffffffffffffffffffffffffff1916908160001a905350600a856116089190612d54565b9450611586565b8093505050505b919050565b505050565b505050565b61163f8282604051806020016040528060008152506117e0565b5050565b6001816000016000828254019250508190555050565b600061167a8473ffffffffffffffffffffffffffffffffffffffff1661183b565b156117d3578373ffffffffffffffffffffffffffffffffffffffff1663150b7a026116a3610e6c565b8786866040518563ffffffff1660e01b81526004016116c59493929190612e3a565b6020604051808303816000875af192505050801561170157506040513d601f19601f820116820180604052508101906116fe9190612e9b565b60015b611783573d8060008114611731576040519150601f19603f3d011682016040523d82523d6000602084013e611736565b606091505b50600081510361177b576040517f08c379a000000000000000000000000000000000000000000000000000000000815260040161177290612cbd565b60405180910390fd5b805181602001fd5b63150b7a0260e01b7bffffffffffffffffffffffffffffffffffffffffffffffffffffffff1916817bffffffffffffffffffffffffffffffffffffffffffffffffffffffff1916149150506117d8565b600190505b949350505050565b6117ea838361185e565b6117f76000848484611659565b611836576040517f08c379a000000000000000000000000000000000000000000000000000000000815260040161182d90612cbd565b60405180910390fd5b505050565b6000808273ffffffffffffffffffffffffffffffffffffffff163b119050919050565b600073ffffffffffffffffffffffffffffffffffffffff168273ffffffffffffffffffffffffffffffffffffffff16036118cd576040517f08c379a00000000000000000000000000000000000000000000000000000000081526004016118c490612f14565b60405180910390fd5b6118d681610e00565b15611916576040517f08c379a000000000000000000000000000000000000000000000000000000000815260040161190d90612f80565b60405180910390fd5b6119226000838361161b565b6001600360008473ffffffffffffffffffffffffffffffffffffffff1673ffffffffffffffffffffffffffffffffffffffff16815260200190815260200160002060008282546119729190612b89565b92505081905550816002600083815260200190815260200160002060006101000a81548173ffffffffffffffffffffffffffffffffffffffff021916908373ffffffffffffffffffffffffffffffffffffffff160217905550808273ffffffffffffffffffffffffffffffffffffffff16600073ffffffffffffffffffffffffffffffffffffffff167fddf252ad1be2c89b69c2b068fc378daa952ba7f163c4a11628f55a4df523b3ef60405160405180910390a4611a3360008383611620565b5050565b828054611a43906124e1565b90600052602060002090601f016020900481019282611a655760008555611aac565b82601f10611a7e57805160ff1916838001178555611aac565b82800160010185558215611aac579182015b82811115611aab578251825591602001919060010190611a90565b5b509050611ab99190611b1d565b5090565b828054828255906000526020600020908101928215611b0c579160200282015b82811115611b0b578251829080519060200190611afb929190611a37565b5091602001919060010190611add565b5b509050611b199190611b3a565b5090565b5b80821115611b36576000816000905550600101611b1e565b5090565b5b80821115611b5a5760008181611b519190611b5e565b50600101611b3b565b5090565b508054611b6a906124e1565b6000825580601f10611b7c5750611b9b565b601f016020900490600052602060002090810190611b9a9190611b1d565b5b50565b6000604051905090565b600080fd5b600080fd5b60007fffffffff0000000000000000000000000000000000000000000000000000000082169050919050565b611be781611bb2565b8114611bf257600080fd5b50565b600081359050611c0481611bde565b92915050565b600060208284031215611c2057611c1f611ba8565b5b6000611c2e84828501611bf5565b91505092915050565b60008115159050919050565b611c4c81611c37565b82525050565b6000602082019050611c676000830184611c43565b92915050565b600081519050919050565b600082825260208201905092915050565b60005b83811015611ca7578082015181840152602081019050611c8c565b83811115611cb6576000848401525b50505050565b6000601f19601f8301169050919050565b6000611cd882611c6d565b611ce28185611c78565b9350611cf2818560208601611c89565b611cfb81611cbc565b840191505092915050565b60006020820190508181036000830152611d208184611ccd565b905092915050565b6000819050919050565b611d3b81611d28565b8114611d4657600080fd5b50565b600081359050611d5881611d32565b92915050565b600060208284031215611d7457611d73611ba8565b5b6000611d8284828501611d49565b91505092915050565b600073ffffffffffffffffffffffffffffffffffffffff82169050919050565b6000611db682611d8b565b9050919050565b611dc681611dab565b82525050565b6000602082019050611de16000830184611dbd565b92915050565b611df081611dab565b8114611dfb57600080fd5b50565b600081359050611e0d81611de7565b92915050565b60008060408385031215611e2a57611e29611ba8565b5b6000611e3885828601611dfe565b9250506020611e4985828601611d49565b9150509250929050565b600080600060608486031215611e6c57611e6b611ba8565b5b6000611e7a86828701611dfe565b9350506020611e8b86828701611dfe565b9250506040611e9c86828701611d49565b9150509250925092565b600060208284031215611ebc57611ebb611ba8565b5b6000611eca84828501611dfe565b91505092915050565b611edc81611d28565b82525050565b6000602082019050611ef76000830184611ed3565b92915050565b600060ff82169050919050565b611f1381611efd565b82525050565b600061010082019050611f2f600083018b611ed3565b8181036020830152611f41818a611ccd565b90508181036040830152611f558189611ccd565b9050611f646060830188611ed3565b611f716080830187611ed3565b611f7e60a0830186611ed3565b611f8b60c0830185611f0a565b611f9860e0830184611dbd565b9998505050505050505050565b611fae81611c37565b8114611fb957600080fd5b50565b600081359050611fcb81611fa5565b92915050565b60008060408385031215611fe857611fe7611ba8565b5b6000611ff685828601611dfe565b925050602061200785828601611fbc565b9150509250929050565b600080fd5b600080fd5b7f4e487b7100000000000000000000000000000000000000000000000000000000600052604160045260246000fd5b61205382611cbc565b810181811067ffffffffffffffff821117156120725761207161201b565b5b80604052505050565b6000612085611b9e565b9050612091828261204a565b919050565b600067ffffffffffffffff8211156120b1576120b061201b565b5b6120ba82611cbc565b9050602081019050919050565b82818337600083830152505050565b60006120e96120e484612096565b61207b565b90508281526020810184848401111561210557612104612016565b5b6121108482856120c7565b509392505050565b600082601f83011261212d5761212c612011565b5b813561213d8482602086016120d6565b91505092915050565b600067ffffffffffffffff8211156121615761216061201b565b5b602082029050602081019050919050565b600080fd5b600061218a61218584612146565b61207b565b905080838252602082019050602084028301858111156121ad576121ac612172565b5b835b818110156121f457803567ffffffffffffffff8111156121d2576121d1612011565b5b8086016121df8982612118565b855260208501945050506020810190506121af565b5050509392505050565b600082601f83011261221357612212612011565b5b8135612223848260208601612177565b91505092915050565b61223581611efd565b811461224057600080fd5b50565b6000813590506122528161222c565b92915050565b600080600080600080600060e0888a03121561227757612276611ba8565b5b600088013567ffffffffffffffff81111561229557612294611bad565b5b6122a18a828b01612118565b975050602088013567ffffffffffffffff8111156122c2576122c1611bad565b5b6122ce8a828b01612118565b96505060406122df8a828b01611d49565b95505060606122f08a828b01611d49565b945050608088013567ffffffffffffffff81111561231157612310611bad565b5b61231d8a828b016121fe565b93505060a061232e8a828b01611d49565b92505060c061233f8a828b01612243565b91505092959891949750929550565b600067ffffffffffffffff8211156123695761236861201b565b5b61237282611cbc565b9050602081019050919050565b600061239261238d8461234e565b61207b565b9050828152602081018484840111156123ae576123ad612016565b5b6123b98482856120c7565b509392505050565b600082601f8301126123d6576123d5612011565b5b81356123e684826020860161237f565b91505092915050565b6000806000806080858703121561240957612408611ba8565b5b600061241787828801611dfe565b945050602061242887828801611dfe565b935050604061243987828801611d49565b925050606085013567ffffffffffffffff81111561245a57612459611bad565b5b612466878288016123c1565b91505092959194509250565b6000806040838503121561248957612488611ba8565b5b600061249785828601611dfe565b92505060206124a885828601611dfe565b9150509250929050565b7f4e487b7100000000000000000000000000000000000000000000000000000000600052602260045260246000fd5b600060028204905060018216806124f957607f821691505b60208210810361250c5761250b6124b2565b5b50919050565b7f4552433732313a20617070726f76656420717565727920666f72206e6f6e657860008201527f697374656e7420746f6b656e0000000000000000000000000000000000000000602082015250565b600061256e602c83611c78565b915061257982612512565b604082019050919050565b6000602082019050818103600083015261259d81612561565b9050919050565b7f4552433732313a20617070726f76616c20746f2063757272656e74206f776e6560008201527f7200000000000000000000000000000000000000000000000000000000000000602082015250565b6000612600602183611c78565b915061260b826125a4565b604082019050919050565b6000602082019050818103600083015261262f816125f3565b9050919050565b7f4552433732313a20617070726f76652063616c6c6572206973206e6f74206f7760008201527f6e6572206e6f7220617070726f76656420666f7220616c6c0000000000000000602082015250565b6000612692603883611c78565b915061269d82612636565b604082019050919050565b600060208201905081810360008301526126c181612685565b9050919050565b7f4552433732313a207472616e736665722063616c6c6572206973206e6f74206f60008201527f776e6572206e6f7220617070726f766564000000000000000000000000000000602082015250565b6000612724603183611c78565b915061272f826126c8565b604082019050919050565b6000602082019050818103600083015261275381612717565b9050919050565b7f4552433732313a206f776e657220717565727920666f72206e6f6e657869737460008201527f656e7420746f6b656e0000000000000000000000000000000000000000000000602082015250565b60006127b6602983611c78565b91506127c18261275a565b604082019050919050565b600060208201905081810360008301526127e5816127a9565b9050919050565b7f4552433732313a2062616c616e636520717565727920666f7220746865207a6560008201527f726f206164647265737300000000000000000000000000000000000000000000602082015250565b6000612848602a83611c78565b9150612853826127ec565b604082019050919050565b600060208201905081810360008301526128778161283b565b9050919050565b7f4552433732314d657461646174613a2055524920717565727920666f72206e6f60008201527f6e6578697374656e7420746f6b656e0000000000000000000000000000000000602082015250565b60006128da602f83611c78565b91506128e58261287e565b604082019050919050565b60006020820190508181036000830152612909816128cd565b9050919050565b600081905092915050565b600061292682611c6d565b6129308185612910565b9350612940818560208601611c89565b80840191505092915050565b6000612958828561291b565b9150612964828461291b565b91508190509392505050565b7f4552433732313a206f70657261746f7220717565727920666f72206e6f6e657860008201527f697374656e7420746f6b656e0000000000000000000000000000000000000000602082015250565b60006129cc602c83611c78565b91506129d782612970565b604082019050919050565b600060208201905081810360008301526129fb816129bf565b9050919050565b7f4552433732313a207472616e736665722066726f6d20696e636f72726563742060008201527f6f776e6572000000000000000000000000000000000000000000000000000000602082015250565b6000612a5e602583611c78565b9150612a6982612a02565b604082019050919050565b60006020820190508181036000830152612a8d81612a51565b9050919050565b7f4552433732313a207472616e7366657220746f20746865207a65726f2061646460008201527f7265737300000000000000000000000000000000000000000000000000000000602082015250565b6000612af0602483611c78565b9150612afb82612a94565b604082019050919050565b60006020820190508181036000830152612b1f81612ae3565b9050919050565b7f4e487b7100000000000000000000000000000000000000000000000000000000600052601160045260246000fd5b6000612b6082611d28565b9150612b6b83611d28565b925082821015612b7e57612b7d612b26565b5b828203905092915050565b6000612b9482611d28565b9150612b9f83611d28565b9250827fffffffffffffffffffffffffffffffffffffffffffffffffffffffffffffffff03821115612bd457612bd3612b26565b5b828201905092915050565b7f4552433732313a20617070726f766520746f2063616c6c657200000000000000600082015250565b6000612c15601983611c78565b9150612c2082612bdf565b602082019050919050565b60006020820190508181036000830152612c4481612c08565b9050919050565b7f4552433732313a207472616e7366657220746f206e6f6e20455243373231526560008201527f63656976657220696d706c656d656e7465720000000000000000000000000000602082015250565b6000612ca7603283611c78565b9150612cb282612c4b565b604082019050919050565b60006020820190508181036000830152612cd681612c9a565b9050919050565b6000612ce882611d28565b91507fffffffffffffffffffffffffffffffffffffffffffffffffffffffffffffffff8203612d1a57612d19612b26565b5b600182019050919050565b7f4e487b7100000000000000000000000000000000000000000000000000000000600052601260045260246000fd5b6000612d5f82611d28565b9150612d6a83611d28565b925082612d7a57612d79612d25565b5b828204905092915050565b6000612d9082611d28565b9150612d9b83611d28565b925082612dab57612daa612d25565b5b828206905092915050565b7f4e487b7100000000000000000000000000000000000000000000000000000000600052603260045260246000fd5b600081519050919050565b600082825260208201905092915050565b6000612e0c82612de5565b612e168185612df0565b9350612e26818560208601611c89565b612e2f81611cbc565b840191505092915050565b6000608082019050612e4f6000830187611dbd565b612e5c6020830186611dbd565b612e696040830185611ed3565b8181036060830152612e7b8184612e01565b905095945050505050565b600081519050612e9581611bde565b92915050565b600060208284031215612eb157612eb0611ba8565b5b6000612ebf84828501612e86565b91505092915050565b7f4552433732313a206d696e7420746f20746865207a65726f2061646472657373600082015250565b6000612efe602083611c78565b9150612f0982612ec8565b602082019050919050565b60006020820190508181036000830152612f2d81612ef1565b9050919050565b7f4552433732313a20746f6b656e20616c7265616479206d696e74656400000000600082015250565b6000612f6a601c83611c78565b9150612f7582612f34565b602082019050919050565b60006020820190508181036000830152612f9981612f5d565b905091905056fea264697066735822122055feab4016e20378e90e9dc135225af49c329431c3d380358b0045efe175e3ed64736f6c634300080e0033",
  "immutableReferences": {},
  "source": "// SPDX-License-Identifier: UNLICENCED\npragma solidity >=0.4.22 <0.9.0;\n\nimport \"./models/DroneModel.sol\";\nimport \"@openzeppelin/contracts/token/ERC721/ERC721.sol\";\nimport \"@openzeppelin/contracts/utils/Counters.sol\";\n\ncontract DroneNFT is ERC721, DroneModel {\n    using Counters for Counters.Counter;\n    Counters.Counter private _currentTokenId;\n\n    constructor() ERC721(\"Drone\", \"DRN\") {}\n\n    event NewDroneCreated(uint256 id);\n\n    Drone[] public drones;\n\n    function _droneMint(address _to) private {\n        uint256 currentId = _currentTokenId.current();\n        _safeMint(_to, currentId);\n        _currentTokenId.increment();\n        emit NewDroneCreated(currentId);\n    }\n\n    function mintNewDrone(\n        string memory _ownerName,\n        string memory _model,\n        uint256 _maxFlightAltitude,\n        uint256 _minFlightAltitude,\n        string[] memory _pesticides,\n        uint256 _cost,\n        uint8 _velocity\n    ) external {\n        address owner = msg.sender;\n        drones.push(\n            Drone(\n                _currentTokenId.current(),\n                _ownerName,\n                _model,\n                _maxFlightAltitude,\n                _minFlightAltitude,\n                _pesticides,\n                _cost,\n                _velocity,\n                owner\n            )\n        );\n        _droneMint(owner);\n    }\n}\n",
  "sourcePath": "/home/sergio/Documentos/sergio/projects/drones/smartcontracts/contracts/DroneNFT.sol",
  "compiler": {
    "name": "solc",
    "version": "0.8.14+commit.80d49f37.Emscripten.clang"
  },
  "schemaVersion": "3.4.7",
  "updatedAt": "2022-07-03T18:22:48.506Z",
  "devdoc": {
    "kind": "dev",
    "methods": {
      "approve(address,uint256)": {
        "details": "See {IERC721-approve}."
      },
      "balanceOf(address)": {
        "details": "See {IERC721-balanceOf}."
      },
      "getApproved(uint256)": {
        "details": "See {IERC721-getApproved}."
      },
      "isApprovedForAll(address,address)": {
        "details": "See {IERC721-isApprovedForAll}."
      },
      "name()": {
        "details": "See {IERC721Metadata-name}."
      },
      "ownerOf(uint256)": {
        "details": "See {IERC721-ownerOf}."
      },
      "safeTransferFrom(address,address,uint256)": {
        "details": "See {IERC721-safeTransferFrom}."
      },
      "safeTransferFrom(address,address,uint256,bytes)": {
        "details": "See {IERC721-safeTransferFrom}."
      },
      "setApprovalForAll(address,bool)": {
        "details": "See {IERC721-setApprovalForAll}."
      },
      "supportsInterface(bytes4)": {
        "details": "See {IERC165-supportsInterface}."
      },
      "symbol()": {
        "details": "See {IERC721Metadata-symbol}."
      },
      "tokenURI(uint256)": {
        "details": "See {IERC721Metadata-tokenURI}."
      },
      "transferFrom(address,address,uint256)": {
        "details": "See {IERC721-transferFrom}."
      }
    },
    "version": 1
  },
  "userdoc": {
    "kind": "user",
    "methods": {},
    "version": 1
  }
}