{
  "contractName": "DroneNFT",
  "abi": [
    {
      "inputs": [],
      "stateMutability": "nonpayable",
      "type": "constructor"
    },
    {
      "anonymous": false,
      "inputs": [
        {
          "indexed": true,
          "internalType": "address",
          "name": "owner",
          "type": "address"
        },
        {
          "indexed": true,
          "internalType": "address",
          "name": "approved",
          "type": "address"
        },
        {
          "indexed": true,
          "internalType": "uint256",
          "name": "tokenId",
          "type": "uint256"
        }
      ],
      "name": "Approval",
      "type": "event"
    },
    {
      "anonymous": false,
      "inputs": [
        {
          "indexed": true,
          "internalType": "address",
          "name": "owner",
          "type": "address"
        },
        {
          "indexed": true,
          "internalType": "address",
          "name": "operator",
          "type": "address"
        },
        {
          "indexed": false,
          "internalType": "bool",
          "name": "approved",
          "type": "bool"
        }
      ],
      "name": "ApprovalForAll",
      "type": "event"
    },
    {
      "anonymous": false,
      "inputs": [
        {
          "indexed": false,
          "internalType": "uint256",
          "name": "id",
          "type": "uint256"
        }
      ],
      "name": "NewDroneCreated",
      "type": "event"
    },
    {
      "anonymous": false,
      "inputs": [
        {
          "indexed": true,
          "internalType": "address",
          "name": "from",
          "type": "address"
        },
        {
          "indexed": true,
          "internalType": "address",
          "name": "to",
          "type": "address"
        },
        {
          "indexed": true,
          "internalType": "uint256",
          "name": "tokenId",
          "type": "uint256"
        }
      ],
      "name": "Transfer",
      "type": "event"
    },
    {
      "inputs": [
        {
          "internalType": "address",
          "name": "to",
          "type": "address"
        },
        {
          "internalType": "uint256",
          "name": "tokenId",
          "type": "uint256"
        }
      ],
      "name": "approve",
      "outputs": [],
      "stateMutability": "nonpayable",
      "type": "function"
    },
    {
      "inputs": [
        {
          "internalType": "address",
          "name": "owner",
          "type": "address"
        }
      ],
      "name": "balanceOf",
      "outputs": [
        {
          "internalType": "uint256",
          "name": "",
          "type": "uint256"
        }
      ],
      "stateMutability": "view",
      "type": "function"
    },
    {
      "inputs": [
        {
          "internalType": "uint256",
          "name": "",
          "type": "uint256"
        }
      ],
      "name": "drones",
      "outputs": [
        {
          "internalType": "uint256",
          "name": "id",
          "type": "uint256"
        },
        {
          "internalType": "string",
          "name": "ownerName",
          "type": "string"
        },
        {
          "internalType": "string",
          "name": "model",
          "type": "string"
        },
        {
          "internalType": "uint256",
          "name": "maxFlightAltitude",
          "type": "uint256"
        },
        {
          "internalType": "uint256",
          "name": "minFlightAltitude",
          "type": "uint256"
        },
        {
          "internalType": "uint256",
          "name": "cost",
          "type": "uint256"
        },
        {
          "internalType": "address",
          "name": "owner",
          "type": "address"
        }
      ],
      "stateMutability": "view",
      "type": "function"
    },
    {
      "inputs": [
        {
          "internalType": "uint256",
          "name": "tokenId",
          "type": "uint256"
        }
      ],
      "name": "getApproved",
      "outputs": [
        {
          "internalType": "address",
          "name": "",
          "type": "address"
        }
      ],
      "stateMutability": "view",
      "type": "function"
    },
    {
      "inputs": [
        {
          "internalType": "address",
          "name": "owner",
          "type": "address"
        },
        {
          "internalType": "address",
          "name": "operator",
          "type": "address"
        }
      ],
      "name": "isApprovedForAll",
      "outputs": [
        {
          "internalType": "bool",
          "name": "",
          "type": "bool"
        }
      ],
      "stateMutability": "view",
      "type": "function"
    },
    {
      "inputs": [],
      "name": "name",
      "outputs": [
        {
          "internalType": "string",
          "name": "",
          "type": "string"
        }
      ],
      "stateMutability": "view",
      "type": "function"
    },
    {
      "inputs": [
        {
          "internalType": "uint256",
          "name": "tokenId",
          "type": "uint256"
        }
      ],
      "name": "ownerOf",
      "outputs": [
        {
          "internalType": "address",
          "name": "",
          "type": "address"
        }
      ],
      "stateMutability": "view",
      "type": "function"
    },
    {
      "inputs": [
        {
          "internalType": "address",
          "name": "from",
          "type": "address"
        },
        {
          "internalType": "address",
          "name": "to",
          "type": "address"
        },
        {
          "internalType": "uint256",
          "name": "tokenId",
          "type": "uint256"
        }
      ],
      "name": "safeTransferFrom",
      "outputs": [],
      "stateMutability": "nonpayable",
      "type": "function"
    },
    {
      "inputs": [
        {
          "internalType": "address",
          "name": "from",
          "type": "address"
        },
        {
          "internalType": "address",
          "name": "to",
          "type": "address"
        },
        {
          "internalType": "uint256",
          "name": "tokenId",
          "type": "uint256"
        },
        {
          "internalType": "bytes",
          "name": "_data",
          "type": "bytes"
        }
      ],
      "name": "safeTransferFrom",
      "outputs": [],
      "stateMutability": "nonpayable",
      "type": "function"
    },
    {
      "inputs": [
        {
          "internalType": "address",
          "name": "operator",
          "type": "address"
        },
        {
          "internalType": "bool",
          "name": "approved",
          "type": "bool"
        }
      ],
      "name": "setApprovalForAll",
      "outputs": [],
      "stateMutability": "nonpayable",
      "type": "function"
    },
    {
      "inputs": [
        {
          "internalType": "bytes4",
          "name": "interfaceId",
          "type": "bytes4"
        }
      ],
      "name": "supportsInterface",
      "outputs": [
        {
          "internalType": "bool",
          "name": "",
          "type": "bool"
        }
      ],
      "stateMutability": "view",
      "type": "function"
    },
    {
      "inputs": [],
      "name": "symbol",
      "outputs": [
        {
          "internalType": "string",
          "name": "",
          "type": "string"
        }
      ],
      "stateMutability": "view",
      "type": "function"
    },
    {
      "inputs": [
        {
          "internalType": "uint256",
          "name": "tokenId",
          "type": "uint256"
        }
      ],
      "name": "tokenURI",
      "outputs": [
        {
          "internalType": "string",
          "name": "",
          "type": "string"
        }
      ],
      "stateMutability": "view",
      "type": "function"
    },
    {
      "inputs": [
        {
          "internalType": "address",
          "name": "from",
          "type": "address"
        },
        {
          "internalType": "address",
          "name": "to",
          "type": "address"
        },
        {
          "internalType": "uint256",
          "name": "tokenId",
          "type": "uint256"
        }
      ],
      "name": "transferFrom",
      "outputs": [],
      "stateMutability": "nonpayable",
      "type": "function"
    },
    {
      "inputs": [
        {
          "internalType": "string",
          "name": "_ownerName",
          "type": "string"
        },
        {
          "internalType": "string",
          "name": "_model",
          "type": "string"
        },
        {
          "internalType": "uint256",
          "name": "_maxFlightAltitude",
          "type": "uint256"
        },
        {
          "internalType": "uint256",
          "name": "_minFlightAltitude",
          "type": "uint256"
        },
        {
          "internalType": "string[]",
          "name": "_pesticides",
          "type": "string[]"
        },
        {
          "internalType": "uint256",
          "name": "_cost",
          "type": "uint256"
        }
      ],
      "name": "mintNewDrone",
      "outputs": [],
      "stateMutability": "nonpayable",
      "type": "function"
    }
  ],
  "bytecode": "0x60806040523480156200001157600080fd5b506040518060400160405280600581526020017f44726f6e650000000000000000000000000000000000000000000000000000008152506040518060400160405280600381526020017f44524e0000000000000000000000000000000000000000000000000000000000815250816000908051906020019062000096929190620000b8565b508060019080519060200190620000af929190620000b8565b505050620001cc565b828054620000c69062000197565b90600052602060002090601f016020900481019282620000ea576000855562000136565b82601f106200010557805160ff191683800117855562000136565b8280016001018555821562000136579182015b828111156200013557825182559160200191906001019062000118565b5b50905062000145919062000149565b5090565b5b80821115620001645760008160009055506001016200014a565b5090565b7f4e487b7100000000000000000000000000000000000000000000000000000000600052602260045260246000fd5b60006002820490506001821680620001b057607f821691505b602082108103620001c657620001c562000168565b5b50919050565b612f2a80620001dc6000396000f3fe608060405234801561001057600080fd5b50600436106100f55760003560e01c80636352211e11610097578063a22cb46511610066578063a22cb4651461029c578063b88d4fde146102b8578063c87b56dd146102d4578063e985e9c514610304576100f5565b80636352211e146101e857806370a08231146102185780639341bc001461024857806395d89b411461027e576100f5565b8063095ea7b3116100d3578063095ea7b31461017857806323b872dd1461019457806342842e0e146101b05780634b1200b6146101cc576100f5565b806301ffc9a7146100fa57806306fdde031461012a578063081812fc14610148575b600080fd5b610114600480360381019061010f9190611bca565b610334565b6040516101219190611c12565b60405180910390f35b610132610416565b60405161013f9190611cc6565b60405180910390f35b610162600480360381019061015d9190611d1e565b6104a8565b60405161016f9190611d8c565b60405180910390f35b610192600480360381019061018d9190611dd3565b61052d565b005b6101ae60048036038101906101a99190611e13565b610644565b005b6101ca60048036038101906101c59190611e13565b6106a4565b005b6101e660048036038101906101e19190612081565b6106c4565b005b61020260048036038101906101fd9190611d1e565b610827565b60405161020f9190611d8c565b60405180910390f35b610232600480360381019061022d9190612162565b6108d8565b60405161023f919061219e565b60405180910390f35b610262600480360381019061025d9190611d1e565b61098f565b60405161027597969594939291906121b9565b60405180910390f35b610286610b11565b6040516102939190611cc6565b60405180910390f35b6102b660048036038101906102b19190612262565b610ba3565b005b6102d260048036038101906102cd9190612343565b610bb9565b005b6102ee60048036038101906102e99190611d1e565b610c1b565b6040516102fb9190611cc6565b60405180910390f35b61031e600480360381019061031991906123c6565b610cc2565b60405161032b9190611c12565b60405180910390f35b60007f80ac58cd000000000000000000000000000000000000000000000000000000007bffffffffffffffffffffffffffffffffffffffffffffffffffffffff1916827bffffffffffffffffffffffffffffffffffffffffffffffffffffffff191614806103ff57507f5b5e139f000000000000000000000000000000000000000000000000000000007bffffffffffffffffffffffffffffffffffffffffffffffffffffffff1916827bffffffffffffffffffffffffffffffffffffffffffffffffffffffff1916145b8061040f575061040e82610d56565b5b9050919050565b60606000805461042590612435565b80601f016020809104026020016040519081016040528092919081815260200182805461045190612435565b801561049e5780601f106104735761010080835404028352916020019161049e565b820191906000526020600020905b81548152906001019060200180831161048157829003601f168201915b5050505050905090565b60006104b382610dc0565b6104f2576040517f08c379a00000000000000000000000000000000000000000000000000000000081526004016104e9906124d8565b60405180910390fd5b6004600083815260200190815260200160002060009054906101000a900473ffffffffffffffffffffffffffffffffffffffff169050919050565b600061053882610827565b90508073ffffffffffffffffffffffffffffffffffffffff168373ffffffffffffffffffffffffffffffffffffffff16036105a8576040517f08c379a000000000000000000000000000000000000000000000000000000000815260040161059f9061256a565b60405180910390fd5b8073ffffffffffffffffffffffffffffffffffffffff166105c7610e2c565b73ffffffffffffffffffffffffffffffffffffffff1614806105f657506105f5816105f0610e2c565b610cc2565b5b610635576040517f08c379a000000000000000000000000000000000000000000000000000000000815260040161062c906125fc565b60405180910390fd5b61063f8383610e34565b505050565b61065561064f610e2c565b82610eed565b610694576040517f08c379a000000000000000000000000000000000000000000000000000000000815260040161068b9061268e565b60405180910390fd5b61069f838383610fcb565b505050565b6106bf83838360405180602001604052806000815250610bb9565b505050565b600033905060076040518061010001604052806106e16006611231565b81526020018981526020018881526020018781526020018681526020018581526020018481526020018373ffffffffffffffffffffffffffffffffffffffff1681525090806001815401808255809150506001900390600052602060002090600802016000909190919091506000820151816000015560208201518160010190805190602001906107739291906119f7565b5060408201518160020190805190602001906107909291906119f7565b50606082015181600301556080820151816004015560a08201518160050190805190602001906107c1929190611a7d565b5060c0820151816006015560e08201518160070160006101000a81548173ffffffffffffffffffffffffffffffffffffffff021916908373ffffffffffffffffffffffffffffffffffffffff160217905550505061081e8161123f565b50505050505050565b6000806002600084815260200190815260200160002060009054906101000a900473ffffffffffffffffffffffffffffffffffffffff169050600073ffffffffffffffffffffffffffffffffffffffff168173ffffffffffffffffffffffffffffffffffffffff16036108cf576040517f08c379a00000000000000000000000000000000000000000000000000000000081526004016108c690612720565b60405180910390fd5b80915050919050565b60008073ffffffffffffffffffffffffffffffffffffffff168273ffffffffffffffffffffffffffffffffffffffff1603610948576040517f08c379a000000000000000000000000000000000000000000000000000000000815260040161093f906127b2565b60405180910390fd5b600360008373ffffffffffffffffffffffffffffffffffffffff1673ffffffffffffffffffffffffffffffffffffffff168152602001908152602001600020549050919050565b6007818154811061099f57600080fd5b90600052602060002090600802016000915090508060000154908060010180546109c890612435565b80601f01602080910402602001604051908101604052809291908181526020018280546109f490612435565b8015610a415780601f10610a1657610100808354040283529160200191610a41565b820191906000526020600020905b815481529060010190602001808311610a2457829003601f168201915b505050505090806002018054610a5690612435565b80601f0160208091040260200160405190810160405280929190818152602001828054610a8290612435565b8015610acf5780601f10610aa457610100808354040283529160200191610acf565b820191906000526020600020905b815481529060010190602001808311610ab257829003601f168201915b5050505050908060030154908060040154908060060154908060070160009054906101000a900473ffffffffffffffffffffffffffffffffffffffff16905087565b606060018054610b2090612435565b80601f0160208091040260200160405190810160405280929190818152602001828054610b4c90612435565b8015610b995780601f10610b6e57610100808354040283529160200191610b99565b820191906000526020600020905b815481529060010190602001808311610b7c57829003601f168201915b5050505050905090565b610bb5610bae610e2c565b838361129c565b5050565b610bca610bc4610e2c565b83610eed565b610c09576040517f08c379a0000000000000000000000000000000000000000000000000000000008152600401610c009061268e565b60405180910390fd5b610c1584848484611408565b50505050565b6060610c2682610dc0565b610c65576040517f08c379a0000000000000000000000000000000000000000000000000000000008152600401610c5c90612844565b60405180910390fd5b6000610c6f611464565b90506000815111610c8f5760405180602001604052806000815250610cba565b80610c998461147b565b604051602001610caa9291906128a0565b6040516020818303038152906040525b915050919050565b6000600560008473ffffffffffffffffffffffffffffffffffffffff1673ffffffffffffffffffffffffffffffffffffffff16815260200190815260200160002060008373ffffffffffffffffffffffffffffffffffffffff1673ffffffffffffffffffffffffffffffffffffffff16815260200190815260200160002060009054906101000a900460ff16905092915050565b60007f01ffc9a7000000000000000000000000000000000000000000000000000000007bffffffffffffffffffffffffffffffffffffffffffffffffffffffff1916827bffffffffffffffffffffffffffffffffffffffffffffffffffffffff1916149050919050565b60008073ffffffffffffffffffffffffffffffffffffffff166002600084815260200190815260200160002060009054906101000a900473ffffffffffffffffffffffffffffffffffffffff1673ffffffffffffffffffffffffffffffffffffffff1614159050919050565b600033905090565b816004600083815260200190815260200160002060006101000a81548173ffffffffffffffffffffffffffffffffffffffff021916908373ffffffffffffffffffffffffffffffffffffffff160217905550808273ffffffffffffffffffffffffffffffffffffffff16610ea783610827565b73ffffffffffffffffffffffffffffffffffffffff167f8c5be1e5ebec7d5bd14f71427d1e84f3dd0314c0f7b2291e5b200ac8c7c3b92560405160405180910390a45050565b6000610ef882610dc0565b610f37576040517f08c379a0000000000000000000000000000000000000000000000000000000008152600401610f2e90612936565b60405180910390fd5b6000610f4283610827565b90508073ffffffffffffffffffffffffffffffffffffffff168473ffffffffffffffffffffffffffffffffffffffff161480610f845750610f838185610cc2565b5b80610fc257508373ffffffffffffffffffffffffffffffffffffffff16610faa846104a8565b73ffffffffffffffffffffffffffffffffffffffff16145b91505092915050565b8273ffffffffffffffffffffffffffffffffffffffff16610feb82610827565b73ffffffffffffffffffffffffffffffffffffffff1614611041576040517f08c379a0000000000000000000000000000000000000000000000000000000008152600401611038906129c8565b60405180910390fd5b600073ffffffffffffffffffffffffffffffffffffffff168273ffffffffffffffffffffffffffffffffffffffff16036110b0576040517f08c379a00000000000000000000000000000000000000000000000000000000081526004016110a790612a5a565b60405180910390fd5b6110bb8383836115db565b6110c6600082610e34565b6001600360008573ffffffffffffffffffffffffffffffffffffffff1673ffffffffffffffffffffffffffffffffffffffff16815260200190815260200160002060008282546111169190612aa9565b925050819055506001600360008473ffffffffffffffffffffffffffffffffffffffff1673ffffffffffffffffffffffffffffffffffffffff168152602001908152602001600020600082825461116d9190612add565b92505081905550816002600083815260200190815260200160002060006101000a81548173ffffffffffffffffffffffffffffffffffffffff021916908373ffffffffffffffffffffffffffffffffffffffff160217905550808273ffffffffffffffffffffffffffffffffffffffff168473ffffffffffffffffffffffffffffffffffffffff167fddf252ad1be2c89b69c2b068fc378daa952ba7f163c4a11628f55a4df523b3ef60405160405180910390a461122c8383836115e0565b505050565b600081600001549050919050565b600061124b6006611231565b905061125782826115e5565b6112616006611603565b7f564ba5ec5742b2e6afc952e92235671c7a1959fe20648c59ded66c272150954481604051611290919061219e565b60405180910390a15050565b8173ffffffffffffffffffffffffffffffffffffffff168373ffffffffffffffffffffffffffffffffffffffff160361130a576040517f08c379a000000000000000000000000000000000000000000000000000000000815260040161130190612b7f565b60405180910390fd5b80600560008573ffffffffffffffffffffffffffffffffffffffff1673ffffffffffffffffffffffffffffffffffffffff16815260200190815260200160002060008473ffffffffffffffffffffffffffffffffffffffff1673ffffffffffffffffffffffffffffffffffffffff16815260200190815260200160002060006101000a81548160ff0219169083151502179055508173ffffffffffffffffffffffffffffffffffffffff168373ffffffffffffffffffffffffffffffffffffffff167f17307eab39ab6107e8899845ad3d59bd9653f200f220920489ca2b5937696c31836040516113fb9190611c12565b60405180910390a3505050565b611413848484610fcb565b61141f84848484611619565b61145e576040517f08c379a000000000000000000000000000000000000000000000000000000000815260040161145590612c11565b60405180910390fd5b50505050565b606060405180602001604052806000815250905090565b6060600082036114c2576040518060400160405280600181526020017f300000000000000000000000000000000000000000000000000000000000000081525090506115d6565b600082905060005b600082146114f45780806114dd90612c31565b915050600a826114ed9190612ca8565b91506114ca565b60008167ffffffffffffffff8111156115105761150f611e70565b5b6040519080825280601f01601f1916602001820160405280156115425781602001600182028036833780820191505090505b5090505b600085146115cf5760018261155b9190612aa9565b9150600a8561156a9190612cd9565b60306115769190612add565b60f81b81838151811061158c5761158b612d0a565b5b60200101907effffffffffffffffffffffffffffffffffffffffffffffffffffffffffffff1916908160001a905350600a856115c89190612ca8565b9450611546565b8093505050505b919050565b505050565b505050565b6115ff8282604051806020016040528060008152506117a0565b5050565b6001816000016000828254019250508190555050565b600061163a8473ffffffffffffffffffffffffffffffffffffffff166117fb565b15611793578373ffffffffffffffffffffffffffffffffffffffff1663150b7a02611663610e2c565b8786866040518563ffffffff1660e01b81526004016116859493929190612d8e565b6020604051808303816000875af19250505080156116c157506040513d601f19601f820116820180604052508101906116be9190612def565b60015b611743573d80600081146116f1576040519150601f19603f3d011682016040523d82523d6000602084013e6116f6565b606091505b50600081510361173b576040517f08c379a000000000000000000000000000000000000000000000000000000000815260040161173290612c11565b60405180910390fd5b805181602001fd5b63150b7a0260e01b7bffffffffffffffffffffffffffffffffffffffffffffffffffffffff1916817bffffffffffffffffffffffffffffffffffffffffffffffffffffffff191614915050611798565b600190505b949350505050565b6117aa838361181e565b6117b76000848484611619565b6117f6576040517f08c379a00000000000000000000000000000000000000000000000000000000081526004016117ed90612c11565b60405180910390fd5b505050565b6000808273ffffffffffffffffffffffffffffffffffffffff163b119050919050565b600073ffffffffffffffffffffffffffffffffffffffff168273ffffffffffffffffffffffffffffffffffffffff160361188d576040517f08c379a000000000000000000000000000000000000000000000000000000000815260040161188490612e68565b60405180910390fd5b61189681610dc0565b156118d6576040517f08c379a00000000000000000000000000000000000000000000000000000000081526004016118cd90612ed4565b60405180910390fd5b6118e2600083836115db565b6001600360008473ffffffffffffffffffffffffffffffffffffffff1673ffffffffffffffffffffffffffffffffffffffff16815260200190815260200160002060008282546119329190612add565b92505081905550816002600083815260200190815260200160002060006101000a81548173ffffffffffffffffffffffffffffffffffffffff021916908373ffffffffffffffffffffffffffffffffffffffff160217905550808273ffffffffffffffffffffffffffffffffffffffff16600073ffffffffffffffffffffffffffffffffffffffff167fddf252ad1be2c89b69c2b068fc378daa952ba7f163c4a11628f55a4df523b3ef60405160405180910390a46119f3600083836115e0565b5050565b828054611a0390612435565b90600052602060002090601f016020900481019282611a255760008555611a6c565b82601f10611a3e57805160ff1916838001178555611a6c565b82800160010185558215611a6c579182015b82811115611a6b578251825591602001919060010190611a50565b5b509050611a799190611add565b5090565b828054828255906000526020600020908101928215611acc579160200282015b82811115611acb578251829080519060200190611abb9291906119f7565b5091602001919060010190611a9d565b5b509050611ad99190611afa565b5090565b5b80821115611af6576000816000905550600101611ade565b5090565b5b80821115611b1a5760008181611b119190611b1e565b50600101611afb565b5090565b508054611b2a90612435565b6000825580601f10611b3c5750611b5b565b601f016020900490600052602060002090810190611b5a9190611add565b5b50565b6000604051905090565b600080fd5b600080fd5b60007fffffffff0000000000000000000000000000000000000000000000000000000082169050919050565b611ba781611b72565b8114611bb257600080fd5b50565b600081359050611bc481611b9e565b92915050565b600060208284031215611be057611bdf611b68565b5b6000611bee84828501611bb5565b91505092915050565b60008115159050919050565b611c0c81611bf7565b82525050565b6000602082019050611c276000830184611c03565b92915050565b600081519050919050565b600082825260208201905092915050565b60005b83811015611c67578082015181840152602081019050611c4c565b83811115611c76576000848401525b50505050565b6000601f19601f8301169050919050565b6000611c9882611c2d565b611ca28185611c38565b9350611cb2818560208601611c49565b611cbb81611c7c565b840191505092915050565b60006020820190508181036000830152611ce08184611c8d565b905092915050565b6000819050919050565b611cfb81611ce8565b8114611d0657600080fd5b50565b600081359050611d1881611cf2565b92915050565b600060208284031215611d3457611d33611b68565b5b6000611d4284828501611d09565b91505092915050565b600073ffffffffffffffffffffffffffffffffffffffff82169050919050565b6000611d7682611d4b565b9050919050565b611d8681611d6b565b82525050565b6000602082019050611da16000830184611d7d565b92915050565b611db081611d6b565b8114611dbb57600080fd5b50565b600081359050611dcd81611da7565b92915050565b60008060408385031215611dea57611de9611b68565b5b6000611df885828601611dbe565b9250506020611e0985828601611d09565b9150509250929050565b600080600060608486031215611e2c57611e2b611b68565b5b6000611e3a86828701611dbe565b9350506020611e4b86828701611dbe565b9250506040611e5c86828701611d09565b9150509250925092565b600080fd5b600080fd5b7f4e487b7100000000000000000000000000000000000000000000000000000000600052604160045260246000fd5b611ea882611c7c565b810181811067ffffffffffffffff82111715611ec757611ec6611e70565b5b80604052505050565b6000611eda611b5e565b9050611ee68282611e9f565b919050565b600067ffffffffffffffff821115611f0657611f05611e70565b5b611f0f82611c7c565b9050602081019050919050565b82818337600083830152505050565b6000611f3e611f3984611eeb565b611ed0565b905082815260208101848484011115611f5a57611f59611e6b565b5b611f65848285611f1c565b509392505050565b600082601f830112611f8257611f81611e66565b5b8135611f92848260208601611f2b565b91505092915050565b600067ffffffffffffffff821115611fb657611fb5611e70565b5b602082029050602081019050919050565b600080fd5b6000611fdf611fda84611f9b565b611ed0565b9050808382526020820190506020840283018581111561200257612001611fc7565b5b835b8181101561204957803567ffffffffffffffff81111561202757612026611e66565b5b8086016120348982611f6d565b85526020850194505050602081019050612004565b5050509392505050565b600082601f83011261206857612067611e66565b5b8135612078848260208601611fcc565b91505092915050565b60008060008060008060c0878903121561209e5761209d611b68565b5b600087013567ffffffffffffffff8111156120bc576120bb611b6d565b5b6120c889828a01611f6d565b965050602087013567ffffffffffffffff8111156120e9576120e8611b6d565b5b6120f589828a01611f6d565b955050604061210689828a01611d09565b945050606061211789828a01611d09565b935050608087013567ffffffffffffffff81111561213857612137611b6d565b5b61214489828a01612053565b92505060a061215589828a01611d09565b9150509295509295509295565b60006020828403121561217857612177611b68565b5b600061218684828501611dbe565b91505092915050565b61219881611ce8565b82525050565b60006020820190506121b3600083018461218f565b92915050565b600060e0820190506121ce600083018a61218f565b81810360208301526121e08189611c8d565b905081810360408301526121f48188611c8d565b9050612203606083018761218f565b612210608083018661218f565b61221d60a083018561218f565b61222a60c0830184611d7d565b98975050505050505050565b61223f81611bf7565b811461224a57600080fd5b50565b60008135905061225c81612236565b92915050565b6000806040838503121561227957612278611b68565b5b600061228785828601611dbe565b92505060206122988582860161224d565b9150509250929050565b600067ffffffffffffffff8211156122bd576122bc611e70565b5b6122c682611c7c565b9050602081019050919050565b60006122e66122e1846122a2565b611ed0565b90508281526020810184848401111561230257612301611e6b565b5b61230d848285611f1c565b509392505050565b600082601f83011261232a57612329611e66565b5b813561233a8482602086016122d3565b91505092915050565b6000806000806080858703121561235d5761235c611b68565b5b600061236b87828801611dbe565b945050602061237c87828801611dbe565b935050604061238d87828801611d09565b925050606085013567ffffffffffffffff8111156123ae576123ad611b6d565b5b6123ba87828801612315565b91505092959194509250565b600080604083850312156123dd576123dc611b68565b5b60006123eb85828601611dbe565b92505060206123fc85828601611dbe565b9150509250929050565b7f4e487b7100000000000000000000000000000000000000000000000000000000600052602260045260246000fd5b6000600282049050600182168061244d57607f821691505b6020821081036124605761245f612406565b5b50919050565b7f4552433732313a20617070726f76656420717565727920666f72206e6f6e657860008201527f697374656e7420746f6b656e0000000000000000000000000000000000000000602082015250565b60006124c2602c83611c38565b91506124cd82612466565b604082019050919050565b600060208201905081810360008301526124f1816124b5565b9050919050565b7f4552433732313a20617070726f76616c20746f2063757272656e74206f776e6560008201527f7200000000000000000000000000000000000000000000000000000000000000602082015250565b6000612554602183611c38565b915061255f826124f8565b604082019050919050565b6000602082019050818103600083015261258381612547565b9050919050565b7f4552433732313a20617070726f76652063616c6c6572206973206e6f74206f7760008201527f6e6572206e6f7220617070726f76656420666f7220616c6c0000000000000000602082015250565b60006125e6603883611c38565b91506125f18261258a565b604082019050919050565b60006020820190508181036000830152612615816125d9565b9050919050565b7f4552433732313a207472616e736665722063616c6c6572206973206e6f74206f60008201527f776e6572206e6f7220617070726f766564000000000000000000000000000000602082015250565b6000612678603183611c38565b91506126838261261c565b604082019050919050565b600060208201905081810360008301526126a78161266b565b9050919050565b7f4552433732313a206f776e657220717565727920666f72206e6f6e657869737460008201527f656e7420746f6b656e0000000000000000000000000000000000000000000000602082015250565b600061270a602983611c38565b9150612715826126ae565b604082019050919050565b60006020820190508181036000830152612739816126fd565b9050919050565b7f4552433732313a2062616c616e636520717565727920666f7220746865207a6560008201527f726f206164647265737300000000000000000000000000000000000000000000602082015250565b600061279c602a83611c38565b91506127a782612740565b604082019050919050565b600060208201905081810360008301526127cb8161278f565b9050919050565b7f4552433732314d657461646174613a2055524920717565727920666f72206e6f60008201527f6e6578697374656e7420746f6b656e0000000000000000000000000000000000602082015250565b600061282e602f83611c38565b9150612839826127d2565b604082019050919050565b6000602082019050818103600083015261285d81612821565b9050919050565b600081905092915050565b600061287a82611c2d565b6128848185612864565b9350612894818560208601611c49565b80840191505092915050565b60006128ac828561286f565b91506128b8828461286f565b91508190509392505050565b7f4552433732313a206f70657261746f7220717565727920666f72206e6f6e657860008201527f697374656e7420746f6b656e0000000000000000000000000000000000000000602082015250565b6000612920602c83611c38565b915061292b826128c4565b604082019050919050565b6000602082019050818103600083015261294f81612913565b9050919050565b7f4552433732313a207472616e736665722066726f6d20696e636f72726563742060008201527f6f776e6572000000000000000000000000000000000000000000000000000000602082015250565b60006129b2602583611c38565b91506129bd82612956565b604082019050919050565b600060208201905081810360008301526129e1816129a5565b9050919050565b7f4552433732313a207472616e7366657220746f20746865207a65726f2061646460008201527f7265737300000000000000000000000000000000000000000000000000000000602082015250565b6000612a44602483611c38565b9150612a4f826129e8565b604082019050919050565b60006020820190508181036000830152612a7381612a37565b9050919050565b7f4e487b7100000000000000000000000000000000000000000000000000000000600052601160045260246000fd5b6000612ab482611ce8565b9150612abf83611ce8565b925082821015612ad257612ad1612a7a565b5b828203905092915050565b6000612ae882611ce8565b9150612af383611ce8565b9250827fffffffffffffffffffffffffffffffffffffffffffffffffffffffffffffffff03821115612b2857612b27612a7a565b5b828201905092915050565b7f4552433732313a20617070726f766520746f2063616c6c657200000000000000600082015250565b6000612b69601983611c38565b9150612b7482612b33565b602082019050919050565b60006020820190508181036000830152612b9881612b5c565b9050919050565b7f4552433732313a207472616e7366657220746f206e6f6e20455243373231526560008201527f63656976657220696d706c656d656e7465720000000000000000000000000000602082015250565b6000612bfb603283611c38565b9150612c0682612b9f565b604082019050919050565b60006020820190508181036000830152612c2a81612bee565b9050919050565b6000612c3c82611ce8565b91507fffffffffffffffffffffffffffffffffffffffffffffffffffffffffffffffff8203612c6e57612c6d612a7a565b5b600182019050919050565b7f4e487b7100000000000000000000000000000000000000000000000000000000600052601260045260246000fd5b6000612cb382611ce8565b9150612cbe83611ce8565b925082612cce57612ccd612c79565b5b828204905092915050565b6000612ce482611ce8565b9150612cef83611ce8565b925082612cff57612cfe612c79565b5b828206905092915050565b7f4e487b7100000000000000000000000000000000000000000000000000000000600052603260045260246000fd5b600081519050919050565b600082825260208201905092915050565b6000612d6082612d39565b612d6a8185612d44565b9350612d7a818560208601611c49565b612d8381611c7c565b840191505092915050565b6000608082019050612da36000830187611d7d565b612db06020830186611d7d565b612dbd604083018561218f565b8181036060830152612dcf8184612d55565b905095945050505050565b600081519050612de981611b9e565b92915050565b600060208284031215612e0557612e04611b68565b5b6000612e1384828501612dda565b91505092915050565b7f4552433732313a206d696e7420746f20746865207a65726f2061646472657373600082015250565b6000612e52602083611c38565b9150612e5d82612e1c565b602082019050919050565b60006020820190508181036000830152612e8181612e45565b9050919050565b7f4552433732313a20746f6b656e20616c7265616479206d696e74656400000000600082015250565b6000612ebe601c83611c38565b9150612ec982612e88565b602082019050919050565b60006020820190508181036000830152612eed81612eb1565b905091905056fea2646970667358221220b50293db31219e8affaf206cd5367ba032d8f1ccae7de2bcb3c1b39afb3deb6a64736f6c634300080e0033",
  "immutableReferences": {},
  "source": "// SPDX-License-Identifier: UNLICENCED\npragma solidity >=0.4.22 <0.9.0;\n\nimport \"./models/DroneModel.sol\";\nimport \"@openzeppelin/contracts/token/ERC721/ERC721.sol\";\nimport \"@openzeppelin/contracts/utils/Counters.sol\";\n\ncontract DroneNFT is ERC721, DroneModel {\n    using Counters for Counters.Counter;\n    Counters.Counter private _currentTokenId;\n\n    constructor() ERC721(\"Drone\", \"DRN\") {}\n\n    event NewDroneCreated(uint256 id);\n\n    Drone[] public drones;\n\n    function _droneMint(address _to) private {\n        uint256 currentId = _currentTokenId.current();\n        _safeMint(_to, currentId);\n        _currentTokenId.increment();\n        emit NewDroneCreated(currentId);\n    }\n\n    function mintNewDrone(\n        string memory _ownerName,\n        string memory _model,\n        uint256 _maxFlightAltitude,\n        uint256 _minFlightAltitude,\n        string[] memory _pesticides,\n        uint256 _cost\n    ) external {\n        address owner = msg.sender;\n        drones.push(\n            Drone(\n                _currentTokenId.current(),\n                _ownerName,\n                _model,\n                _maxFlightAltitude,\n                _minFlightAltitude,\n                _pesticides,\n                _cost,\n                owner\n            )\n        );\n        _droneMint(owner);\n    }\n}\n",
  "sourcePath": "/home/sergio/Documentos/sergio/projects/drones/smartcontracts/contracts/DroneNFT.sol",
  "compiler": {
    "name": "solc",
    "version": "0.8.14+commit.80d49f37.Emscripten.clang"
  },
  "schemaVersion": "3.4.7",
  "updatedAt": "2022-07-04T18:35:15.106Z",
  "devdoc": {
    "kind": "dev",
    "methods": {
      "approve(address,uint256)": {
        "details": "See {IERC721-approve}."
      },
      "balanceOf(address)": {
        "details": "See {IERC721-balanceOf}."
      },
      "getApproved(uint256)": {
        "details": "See {IERC721-getApproved}."
      },
      "isApprovedForAll(address,address)": {
        "details": "See {IERC721-isApprovedForAll}."
      },
      "name()": {
        "details": "See {IERC721Metadata-name}."
      },
      "ownerOf(uint256)": {
        "details": "See {IERC721-ownerOf}."
      },
      "safeTransferFrom(address,address,uint256)": {
        "details": "See {IERC721-safeTransferFrom}."
      },
      "safeTransferFrom(address,address,uint256,bytes)": {
        "details": "See {IERC721-safeTransferFrom}."
      },
      "setApprovalForAll(address,bool)": {
        "details": "See {IERC721-setApprovalForAll}."
      },
      "supportsInterface(bytes4)": {
        "details": "See {IERC165-supportsInterface}."
      },
      "symbol()": {
        "details": "See {IERC721Metadata-symbol}."
      },
      "tokenURI(uint256)": {
        "details": "See {IERC721Metadata-tokenURI}."
      },
      "transferFrom(address,address,uint256)": {
        "details": "See {IERC721-transferFrom}."
      }
    },
    "version": 1
  },
  "userdoc": {
    "kind": "user",
    "methods": {},
    "version": 1
  }
}