{
  "contractName": "Drone",
  "abi": [
    {
      "anonymous": false,
      "inputs": [
        {
          "indexed": true,
          "internalType": "address",
          "name": "owner",
          "type": "address"
        },
        {
          "indexed": true,
          "internalType": "address",
          "name": "approved",
          "type": "address"
        },
        {
          "indexed": true,
          "internalType": "uint256",
          "name": "tokenId",
          "type": "uint256"
        }
      ],
      "name": "Approval",
      "type": "event"
    },
    {
      "anonymous": false,
      "inputs": [
        {
          "indexed": true,
          "internalType": "address",
          "name": "owner",
          "type": "address"
        },
        {
          "indexed": true,
          "internalType": "address",
          "name": "operator",
          "type": "address"
        },
        {
          "indexed": false,
          "internalType": "bool",
          "name": "approved",
          "type": "bool"
        }
      ],
      "name": "ApprovalForAll",
      "type": "event"
    },
    {
      "anonymous": false,
      "inputs": [
        {
          "indexed": false,
          "internalType": "uint256",
          "name": "id",
          "type": "uint256"
        }
      ],
      "name": "NewDroneCreated",
      "type": "event"
    },
    {
      "anonymous": false,
      "inputs": [
        {
          "indexed": true,
          "internalType": "address",
          "name": "previousOwner",
          "type": "address"
        },
        {
          "indexed": true,
          "internalType": "address",
          "name": "newOwner",
          "type": "address"
        }
      ],
      "name": "OwnershipTransferred",
      "type": "event"
    },
    {
      "anonymous": false,
      "inputs": [
        {
          "indexed": true,
          "internalType": "address",
          "name": "from",
          "type": "address"
        },
        {
          "indexed": true,
          "internalType": "address",
          "name": "to",
          "type": "address"
        },
        {
          "indexed": true,
          "internalType": "uint256",
          "name": "tokenId",
          "type": "uint256"
        }
      ],
      "name": "Transfer",
      "type": "event"
    },
    {
      "inputs": [
        {
          "internalType": "address",
          "name": "to",
          "type": "address"
        },
        {
          "internalType": "uint256",
          "name": "tokenId",
          "type": "uint256"
        }
      ],
      "name": "approve",
      "outputs": [],
      "stateMutability": "nonpayable",
      "type": "function"
    },
    {
      "inputs": [
        {
          "internalType": "address",
          "name": "owner",
          "type": "address"
        }
      ],
      "name": "balanceOf",
      "outputs": [
        {
          "internalType": "uint256",
          "name": "",
          "type": "uint256"
        }
      ],
      "stateMutability": "view",
      "type": "function",
      "constant": true
    },
    {
      "inputs": [
        {
          "internalType": "uint256",
          "name": "",
          "type": "uint256"
        }
      ],
      "name": "drones",
      "outputs": [
        {
          "internalType": "uint256",
          "name": "maxFlightAltitude",
          "type": "uint256"
        },
        {
          "internalType": "uint256",
          "name": "minFlightAltitude",
          "type": "uint256"
        }
      ],
      "stateMutability": "view",
      "type": "function",
      "constant": true
    },
    {
      "inputs": [
        {
          "internalType": "uint256",
          "name": "tokenId",
          "type": "uint256"
        }
      ],
      "name": "getApproved",
      "outputs": [
        {
          "internalType": "address",
          "name": "",
          "type": "address"
        }
      ],
      "stateMutability": "view",
      "type": "function",
      "constant": true
    },
    {
      "inputs": [
        {
          "internalType": "uint256",
          "name": "_index",
          "type": "uint256"
        }
      ],
      "name": "getDrone",
      "outputs": [
        {
          "components": [
            {
              "internalType": "uint256",
              "name": "maxFlightAltitude",
              "type": "uint256"
            },
            {
              "internalType": "uint256",
              "name": "minFlightAltitude",
              "type": "uint256"
            },
            {
              "internalType": "string[]",
              "name": "pesticides",
              "type": "string[]"
            }
          ],
          "internalType": "struct DroneModel.Drone",
          "name": "",
          "type": "tuple"
        }
      ],
      "stateMutability": "view",
      "type": "function",
      "constant": true
    },
    {
      "inputs": [
        {
          "internalType": "address",
          "name": "_owner",
          "type": "address"
        }
      ],
      "name": "getDronesByOwner",
      "outputs": [
        {
          "internalType": "uint256[]",
          "name": "",
          "type": "uint256[]"
        }
      ],
      "stateMutability": "view",
      "type": "function",
      "constant": true
    },
    {
      "inputs": [
        {
          "internalType": "address",
          "name": "owner",
          "type": "address"
        },
        {
          "internalType": "address",
          "name": "operator",
          "type": "address"
        }
      ],
      "name": "isApprovedForAll",
      "outputs": [
        {
          "internalType": "bool",
          "name": "",
          "type": "bool"
        }
      ],
      "stateMutability": "view",
      "type": "function",
      "constant": true
    },
    {
      "inputs": [
        {
          "internalType": "uint256",
          "name": "maxFlightAltitude",
          "type": "uint256"
        },
        {
          "internalType": "uint256",
          "name": "minFlightAltitude",
          "type": "uint256"
        },
        {
          "internalType": "string[]",
          "name": "pesticides",
          "type": "string[]"
        }
      ],
      "name": "mintNewDrone",
      "outputs": [],
      "stateMutability": "nonpayable",
      "type": "function"
    },
    {
      "inputs": [],
      "name": "name",
      "outputs": [
        {
          "internalType": "string",
          "name": "",
          "type": "string"
        }
      ],
      "stateMutability": "view",
      "type": "function",
      "constant": true
    },
    {
      "inputs": [],
      "name": "owner",
      "outputs": [
        {
          "internalType": "address",
          "name": "",
          "type": "address"
        }
      ],
      "stateMutability": "view",
      "type": "function",
      "constant": true
    },
    {
      "inputs": [
        {
          "internalType": "uint256",
          "name": "tokenId",
          "type": "uint256"
        }
      ],
      "name": "ownerOf",
      "outputs": [
        {
          "internalType": "address",
          "name": "",
          "type": "address"
        }
      ],
      "stateMutability": "view",
      "type": "function",
      "constant": true
    },
    {
      "inputs": [],
      "name": "renounceOwnership",
      "outputs": [],
      "stateMutability": "nonpayable",
      "type": "function"
    },
    {
      "inputs": [
        {
          "internalType": "address",
          "name": "from",
          "type": "address"
        },
        {
          "internalType": "address",
          "name": "to",
          "type": "address"
        },
        {
          "internalType": "uint256",
          "name": "tokenId",
          "type": "uint256"
        }
      ],
      "name": "safeTransferFrom",
      "outputs": [],
      "stateMutability": "nonpayable",
      "type": "function"
    },
    {
      "inputs": [
        {
          "internalType": "address",
          "name": "from",
          "type": "address"
        },
        {
          "internalType": "address",
          "name": "to",
          "type": "address"
        },
        {
          "internalType": "uint256",
          "name": "tokenId",
          "type": "uint256"
        },
        {
          "internalType": "bytes",
          "name": "_data",
          "type": "bytes"
        }
      ],
      "name": "safeTransferFrom",
      "outputs": [],
      "stateMutability": "nonpayable",
      "type": "function"
    },
    {
      "inputs": [
        {
          "internalType": "address",
          "name": "operator",
          "type": "address"
        },
        {
          "internalType": "bool",
          "name": "approved",
          "type": "bool"
        }
      ],
      "name": "setApprovalForAll",
      "outputs": [],
      "stateMutability": "nonpayable",
      "type": "function"
    },
    {
      "inputs": [
        {
          "internalType": "bytes4",
          "name": "interfaceId",
          "type": "bytes4"
        }
      ],
      "name": "supportsInterface",
      "outputs": [
        {
          "internalType": "bool",
          "name": "",
          "type": "bool"
        }
      ],
      "stateMutability": "view",
      "type": "function",
      "constant": true
    },
    {
      "inputs": [],
      "name": "symbol",
      "outputs": [
        {
          "internalType": "string",
          "name": "",
          "type": "string"
        }
      ],
      "stateMutability": "view",
      "type": "function",
      "constant": true
    },
    {
      "inputs": [
        {
          "internalType": "uint256",
          "name": "tokenId",
          "type": "uint256"
        }
      ],
      "name": "tokenURI",
      "outputs": [
        {
          "internalType": "string",
          "name": "",
          "type": "string"
        }
      ],
      "stateMutability": "view",
      "type": "function",
      "constant": true
    },
    {
      "inputs": [
        {
          "internalType": "address",
          "name": "from",
          "type": "address"
        },
        {
          "internalType": "address",
          "name": "to",
          "type": "address"
        },
        {
          "internalType": "uint256",
          "name": "tokenId",
          "type": "uint256"
        }
      ],
      "name": "transferFrom",
      "outputs": [],
      "stateMutability": "nonpayable",
      "type": "function"
    },
    {
      "inputs": [
        {
          "internalType": "address",
          "name": "newOwner",
          "type": "address"
        }
      ],
      "name": "transferOwnership",
      "outputs": [],
      "stateMutability": "nonpayable",
      "type": "function"
    }
  ],
  "bytecode": "0x60806040523480156200001157600080fd5b506040518060400160405280600581526020017f44726f6e650000000000000000000000000000000000000000000000000000008152506040518060400160405280600381526020017f44524e0000000000000000000000000000000000000000000000000000000000815250816000908051906020019062000096929190620001a6565b508060019080519060200190620000af929190620001a6565b505050620000d2620000c6620000d860201b60201c565b620000e060201b60201c565b620002ba565b600033905090565b6000600660009054906101000a900473ffffffffffffffffffffffffffffffffffffffff16905081600660006101000a81548173ffffffffffffffffffffffffffffffffffffffff021916908373ffffffffffffffffffffffffffffffffffffffff1602179055508173ffffffffffffffffffffffffffffffffffffffff168173ffffffffffffffffffffffffffffffffffffffff167f8be0079c531659141344cd1fd0a4f28419497f9722a3daafe3b4186f6b6457e060405160405180910390a35050565b828054620001b49062000285565b90600052602060002090601f016020900481019282620001d8576000855562000224565b82601f10620001f357805160ff191683800117855562000224565b8280016001018555821562000224579182015b828111156200022357825182559160200191906001019062000206565b5b50905062000233919062000237565b5090565b5b808211156200025257600081600090555060010162000238565b5090565b7f4e487b7100000000000000000000000000000000000000000000000000000000600052602260045260246000fd5b600060028204905060018216806200029e57607f821691505b602082108103620002b457620002b362000256565b5b50919050565b61352180620002ca6000396000f3fe608060405234801561001057600080fd5b506004361061012c5760003560e01c80638da5cb5b116100ad578063c87b56dd11610071578063c87b56dd14610342578063ccf658c214610372578063dbd1be771461038e578063e985e9c5146103be578063f2fde38b146103ee5761012c565b80638da5cb5b1461029d5780639341bc00146102bb57806395d89b41146102ec578063a22cb4651461030a578063b88d4fde146103265761012c565b80633c15901e116100f45780633c15901e146101e757806342842e0e146102175780636352211e1461023357806370a0823114610263578063715018a6146102935761012c565b806301ffc9a71461013157806306fdde0314610161578063081812fc1461017f578063095ea7b3146101af57806323b872dd146101cb575b600080fd5b61014b60048036038101906101469190611f2b565b61040a565b6040516101589190611f73565b60405180910390f35b6101696104ec565b6040516101769190612027565b60405180910390f35b6101996004803603810190610194919061207f565b61057e565b6040516101a691906120ed565b60405180910390f35b6101c960048036038101906101c49190612134565b610603565b005b6101e560048036038101906101e09190612174565b61071a565b005b61020160048036038101906101fc91906121c7565b61077a565b60405161020e91906122b2565b60405180910390f35b610231600480360381019061022c9190612174565b610870565b005b61024d6004803603810190610248919061207f565b610890565b60405161025a91906120ed565b60405180910390f35b61027d600480360381019061027891906121c7565b610941565b60405161028a91906122e3565b60405180910390f35b61029b6109f8565b005b6102a5610a80565b6040516102b291906120ed565b60405180910390f35b6102d560048036038101906102d0919061207f565b610aaa565b6040516102e39291906122fe565b60405180910390f35b6102f4610ade565b6040516103019190612027565b60405180910390f35b610324600480360381019061031f9190612353565b610b70565b005b610340600480360381019061033b91906124c8565b610b86565b005b61035c6004803603810190610357919061207f565b610be8565b6040516103699190612027565b60405180910390f35b61038c600480360381019061038791906126d2565b610c8f565b005b6103a860048036038101906103a3919061207f565b610d1c565b6040516103b5919061289d565b60405180910390f35b6103d860048036038101906103d391906128bf565b610e45565b6040516103e59190611f73565b60405180910390f35b610408600480360381019061040391906121c7565b610ed9565b005b60007f80ac58cd000000000000000000000000000000000000000000000000000000007bffffffffffffffffffffffffffffffffffffffffffffffffffffffff1916827bffffffffffffffffffffffffffffffffffffffffffffffffffffffff191614806104d557507f5b5e139f000000000000000000000000000000000000000000000000000000007bffffffffffffffffffffffffffffffffffffffffffffffffffffffff1916827bffffffffffffffffffffffffffffffffffffffffffffffffffffffff1916145b806104e557506104e482610fd0565b5b9050919050565b6060600080546104fb9061292e565b80601f01602080910402602001604051908101604052809291908181526020018280546105279061292e565b80156105745780601f1061054957610100808354040283529160200191610574565b820191906000526020600020905b81548152906001019060200180831161055757829003601f168201915b5050505050905090565b60006105898261103a565b6105c8576040517f08c379a00000000000000000000000000000000000000000000000000000000081526004016105bf906129d1565b60405180910390fd5b6004600083815260200190815260200160002060009054906101000a900473ffffffffffffffffffffffffffffffffffffffff169050919050565b600061060e82610890565b90508073ffffffffffffffffffffffffffffffffffffffff168373ffffffffffffffffffffffffffffffffffffffff160361067e576040517f08c379a000000000000000000000000000000000000000000000000000000000815260040161067590612a63565b60405180910390fd5b8073ffffffffffffffffffffffffffffffffffffffff1661069d6110a6565b73ffffffffffffffffffffffffffffffffffffffff1614806106cc57506106cb816106c66110a6565b610e45565b5b61070b576040517f08c379a000000000000000000000000000000000000000000000000000000000815260040161070290612af5565b60405180910390fd5b61071583836110ae565b505050565b61072b6107256110a6565b82611167565b61076a576040517f08c379a000000000000000000000000000000000000000000000000000000000815260040161076190612b87565b60405180910390fd5b610775838383611245565b505050565b6060600061078783610941565b905060008167ffffffffffffffff8111156107a5576107a461239d565b5b6040519080825280602002602001820160405280156107d35781602001602082028036833780820191505090505b5090506000805b600880549050811015610864578573ffffffffffffffffffffffffffffffffffffffff1661080782610890565b73ffffffffffffffffffffffffffffffffffffffff1603610851578083838151811061083657610835612ba7565b5b602002602001018181525050818061084d90612c05565b9250505b808061085c90612c05565b9150506107da565b50819350505050919050565b61088b83838360405180602001604052806000815250610b86565b505050565b6000806002600084815260200190815260200160002060009054906101000a900473ffffffffffffffffffffffffffffffffffffffff169050600073ffffffffffffffffffffffffffffffffffffffff168173ffffffffffffffffffffffffffffffffffffffff1603610938576040517f08c379a000000000000000000000000000000000000000000000000000000000815260040161092f90612cbf565b60405180910390fd5b80915050919050565b60008073ffffffffffffffffffffffffffffffffffffffff168273ffffffffffffffffffffffffffffffffffffffff16036109b1576040517f08c379a00000000000000000000000000000000000000000000000000000000081526004016109a890612d51565b60405180910390fd5b600360008373ffffffffffffffffffffffffffffffffffffffff1673ffffffffffffffffffffffffffffffffffffffff168152602001908152602001600020549050919050565b610a006110a6565b73ffffffffffffffffffffffffffffffffffffffff16610a1e610a80565b73ffffffffffffffffffffffffffffffffffffffff1614610a74576040517f08c379a0000000000000000000000000000000000000000000000000000000008152600401610a6b90612dbd565b60405180910390fd5b610a7e60006114ab565b565b6000600660009054906101000a900473ffffffffffffffffffffffffffffffffffffffff16905090565b60088181548110610aba57600080fd5b90600052602060002090600302016000915090508060000154908060010154905082565b606060018054610aed9061292e565b80601f0160208091040260200160405190810160405280929190818152602001828054610b199061292e565b8015610b665780601f10610b3b57610100808354040283529160200191610b66565b820191906000526020600020905b815481529060010190602001808311610b4957829003601f168201915b5050505050905090565b610b82610b7b6110a6565b8383611571565b5050565b610b97610b916110a6565b83611167565b610bd6576040517f08c379a0000000000000000000000000000000000000000000000000000000008152600401610bcd90612b87565b60405180910390fd5b610be2848484846116dd565b50505050565b6060610bf38261103a565b610c32576040517f08c379a0000000000000000000000000000000000000000000000000000000008152600401610c2990612e4f565b60405180910390fd5b6000610c3c611739565b90506000815111610c5c5760405180602001604052806000815250610c87565b80610c6684611750565b604051602001610c77929190612eab565b6040516020818303038152906040525b915050919050565b60003390506008604051806060016040528086815260200185815260200184815250908060018154018082558091505060019003906000526020600020906003020160009091909190915060008201518160000155602082015181600101556040820151816002019080519060200190610d0a929190611d37565b505050610d16816118b0565b50505050565b610d24611d97565b60088281548110610d3857610d37612ba7565b5b9060005260206000209060030201604051806060016040529081600082015481526020016001820154815260200160028201805480602002602001604051908101604052809291908181526020016000905b82821015610e36578382906000526020600020018054610da99061292e565b80601f0160208091040260200160405190810160405280929190818152602001828054610dd59061292e565b8015610e225780601f10610df757610100808354040283529160200191610e22565b820191906000526020600020905b815481529060010190602001808311610e0557829003601f168201915b505050505081526020019060010190610d8a565b50505050815250509050919050565b6000600560008473ffffffffffffffffffffffffffffffffffffffff1673ffffffffffffffffffffffffffffffffffffffff16815260200190815260200160002060008373ffffffffffffffffffffffffffffffffffffffff1673ffffffffffffffffffffffffffffffffffffffff16815260200190815260200160002060009054906101000a900460ff16905092915050565b610ee16110a6565b73ffffffffffffffffffffffffffffffffffffffff16610eff610a80565b73ffffffffffffffffffffffffffffffffffffffff1614610f55576040517f08c379a0000000000000000000000000000000000000000000000000000000008152600401610f4c90612dbd565b60405180910390fd5b600073ffffffffffffffffffffffffffffffffffffffff168173ffffffffffffffffffffffffffffffffffffffff1603610fc4576040517f08c379a0000000000000000000000000000000000000000000000000000000008152600401610fbb90612f41565b60405180910390fd5b610fcd816114ab565b50565b60007f01ffc9a7000000000000000000000000000000000000000000000000000000007bffffffffffffffffffffffffffffffffffffffffffffffffffffffff1916827bffffffffffffffffffffffffffffffffffffffffffffffffffffffff1916149050919050565b60008073ffffffffffffffffffffffffffffffffffffffff166002600084815260200190815260200160002060009054906101000a900473ffffffffffffffffffffffffffffffffffffffff1673ffffffffffffffffffffffffffffffffffffffff1614159050919050565b600033905090565b816004600083815260200190815260200160002060006101000a81548173ffffffffffffffffffffffffffffffffffffffff021916908373ffffffffffffffffffffffffffffffffffffffff160217905550808273ffffffffffffffffffffffffffffffffffffffff1661112183610890565b73ffffffffffffffffffffffffffffffffffffffff167f8c5be1e5ebec7d5bd14f71427d1e84f3dd0314c0f7b2291e5b200ac8c7c3b92560405160405180910390a45050565b60006111728261103a565b6111b1576040517f08c379a00000000000000000000000000000000000000000000000000000000081526004016111a890612fd3565b60405180910390fd5b60006111bc83610890565b90508073ffffffffffffffffffffffffffffffffffffffff168473ffffffffffffffffffffffffffffffffffffffff1614806111fe57506111fd8185610e45565b5b8061123c57508373ffffffffffffffffffffffffffffffffffffffff166112248461057e565b73ffffffffffffffffffffffffffffffffffffffff16145b91505092915050565b8273ffffffffffffffffffffffffffffffffffffffff1661126582610890565b73ffffffffffffffffffffffffffffffffffffffff16146112bb576040517f08c379a00000000000000000000000000000000000000000000000000000000081526004016112b290613065565b60405180910390fd5b600073ffffffffffffffffffffffffffffffffffffffff168273ffffffffffffffffffffffffffffffffffffffff160361132a576040517f08c379a0000000000000000000000000000000000000000000000000000000008152600401611321906130f7565b60405180910390fd5b61133583838361190d565b6113406000826110ae565b6001600360008573ffffffffffffffffffffffffffffffffffffffff1673ffffffffffffffffffffffffffffffffffffffff16815260200190815260200160002060008282546113909190613117565b925050819055506001600360008473ffffffffffffffffffffffffffffffffffffffff1673ffffffffffffffffffffffffffffffffffffffff16815260200190815260200160002060008282546113e7919061314b565b92505081905550816002600083815260200190815260200160002060006101000a81548173ffffffffffffffffffffffffffffffffffffffff021916908373ffffffffffffffffffffffffffffffffffffffff160217905550808273ffffffffffffffffffffffffffffffffffffffff168473ffffffffffffffffffffffffffffffffffffffff167fddf252ad1be2c89b69c2b068fc378daa952ba7f163c4a11628f55a4df523b3ef60405160405180910390a46114a6838383611912565b505050565b6000600660009054906101000a900473ffffffffffffffffffffffffffffffffffffffff16905081600660006101000a81548173ffffffffffffffffffffffffffffffffffffffff021916908373ffffffffffffffffffffffffffffffffffffffff1602179055508173ffffffffffffffffffffffffffffffffffffffff168173ffffffffffffffffffffffffffffffffffffffff167f8be0079c531659141344cd1fd0a4f28419497f9722a3daafe3b4186f6b6457e060405160405180910390a35050565b8173ffffffffffffffffffffffffffffffffffffffff168373ffffffffffffffffffffffffffffffffffffffff16036115df576040517f08c379a00000000000000000000000000000000000000000000000000000000081526004016115d6906131ed565b60405180910390fd5b80600560008573ffffffffffffffffffffffffffffffffffffffff1673ffffffffffffffffffffffffffffffffffffffff16815260200190815260200160002060008473ffffffffffffffffffffffffffffffffffffffff1673ffffffffffffffffffffffffffffffffffffffff16815260200190815260200160002060006101000a81548160ff0219169083151502179055508173ffffffffffffffffffffffffffffffffffffffff168373ffffffffffffffffffffffffffffffffffffffff167f17307eab39ab6107e8899845ad3d59bd9653f200f220920489ca2b5937696c31836040516116d09190611f73565b60405180910390a3505050565b6116e8848484611245565b6116f484848484611917565b611733576040517f08c379a000000000000000000000000000000000000000000000000000000000815260040161172a9061327f565b60405180910390fd5b50505050565b606060405180602001604052806000815250905090565b606060008203611797576040518060400160405280600181526020017f300000000000000000000000000000000000000000000000000000000000000081525090506118ab565b600082905060005b600082146117c95780806117b290612c05565b915050600a826117c291906132ce565b915061179f565b60008167ffffffffffffffff8111156117e5576117e461239d565b5b6040519080825280601f01601f1916602001820160405280156118175781602001600182028036833780820191505090505b5090505b600085146118a4576001826118309190613117565b9150600a8561183f91906132ff565b603061184b919061314b565b60f81b81838151811061186157611860612ba7565b5b60200101907effffffffffffffffffffffffffffffffffffffffffffffffffffffffffffff1916908160001a905350600a8561189d91906132ce565b945061181b565b8093505050505b919050565b60006118bc6007611a9e565b90506118c88282611aac565b7f564ba5ec5742b2e6afc952e92235671c7a1959fe20648c59ded66c2721509544816040516118f791906122e3565b60405180910390a16119096007611aca565b5050565b505050565b505050565b60006119388473ffffffffffffffffffffffffffffffffffffffff16611ae0565b15611a91578373ffffffffffffffffffffffffffffffffffffffff1663150b7a026119616110a6565b8786866040518563ffffffff1660e01b81526004016119839493929190613385565b6020604051808303816000875af19250505080156119bf57506040513d601f19601f820116820180604052508101906119bc91906133e6565b60015b611a41573d80600081146119ef576040519150601f19603f3d011682016040523d82523d6000602084013e6119f4565b606091505b506000815103611a39576040517f08c379a0000000000000000000000000000000000000000000000000000000008152600401611a309061327f565b60405180910390fd5b805181602001fd5b63150b7a0260e01b7bffffffffffffffffffffffffffffffffffffffffffffffffffffffff1916817bffffffffffffffffffffffffffffffffffffffffffffffffffffffff191614915050611a96565b600190505b949350505050565b600081600001549050919050565b611ac6828260405180602001604052806000815250611b03565b5050565b6001816000016000828254019250508190555050565b6000808273ffffffffffffffffffffffffffffffffffffffff163b119050919050565b611b0d8383611b5e565b611b1a6000848484611917565b611b59576040517f08c379a0000000000000000000000000000000000000000000000000000000008152600401611b509061327f565b60405180910390fd5b505050565b600073ffffffffffffffffffffffffffffffffffffffff168273ffffffffffffffffffffffffffffffffffffffff1603611bcd576040517f08c379a0000000000000000000000000000000000000000000000000000000008152600401611bc49061345f565b60405180910390fd5b611bd68161103a565b15611c16576040517f08c379a0000000000000000000000000000000000000000000000000000000008152600401611c0d906134cb565b60405180910390fd5b611c226000838361190d565b6001600360008473ffffffffffffffffffffffffffffffffffffffff1673ffffffffffffffffffffffffffffffffffffffff1681526020019081526020016000206000828254611c72919061314b565b92505081905550816002600083815260200190815260200160002060006101000a81548173ffffffffffffffffffffffffffffffffffffffff021916908373ffffffffffffffffffffffffffffffffffffffff160217905550808273ffffffffffffffffffffffffffffffffffffffff16600073ffffffffffffffffffffffffffffffffffffffff167fddf252ad1be2c89b69c2b068fc378daa952ba7f163c4a11628f55a4df523b3ef60405160405180910390a4611d3360008383611912565b5050565b828054828255906000526020600020908101928215611d86579160200282015b82811115611d85578251829080519060200190611d75929190611db8565b5091602001919060010190611d57565b5b509050611d939190611e3e565b5090565b60405180606001604052806000815260200160008152602001606081525090565b828054611dc49061292e565b90600052602060002090601f016020900481019282611de65760008555611e2d565b82601f10611dff57805160ff1916838001178555611e2d565b82800160010185558215611e2d579182015b82811115611e2c578251825591602001919060010190611e11565b5b509050611e3a9190611e62565b5090565b5b80821115611e5e5760008181611e559190611e7f565b50600101611e3f565b5090565b5b80821115611e7b576000816000905550600101611e63565b5090565b508054611e8b9061292e565b6000825580601f10611e9d5750611ebc565b601f016020900490600052602060002090810190611ebb9190611e62565b5b50565b6000604051905090565b600080fd5b600080fd5b60007fffffffff0000000000000000000000000000000000000000000000000000000082169050919050565b611f0881611ed3565b8114611f1357600080fd5b50565b600081359050611f2581611eff565b92915050565b600060208284031215611f4157611f40611ec9565b5b6000611f4f84828501611f16565b91505092915050565b60008115159050919050565b611f6d81611f58565b82525050565b6000602082019050611f886000830184611f64565b92915050565b600081519050919050565b600082825260208201905092915050565b60005b83811015611fc8578082015181840152602081019050611fad565b83811115611fd7576000848401525b50505050565b6000601f19601f8301169050919050565b6000611ff982611f8e565b6120038185611f99565b9350612013818560208601611faa565b61201c81611fdd565b840191505092915050565b600060208201905081810360008301526120418184611fee565b905092915050565b6000819050919050565b61205c81612049565b811461206757600080fd5b50565b60008135905061207981612053565b92915050565b60006020828403121561209557612094611ec9565b5b60006120a38482850161206a565b91505092915050565b600073ffffffffffffffffffffffffffffffffffffffff82169050919050565b60006120d7826120ac565b9050919050565b6120e7816120cc565b82525050565b600060208201905061210260008301846120de565b92915050565b612111816120cc565b811461211c57600080fd5b50565b60008135905061212e81612108565b92915050565b6000806040838503121561214b5761214a611ec9565b5b60006121598582860161211f565b925050602061216a8582860161206a565b9150509250929050565b60008060006060848603121561218d5761218c611ec9565b5b600061219b8682870161211f565b93505060206121ac8682870161211f565b92505060406121bd8682870161206a565b9150509250925092565b6000602082840312156121dd576121dc611ec9565b5b60006121eb8482850161211f565b91505092915050565b600081519050919050565b600082825260208201905092915050565b6000819050602082019050919050565b61222981612049565b82525050565b600061223b8383612220565b60208301905092915050565b6000602082019050919050565b600061225f826121f4565b61226981856121ff565b935061227483612210565b8060005b838110156122a557815161228c888261222f565b975061229783612247565b925050600181019050612278565b5085935050505092915050565b600060208201905081810360008301526122cc8184612254565b905092915050565b6122dd81612049565b82525050565b60006020820190506122f860008301846122d4565b92915050565b600060408201905061231360008301856122d4565b61232060208301846122d4565b9392505050565b61233081611f58565b811461233b57600080fd5b50565b60008135905061234d81612327565b92915050565b6000806040838503121561236a57612369611ec9565b5b60006123788582860161211f565b92505060206123898582860161233e565b9150509250929050565b600080fd5b600080fd5b7f4e487b7100000000000000000000000000000000000000000000000000000000600052604160045260246000fd5b6123d582611fdd565b810181811067ffffffffffffffff821117156123f4576123f361239d565b5b80604052505050565b6000612407611ebf565b905061241382826123cc565b919050565b600067ffffffffffffffff8211156124335761243261239d565b5b61243c82611fdd565b9050602081019050919050565b82818337600083830152505050565b600061246b61246684612418565b6123fd565b90508281526020810184848401111561248757612486612398565b5b612492848285612449565b509392505050565b600082601f8301126124af576124ae612393565b5b81356124bf848260208601612458565b91505092915050565b600080600080608085870312156124e2576124e1611ec9565b5b60006124f08782880161211f565b94505060206125018782880161211f565b93505060406125128782880161206a565b925050606085013567ffffffffffffffff81111561253357612532611ece565b5b61253f8782880161249a565b91505092959194509250565b600067ffffffffffffffff8211156125665761256561239d565b5b602082029050602081019050919050565b600080fd5b600067ffffffffffffffff8211156125975761259661239d565b5b6125a082611fdd565b9050602081019050919050565b60006125c06125bb8461257c565b6123fd565b9050828152602081018484840111156125dc576125db612398565b5b6125e7848285612449565b509392505050565b600082601f83011261260457612603612393565b5b81356126148482602086016125ad565b91505092915050565b600061263061262b8461254b565b6123fd565b9050808382526020820190506020840283018581111561265357612652612577565b5b835b8181101561269a57803567ffffffffffffffff81111561267857612677612393565b5b80860161268589826125ef565b85526020850194505050602081019050612655565b5050509392505050565b600082601f8301126126b9576126b8612393565b5b81356126c984826020860161261d565b91505092915050565b6000806000606084860312156126eb576126ea611ec9565b5b60006126f98682870161206a565b935050602061270a8682870161206a565b925050604084013567ffffffffffffffff81111561272b5761272a611ece565b5b612737868287016126a4565b9150509250925092565b600081519050919050565b600082825260208201905092915050565b6000819050602082019050919050565b600082825260208201905092915050565b600061278982611f8e565b612793818561276d565b93506127a3818560208601611faa565b6127ac81611fdd565b840191505092915050565b60006127c3838361277e565b905092915050565b6000602082019050919050565b60006127e382612741565b6127ed818561274c565b9350836020820285016127ff8561275d565b8060005b8581101561283b578484038952815161281c85826127b7565b9450612827836127cb565b925060208a01995050600181019050612803565b50829750879550505050505092915050565b60006060830160008301516128656000860182612220565b5060208301516128786020860182612220565b506040830151848203604086015261289082826127d8565b9150508091505092915050565b600060208201905081810360008301526128b7818461284d565b905092915050565b600080604083850312156128d6576128d5611ec9565b5b60006128e48582860161211f565b92505060206128f58582860161211f565b9150509250929050565b7f4e487b7100000000000000000000000000000000000000000000000000000000600052602260045260246000fd5b6000600282049050600182168061294657607f821691505b602082108103612959576129586128ff565b5b50919050565b7f4552433732313a20617070726f76656420717565727920666f72206e6f6e657860008201527f697374656e7420746f6b656e0000000000000000000000000000000000000000602082015250565b60006129bb602c83611f99565b91506129c68261295f565b604082019050919050565b600060208201905081810360008301526129ea816129ae565b9050919050565b7f4552433732313a20617070726f76616c20746f2063757272656e74206f776e6560008201527f7200000000000000000000000000000000000000000000000000000000000000602082015250565b6000612a4d602183611f99565b9150612a58826129f1565b604082019050919050565b60006020820190508181036000830152612a7c81612a40565b9050919050565b7f4552433732313a20617070726f76652063616c6c6572206973206e6f74206f7760008201527f6e6572206e6f7220617070726f76656420666f7220616c6c0000000000000000602082015250565b6000612adf603883611f99565b9150612aea82612a83565b604082019050919050565b60006020820190508181036000830152612b0e81612ad2565b9050919050565b7f4552433732313a207472616e736665722063616c6c6572206973206e6f74206f60008201527f776e6572206e6f7220617070726f766564000000000000000000000000000000602082015250565b6000612b71603183611f99565b9150612b7c82612b15565b604082019050919050565b60006020820190508181036000830152612ba081612b64565b9050919050565b7f4e487b7100000000000000000000000000000000000000000000000000000000600052603260045260246000fd5b7f4e487b7100000000000000000000000000000000000000000000000000000000600052601160045260246000fd5b6000612c1082612049565b91507fffffffffffffffffffffffffffffffffffffffffffffffffffffffffffffffff8203612c4257612c41612bd6565b5b600182019050919050565b7f4552433732313a206f776e657220717565727920666f72206e6f6e657869737460008201527f656e7420746f6b656e0000000000000000000000000000000000000000000000602082015250565b6000612ca9602983611f99565b9150612cb482612c4d565b604082019050919050565b60006020820190508181036000830152612cd881612c9c565b9050919050565b7f4552433732313a2062616c616e636520717565727920666f7220746865207a6560008201527f726f206164647265737300000000000000000000000000000000000000000000602082015250565b6000612d3b602a83611f99565b9150612d4682612cdf565b604082019050919050565b60006020820190508181036000830152612d6a81612d2e565b9050919050565b7f4f776e61626c653a2063616c6c6572206973206e6f7420746865206f776e6572600082015250565b6000612da7602083611f99565b9150612db282612d71565b602082019050919050565b60006020820190508181036000830152612dd681612d9a565b9050919050565b7f4552433732314d657461646174613a2055524920717565727920666f72206e6f60008201527f6e6578697374656e7420746f6b656e0000000000000000000000000000000000602082015250565b6000612e39602f83611f99565b9150612e4482612ddd565b604082019050919050565b60006020820190508181036000830152612e6881612e2c565b9050919050565b600081905092915050565b6000612e8582611f8e565b612e8f8185612e6f565b9350612e9f818560208601611faa565b80840191505092915050565b6000612eb78285612e7a565b9150612ec38284612e7a565b91508190509392505050565b7f4f776e61626c653a206e6577206f776e657220697320746865207a65726f206160008201527f6464726573730000000000000000000000000000000000000000000000000000602082015250565b6000612f2b602683611f99565b9150612f3682612ecf565b604082019050919050565b60006020820190508181036000830152612f5a81612f1e565b9050919050565b7f4552433732313a206f70657261746f7220717565727920666f72206e6f6e657860008201527f697374656e7420746f6b656e0000000000000000000000000000000000000000602082015250565b6000612fbd602c83611f99565b9150612fc882612f61565b604082019050919050565b60006020820190508181036000830152612fec81612fb0565b9050919050565b7f4552433732313a207472616e736665722066726f6d20696e636f72726563742060008201527f6f776e6572000000000000000000000000000000000000000000000000000000602082015250565b600061304f602583611f99565b915061305a82612ff3565b604082019050919050565b6000602082019050818103600083015261307e81613042565b9050919050565b7f4552433732313a207472616e7366657220746f20746865207a65726f2061646460008201527f7265737300000000000000000000000000000000000000000000000000000000602082015250565b60006130e1602483611f99565b91506130ec82613085565b604082019050919050565b60006020820190508181036000830152613110816130d4565b9050919050565b600061312282612049565b915061312d83612049565b9250828210156131405761313f612bd6565b5b828203905092915050565b600061315682612049565b915061316183612049565b9250827fffffffffffffffffffffffffffffffffffffffffffffffffffffffffffffffff0382111561319657613195612bd6565b5b828201905092915050565b7f4552433732313a20617070726f766520746f2063616c6c657200000000000000600082015250565b60006131d7601983611f99565b91506131e2826131a1565b602082019050919050565b60006020820190508181036000830152613206816131ca565b9050919050565b7f4552433732313a207472616e7366657220746f206e6f6e20455243373231526560008201527f63656976657220696d706c656d656e7465720000000000000000000000000000602082015250565b6000613269603283611f99565b91506132748261320d565b604082019050919050565b600060208201905081810360008301526132988161325c565b9050919050565b7f4e487b7100000000000000000000000000000000000000000000000000000000600052601260045260246000fd5b60006132d982612049565b91506132e483612049565b9250826132f4576132f361329f565b5b828204905092915050565b600061330a82612049565b915061331583612049565b9250826133255761332461329f565b5b828206905092915050565b600081519050919050565b600082825260208201905092915050565b600061335782613330565b613361818561333b565b9350613371818560208601611faa565b61337a81611fdd565b840191505092915050565b600060808201905061339a60008301876120de565b6133a760208301866120de565b6133b460408301856122d4565b81810360608301526133c6818461334c565b905095945050505050565b6000815190506133e081611eff565b92915050565b6000602082840312156133fc576133fb611ec9565b5b600061340a848285016133d1565b91505092915050565b7f4552433732313a206d696e7420746f20746865207a65726f2061646472657373600082015250565b6000613449602083611f99565b915061345482613413565b602082019050919050565b600060208201905081810360008301526134788161343c565b9050919050565b7f4552433732313a20746f6b656e20616c7265616479206d696e74656400000000600082015250565b60006134b5601c83611f99565b91506134c08261347f565b602082019050919050565b600060208201905081810360008301526134e4816134a8565b905091905056fea2646970667358221220e766e031b6e975b79e9bc1486cfc9c1f64236d5585391888e19fe611096afcee64736f6c634300080e0033",
  "immutableReferences": {},
  "source": "// SPDX-License-Identifier: UNLICENCED\npragma solidity >=0.4.22 <0.9.0;\n\nimport \"./DroneHelper.sol\";\n\ncontract Drone is DroneHelper {\n\n}",
  "sourcePath": "/home/sergio/Documentos/sergio/projects/drones/smartcontracts/contracts/Drone.sol",
  "compiler": {
    "name": "solc",
    "version": "0.8.14+commit.80d49f37.Emscripten.clang"
  },
  "schemaVersion": "3.4.7",
  "updatedAt": "2022-06-30T19:14:45.174Z",
  "networkType": "ethereum",
  "devdoc": {
    "kind": "dev",
    "methods": {
      "approve(address,uint256)": {
        "details": "See {IERC721-approve}."
      },
      "balanceOf(address)": {
        "details": "See {IERC721-balanceOf}."
      },
      "getApproved(uint256)": {
        "details": "See {IERC721-getApproved}."
      },
      "isApprovedForAll(address,address)": {
        "details": "See {IERC721-isApprovedForAll}."
      },
      "name()": {
        "details": "See {IERC721Metadata-name}."
      },
      "owner()": {
        "details": "Returns the address of the current owner."
      },
      "ownerOf(uint256)": {
        "details": "See {IERC721-ownerOf}."
      },
      "renounceOwnership()": {
        "details": "Leaves the contract without owner. It will not be possible to call `onlyOwner` functions anymore. Can only be called by the current owner. NOTE: Renouncing ownership will leave the contract without an owner, thereby removing any functionality that is only available to the owner."
      },
      "safeTransferFrom(address,address,uint256)": {
        "details": "See {IERC721-safeTransferFrom}."
      },
      "safeTransferFrom(address,address,uint256,bytes)": {
        "details": "See {IERC721-safeTransferFrom}."
      },
      "setApprovalForAll(address,bool)": {
        "details": "See {IERC721-setApprovalForAll}."
      },
      "supportsInterface(bytes4)": {
        "details": "See {IERC165-supportsInterface}."
      },
      "symbol()": {
        "details": "See {IERC721Metadata-symbol}."
      },
      "tokenURI(uint256)": {
        "details": "See {IERC721Metadata-tokenURI}."
      },
      "transferFrom(address,address,uint256)": {
        "details": "See {IERC721-transferFrom}."
      },
      "transferOwnership(address)": {
        "details": "Transfers ownership of the contract to a new account (`newOwner`). Can only be called by the current owner."
      }
    },
    "version": 1
  },
  "userdoc": {
    "kind": "user",
    "methods": {},
    "version": 1
  }
}