{
  "contractName": "DroneNFT",
  "abi": [
    {
      "inputs": [],
      "stateMutability": "nonpayable",
      "type": "constructor"
    },
    {
      "anonymous": false,
      "inputs": [
        {
          "indexed": true,
          "internalType": "address",
          "name": "owner",
          "type": "address"
        },
        {
          "indexed": true,
          "internalType": "address",
          "name": "approved",
          "type": "address"
        },
        {
          "indexed": true,
          "internalType": "uint256",
          "name": "tokenId",
          "type": "uint256"
        }
      ],
      "name": "Approval",
      "type": "event"
    },
    {
      "anonymous": false,
      "inputs": [
        {
          "indexed": true,
          "internalType": "address",
          "name": "owner",
          "type": "address"
        },
        {
          "indexed": true,
          "internalType": "address",
          "name": "operator",
          "type": "address"
        },
        {
          "indexed": false,
          "internalType": "bool",
          "name": "approved",
          "type": "bool"
        }
      ],
      "name": "ApprovalForAll",
      "type": "event"
    },
    {
      "anonymous": false,
      "inputs": [
        {
          "indexed": false,
          "internalType": "uint256",
          "name": "id",
          "type": "uint256"
        }
      ],
      "name": "NewDroneCreated",
      "type": "event"
    },
    {
      "anonymous": false,
      "inputs": [
        {
          "indexed": true,
          "internalType": "address",
          "name": "previousOwner",
          "type": "address"
        },
        {
          "indexed": true,
          "internalType": "address",
          "name": "newOwner",
          "type": "address"
        }
      ],
      "name": "OwnershipTransferred",
      "type": "event"
    },
    {
      "anonymous": false,
      "inputs": [
        {
          "indexed": true,
          "internalType": "address",
          "name": "from",
          "type": "address"
        },
        {
          "indexed": true,
          "internalType": "address",
          "name": "to",
          "type": "address"
        },
        {
          "indexed": true,
          "internalType": "uint256",
          "name": "tokenId",
          "type": "uint256"
        }
      ],
      "name": "Transfer",
      "type": "event"
    },
    {
      "inputs": [
        {
          "internalType": "address",
          "name": "to",
          "type": "address"
        },
        {
          "internalType": "uint256",
          "name": "tokenId",
          "type": "uint256"
        }
      ],
      "name": "approve",
      "outputs": [],
      "stateMutability": "nonpayable",
      "type": "function"
    },
    {
      "inputs": [
        {
          "internalType": "address",
          "name": "owner",
          "type": "address"
        }
      ],
      "name": "balanceOf",
      "outputs": [
        {
          "internalType": "uint256",
          "name": "",
          "type": "uint256"
        }
      ],
      "stateMutability": "view",
      "type": "function"
    },
    {
      "inputs": [
        {
          "internalType": "uint256",
          "name": "",
          "type": "uint256"
        }
      ],
      "name": "drones",
      "outputs": [
        {
          "internalType": "uint256",
          "name": "maxFlightAltitude",
          "type": "uint256"
        },
        {
          "internalType": "uint256",
          "name": "minFlightAltitude",
          "type": "uint256"
        }
      ],
      "stateMutability": "view",
      "type": "function"
    },
    {
      "inputs": [
        {
          "internalType": "uint256",
          "name": "tokenId",
          "type": "uint256"
        }
      ],
      "name": "getApproved",
      "outputs": [
        {
          "internalType": "address",
          "name": "",
          "type": "address"
        }
      ],
      "stateMutability": "view",
      "type": "function"
    },
    {
      "inputs": [
        {
          "internalType": "address",
          "name": "owner",
          "type": "address"
        },
        {
          "internalType": "address",
          "name": "operator",
          "type": "address"
        }
      ],
      "name": "isApprovedForAll",
      "outputs": [
        {
          "internalType": "bool",
          "name": "",
          "type": "bool"
        }
      ],
      "stateMutability": "view",
      "type": "function"
    },
    {
      "inputs": [],
      "name": "name",
      "outputs": [
        {
          "internalType": "string",
          "name": "",
          "type": "string"
        }
      ],
      "stateMutability": "view",
      "type": "function"
    },
    {
      "inputs": [],
      "name": "owner",
      "outputs": [
        {
          "internalType": "address",
          "name": "",
          "type": "address"
        }
      ],
      "stateMutability": "view",
      "type": "function"
    },
    {
      "inputs": [
        {
          "internalType": "uint256",
          "name": "tokenId",
          "type": "uint256"
        }
      ],
      "name": "ownerOf",
      "outputs": [
        {
          "internalType": "address",
          "name": "",
          "type": "address"
        }
      ],
      "stateMutability": "view",
      "type": "function"
    },
    {
      "inputs": [],
      "name": "renounceOwnership",
      "outputs": [],
      "stateMutability": "nonpayable",
      "type": "function"
    },
    {
      "inputs": [
        {
          "internalType": "address",
          "name": "from",
          "type": "address"
        },
        {
          "internalType": "address",
          "name": "to",
          "type": "address"
        },
        {
          "internalType": "uint256",
          "name": "tokenId",
          "type": "uint256"
        }
      ],
      "name": "safeTransferFrom",
      "outputs": [],
      "stateMutability": "nonpayable",
      "type": "function"
    },
    {
      "inputs": [
        {
          "internalType": "address",
          "name": "from",
          "type": "address"
        },
        {
          "internalType": "address",
          "name": "to",
          "type": "address"
        },
        {
          "internalType": "uint256",
          "name": "tokenId",
          "type": "uint256"
        },
        {
          "internalType": "bytes",
          "name": "_data",
          "type": "bytes"
        }
      ],
      "name": "safeTransferFrom",
      "outputs": [],
      "stateMutability": "nonpayable",
      "type": "function"
    },
    {
      "inputs": [
        {
          "internalType": "address",
          "name": "operator",
          "type": "address"
        },
        {
          "internalType": "bool",
          "name": "approved",
          "type": "bool"
        }
      ],
      "name": "setApprovalForAll",
      "outputs": [],
      "stateMutability": "nonpayable",
      "type": "function"
    },
    {
      "inputs": [
        {
          "internalType": "bytes4",
          "name": "interfaceId",
          "type": "bytes4"
        }
      ],
      "name": "supportsInterface",
      "outputs": [
        {
          "internalType": "bool",
          "name": "",
          "type": "bool"
        }
      ],
      "stateMutability": "view",
      "type": "function"
    },
    {
      "inputs": [],
      "name": "symbol",
      "outputs": [
        {
          "internalType": "string",
          "name": "",
          "type": "string"
        }
      ],
      "stateMutability": "view",
      "type": "function"
    },
    {
      "inputs": [
        {
          "internalType": "uint256",
          "name": "tokenId",
          "type": "uint256"
        }
      ],
      "name": "tokenURI",
      "outputs": [
        {
          "internalType": "string",
          "name": "",
          "type": "string"
        }
      ],
      "stateMutability": "view",
      "type": "function"
    },
    {
      "inputs": [
        {
          "internalType": "address",
          "name": "from",
          "type": "address"
        },
        {
          "internalType": "address",
          "name": "to",
          "type": "address"
        },
        {
          "internalType": "uint256",
          "name": "tokenId",
          "type": "uint256"
        }
      ],
      "name": "transferFrom",
      "outputs": [],
      "stateMutability": "nonpayable",
      "type": "function"
    },
    {
      "inputs": [
        {
          "internalType": "address",
          "name": "newOwner",
          "type": "address"
        }
      ],
      "name": "transferOwnership",
      "outputs": [],
      "stateMutability": "nonpayable",
      "type": "function"
    },
    {
      "inputs": [
        {
          "internalType": "uint256",
          "name": "maxFlightAltitude",
          "type": "uint256"
        },
        {
          "internalType": "uint256",
          "name": "minFlightAltitude",
          "type": "uint256"
        },
        {
          "internalType": "string[]",
          "name": "pesticides",
          "type": "string[]"
        }
      ],
      "name": "mintNewDrone",
      "outputs": [],
      "stateMutability": "nonpayable",
      "type": "function"
    }
  ],
  "bytecode": "0x60806040523480156200001157600080fd5b506040518060400160405280600581526020017f44726f6e650000000000000000000000000000000000000000000000000000008152506040518060400160405280600381526020017f44524e0000000000000000000000000000000000000000000000000000000000815250816000908051906020019062000096929190620001a6565b508060019080519060200190620000af929190620001a6565b505050620000d2620000c6620000d860201b60201c565b620000e060201b60201c565b620002ba565b600033905090565b6000600660009054906101000a900473ffffffffffffffffffffffffffffffffffffffff16905081600660006101000a81548173ffffffffffffffffffffffffffffffffffffffff021916908373ffffffffffffffffffffffffffffffffffffffff1602179055508173ffffffffffffffffffffffffffffffffffffffff168173ffffffffffffffffffffffffffffffffffffffff167f8be0079c531659141344cd1fd0a4f28419497f9722a3daafe3b4186f6b6457e060405160405180910390a35050565b828054620001b49062000285565b90600052602060002090601f016020900481019282620001d8576000855562000224565b82601f10620001f357805160ff191683800117855562000224565b8280016001018555821562000224579182015b828111156200022357825182559160200191906001019062000206565b5b50905062000233919062000237565b5090565b5b808211156200025257600081600090555060010162000238565b5090565b7f4e487b7100000000000000000000000000000000000000000000000000000000600052602260045260246000fd5b600060028204905060018216806200029e57607f821691505b602082108103620002b457620002b362000256565b5b50919050565b61300d80620002ca6000396000f3fe608060405234801561001057600080fd5b50600436106101165760003560e01c80638da5cb5b116100a2578063b88d4fde11610071578063b88d4fde146102e0578063c87b56dd146102fc578063ccf658c21461032c578063e985e9c514610348578063f2fde38b1461037857610116565b80638da5cb5b146102575780639341bc001461027557806395d89b41146102a6578063a22cb465146102c457610116565b806323b872dd116100e957806323b872dd146101b557806342842e0e146101d15780636352211e146101ed57806370a082311461021d578063715018a61461024d57610116565b806301ffc9a71461011b57806306fdde031461014b578063081812fc14610169578063095ea7b314610199575b600080fd5b61013560048036038101906101309190611c75565b610394565b6040516101429190611cbd565b60405180910390f35b610153610476565b6040516101609190611d71565b60405180910390f35b610183600480360381019061017e9190611dc9565b610508565b6040516101909190611e37565b60405180910390f35b6101b360048036038101906101ae9190611e7e565b61058d565b005b6101cf60048036038101906101ca9190611ebe565b6106a4565b005b6101eb60048036038101906101e69190611ebe565b610704565b005b61020760048036038101906102029190611dc9565b610724565b6040516102149190611e37565b60405180910390f35b61023760048036038101906102329190611f11565b6107d5565b6040516102449190611f4d565b60405180910390f35b61025561088c565b005b61025f610914565b60405161026c9190611e37565b60405180910390f35b61028f600480360381019061028a9190611dc9565b61093e565b60405161029d929190611f68565b60405180910390f35b6102ae610972565b6040516102bb9190611d71565b60405180910390f35b6102de60048036038101906102d99190611fbd565b610a04565b005b6102fa60048036038101906102f59190612132565b610a1a565b005b61031660048036038101906103119190611dc9565b610a7c565b6040516103239190611d71565b60405180910390f35b6103466004803603810190610341919061233c565b610b23565b005b610362600480360381019061035d91906123ab565b610bb0565b60405161036f9190611cbd565b60405180910390f35b610392600480360381019061038d9190611f11565b610c44565b005b60007f80ac58cd000000000000000000000000000000000000000000000000000000007bffffffffffffffffffffffffffffffffffffffffffffffffffffffff1916827bffffffffffffffffffffffffffffffffffffffffffffffffffffffff1916148061045f57507f5b5e139f000000000000000000000000000000000000000000000000000000007bffffffffffffffffffffffffffffffffffffffffffffffffffffffff1916827bffffffffffffffffffffffffffffffffffffffffffffffffffffffff1916145b8061046f575061046e82610d3b565b5b9050919050565b6060600080546104859061241a565b80601f01602080910402602001604051908101604052809291908181526020018280546104b19061241a565b80156104fe5780601f106104d3576101008083540402835291602001916104fe565b820191906000526020600020905b8154815290600101906020018083116104e157829003601f168201915b5050505050905090565b600061051382610da5565b610552576040517f08c379a0000000000000000000000000000000000000000000000000000000008152600401610549906124bd565b60405180910390fd5b6004600083815260200190815260200160002060009054906101000a900473ffffffffffffffffffffffffffffffffffffffff169050919050565b600061059882610724565b90508073ffffffffffffffffffffffffffffffffffffffff168373ffffffffffffffffffffffffffffffffffffffff1603610608576040517f08c379a00000000000000000000000000000000000000000000000000000000081526004016105ff9061254f565b60405180910390fd5b8073ffffffffffffffffffffffffffffffffffffffff16610627610e11565b73ffffffffffffffffffffffffffffffffffffffff161480610656575061065581610650610e11565b610bb0565b5b610695576040517f08c379a000000000000000000000000000000000000000000000000000000000815260040161068c906125e1565b60405180910390fd5b61069f8383610e19565b505050565b6106b56106af610e11565b82610ed2565b6106f4576040517f08c379a00000000000000000000000000000000000000000000000000000000081526004016106eb90612673565b60405180910390fd5b6106ff838383610fb0565b505050565b61071f83838360405180602001604052806000815250610a1a565b505050565b6000806002600084815260200190815260200160002060009054906101000a900473ffffffffffffffffffffffffffffffffffffffff169050600073ffffffffffffffffffffffffffffffffffffffff168173ffffffffffffffffffffffffffffffffffffffff16036107cc576040517f08c379a00000000000000000000000000000000000000000000000000000000081526004016107c390612705565b60405180910390fd5b80915050919050565b60008073ffffffffffffffffffffffffffffffffffffffff168273ffffffffffffffffffffffffffffffffffffffff1603610845576040517f08c379a000000000000000000000000000000000000000000000000000000000815260040161083c90612797565b60405180910390fd5b600360008373ffffffffffffffffffffffffffffffffffffffff1673ffffffffffffffffffffffffffffffffffffffff168152602001908152602001600020549050919050565b610894610e11565b73ffffffffffffffffffffffffffffffffffffffff166108b2610914565b73ffffffffffffffffffffffffffffffffffffffff1614610908576040517f08c379a00000000000000000000000000000000000000000000000000000000081526004016108ff90612803565b60405180910390fd5b6109126000611216565b565b6000600660009054906101000a900473ffffffffffffffffffffffffffffffffffffffff16905090565b6008818154811061094e57600080fd5b90600052602060002090600302016000915090508060000154908060010154905082565b6060600180546109819061241a565b80601f01602080910402602001604051908101604052809291908181526020018280546109ad9061241a565b80156109fa5780601f106109cf576101008083540402835291602001916109fa565b820191906000526020600020905b8154815290600101906020018083116109dd57829003601f168201915b5050505050905090565b610a16610a0f610e11565b83836112dc565b5050565b610a2b610a25610e11565b83610ed2565b610a6a576040517f08c379a0000000000000000000000000000000000000000000000000000000008152600401610a6190612673565b60405180910390fd5b610a7684848484611448565b50505050565b6060610a8782610da5565b610ac6576040517f08c379a0000000000000000000000000000000000000000000000000000000008152600401610abd90612895565b60405180910390fd5b6000610ad06114a4565b90506000815111610af05760405180602001604052806000815250610b1b565b80610afa846114bb565b604051602001610b0b9291906128f1565b6040516020818303038152906040525b915050919050565b60003390506008604051806060016040528086815260200185815260200184815250908060018154018082558091505060019003906000526020600020906003020160009091909190915060008201518160000155602082015181600101556040820151816002019080519060200190610b9e929190611aa2565b505050610baa8161161b565b50505050565b6000600560008473ffffffffffffffffffffffffffffffffffffffff1673ffffffffffffffffffffffffffffffffffffffff16815260200190815260200160002060008373ffffffffffffffffffffffffffffffffffffffff1673ffffffffffffffffffffffffffffffffffffffff16815260200190815260200160002060009054906101000a900460ff16905092915050565b610c4c610e11565b73ffffffffffffffffffffffffffffffffffffffff16610c6a610914565b73ffffffffffffffffffffffffffffffffffffffff1614610cc0576040517f08c379a0000000000000000000000000000000000000000000000000000000008152600401610cb790612803565b60405180910390fd5b600073ffffffffffffffffffffffffffffffffffffffff168173ffffffffffffffffffffffffffffffffffffffff1603610d2f576040517f08c379a0000000000000000000000000000000000000000000000000000000008152600401610d2690612987565b60405180910390fd5b610d3881611216565b50565b60007f01ffc9a7000000000000000000000000000000000000000000000000000000007bffffffffffffffffffffffffffffffffffffffffffffffffffffffff1916827bffffffffffffffffffffffffffffffffffffffffffffffffffffffff1916149050919050565b60008073ffffffffffffffffffffffffffffffffffffffff166002600084815260200190815260200160002060009054906101000a900473ffffffffffffffffffffffffffffffffffffffff1673ffffffffffffffffffffffffffffffffffffffff1614159050919050565b600033905090565b816004600083815260200190815260200160002060006101000a81548173ffffffffffffffffffffffffffffffffffffffff021916908373ffffffffffffffffffffffffffffffffffffffff160217905550808273ffffffffffffffffffffffffffffffffffffffff16610e8c83610724565b73ffffffffffffffffffffffffffffffffffffffff167f8c5be1e5ebec7d5bd14f71427d1e84f3dd0314c0f7b2291e5b200ac8c7c3b92560405160405180910390a45050565b6000610edd82610da5565b610f1c576040517f08c379a0000000000000000000000000000000000000000000000000000000008152600401610f1390612a19565b60405180910390fd5b6000610f2783610724565b90508073ffffffffffffffffffffffffffffffffffffffff168473ffffffffffffffffffffffffffffffffffffffff161480610f695750610f688185610bb0565b5b80610fa757508373ffffffffffffffffffffffffffffffffffffffff16610f8f84610508565b73ffffffffffffffffffffffffffffffffffffffff16145b91505092915050565b8273ffffffffffffffffffffffffffffffffffffffff16610fd082610724565b73ffffffffffffffffffffffffffffffffffffffff1614611026576040517f08c379a000000000000000000000000000000000000000000000000000000000815260040161101d90612aab565b60405180910390fd5b600073ffffffffffffffffffffffffffffffffffffffff168273ffffffffffffffffffffffffffffffffffffffff1603611095576040517f08c379a000000000000000000000000000000000000000000000000000000000815260040161108c90612b3d565b60405180910390fd5b6110a0838383611678565b6110ab600082610e19565b6001600360008573ffffffffffffffffffffffffffffffffffffffff1673ffffffffffffffffffffffffffffffffffffffff16815260200190815260200160002060008282546110fb9190612b8c565b925050819055506001600360008473ffffffffffffffffffffffffffffffffffffffff1673ffffffffffffffffffffffffffffffffffffffff16815260200190815260200160002060008282546111529190612bc0565b92505081905550816002600083815260200190815260200160002060006101000a81548173ffffffffffffffffffffffffffffffffffffffff021916908373ffffffffffffffffffffffffffffffffffffffff160217905550808273ffffffffffffffffffffffffffffffffffffffff168473ffffffffffffffffffffffffffffffffffffffff167fddf252ad1be2c89b69c2b068fc378daa952ba7f163c4a11628f55a4df523b3ef60405160405180910390a461121183838361167d565b505050565b6000600660009054906101000a900473ffffffffffffffffffffffffffffffffffffffff16905081600660006101000a81548173ffffffffffffffffffffffffffffffffffffffff021916908373ffffffffffffffffffffffffffffffffffffffff1602179055508173ffffffffffffffffffffffffffffffffffffffff168173ffffffffffffffffffffffffffffffffffffffff167f8be0079c531659141344cd1fd0a4f28419497f9722a3daafe3b4186f6b6457e060405160405180910390a35050565b8173ffffffffffffffffffffffffffffffffffffffff168373ffffffffffffffffffffffffffffffffffffffff160361134a576040517f08c379a000000000000000000000000000000000000000000000000000000000815260040161134190612c62565b60405180910390fd5b80600560008573ffffffffffffffffffffffffffffffffffffffff1673ffffffffffffffffffffffffffffffffffffffff16815260200190815260200160002060008473ffffffffffffffffffffffffffffffffffffffff1673ffffffffffffffffffffffffffffffffffffffff16815260200190815260200160002060006101000a81548160ff0219169083151502179055508173ffffffffffffffffffffffffffffffffffffffff168373ffffffffffffffffffffffffffffffffffffffff167f17307eab39ab6107e8899845ad3d59bd9653f200f220920489ca2b5937696c318360405161143b9190611cbd565b60405180910390a3505050565b611453848484610fb0565b61145f84848484611682565b61149e576040517f08c379a000000000000000000000000000000000000000000000000000000000815260040161149590612cf4565b60405180910390fd5b50505050565b606060405180602001604052806000815250905090565b606060008203611502576040518060400160405280600181526020017f30000000000000000000000000000000000000000000000000000000000000008152509050611616565b600082905060005b6000821461153457808061151d90612d14565b915050600a8261152d9190612d8b565b915061150a565b60008167ffffffffffffffff8111156115505761154f612007565b5b6040519080825280601f01601f1916602001820160405280156115825781602001600182028036833780820191505090505b5090505b6000851461160f5760018261159b9190612b8c565b9150600a856115aa9190612dbc565b60306115b69190612bc0565b60f81b8183815181106115cc576115cb612ded565b5b60200101907effffffffffffffffffffffffffffffffffffffffffffffffffffffffffffff1916908160001a905350600a856116089190612d8b565b9450611586565b8093505050505b919050565b60006116276007611809565b90506116338282611817565b7f564ba5ec5742b2e6afc952e92235671c7a1959fe20648c59ded66c2721509544816040516116629190611f4d565b60405180910390a16116746007611835565b5050565b505050565b505050565b60006116a38473ffffffffffffffffffffffffffffffffffffffff1661184b565b156117fc578373ffffffffffffffffffffffffffffffffffffffff1663150b7a026116cc610e11565b8786866040518563ffffffff1660e01b81526004016116ee9493929190612e71565b6020604051808303816000875af192505050801561172a57506040513d601f19601f820116820180604052508101906117279190612ed2565b60015b6117ac573d806000811461175a576040519150601f19603f3d011682016040523d82523d6000602084013e61175f565b606091505b5060008151036117a4576040517f08c379a000000000000000000000000000000000000000000000000000000000815260040161179b90612cf4565b60405180910390fd5b805181602001fd5b63150b7a0260e01b7bffffffffffffffffffffffffffffffffffffffffffffffffffffffff1916817bffffffffffffffffffffffffffffffffffffffffffffffffffffffff191614915050611801565b600190505b949350505050565b600081600001549050919050565b61183182826040518060200160405280600081525061186e565b5050565b6001816000016000828254019250508190555050565b6000808273ffffffffffffffffffffffffffffffffffffffff163b119050919050565b61187883836118c9565b6118856000848484611682565b6118c4576040517f08c379a00000000000000000000000000000000000000000000000000000000081526004016118bb90612cf4565b60405180910390fd5b505050565b600073ffffffffffffffffffffffffffffffffffffffff168273ffffffffffffffffffffffffffffffffffffffff1603611938576040517f08c379a000000000000000000000000000000000000000000000000000000000815260040161192f90612f4b565b60405180910390fd5b61194181610da5565b15611981576040517f08c379a000000000000000000000000000000000000000000000000000000000815260040161197890612fb7565b60405180910390fd5b61198d60008383611678565b6001600360008473ffffffffffffffffffffffffffffffffffffffff1673ffffffffffffffffffffffffffffffffffffffff16815260200190815260200160002060008282546119dd9190612bc0565b92505081905550816002600083815260200190815260200160002060006101000a81548173ffffffffffffffffffffffffffffffffffffffff021916908373ffffffffffffffffffffffffffffffffffffffff160217905550808273ffffffffffffffffffffffffffffffffffffffff16600073ffffffffffffffffffffffffffffffffffffffff167fddf252ad1be2c89b69c2b068fc378daa952ba7f163c4a11628f55a4df523b3ef60405160405180910390a4611a9e6000838361167d565b5050565b828054828255906000526020600020908101928215611af1579160200282015b82811115611af0578251829080519060200190611ae0929190611b02565b5091602001919060010190611ac2565b5b509050611afe9190611b88565b5090565b828054611b0e9061241a565b90600052602060002090601f016020900481019282611b305760008555611b77565b82601f10611b4957805160ff1916838001178555611b77565b82800160010185558215611b77579182015b82811115611b76578251825591602001919060010190611b5b565b5b509050611b849190611bac565b5090565b5b80821115611ba85760008181611b9f9190611bc9565b50600101611b89565b5090565b5b80821115611bc5576000816000905550600101611bad565b5090565b508054611bd59061241a565b6000825580601f10611be75750611c06565b601f016020900490600052602060002090810190611c059190611bac565b5b50565b6000604051905090565b600080fd5b600080fd5b60007fffffffff0000000000000000000000000000000000000000000000000000000082169050919050565b611c5281611c1d565b8114611c5d57600080fd5b50565b600081359050611c6f81611c49565b92915050565b600060208284031215611c8b57611c8a611c13565b5b6000611c9984828501611c60565b91505092915050565b60008115159050919050565b611cb781611ca2565b82525050565b6000602082019050611cd26000830184611cae565b92915050565b600081519050919050565b600082825260208201905092915050565b60005b83811015611d12578082015181840152602081019050611cf7565b83811115611d21576000848401525b50505050565b6000601f19601f8301169050919050565b6000611d4382611cd8565b611d4d8185611ce3565b9350611d5d818560208601611cf4565b611d6681611d27565b840191505092915050565b60006020820190508181036000830152611d8b8184611d38565b905092915050565b6000819050919050565b611da681611d93565b8114611db157600080fd5b50565b600081359050611dc381611d9d565b92915050565b600060208284031215611ddf57611dde611c13565b5b6000611ded84828501611db4565b91505092915050565b600073ffffffffffffffffffffffffffffffffffffffff82169050919050565b6000611e2182611df6565b9050919050565b611e3181611e16565b82525050565b6000602082019050611e4c6000830184611e28565b92915050565b611e5b81611e16565b8114611e6657600080fd5b50565b600081359050611e7881611e52565b92915050565b60008060408385031215611e9557611e94611c13565b5b6000611ea385828601611e69565b9250506020611eb485828601611db4565b9150509250929050565b600080600060608486031215611ed757611ed6611c13565b5b6000611ee586828701611e69565b9350506020611ef686828701611e69565b9250506040611f0786828701611db4565b9150509250925092565b600060208284031215611f2757611f26611c13565b5b6000611f3584828501611e69565b91505092915050565b611f4781611d93565b82525050565b6000602082019050611f626000830184611f3e565b92915050565b6000604082019050611f7d6000830185611f3e565b611f8a6020830184611f3e565b9392505050565b611f9a81611ca2565b8114611fa557600080fd5b50565b600081359050611fb781611f91565b92915050565b60008060408385031215611fd457611fd3611c13565b5b6000611fe285828601611e69565b9250506020611ff385828601611fa8565b9150509250929050565b600080fd5b600080fd5b7f4e487b7100000000000000000000000000000000000000000000000000000000600052604160045260246000fd5b61203f82611d27565b810181811067ffffffffffffffff8211171561205e5761205d612007565b5b80604052505050565b6000612071611c09565b905061207d8282612036565b919050565b600067ffffffffffffffff82111561209d5761209c612007565b5b6120a682611d27565b9050602081019050919050565b82818337600083830152505050565b60006120d56120d084612082565b612067565b9050828152602081018484840111156120f1576120f0612002565b5b6120fc8482856120b3565b509392505050565b600082601f83011261211957612118611ffd565b5b81356121298482602086016120c2565b91505092915050565b6000806000806080858703121561214c5761214b611c13565b5b600061215a87828801611e69565b945050602061216b87828801611e69565b935050604061217c87828801611db4565b925050606085013567ffffffffffffffff81111561219d5761219c611c18565b5b6121a987828801612104565b91505092959194509250565b600067ffffffffffffffff8211156121d0576121cf612007565b5b602082029050602081019050919050565b600080fd5b600067ffffffffffffffff82111561220157612200612007565b5b61220a82611d27565b9050602081019050919050565b600061222a612225846121e6565b612067565b90508281526020810184848401111561224657612245612002565b5b6122518482856120b3565b509392505050565b600082601f83011261226e5761226d611ffd565b5b813561227e848260208601612217565b91505092915050565b600061229a612295846121b5565b612067565b905080838252602082019050602084028301858111156122bd576122bc6121e1565b5b835b8181101561230457803567ffffffffffffffff8111156122e2576122e1611ffd565b5b8086016122ef8982612259565b855260208501945050506020810190506122bf565b5050509392505050565b600082601f83011261232357612322611ffd565b5b8135612333848260208601612287565b91505092915050565b60008060006060848603121561235557612354611c13565b5b600061236386828701611db4565b935050602061237486828701611db4565b925050604084013567ffffffffffffffff81111561239557612394611c18565b5b6123a18682870161230e565b9150509250925092565b600080604083850312156123c2576123c1611c13565b5b60006123d085828601611e69565b92505060206123e185828601611e69565b9150509250929050565b7f4e487b7100000000000000000000000000000000000000000000000000000000600052602260045260246000fd5b6000600282049050600182168061243257607f821691505b602082108103612445576124446123eb565b5b50919050565b7f4552433732313a20617070726f76656420717565727920666f72206e6f6e657860008201527f697374656e7420746f6b656e0000000000000000000000000000000000000000602082015250565b60006124a7602c83611ce3565b91506124b28261244b565b604082019050919050565b600060208201905081810360008301526124d68161249a565b9050919050565b7f4552433732313a20617070726f76616c20746f2063757272656e74206f776e6560008201527f7200000000000000000000000000000000000000000000000000000000000000602082015250565b6000612539602183611ce3565b9150612544826124dd565b604082019050919050565b600060208201905081810360008301526125688161252c565b9050919050565b7f4552433732313a20617070726f76652063616c6c6572206973206e6f74206f7760008201527f6e6572206e6f7220617070726f76656420666f7220616c6c0000000000000000602082015250565b60006125cb603883611ce3565b91506125d68261256f565b604082019050919050565b600060208201905081810360008301526125fa816125be565b9050919050565b7f4552433732313a207472616e736665722063616c6c6572206973206e6f74206f60008201527f776e6572206e6f7220617070726f766564000000000000000000000000000000602082015250565b600061265d603183611ce3565b915061266882612601565b604082019050919050565b6000602082019050818103600083015261268c81612650565b9050919050565b7f4552433732313a206f776e657220717565727920666f72206e6f6e657869737460008201527f656e7420746f6b656e0000000000000000000000000000000000000000000000602082015250565b60006126ef602983611ce3565b91506126fa82612693565b604082019050919050565b6000602082019050818103600083015261271e816126e2565b9050919050565b7f4552433732313a2062616c616e636520717565727920666f7220746865207a6560008201527f726f206164647265737300000000000000000000000000000000000000000000602082015250565b6000612781602a83611ce3565b915061278c82612725565b604082019050919050565b600060208201905081810360008301526127b081612774565b9050919050565b7f4f776e61626c653a2063616c6c6572206973206e6f7420746865206f776e6572600082015250565b60006127ed602083611ce3565b91506127f8826127b7565b602082019050919050565b6000602082019050818103600083015261281c816127e0565b9050919050565b7f4552433732314d657461646174613a2055524920717565727920666f72206e6f60008201527f6e6578697374656e7420746f6b656e0000000000000000000000000000000000602082015250565b600061287f602f83611ce3565b915061288a82612823565b604082019050919050565b600060208201905081810360008301526128ae81612872565b9050919050565b600081905092915050565b60006128cb82611cd8565b6128d581856128b5565b93506128e5818560208601611cf4565b80840191505092915050565b60006128fd82856128c0565b915061290982846128c0565b91508190509392505050565b7f4f776e61626c653a206e6577206f776e657220697320746865207a65726f206160008201527f6464726573730000000000000000000000000000000000000000000000000000602082015250565b6000612971602683611ce3565b915061297c82612915565b604082019050919050565b600060208201905081810360008301526129a081612964565b9050919050565b7f4552433732313a206f70657261746f7220717565727920666f72206e6f6e657860008201527f697374656e7420746f6b656e0000000000000000000000000000000000000000602082015250565b6000612a03602c83611ce3565b9150612a0e826129a7565b604082019050919050565b60006020820190508181036000830152612a32816129f6565b9050919050565b7f4552433732313a207472616e736665722066726f6d20696e636f72726563742060008201527f6f776e6572000000000000000000000000000000000000000000000000000000602082015250565b6000612a95602583611ce3565b9150612aa082612a39565b604082019050919050565b60006020820190508181036000830152612ac481612a88565b9050919050565b7f4552433732313a207472616e7366657220746f20746865207a65726f2061646460008201527f7265737300000000000000000000000000000000000000000000000000000000602082015250565b6000612b27602483611ce3565b9150612b3282612acb565b604082019050919050565b60006020820190508181036000830152612b5681612b1a565b9050919050565b7f4e487b7100000000000000000000000000000000000000000000000000000000600052601160045260246000fd5b6000612b9782611d93565b9150612ba283611d93565b925082821015612bb557612bb4612b5d565b5b828203905092915050565b6000612bcb82611d93565b9150612bd683611d93565b9250827fffffffffffffffffffffffffffffffffffffffffffffffffffffffffffffffff03821115612c0b57612c0a612b5d565b5b828201905092915050565b7f4552433732313a20617070726f766520746f2063616c6c657200000000000000600082015250565b6000612c4c601983611ce3565b9150612c5782612c16565b602082019050919050565b60006020820190508181036000830152612c7b81612c3f565b9050919050565b7f4552433732313a207472616e7366657220746f206e6f6e20455243373231526560008201527f63656976657220696d706c656d656e7465720000000000000000000000000000602082015250565b6000612cde603283611ce3565b9150612ce982612c82565b604082019050919050565b60006020820190508181036000830152612d0d81612cd1565b9050919050565b6000612d1f82611d93565b91507fffffffffffffffffffffffffffffffffffffffffffffffffffffffffffffffff8203612d5157612d50612b5d565b5b600182019050919050565b7f4e487b7100000000000000000000000000000000000000000000000000000000600052601260045260246000fd5b6000612d9682611d93565b9150612da183611d93565b925082612db157612db0612d5c565b5b828204905092915050565b6000612dc782611d93565b9150612dd283611d93565b925082612de257612de1612d5c565b5b828206905092915050565b7f4e487b7100000000000000000000000000000000000000000000000000000000600052603260045260246000fd5b600081519050919050565b600082825260208201905092915050565b6000612e4382612e1c565b612e4d8185612e27565b9350612e5d818560208601611cf4565b612e6681611d27565b840191505092915050565b6000608082019050612e866000830187611e28565b612e936020830186611e28565b612ea06040830185611f3e565b8181036060830152612eb28184612e38565b905095945050505050565b600081519050612ecc81611c49565b92915050565b600060208284031215612ee857612ee7611c13565b5b6000612ef684828501612ebd565b91505092915050565b7f4552433732313a206d696e7420746f20746865207a65726f2061646472657373600082015250565b6000612f35602083611ce3565b9150612f4082612eff565b602082019050919050565b60006020820190508181036000830152612f6481612f28565b9050919050565b7f4552433732313a20746f6b656e20616c7265616479206d696e74656400000000600082015250565b6000612fa1601c83611ce3565b9150612fac82612f6b565b602082019050919050565b60006020820190508181036000830152612fd081612f94565b905091905056fea26469706673582212205018b5b065be0ff24a9be793c582ddf2c6d9021ee2326e722b5b1ea53000d82064736f6c634300080e0033",
  "immutableReferences": {},
  "source": "// SPDX-License-Identifier: UNLICENCED\npragma solidity >=0.4.22 <0.9.0;\n\nimport \"./models/DroneModel.sol\";\nimport \"@openzeppelin/contracts/token/ERC721/ERC721.sol\";\nimport \"@openzeppelin/contracts/utils/Counters.sol\";\nimport \"@openzeppelin/contracts/access/Ownable.sol\";\n\ncontract DroneNFT is ERC721, Ownable, DroneModel {\n    using Counters for Counters.Counter;\n    Counters.Counter private _currentTokenId;\n\n    constructor() ERC721(\"Drone\", \"DRN\") {}\n\n    event NewDroneCreated(uint256 id);\n\n    Drone[] public drones;\n\n    function _droneMint(address to) private {\n        uint256 currentId = _currentTokenId.current();\n        _safeMint(to, currentId);\n        emit NewDroneCreated(currentId);\n        _currentTokenId.increment();\n    }\n\n    function mintNewDrone(\n        uint256 maxFlightAltitude,\n        uint256 minFlightAltitude,\n        string[] memory pesticides\n    ) external {\n        address owner = msg.sender;\n        drones.push(Drone(maxFlightAltitude, minFlightAltitude, pesticides));\n        _droneMint(owner);\n    }\n}\n",
  "sourcePath": "/home/sergio/Documentos/sergio/projects/drones/smartcontracts/contracts/DroneNFT.sol",
  "compiler": {
    "name": "solc",
    "version": "0.8.14+commit.80d49f37.Emscripten.clang"
  },
  "schemaVersion": "3.4.7",
  "updatedAt": "2022-06-30T18:53:09.845Z",
  "devdoc": {
    "kind": "dev",
    "methods": {
      "approve(address,uint256)": {
        "details": "See {IERC721-approve}."
      },
      "balanceOf(address)": {
        "details": "See {IERC721-balanceOf}."
      },
      "getApproved(uint256)": {
        "details": "See {IERC721-getApproved}."
      },
      "isApprovedForAll(address,address)": {
        "details": "See {IERC721-isApprovedForAll}."
      },
      "name()": {
        "details": "See {IERC721Metadata-name}."
      },
      "owner()": {
        "details": "Returns the address of the current owner."
      },
      "ownerOf(uint256)": {
        "details": "See {IERC721-ownerOf}."
      },
      "renounceOwnership()": {
        "details": "Leaves the contract without owner. It will not be possible to call `onlyOwner` functions anymore. Can only be called by the current owner. NOTE: Renouncing ownership will leave the contract without an owner, thereby removing any functionality that is only available to the owner."
      },
      "safeTransferFrom(address,address,uint256)": {
        "details": "See {IERC721-safeTransferFrom}."
      },
      "safeTransferFrom(address,address,uint256,bytes)": {
        "details": "See {IERC721-safeTransferFrom}."
      },
      "setApprovalForAll(address,bool)": {
        "details": "See {IERC721-setApprovalForAll}."
      },
      "supportsInterface(bytes4)": {
        "details": "See {IERC165-supportsInterface}."
      },
      "symbol()": {
        "details": "See {IERC721Metadata-symbol}."
      },
      "tokenURI(uint256)": {
        "details": "See {IERC721Metadata-tokenURI}."
      },
      "transferFrom(address,address,uint256)": {
        "details": "See {IERC721-transferFrom}."
      },
      "transferOwnership(address)": {
        "details": "Transfers ownership of the contract to a new account (`newOwner`). Can only be called by the current owner."
      }
    },
    "version": 1
  },
  "userdoc": {
    "kind": "user",
    "methods": {},
    "version": 1
  }
}