{
  "contractName": "Manager",
  "abi": [
    {
      "inputs": [],
      "stateMutability": "nonpayable",
      "type": "constructor"
    },
    {
      "anonymous": false,
      "inputs": [
        {
          "indexed": true,
          "internalType": "address",
          "name": "previousOwner",
          "type": "address"
        },
        {
          "indexed": true,
          "internalType": "address",
          "name": "newOwner",
          "type": "address"
        }
      ],
      "name": "OwnershipTransferred",
      "type": "event"
    },
    {
      "inputs": [
        {
          "internalType": "address",
          "name": "",
          "type": "address"
        }
      ],
      "name": "isCompany",
      "outputs": [
        {
          "internalType": "bool",
          "name": "",
          "type": "bool"
        }
      ],
      "stateMutability": "view",
      "type": "function"
    },
    {
      "inputs": [
        {
          "internalType": "uint256",
          "name": "",
          "type": "uint256"
        }
      ],
      "name": "jobs",
      "outputs": [
        {
          "internalType": "uint256",
          "name": "id",
          "type": "uint256"
        },
        {
          "internalType": "uint256",
          "name": "droneId",
          "type": "uint256"
        },
        {
          "internalType": "uint256",
          "name": "plotId",
          "type": "uint256"
        },
        {
          "internalType": "bool",
          "name": "approved",
          "type": "bool"
        }
      ],
      "stateMutability": "view",
      "type": "function"
    },
    {
      "inputs": [],
      "name": "owner",
      "outputs": [
        {
          "internalType": "address",
          "name": "",
          "type": "address"
        }
      ],
      "stateMutability": "view",
      "type": "function"
    },
    {
      "inputs": [],
      "name": "renounceOwnership",
      "outputs": [],
      "stateMutability": "nonpayable",
      "type": "function"
    },
    {
      "inputs": [
        {
          "internalType": "address",
          "name": "newOwner",
          "type": "address"
        }
      ],
      "name": "transferOwnership",
      "outputs": [],
      "stateMutability": "nonpayable",
      "type": "function"
    },
    {
      "inputs": [
        {
          "internalType": "address",
          "name": "_address",
          "type": "address"
        }
      ],
      "name": "setCompanyAddress",
      "outputs": [],
      "stateMutability": "nonpayable",
      "type": "function"
    },
    {
      "inputs": [
        {
          "internalType": "address",
          "name": "_address",
          "type": "address"
        }
      ],
      "name": "deleteCompanyAddress",
      "outputs": [],
      "stateMutability": "nonpayable",
      "type": "function"
    },
    {
      "inputs": [
        {
          "internalType": "address",
          "name": "_address",
          "type": "address"
        }
      ],
      "name": "setDroneContractAddress",
      "outputs": [],
      "stateMutability": "nonpayable",
      "type": "function"
    },
    {
      "inputs": [
        {
          "internalType": "address",
          "name": "_address",
          "type": "address"
        }
      ],
      "name": "setPlotContractAddress",
      "outputs": [],
      "stateMutability": "nonpayable",
      "type": "function"
    },
    {
      "inputs": [],
      "name": "getJobs",
      "outputs": [
        {
          "components": [
            {
              "internalType": "uint256",
              "name": "id",
              "type": "uint256"
            },
            {
              "internalType": "uint256",
              "name": "droneId",
              "type": "uint256"
            },
            {
              "internalType": "uint256",
              "name": "plotId",
              "type": "uint256"
            },
            {
              "internalType": "bool",
              "name": "approved",
              "type": "bool"
            }
          ],
          "internalType": "struct JobModel.Job[]",
          "name": "",
          "type": "tuple[]"
        }
      ],
      "stateMutability": "view",
      "type": "function"
    },
    {
      "inputs": [
        {
          "internalType": "uint256",
          "name": "_droneId",
          "type": "uint256"
        },
        {
          "internalType": "uint256",
          "name": "_plotId",
          "type": "uint256"
        }
      ],
      "name": "setPendingJob",
      "outputs": [],
      "stateMutability": "nonpayable",
      "type": "function"
    },
    {
      "inputs": [
        {
          "internalType": "uint256",
          "name": "_jobId",
          "type": "uint256"
        },
        {
          "internalType": "address",
          "name": "_address",
          "type": "address"
        }
      ],
      "name": "acceptJob",
      "outputs": [],
      "stateMutability": "nonpayable",
      "type": "function"
    },
    {
      "inputs": [
        {
          "internalType": "uint256",
          "name": "_jobId",
          "type": "uint256"
        },
        {
          "internalType": "address",
          "name": "_address",
          "type": "address"
        }
      ],
      "name": "declineJob",
      "outputs": [],
      "stateMutability": "nonpayable",
      "type": "function"
    }
  ],
  "bytecode": "0x608060405234801561001057600080fd5b5061002d6100226100e460201b60201c565b6100ec60201b60201c565b60006003819055507344e6106733ba7cbf2ab3b29b20e2d7957689d4b0600160006101000a81548173ffffffffffffffffffffffffffffffffffffffff021916908373ffffffffffffffffffffffffffffffffffffffff16021790555073d7c53a5ab24d0d5e083f50a2e520859ccf0fe76c600260006101000a81548173ffffffffffffffffffffffffffffffffffffffff021916908373ffffffffffffffffffffffffffffffffffffffff1602179055506101b0565b600033905090565b60008060009054906101000a900473ffffffffffffffffffffffffffffffffffffffff169050816000806101000a81548173ffffffffffffffffffffffffffffffffffffffff021916908373ffffffffffffffffffffffffffffffffffffffff1602179055508173ffffffffffffffffffffffffffffffffffffffff168173ffffffffffffffffffffffffffffffffffffffff167f8be0079c531659141344cd1fd0a4f28419497f9722a3daafe3b4186f6b6457e060405160405180910390a35050565b6118d2806101bf6000396000f3fe608060405234801561001057600080fd5b50600436106100cf5760003560e01c8063783166d91161008c578063a492522611610066578063a4925226146101ed578063d7d8672714610209578063e6d6bca514610225578063f2fde38b14610241576100cf565b8063783166d9146101835780638da5cb5b1461019f578063a0406ce2146101bd576100cf565b8063180aedf3146100d4578063394ad0da146101075780634f63a7721461012357806368581ebd1461013f578063715018a61461015d5780637763f36e14610167575b600080fd5b6100ee60048036038101906100e99190610d86565b61025d565b6040516100fe9493929190610ddd565b60405180910390f35b610121600480360381019061011c9190610e80565b6102aa565b005b61013d60048036038101906101389190610e80565b61036a565b005b610147610441565b6040516101549190610fcf565b60405180910390f35b6101656104d9565b005b610181600480360381019061017c9190610ff1565b610561565b005b61019d60048036038101906101989190611031565b610663565b005b6101a76108c2565b6040516101b49190611080565b60405180910390f35b6101d760048036038101906101d29190610e80565b6108eb565b6040516101e4919061109b565b60405180910390f35b61020760048036038101906102029190610e80565b61090b565b005b610223600480360381019061021e9190610ff1565b6109e2565b005b61023f600480360381019061023a9190610e80565b610ab9565b005b61025b60048036038101906102569190610e80565b610b79565b005b6005818154811061026d57600080fd5b90600052602060002090600402016000915090508060000154908060010154908060020154908060030160009054906101000a900460ff16905084565b6102b2610c70565b73ffffffffffffffffffffffffffffffffffffffff166102d06108c2565b73ffffffffffffffffffffffffffffffffffffffff1614610326576040517f08c379a000000000000000000000000000000000000000000000000000000000815260040161031d90611113565b60405180910390fd5b80600260006101000a81548173ffffffffffffffffffffffffffffffffffffffff021916908373ffffffffffffffffffffffffffffffffffffffff16021790555050565b610372610c70565b73ffffffffffffffffffffffffffffffffffffffff166103906108c2565b73ffffffffffffffffffffffffffffffffffffffff16146103e6576040517f08c379a00000000000000000000000000000000000000000000000000000000081526004016103dd90611113565b60405180910390fd5b6001600460008373ffffffffffffffffffffffffffffffffffffffff1673ffffffffffffffffffffffffffffffffffffffff16815260200190815260200160002060006101000a81548160ff02191690831515021790555050565b60606005805480602002602001604051908101604052809291908181526020016000905b828210156104d057838290600052602060002090600402016040518060800160405290816000820154815260200160018201548152602001600282015481526020016003820160009054906101000a900460ff16151515158152505081526020019060010190610465565b50505050905090565b6104e1610c70565b73ffffffffffffffffffffffffffffffffffffffff166104ff6108c2565b73ffffffffffffffffffffffffffffffffffffffff1614610555576040517f08c379a000000000000000000000000000000000000000000000000000000000815260040161054c90611113565b60405180910390fd5b61055f6000610c78565b565b8060011515600460008373ffffffffffffffffffffffffffffffffffffffff1673ffffffffffffffffffffffffffffffffffffffff16815260200190815260200160002060009054906101000a900460ff161515146105f5576040517f08c379a00000000000000000000000000000000000000000000000000000000081526004016105ec906111a5565b60405180910390fd5b60058381548110610609576106086111c5565b5b9060005260206000209060040201600080820160009055600182016000905560028201600090556003820160006101000a81549060ff021916905550506003600081548092919061065990611223565b9190505550505050565b6000600260009054906101000a900473ffffffffffffffffffffffffffffffffffffffff1673ffffffffffffffffffffffffffffffffffffffff1663cfdd4fbd836040518263ffffffff1660e01b81526004016106c0919061124c565b600060405180830381865afa1580156106dd573d6000803e3d6000fd5b505050506040513d6000823e3d601f19601f8201168201806040525081019061070691906114dd565b90506000600160009054906101000a900473ffffffffffffffffffffffffffffffffffffffff1673ffffffffffffffffffffffffffffffffffffffff1663dbd1be77856040518263ffffffff1660e01b8152600401610765919061124c565b600060405180830381865afa158015610782573d6000803e3d6000fd5b505050506040513d6000823e3d601f19601f820116820180604052508101906107ab9190611779565b90508160a0015173ffffffffffffffffffffffffffffffffffffffff163373ffffffffffffffffffffffffffffffffffffffff16146107e957600080fd5b8060600151826060015110156107fe57600080fd5b80608001518260800151111561081357600080fd5b60056040518060800160405280600354815260200186815260200185815260200160001515815250908060018154018082558091505060019003906000526020600020906004020160009091909190915060008201518160000155602082015181600101556040820151816002015560608201518160030160006101000a81548160ff0219169083151502179055505050600360008154809291906108b7906117c2565b919050555050505050565b60008060009054906101000a900473ffffffffffffffffffffffffffffffffffffffff16905090565b60046020528060005260406000206000915054906101000a900460ff1681565b610913610c70565b73ffffffffffffffffffffffffffffffffffffffff166109316108c2565b73ffffffffffffffffffffffffffffffffffffffff1614610987576040517f08c379a000000000000000000000000000000000000000000000000000000000815260040161097e90611113565b60405180910390fd5b6000600460008373ffffffffffffffffffffffffffffffffffffffff1673ffffffffffffffffffffffffffffffffffffffff16815260200190815260200160002060006101000a81548160ff02191690831515021790555050565b8060011515600460008373ffffffffffffffffffffffffffffffffffffffff1673ffffffffffffffffffffffffffffffffffffffff16815260200190815260200160002060009054906101000a900460ff16151514610a76576040517f08c379a0000000000000000000000000000000000000000000000000000000008152600401610a6d906111a5565b60405180910390fd5b600160058481548110610a8c57610a8b6111c5565b5b906000526020600020906004020160030160006101000a81548160ff021916908315150217905550505050565b610ac1610c70565b73ffffffffffffffffffffffffffffffffffffffff16610adf6108c2565b73ffffffffffffffffffffffffffffffffffffffff1614610b35576040517f08c379a0000000000000000000000000000000000000000000000000000000008152600401610b2c90611113565b60405180910390fd5b80600160006101000a81548173ffffffffffffffffffffffffffffffffffffffff021916908373ffffffffffffffffffffffffffffffffffffffff16021790555050565b610b81610c70565b73ffffffffffffffffffffffffffffffffffffffff16610b9f6108c2565b73ffffffffffffffffffffffffffffffffffffffff1614610bf5576040517f08c379a0000000000000000000000000000000000000000000000000000000008152600401610bec90611113565b60405180910390fd5b600073ffffffffffffffffffffffffffffffffffffffff168173ffffffffffffffffffffffffffffffffffffffff1603610c64576040517f08c379a0000000000000000000000000000000000000000000000000000000008152600401610c5b9061187c565b60405180910390fd5b610c6d81610c78565b50565b600033905090565b60008060009054906101000a900473ffffffffffffffffffffffffffffffffffffffff169050816000806101000a81548173ffffffffffffffffffffffffffffffffffffffff021916908373ffffffffffffffffffffffffffffffffffffffff1602179055508173ffffffffffffffffffffffffffffffffffffffff168173ffffffffffffffffffffffffffffffffffffffff167f8be0079c531659141344cd1fd0a4f28419497f9722a3daafe3b4186f6b6457e060405160405180910390a35050565b6000604051905090565b600080fd5b600080fd5b6000819050919050565b610d6381610d50565b8114610d6e57600080fd5b50565b600081359050610d8081610d5a565b92915050565b600060208284031215610d9c57610d9b610d46565b5b6000610daa84828501610d71565b91505092915050565b610dbc81610d50565b82525050565b60008115159050919050565b610dd781610dc2565b82525050565b6000608082019050610df26000830187610db3565b610dff6020830186610db3565b610e0c6040830185610db3565b610e196060830184610dce565b95945050505050565b600073ffffffffffffffffffffffffffffffffffffffff82169050919050565b6000610e4d82610e22565b9050919050565b610e5d81610e42565b8114610e6857600080fd5b50565b600081359050610e7a81610e54565b92915050565b600060208284031215610e9657610e95610d46565b5b6000610ea484828501610e6b565b91505092915050565b600081519050919050565b600082825260208201905092915050565b6000819050602082019050919050565b610ee281610d50565b82525050565b610ef181610dc2565b82525050565b608082016000820151610f0d6000850182610ed9565b506020820151610f206020850182610ed9565b506040820151610f336040850182610ed9565b506060820151610f466060850182610ee8565b50505050565b6000610f588383610ef7565b60808301905092915050565b6000602082019050919050565b6000610f7c82610ead565b610f868185610eb8565b9350610f9183610ec9565b8060005b83811015610fc2578151610fa98882610f4c565b9750610fb483610f64565b925050600181019050610f95565b5085935050505092915050565b60006020820190508181036000830152610fe98184610f71565b905092915050565b6000806040838503121561100857611007610d46565b5b600061101685828601610d71565b925050602061102785828601610e6b565b9150509250929050565b6000806040838503121561104857611047610d46565b5b600061105685828601610d71565b925050602061106785828601610d71565b9150509250929050565b61107a81610e42565b82525050565b60006020820190506110956000830184611071565b92915050565b60006020820190506110b06000830184610dce565b92915050565b600082825260208201905092915050565b7f4f776e61626c653a2063616c6c6572206973206e6f7420746865206f776e6572600082015250565b60006110fd6020836110b6565b9150611108826110c7565b602082019050919050565b6000602082019050818103600083015261112c816110f0565b9050919050565b7f4e6f207469656e6573207065726d69736f732070617261207265616c697a617260008201527f206573746120616363696f6e0000000000000000000000000000000000000000602082015250565b600061118f602c836110b6565b915061119a82611133565b604082019050919050565b600060208201905081810360008301526111be81611182565b9050919050565b7f4e487b7100000000000000000000000000000000000000000000000000000000600052603260045260246000fd5b7f4e487b7100000000000000000000000000000000000000000000000000000000600052601160045260246000fd5b600061122e82610d50565b915060008203611241576112406111f4565b5b600182039050919050565b60006020820190506112616000830184610db3565b92915050565b600080fd5b6000601f19601f8301169050919050565b7f4e487b7100000000000000000000000000000000000000000000000000000000600052604160045260246000fd5b6112b58261126c565b810181811067ffffffffffffffff821117156112d4576112d361127d565b5b80604052505050565b60006112e7610d3c565b90506112f382826112ac565b919050565b600080fd5b60008151905061130c81610d5a565b92915050565b600080fd5b600080fd5b600067ffffffffffffffff8211156113375761133661127d565b5b6113408261126c565b9050602081019050919050565b60005b8381101561136b578082015181840152602081019050611350565b8381111561137a576000848401525b50505050565b600061139361138e8461131c565b6112dd565b9050828152602081018484840111156113af576113ae611317565b5b6113ba84828561134d565b509392505050565b600082601f8301126113d7576113d6611312565b5b81516113e7848260208601611380565b91505092915050565b6000815190506113ff81610e54565b92915050565b600060c0828403121561141b5761141a611267565b5b61142560c06112dd565b90506000611435848285016112fd565b600083015250602082015167ffffffffffffffff811115611459576114586112f8565b5b611465848285016113c2565b602083015250604082015167ffffffffffffffff811115611489576114886112f8565b5b611495848285016113c2565b60408301525060606114a9848285016112fd565b60608301525060806114bd848285016112fd565b60808301525060a06114d1848285016113f0565b60a08301525092915050565b6000602082840312156114f3576114f2610d46565b5b600082015167ffffffffffffffff81111561151157611510610d4b565b5b61151d84828501611405565b91505092915050565b600067ffffffffffffffff8211156115415761154061127d565b5b602082029050602081019050919050565b600080fd5b600061156a61156584611526565b6112dd565b9050808382526020820190506020840283018581111561158d5761158c611552565b5b835b818110156115d457805167ffffffffffffffff8111156115b2576115b1611312565b5b8086016115bf89826113c2565b8552602085019450505060208101905061158f565b5050509392505050565b600082601f8301126115f3576115f2611312565b5b8151611603848260208601611557565b91505092915050565b600060ff82169050919050565b6116228161160c565b811461162d57600080fd5b50565b60008151905061163f81611619565b92915050565b6000610120828403121561165c5761165b611267565b5b6116676101206112dd565b90506000611677848285016112fd565b600083015250602082015167ffffffffffffffff81111561169b5761169a6112f8565b5b6116a7848285016113c2565b602083015250604082015167ffffffffffffffff8111156116cb576116ca6112f8565b5b6116d7848285016113c2565b60408301525060606116eb848285016112fd565b60608301525060806116ff848285016112fd565b60808301525060a082015167ffffffffffffffff811115611723576117226112f8565b5b61172f848285016115de565b60a08301525060c0611743848285016112fd565b60c08301525060e061175784828501611630565b60e08301525061010061176c848285016113f0565b6101008301525092915050565b60006020828403121561178f5761178e610d46565b5b600082015167ffffffffffffffff8111156117ad576117ac610d4b565b5b6117b984828501611645565b91505092915050565b60006117cd82610d50565b91507fffffffffffffffffffffffffffffffffffffffffffffffffffffffffffffffff82036117ff576117fe6111f4565b5b600182019050919050565b7f4f776e61626c653a206e6577206f776e657220697320746865207a65726f206160008201527f6464726573730000000000000000000000000000000000000000000000000000602082015250565b60006118666026836110b6565b91506118718261180a565b604082019050919050565b6000602082019050818103600083015261189581611859565b905091905056fea264697066735822122079ad0b1f4bd3852246e1fcc562a4575fc6033ddc8f23021ba8418bb38837f28d64736f6c634300080e0033",
  "immutableReferences": {},
  "source": "// SPDX-License-Identifier: UNLICENCED\npragma solidity >=0.4.22 <0.9.0;\n\nimport \"./models/JobModel.sol\";\nimport \"./models/DroneModel.sol\";\nimport \"./models/PlotModel.sol\";\nimport \"@openzeppelin/contracts/access/Ownable.sol\";\n\ninterface DroneInterface is DroneModel {\n    function getDrone(uint256 _index) external view returns (Drone memory);\n}\n\ninterface PlotInterface is PlotModel {\n    function getPlot(uint256 _index) external view returns (Plot memory);\n}\n\ncontract Manager is JobModel, PlotModel, DroneModel, Ownable {\n    DroneInterface droneContract;\n    PlotInterface plotContract;\n    uint256 private jobId;\n\n    mapping(address => bool) public isCompany;\n\n    constructor() {\n        jobId = 0;\n        droneContract = DroneInterface(\n            address(0x44E6106733Ba7cbf2ab3B29b20E2d7957689D4b0)\n        );\n        plotContract = PlotInterface(\n            address(0xD7C53A5aB24D0D5e083f50A2e520859Ccf0Fe76c)\n        );\n    }\n\n    Job[] public jobs;\n\n    modifier onlyCompanyAddress(address _address) {\n        require(\n            isCompany[_address] == true,\n            \"No tienes permisos para realizar esta accion\"\n        );\n        _;\n    }\n\n    function setCompanyAddress(address _address) external onlyOwner {\n        isCompany[_address] = true;\n    }\n\n    function deleteCompanyAddress(address _address) external onlyOwner {\n        isCompany[_address] = false;\n    }\n\n    function setDroneContractAddress(address _address) external onlyOwner {\n        droneContract = DroneInterface(_address);\n    }\n\n    function setPlotContractAddress(address _address) external onlyOwner {\n        plotContract = PlotInterface(_address);\n    }\n\n    function getJobs() external view returns (Job[] memory) {\n        return jobs;\n    }\n\n    function setPendingJob(uint256 _droneId, uint256 _plotId) public {\n        Plot memory currentPlot = plotContract.getPlot(_plotId);\n        Drone memory currentDrone = droneContract.getDrone(_droneId);\n        require(msg.sender == currentPlot.owner);\n        require(\n            currentPlot.allowedMaxFlightAltitude >=\n                currentDrone.maxFlightAltitude\n        );\n        require(\n            currentPlot.allowedMinFlightAltitude <=\n                currentDrone.minFlightAltitude\n        );\n\n        jobs.push(Job(jobId, _droneId, _plotId, false));\n        jobId++;\n    }\n\n    function acceptJob(uint256 _jobId, address _address)\n        external\n        onlyCompanyAddress(_address)\n    {\n        jobs[_jobId].approved = true;\n    }\n\n    function declineJob(uint256 _jobId, address _address)\n        external\n        onlyCompanyAddress(_address)\n    {\n        delete jobs[_jobId];\n        jobId--;\n    }\n}\n",
  "sourcePath": "/home/sergio/Documentos/sergio/projects/drones/smartcontracts/contracts/Manager.sol",
  "compiler": {
    "name": "solc",
    "version": "0.8.14+commit.80d49f37.Emscripten.clang"
  },
  "schemaVersion": "3.4.7",
  "updatedAt": "2022-07-03T19:04:41.044Z",
  "devdoc": {
    "kind": "dev",
    "methods": {
      "owner()": {
        "details": "Returns the address of the current owner."
      },
      "renounceOwnership()": {
        "details": "Leaves the contract without owner. It will not be possible to call `onlyOwner` functions anymore. Can only be called by the current owner. NOTE: Renouncing ownership will leave the contract without an owner, thereby removing any functionality that is only available to the owner."
      },
      "transferOwnership(address)": {
        "details": "Transfers ownership of the contract to a new account (`newOwner`). Can only be called by the current owner."
      }
    },
    "version": 1
  },
  "userdoc": {
    "kind": "user",
    "methods": {},
    "version": 1
  }
}