{
  "contractName": "Manager",
  "abi": [
    {
      "inputs": [
        {
          "internalType": "address",
          "name": "_droneAddress",
          "type": "address"
        },
        {
          "internalType": "address",
          "name": "_plotAddress",
          "type": "address"
        }
      ],
      "stateMutability": "nonpayable",
      "type": "constructor"
    },
    {
      "anonymous": false,
      "inputs": [
        {
          "indexed": true,
          "internalType": "address",
          "name": "previousOwner",
          "type": "address"
        },
        {
          "indexed": true,
          "internalType": "address",
          "name": "newOwner",
          "type": "address"
        }
      ],
      "name": "OwnershipTransferred",
      "type": "event"
    },
    {
      "inputs": [
        {
          "internalType": "address",
          "name": "",
          "type": "address"
        }
      ],
      "name": "isCompany",
      "outputs": [
        {
          "internalType": "bool",
          "name": "",
          "type": "bool"
        }
      ],
      "stateMutability": "view",
      "type": "function",
      "constant": true
    },
    {
      "inputs": [
        {
          "internalType": "uint256",
          "name": "",
          "type": "uint256"
        }
      ],
      "name": "jobs",
      "outputs": [
        {
          "internalType": "uint256",
          "name": "id",
          "type": "uint256"
        },
        {
          "internalType": "uint256",
          "name": "droneId",
          "type": "uint256"
        },
        {
          "internalType": "uint256",
          "name": "plotId",
          "type": "uint256"
        },
        {
          "internalType": "bool",
          "name": "approved",
          "type": "bool"
        },
        {
          "internalType": "address",
          "name": "owner",
          "type": "address"
        }
      ],
      "stateMutability": "view",
      "type": "function",
      "constant": true
    },
    {
      "inputs": [],
      "name": "owner",
      "outputs": [
        {
          "internalType": "address",
          "name": "",
          "type": "address"
        }
      ],
      "stateMutability": "view",
      "type": "function",
      "constant": true
    },
    {
      "inputs": [],
      "name": "renounceOwnership",
      "outputs": [],
      "stateMutability": "nonpayable",
      "type": "function"
    },
    {
      "inputs": [
        {
          "internalType": "address",
          "name": "newOwner",
          "type": "address"
        }
      ],
      "name": "transferOwnership",
      "outputs": [],
      "stateMutability": "nonpayable",
      "type": "function"
    },
    {
      "inputs": [
        {
          "internalType": "address",
          "name": "_address",
          "type": "address"
        }
      ],
      "name": "setCompanyAddress",
      "outputs": [],
      "stateMutability": "nonpayable",
      "type": "function"
    },
    {
      "inputs": [
        {
          "internalType": "address",
          "name": "_address",
          "type": "address"
        }
      ],
      "name": "deleteCompanyAddress",
      "outputs": [],
      "stateMutability": "nonpayable",
      "type": "function"
    },
    {
      "inputs": [
        {
          "internalType": "address",
          "name": "_address",
          "type": "address"
        }
      ],
      "name": "setDroneContractAddress",
      "outputs": [],
      "stateMutability": "nonpayable",
      "type": "function"
    },
    {
      "inputs": [
        {
          "internalType": "address",
          "name": "_address",
          "type": "address"
        }
      ],
      "name": "setPlotContractAddress",
      "outputs": [],
      "stateMutability": "nonpayable",
      "type": "function"
    },
    {
      "inputs": [],
      "name": "getJobs",
      "outputs": [
        {
          "components": [
            {
              "internalType": "uint256",
              "name": "id",
              "type": "uint256"
            },
            {
              "internalType": "uint256",
              "name": "droneId",
              "type": "uint256"
            },
            {
              "internalType": "uint256",
              "name": "plotId",
              "type": "uint256"
            },
            {
              "internalType": "bool",
              "name": "approved",
              "type": "bool"
            },
            {
              "internalType": "address",
              "name": "owner",
              "type": "address"
            }
          ],
          "internalType": "struct JobModel.Job[]",
          "name": "",
          "type": "tuple[]"
        }
      ],
      "stateMutability": "view",
      "type": "function",
      "constant": true
    },
    {
      "inputs": [
        {
          "internalType": "uint256",
          "name": "_droneId",
          "type": "uint256"
        },
        {
          "internalType": "uint256",
          "name": "_plotId",
          "type": "uint256"
        }
      ],
      "name": "setPendingJob",
      "outputs": [],
      "stateMutability": "nonpayable",
      "type": "function"
    },
    {
      "inputs": [
        {
          "internalType": "uint256",
          "name": "_jobId",
          "type": "uint256"
        },
        {
          "internalType": "address",
          "name": "_address",
          "type": "address"
        }
      ],
      "name": "acceptJob",
      "outputs": [],
      "stateMutability": "nonpayable",
      "type": "function"
    },
    {
      "inputs": [
        {
          "internalType": "uint256",
          "name": "_jobId",
          "type": "uint256"
        },
        {
          "internalType": "address",
          "name": "_address",
          "type": "address"
        }
      ],
      "name": "declineJob",
      "outputs": [],
      "stateMutability": "nonpayable",
      "type": "function"
    }
  ],
  "bytecode": "0x60806040523480156200001157600080fd5b5060405162001bb438038062001bb483398181016040528101906200003791906200021f565b620000576200004b620000e960201b60201c565b620000f160201b60201c565b600060038190555081600160006101000a81548173ffffffffffffffffffffffffffffffffffffffff021916908373ffffffffffffffffffffffffffffffffffffffff16021790555080600260006101000a81548173ffffffffffffffffffffffffffffffffffffffff021916908373ffffffffffffffffffffffffffffffffffffffff160217905550505062000266565b600033905090565b60008060009054906101000a900473ffffffffffffffffffffffffffffffffffffffff169050816000806101000a81548173ffffffffffffffffffffffffffffffffffffffff021916908373ffffffffffffffffffffffffffffffffffffffff1602179055508173ffffffffffffffffffffffffffffffffffffffff168173ffffffffffffffffffffffffffffffffffffffff167f8be0079c531659141344cd1fd0a4f28419497f9722a3daafe3b4186f6b6457e060405160405180910390a35050565b600080fd5b600073ffffffffffffffffffffffffffffffffffffffff82169050919050565b6000620001e782620001ba565b9050919050565b620001f981620001da565b81146200020557600080fd5b50565b6000815190506200021981620001ee565b92915050565b60008060408385031215620002395762000238620001b5565b5b6000620002498582860162000208565b92505060206200025c8582860162000208565b9150509250929050565b61193e80620002766000396000f3fe608060405234801561001057600080fd5b50600436106100cf5760003560e01c8063783166d91161008c578063a492522611610066578063a4925226146101ee578063d7d867271461020a578063e6d6bca514610226578063f2fde38b14610242576100cf565b8063783166d9146101845780638da5cb5b146101a0578063a0406ce2146101be576100cf565b8063180aedf3146100d4578063394ad0da146101085780634f63a7721461012457806368581ebd14610140578063715018a61461015e5780637763f36e14610168575b600080fd5b6100ee60048036038101906100e99190610e11565b61025e565b6040516100ff959493929190610ea9565b60405180910390f35b610122600480360381019061011d9190610f28565b6102d1565b005b61013e60048036038101906101399190610f28565b610391565b005b6101486103ec565b6040516101559190611099565b60405180910390f35b6101666104da565b005b610182600480360381019061017d91906110bb565b610562565b005b61019e600480360381019061019991906110fb565b61068b565b005b6101a861094d565b6040516101b5919061113b565b60405180910390f35b6101d860048036038101906101d39190610f28565b610976565b6040516101e59190611156565b60405180910390f35b61020860048036038101906102039190610f28565b610996565b005b610224600480360381019061021f91906110bb565b610a6d565b005b610240600480360381019061023b9190610f28565b610b44565b005b61025c60048036038101906102579190610f28565b610c04565b005b6005818154811061026e57600080fd5b90600052602060002090600402016000915090508060000154908060010154908060020154908060030160009054906101000a900460ff16908060030160019054906101000a900473ffffffffffffffffffffffffffffffffffffffff16905085565b6102d9610cfb565b73ffffffffffffffffffffffffffffffffffffffff166102f761094d565b73ffffffffffffffffffffffffffffffffffffffff161461034d576040517f08c379a0000000000000000000000000000000000000000000000000000000008152600401610344906111ce565b60405180910390fd5b80600260006101000a81548173ffffffffffffffffffffffffffffffffffffffff021916908373ffffffffffffffffffffffffffffffffffffffff16021790555050565b6001600460008373ffffffffffffffffffffffffffffffffffffffff1673ffffffffffffffffffffffffffffffffffffffff16815260200190815260200160002060006101000a81548160ff02191690831515021790555050565b60606005805480602002602001604051908101604052809291908181526020016000905b828210156104d157838290600052602060002090600402016040518060a00160405290816000820154815260200160018201548152602001600282015481526020016003820160009054906101000a900460ff161515151581526020016003820160019054906101000a900473ffffffffffffffffffffffffffffffffffffffff1673ffffffffffffffffffffffffffffffffffffffff1673ffffffffffffffffffffffffffffffffffffffff168152505081526020019060010190610410565b50505050905090565b6104e2610cfb565b73ffffffffffffffffffffffffffffffffffffffff1661050061094d565b73ffffffffffffffffffffffffffffffffffffffff1614610556576040517f08c379a000000000000000000000000000000000000000000000000000000000815260040161054d906111ce565b60405180910390fd5b6105606000610d03565b565b8060011515600460008373ffffffffffffffffffffffffffffffffffffffff1673ffffffffffffffffffffffffffffffffffffffff16815260200190815260200160002060009054906101000a900460ff161515146105f6576040517f08c379a00000000000000000000000000000000000000000000000000000000081526004016105ed90611260565b60405180910390fd5b6005838154811061060a57610609611280565b5b9060005260206000209060040201600080820160009055600182016000905560028201600090556003820160006101000a81549060ff02191690556003820160016101000a81549073ffffffffffffffffffffffffffffffffffffffff0219169055505060036000815480929190610681906112de565b9190505550505050565b6000600260009054906101000a900473ffffffffffffffffffffffffffffffffffffffff1673ffffffffffffffffffffffffffffffffffffffff1663cfdd4fbd836040518263ffffffff1660e01b81526004016106e89190611307565b600060405180830381865afa158015610705573d6000803e3d6000fd5b505050506040513d6000823e3d601f19601f8201168201806040525081019061072e9190611598565b90506000600160009054906101000a900473ffffffffffffffffffffffffffffffffffffffff1673ffffffffffffffffffffffffffffffffffffffff1663dbd1be77856040518263ffffffff1660e01b815260040161078d9190611307565b600060405180830381865afa1580156107aa573d6000803e3d6000fd5b505050506040513d6000823e3d601f19601f820116820180604052508101906107d391906117e5565b90508160a0015173ffffffffffffffffffffffffffffffffffffffff163373ffffffffffffffffffffffffffffffffffffffff161461081157600080fd5b80606001518260600151101561082657600080fd5b80608001518260800151111561083b57600080fd5b60056040518060a0016040528060035481526020018681526020018581526020016000151581526020013373ffffffffffffffffffffffffffffffffffffffff16815250908060018154018082558091505060019003906000526020600020906004020160009091909190915060008201518160000155602082015181600101556040820151816002015560608201518160030160006101000a81548160ff02191690831515021790555060808201518160030160016101000a81548173ffffffffffffffffffffffffffffffffffffffff021916908373ffffffffffffffffffffffffffffffffffffffff1602179055505050600360008154809291906109429061182e565b919050555050505050565b60008060009054906101000a900473ffffffffffffffffffffffffffffffffffffffff16905090565b60046020528060005260406000206000915054906101000a900460ff1681565b61099e610cfb565b73ffffffffffffffffffffffffffffffffffffffff166109bc61094d565b73ffffffffffffffffffffffffffffffffffffffff1614610a12576040517f08c379a0000000000000000000000000000000000000000000000000000000008152600401610a09906111ce565b60405180910390fd5b6000600460008373ffffffffffffffffffffffffffffffffffffffff1673ffffffffffffffffffffffffffffffffffffffff16815260200190815260200160002060006101000a81548160ff02191690831515021790555050565b8060011515600460008373ffffffffffffffffffffffffffffffffffffffff1673ffffffffffffffffffffffffffffffffffffffff16815260200190815260200160002060009054906101000a900460ff16151514610b01576040517f08c379a0000000000000000000000000000000000000000000000000000000008152600401610af890611260565b60405180910390fd5b600160058481548110610b1757610b16611280565b5b906000526020600020906004020160030160006101000a81548160ff021916908315150217905550505050565b610b4c610cfb565b73ffffffffffffffffffffffffffffffffffffffff16610b6a61094d565b73ffffffffffffffffffffffffffffffffffffffff1614610bc0576040517f08c379a0000000000000000000000000000000000000000000000000000000008152600401610bb7906111ce565b60405180910390fd5b80600160006101000a81548173ffffffffffffffffffffffffffffffffffffffff021916908373ffffffffffffffffffffffffffffffffffffffff16021790555050565b610c0c610cfb565b73ffffffffffffffffffffffffffffffffffffffff16610c2a61094d565b73ffffffffffffffffffffffffffffffffffffffff1614610c80576040517f08c379a0000000000000000000000000000000000000000000000000000000008152600401610c77906111ce565b60405180910390fd5b600073ffffffffffffffffffffffffffffffffffffffff168173ffffffffffffffffffffffffffffffffffffffff1603610cef576040517f08c379a0000000000000000000000000000000000000000000000000000000008152600401610ce6906118e8565b60405180910390fd5b610cf881610d03565b50565b600033905090565b60008060009054906101000a900473ffffffffffffffffffffffffffffffffffffffff169050816000806101000a81548173ffffffffffffffffffffffffffffffffffffffff021916908373ffffffffffffffffffffffffffffffffffffffff1602179055508173ffffffffffffffffffffffffffffffffffffffff168173ffffffffffffffffffffffffffffffffffffffff167f8be0079c531659141344cd1fd0a4f28419497f9722a3daafe3b4186f6b6457e060405160405180910390a35050565b6000604051905090565b600080fd5b600080fd5b6000819050919050565b610dee81610ddb565b8114610df957600080fd5b50565b600081359050610e0b81610de5565b92915050565b600060208284031215610e2757610e26610dd1565b5b6000610e3584828501610dfc565b91505092915050565b610e4781610ddb565b82525050565b60008115159050919050565b610e6281610e4d565b82525050565b600073ffffffffffffffffffffffffffffffffffffffff82169050919050565b6000610e9382610e68565b9050919050565b610ea381610e88565b82525050565b600060a082019050610ebe6000830188610e3e565b610ecb6020830187610e3e565b610ed86040830186610e3e565b610ee56060830185610e59565b610ef26080830184610e9a565b9695505050505050565b610f0581610e88565b8114610f1057600080fd5b50565b600081359050610f2281610efc565b92915050565b600060208284031215610f3e57610f3d610dd1565b5b6000610f4c84828501610f13565b91505092915050565b600081519050919050565b600082825260208201905092915050565b6000819050602082019050919050565b610f8a81610ddb565b82525050565b610f9981610e4d565b82525050565b610fa881610e88565b82525050565b60a082016000820151610fc46000850182610f81565b506020820151610fd76020850182610f81565b506040820151610fea6040850182610f81565b506060820151610ffd6060850182610f90565b5060808201516110106080850182610f9f565b50505050565b60006110228383610fae565b60a08301905092915050565b6000602082019050919050565b600061104682610f55565b6110508185610f60565b935061105b83610f71565b8060005b8381101561108c5781516110738882611016565b975061107e8361102e565b92505060018101905061105f565b5085935050505092915050565b600060208201905081810360008301526110b3818461103b565b905092915050565b600080604083850312156110d2576110d1610dd1565b5b60006110e085828601610dfc565b92505060206110f185828601610f13565b9150509250929050565b6000806040838503121561111257611111610dd1565b5b600061112085828601610dfc565b925050602061113185828601610dfc565b9150509250929050565b60006020820190506111506000830184610e9a565b92915050565b600060208201905061116b6000830184610e59565b92915050565b600082825260208201905092915050565b7f4f776e61626c653a2063616c6c6572206973206e6f7420746865206f776e6572600082015250565b60006111b8602083611171565b91506111c382611182565b602082019050919050565b600060208201905081810360008301526111e7816111ab565b9050919050565b7f4e6f207469656e6573207065726d69736f732070617261207265616c697a617260008201527f206573746120616363696f6e0000000000000000000000000000000000000000602082015250565b600061124a602c83611171565b9150611255826111ee565b604082019050919050565b600060208201905081810360008301526112798161123d565b9050919050565b7f4e487b7100000000000000000000000000000000000000000000000000000000600052603260045260246000fd5b7f4e487b7100000000000000000000000000000000000000000000000000000000600052601160045260246000fd5b60006112e982610ddb565b9150600082036112fc576112fb6112af565b5b600182039050919050565b600060208201905061131c6000830184610e3e565b92915050565b600080fd5b6000601f19601f8301169050919050565b7f4e487b7100000000000000000000000000000000000000000000000000000000600052604160045260246000fd5b61137082611327565b810181811067ffffffffffffffff8211171561138f5761138e611338565b5b80604052505050565b60006113a2610dc7565b90506113ae8282611367565b919050565b600080fd5b6000815190506113c781610de5565b92915050565b600080fd5b600080fd5b600067ffffffffffffffff8211156113f2576113f1611338565b5b6113fb82611327565b9050602081019050919050565b60005b8381101561142657808201518184015260208101905061140b565b83811115611435576000848401525b50505050565b600061144e611449846113d7565b611398565b90508281526020810184848401111561146a576114696113d2565b5b611475848285611408565b509392505050565b600082601f830112611492576114916113cd565b5b81516114a284826020860161143b565b91505092915050565b6000815190506114ba81610efc565b92915050565b600060c082840312156114d6576114d5611322565b5b6114e060c0611398565b905060006114f0848285016113b8565b600083015250602082015167ffffffffffffffff811115611514576115136113b3565b5b6115208482850161147d565b602083015250604082015167ffffffffffffffff811115611544576115436113b3565b5b6115508482850161147d565b6040830152506060611564848285016113b8565b6060830152506080611578848285016113b8565b60808301525060a061158c848285016114ab565b60a08301525092915050565b6000602082840312156115ae576115ad610dd1565b5b600082015167ffffffffffffffff8111156115cc576115cb610dd6565b5b6115d8848285016114c0565b91505092915050565b600067ffffffffffffffff8211156115fc576115fb611338565b5b602082029050602081019050919050565b600080fd5b6000611625611620846115e1565b611398565b905080838252602082019050602084028301858111156116485761164761160d565b5b835b8181101561168f57805167ffffffffffffffff81111561166d5761166c6113cd565b5b80860161167a898261147d565b8552602085019450505060208101905061164a565b5050509392505050565b600082601f8301126116ae576116ad6113cd565b5b81516116be848260208601611612565b91505092915050565b600061010082840312156116de576116dd611322565b5b6116e9610100611398565b905060006116f9848285016113b8565b600083015250602082015167ffffffffffffffff81111561171d5761171c6113b3565b5b6117298482850161147d565b602083015250604082015167ffffffffffffffff81111561174d5761174c6113b3565b5b6117598482850161147d565b604083015250606061176d848285016113b8565b6060830152506080611781848285016113b8565b60808301525060a082015167ffffffffffffffff8111156117a5576117a46113b3565b5b6117b184828501611699565b60a08301525060c06117c5848285016113b8565b60c08301525060e06117d9848285016114ab565b60e08301525092915050565b6000602082840312156117fb576117fa610dd1565b5b600082015167ffffffffffffffff81111561181957611818610dd6565b5b611825848285016116c7565b91505092915050565b600061183982610ddb565b91507fffffffffffffffffffffffffffffffffffffffffffffffffffffffffffffffff820361186b5761186a6112af565b5b600182019050919050565b7f4f776e61626c653a206e6577206f776e657220697320746865207a65726f206160008201527f6464726573730000000000000000000000000000000000000000000000000000602082015250565b60006118d2602683611171565b91506118dd82611876565b604082019050919050565b60006020820190508181036000830152611901816118c5565b905091905056fea2646970667358221220dfe143c0c34dffed96af411499f487bab24efa4dcf6ba65f5f00ccaf2581d8d764736f6c634300080e0033",
  "immutableReferences": {},
  "source": "// SPDX-License-Identifier: UNLICENCED\npragma solidity >=0.4.22 <0.9.0;\n\nimport \"./models/JobModel.sol\";\nimport \"./models/DroneModel.sol\";\nimport \"./models/PlotModel.sol\";\nimport \"@openzeppelin/contracts/access/Ownable.sol\";\n\ninterface DroneInterface is DroneModel {\n    function getDrone(uint256 _index) external view returns (Drone memory);\n}\n\ninterface PlotInterface is PlotModel {\n    function getPlot(uint256 _index) external view returns (Plot memory);\n}\n\ncontract Manager is JobModel, PlotModel, DroneModel, Ownable {\n    DroneInterface droneContract;\n    PlotInterface plotContract;\n    uint256 private jobId;\n\n    mapping(address => bool) public isCompany;\n\n    constructor(address _droneAddress, address _plotAddress) {\n        jobId = 0;\n        droneContract = DroneInterface(address(_droneAddress));\n        plotContract = PlotInterface(address(_plotAddress));\n    }\n\n    Job[] public jobs;\n\n    modifier onlyCompanyAddress(address _address) {\n        require(\n            isCompany[_address] == true,\n            \"No tienes permisos para realizar esta accion\"\n        );\n        _;\n    }\n\n    function setCompanyAddress(address _address) external {\n        // Tendra que ser onlyOwner pero se quita para evitar problemas\n        // y que cualquier cuenta pueda probar las funciones de admin\n        isCompany[_address] = true;\n    }\n\n    function deleteCompanyAddress(address _address) external onlyOwner {\n        isCompany[_address] = false;\n    }\n\n    function setDroneContractAddress(address _address) external onlyOwner {\n        droneContract = DroneInterface(_address);\n    }\n\n    function setPlotContractAddress(address _address) external onlyOwner {\n        plotContract = PlotInterface(_address);\n    }\n\n    function getJobs() external view returns (Job[] memory) {\n        return jobs;\n    }\n\n    function setPendingJob(uint256 _droneId, uint256 _plotId) public {\n        Plot memory currentPlot = plotContract.getPlot(_plotId);\n        Drone memory currentDrone = droneContract.getDrone(_droneId);\n        require(msg.sender == currentPlot.owner);\n        require(\n            currentPlot.allowedMaxFlightAltitude >=\n                currentDrone.maxFlightAltitude\n        );\n        require(\n            currentPlot.allowedMinFlightAltitude <=\n                currentDrone.minFlightAltitude\n        );\n\n        jobs.push(Job(jobId, _droneId, _plotId, false, msg.sender));\n        jobId++;\n    }\n\n    function acceptJob(uint256 _jobId, address _address)\n        external\n        onlyCompanyAddress(_address)\n    {\n        jobs[_jobId].approved = true;\n    }\n\n    function declineJob(uint256 _jobId, address _address)\n        external\n        onlyCompanyAddress(_address)\n    {\n        delete jobs[_jobId];\n        jobId--;\n    }\n}\n",
  "sourcePath": "/home/sergio/Documentos/sergio/projects/drones/smartcontracts/contracts/Manager.sol",
  "compiler": {
    "name": "solc",
    "version": "0.8.14+commit.80d49f37.Emscripten.clang"
  },
  "schemaVersion": "3.4.7",
  "updatedAt": "2022-07-04T18:35:19.660Z",
  "networkType": "ethereum",
  "devdoc": {
    "kind": "dev",
    "methods": {
      "owner()": {
        "details": "Returns the address of the current owner."
      },
      "renounceOwnership()": {
        "details": "Leaves the contract without owner. It will not be possible to call `onlyOwner` functions anymore. Can only be called by the current owner. NOTE: Renouncing ownership will leave the contract without an owner, thereby removing any functionality that is only available to the owner."
      },
      "transferOwnership(address)": {
        "details": "Transfers ownership of the contract to a new account (`newOwner`). Can only be called by the current owner."
      }
    },
    "version": 1
  },
  "userdoc": {
    "kind": "user",
    "methods": {},
    "version": 1
  }
}