{
  "contractName": "Plot",
  "abi": [
    {
      "anonymous": false,
      "inputs": [
        {
          "indexed": true,
          "internalType": "address",
          "name": "owner",
          "type": "address"
        },
        {
          "indexed": true,
          "internalType": "address",
          "name": "approved",
          "type": "address"
        },
        {
          "indexed": true,
          "internalType": "uint256",
          "name": "tokenId",
          "type": "uint256"
        }
      ],
      "name": "Approval",
      "type": "event"
    },
    {
      "anonymous": false,
      "inputs": [
        {
          "indexed": true,
          "internalType": "address",
          "name": "owner",
          "type": "address"
        },
        {
          "indexed": true,
          "internalType": "address",
          "name": "operator",
          "type": "address"
        },
        {
          "indexed": false,
          "internalType": "bool",
          "name": "approved",
          "type": "bool"
        }
      ],
      "name": "ApprovalForAll",
      "type": "event"
    },
    {
      "anonymous": false,
      "inputs": [
        {
          "indexed": false,
          "internalType": "uint256",
          "name": "id",
          "type": "uint256"
        }
      ],
      "name": "NewPlotCreated",
      "type": "event"
    },
    {
      "anonymous": false,
      "inputs": [
        {
          "indexed": true,
          "internalType": "address",
          "name": "from",
          "type": "address"
        },
        {
          "indexed": true,
          "internalType": "address",
          "name": "to",
          "type": "address"
        },
        {
          "indexed": true,
          "internalType": "uint256",
          "name": "tokenId",
          "type": "uint256"
        }
      ],
      "name": "Transfer",
      "type": "event"
    },
    {
      "inputs": [
        {
          "internalType": "address",
          "name": "to",
          "type": "address"
        },
        {
          "internalType": "uint256",
          "name": "tokenId",
          "type": "uint256"
        }
      ],
      "name": "approve",
      "outputs": [],
      "stateMutability": "nonpayable",
      "type": "function"
    },
    {
      "inputs": [
        {
          "internalType": "address",
          "name": "owner",
          "type": "address"
        }
      ],
      "name": "balanceOf",
      "outputs": [
        {
          "internalType": "uint256",
          "name": "",
          "type": "uint256"
        }
      ],
      "stateMutability": "view",
      "type": "function"
    },
    {
      "inputs": [
        {
          "internalType": "uint256",
          "name": "tokenId",
          "type": "uint256"
        }
      ],
      "name": "getApproved",
      "outputs": [
        {
          "internalType": "address",
          "name": "",
          "type": "address"
        }
      ],
      "stateMutability": "view",
      "type": "function"
    },
    {
      "inputs": [
        {
          "internalType": "address",
          "name": "owner",
          "type": "address"
        },
        {
          "internalType": "address",
          "name": "operator",
          "type": "address"
        }
      ],
      "name": "isApprovedForAll",
      "outputs": [
        {
          "internalType": "bool",
          "name": "",
          "type": "bool"
        }
      ],
      "stateMutability": "view",
      "type": "function"
    },
    {
      "inputs": [
        {
          "internalType": "string",
          "name": "_ownerName",
          "type": "string"
        },
        {
          "internalType": "uint256",
          "name": "_allowedMaxFlightAltitude",
          "type": "uint256"
        },
        {
          "internalType": "uint256",
          "name": "_allowedMinFlightAltitude",
          "type": "uint256"
        },
        {
          "internalType": "string",
          "name": "_pesticide",
          "type": "string"
        }
      ],
      "name": "mintNewPlot",
      "outputs": [],
      "stateMutability": "nonpayable",
      "type": "function"
    },
    {
      "inputs": [],
      "name": "name",
      "outputs": [
        {
          "internalType": "string",
          "name": "",
          "type": "string"
        }
      ],
      "stateMutability": "view",
      "type": "function"
    },
    {
      "inputs": [
        {
          "internalType": "uint256",
          "name": "tokenId",
          "type": "uint256"
        }
      ],
      "name": "ownerOf",
      "outputs": [
        {
          "internalType": "address",
          "name": "",
          "type": "address"
        }
      ],
      "stateMutability": "view",
      "type": "function"
    },
    {
      "inputs": [
        {
          "internalType": "uint256",
          "name": "",
          "type": "uint256"
        }
      ],
      "name": "plots",
      "outputs": [
        {
          "internalType": "uint256",
          "name": "id",
          "type": "uint256"
        },
        {
          "internalType": "string",
          "name": "ownerName",
          "type": "string"
        },
        {
          "internalType": "string",
          "name": "acceptedPesticide",
          "type": "string"
        },
        {
          "internalType": "uint256",
          "name": "allowedMaxFlightAltitude",
          "type": "uint256"
        },
        {
          "internalType": "uint256",
          "name": "allowedMinFlightAltitude",
          "type": "uint256"
        },
        {
          "internalType": "address",
          "name": "owner",
          "type": "address"
        }
      ],
      "stateMutability": "view",
      "type": "function"
    },
    {
      "inputs": [
        {
          "internalType": "address",
          "name": "from",
          "type": "address"
        },
        {
          "internalType": "address",
          "name": "to",
          "type": "address"
        },
        {
          "internalType": "uint256",
          "name": "tokenId",
          "type": "uint256"
        }
      ],
      "name": "safeTransferFrom",
      "outputs": [],
      "stateMutability": "nonpayable",
      "type": "function"
    },
    {
      "inputs": [
        {
          "internalType": "address",
          "name": "from",
          "type": "address"
        },
        {
          "internalType": "address",
          "name": "to",
          "type": "address"
        },
        {
          "internalType": "uint256",
          "name": "tokenId",
          "type": "uint256"
        },
        {
          "internalType": "bytes",
          "name": "_data",
          "type": "bytes"
        }
      ],
      "name": "safeTransferFrom",
      "outputs": [],
      "stateMutability": "nonpayable",
      "type": "function"
    },
    {
      "inputs": [
        {
          "internalType": "address",
          "name": "operator",
          "type": "address"
        },
        {
          "internalType": "bool",
          "name": "approved",
          "type": "bool"
        }
      ],
      "name": "setApprovalForAll",
      "outputs": [],
      "stateMutability": "nonpayable",
      "type": "function"
    },
    {
      "inputs": [
        {
          "internalType": "bytes4",
          "name": "interfaceId",
          "type": "bytes4"
        }
      ],
      "name": "supportsInterface",
      "outputs": [
        {
          "internalType": "bool",
          "name": "",
          "type": "bool"
        }
      ],
      "stateMutability": "view",
      "type": "function"
    },
    {
      "inputs": [],
      "name": "symbol",
      "outputs": [
        {
          "internalType": "string",
          "name": "",
          "type": "string"
        }
      ],
      "stateMutability": "view",
      "type": "function"
    },
    {
      "inputs": [
        {
          "internalType": "uint256",
          "name": "tokenId",
          "type": "uint256"
        }
      ],
      "name": "tokenURI",
      "outputs": [
        {
          "internalType": "string",
          "name": "",
          "type": "string"
        }
      ],
      "stateMutability": "view",
      "type": "function"
    },
    {
      "inputs": [
        {
          "internalType": "address",
          "name": "from",
          "type": "address"
        },
        {
          "internalType": "address",
          "name": "to",
          "type": "address"
        },
        {
          "internalType": "uint256",
          "name": "tokenId",
          "type": "uint256"
        }
      ],
      "name": "transferFrom",
      "outputs": [],
      "stateMutability": "nonpayable",
      "type": "function"
    },
    {
      "inputs": [
        {
          "internalType": "address",
          "name": "_owner",
          "type": "address"
        }
      ],
      "name": "getPlotsByOwner",
      "outputs": [
        {
          "internalType": "uint256[]",
          "name": "",
          "type": "uint256[]"
        }
      ],
      "stateMutability": "view",
      "type": "function"
    },
    {
      "inputs": [],
      "name": "getPlots",
      "outputs": [
        {
          "components": [
            {
              "internalType": "uint256",
              "name": "id",
              "type": "uint256"
            },
            {
              "internalType": "string",
              "name": "ownerName",
              "type": "string"
            },
            {
              "internalType": "string",
              "name": "acceptedPesticide",
              "type": "string"
            },
            {
              "internalType": "uint256",
              "name": "allowedMaxFlightAltitude",
              "type": "uint256"
            },
            {
              "internalType": "uint256",
              "name": "allowedMinFlightAltitude",
              "type": "uint256"
            },
            {
              "internalType": "address",
              "name": "owner",
              "type": "address"
            }
          ],
          "internalType": "struct PlotModel.Plot[]",
          "name": "",
          "type": "tuple[]"
        }
      ],
      "stateMutability": "view",
      "type": "function"
    },
    {
      "inputs": [
        {
          "internalType": "uint256",
          "name": "_index",
          "type": "uint256"
        }
      ],
      "name": "getPlot",
      "outputs": [
        {
          "components": [
            {
              "internalType": "uint256",
              "name": "id",
              "type": "uint256"
            },
            {
              "internalType": "string",
              "name": "ownerName",
              "type": "string"
            },
            {
              "internalType": "string",
              "name": "acceptedPesticide",
              "type": "string"
            },
            {
              "internalType": "uint256",
              "name": "allowedMaxFlightAltitude",
              "type": "uint256"
            },
            {
              "internalType": "uint256",
              "name": "allowedMinFlightAltitude",
              "type": "uint256"
            },
            {
              "internalType": "address",
              "name": "owner",
              "type": "address"
            }
          ],
          "internalType": "struct PlotModel.Plot",
          "name": "",
          "type": "tuple"
        }
      ],
      "stateMutability": "view",
      "type": "function"
    }
  ],
  "bytecode": "0x60806040523480156200001157600080fd5b506040518060400160405280600481526020017f504c4f54000000000000000000000000000000000000000000000000000000008152506040518060400160405280600381526020017f504c540000000000000000000000000000000000000000000000000000000000815250816000908051906020019062000096929190620000b8565b508060019080519060200190620000af929190620000b8565b505050620001cc565b828054620000c69062000197565b90600052602060002090601f016020900481019282620000ea576000855562000136565b82601f106200010557805160ff191683800117855562000136565b8280016001018555821562000136579182015b828111156200013557825182559160200191906001019062000118565b5b50905062000145919062000149565b5090565b5b80821115620001645760008160009055506001016200014a565b5090565b7f4e487b7100000000000000000000000000000000000000000000000000000000600052602260045260246000fd5b60006002820490506001821680620001b057607f821691505b602082108103620001c657620001c562000168565b5b50919050565b6135fe80620001dc6000396000f3fe608060405234801561001057600080fd5b50600436106101165760003560e01c806395d89b41116100a2578063c87b56dd11610071578063c87b56dd146102f4578063cfdd4fbd14610324578063e985e9c514610354578063ed9bfe9414610384578063f9cf80a9146103b457610116565b806395d89b4114610282578063a22cb465146102a0578063a63f08a7146102bc578063b88d4fde146102d857610116565b806323b872dd116100e957806323b872dd146101b557806342842e0e146101d157806361bf49ee146101ed5780636352211e1461022257806370a082311461025257610116565b806301ffc9a71461011b57806306fdde031461014b578063081812fc14610169578063095ea7b314610199575b600080fd5b61013560048036038101906101309190612075565b6103d2565b60405161014291906120bd565b60405180910390f35b6101536104b4565b6040516101609190612171565b60405180910390f35b610183600480360381019061017e91906121c9565b610546565b6040516101909190612237565b60405180910390f35b6101b360048036038101906101ae919061227e565b6105cb565b005b6101cf60048036038101906101ca91906122be565b6106e2565b005b6101eb60048036038101906101e691906122be565b610742565b005b610207600480360381019061020291906121c9565b610762565b60405161021996959493929190612320565b60405180910390f35b61023c600480360381019061023791906121c9565b6108de565b6040516102499190612237565b60405180910390f35b61026c6004803603810190610267919061238f565b61098f565b60405161027991906123bc565b60405180910390f35b61028a610a46565b6040516102979190612171565b60405180910390f35b6102ba60048036038101906102b59190612403565b610ad8565b005b6102d660048036038101906102d19190612578565b610aee565b005b6102f260048036038101906102ed91906126b8565b610c1b565b005b61030e600480360381019061030991906121c9565b610c7d565b60405161031b9190612171565b60405180910390f35b61033e600480360381019061033991906121c9565b610d24565b60405161034b9190612833565b60405180910390f35b61036e60048036038101906103699190612855565b610ef8565b60405161037b91906120bd565b60405180910390f35b61039e6004803603810190610399919061238f565b610f8c565b6040516103ab9190612944565b60405180910390f35b6103bc611082565b6040516103c99190612ab8565b60405180910390f35b60007f80ac58cd000000000000000000000000000000000000000000000000000000007bffffffffffffffffffffffffffffffffffffffffffffffffffffffff1916827bffffffffffffffffffffffffffffffffffffffffffffffffffffffff1916148061049d57507f5b5e139f000000000000000000000000000000000000000000000000000000007bffffffffffffffffffffffffffffffffffffffffffffffffffffffff1916827bffffffffffffffffffffffffffffffffffffffffffffffffffffffff1916145b806104ad57506104ac82611279565b5b9050919050565b6060600080546104c390612b09565b80601f01602080910402602001604051908101604052809291908181526020018280546104ef90612b09565b801561053c5780601f106105115761010080835404028352916020019161053c565b820191906000526020600020905b81548152906001019060200180831161051f57829003601f168201915b5050505050905090565b6000610551826112e3565b610590576040517f08c379a000000000000000000000000000000000000000000000000000000000815260040161058790612bac565b60405180910390fd5b6004600083815260200190815260200160002060009054906101000a900473ffffffffffffffffffffffffffffffffffffffff169050919050565b60006105d6826108de565b90508073ffffffffffffffffffffffffffffffffffffffff168373ffffffffffffffffffffffffffffffffffffffff1603610646576040517f08c379a000000000000000000000000000000000000000000000000000000000815260040161063d90612c3e565b60405180910390fd5b8073ffffffffffffffffffffffffffffffffffffffff1661066561134f565b73ffffffffffffffffffffffffffffffffffffffff16148061069457506106938161068e61134f565b610ef8565b5b6106d3576040517f08c379a00000000000000000000000000000000000000000000000000000000081526004016106ca90612cd0565b60405180910390fd5b6106dd8383611357565b505050565b6106f36106ed61134f565b82611410565b610732576040517f08c379a000000000000000000000000000000000000000000000000000000000815260040161072990612d62565b60405180910390fd5b61073d8383836114ee565b505050565b61075d83838360405180602001604052806000815250610c1b565b505050565b6007818154811061077257600080fd5b906000526020600020906006020160009150905080600001549080600101805461079b90612b09565b80601f01602080910402602001604051908101604052809291908181526020018280546107c790612b09565b80156108145780601f106107e957610100808354040283529160200191610814565b820191906000526020600020905b8154815290600101906020018083116107f757829003601f168201915b50505050509080600201805461082990612b09565b80601f016020809104026020016040519081016040528092919081815260200182805461085590612b09565b80156108a25780601f10610877576101008083540402835291602001916108a2565b820191906000526020600020905b81548152906001019060200180831161088557829003601f168201915b5050505050908060030154908060040154908060050160009054906101000a900473ffffffffffffffffffffffffffffffffffffffff16905086565b6000806002600084815260200190815260200160002060009054906101000a900473ffffffffffffffffffffffffffffffffffffffff169050600073ffffffffffffffffffffffffffffffffffffffff168173ffffffffffffffffffffffffffffffffffffffff1603610986576040517f08c379a000000000000000000000000000000000000000000000000000000000815260040161097d90612df4565b60405180910390fd5b80915050919050565b60008073ffffffffffffffffffffffffffffffffffffffff168273ffffffffffffffffffffffffffffffffffffffff16036109ff576040517f08c379a00000000000000000000000000000000000000000000000000000000081526004016109f690612e86565b60405180910390fd5b600360008373ffffffffffffffffffffffffffffffffffffffff1673ffffffffffffffffffffffffffffffffffffffff168152602001908152602001600020549050919050565b606060018054610a5590612b09565b80601f0160208091040260200160405190810160405280929190818152602001828054610a8190612b09565b8015610ace5780601f10610aa357610100808354040283529160200191610ace565b820191906000526020600020905b815481529060010190602001808311610ab157829003601f168201915b5050505050905090565b610aea610ae361134f565b8383611754565b5050565b600033905060076040518060c00160405280610b0a60066118c0565b81526020018781526020018481526020018681526020018581526020018373ffffffffffffffffffffffffffffffffffffffff168152509080600181540180825580915050600190039060005260206000209060060201600090919091909150600082015181600001556020820151816001019080519060200190610b90929190611f1a565b506040820151816002019080519060200190610bad929190611f1a565b50606082015181600301556080820151816004015560a08201518160050160006101000a81548173ffffffffffffffffffffffffffffffffffffffff021916908373ffffffffffffffffffffffffffffffffffffffff1602179055505050610c14816118ce565b5050505050565b610c2c610c2661134f565b83611410565b610c6b576040517f08c379a0000000000000000000000000000000000000000000000000000000008152600401610c6290612d62565b60405180910390fd5b610c778484848461192b565b50505050565b6060610c88826112e3565b610cc7576040517f08c379a0000000000000000000000000000000000000000000000000000000008152600401610cbe90612f18565b60405180910390fd5b6000610cd1611987565b90506000815111610cf15760405180602001604052806000815250610d1c565b80610cfb8461199e565b604051602001610d0c929190612f74565b6040516020818303038152906040525b915050919050565b610d2c611fa0565b60078281548110610d4057610d3f612f98565b5b90600052602060002090600602016040518060c001604052908160008201548152602001600182018054610d7390612b09565b80601f0160208091040260200160405190810160405280929190818152602001828054610d9f90612b09565b8015610dec5780601f10610dc157610100808354040283529160200191610dec565b820191906000526020600020905b815481529060010190602001808311610dcf57829003601f168201915b50505050508152602001600282018054610e0590612b09565b80601f0160208091040260200160405190810160405280929190818152602001828054610e3190612b09565b8015610e7e5780601f10610e5357610100808354040283529160200191610e7e565b820191906000526020600020905b815481529060010190602001808311610e6157829003601f168201915b5050505050815260200160038201548152602001600482015481526020016005820160009054906101000a900473ffffffffffffffffffffffffffffffffffffffff1673ffffffffffffffffffffffffffffffffffffffff1673ffffffffffffffffffffffffffffffffffffffff16815250509050919050565b6000600560008473ffffffffffffffffffffffffffffffffffffffff1673ffffffffffffffffffffffffffffffffffffffff16815260200190815260200160002060008373ffffffffffffffffffffffffffffffffffffffff1673ffffffffffffffffffffffffffffffffffffffff16815260200190815260200160002060009054906101000a900460ff16905092915050565b60606000610f998361098f565b905060008167ffffffffffffffff811115610fb757610fb661244d565b5b604051908082528060200260200182016040528015610fe55781602001602082028036833780820191505090505b5090506000805b600780549050811015611076578573ffffffffffffffffffffffffffffffffffffffff16611019826108de565b73ffffffffffffffffffffffffffffffffffffffff1603611063578083838151811061104857611047612f98565b5b602002602001018181525050818061105f90612ff6565b9250505b808061106e90612ff6565b915050610fec565b50819350505050919050565b60606007805480602002602001604051908101604052809291908181526020016000905b8282101561127057838290600052602060002090600602016040518060c0016040529081600082015481526020016001820180546110e390612b09565b80601f016020809104026020016040519081016040528092919081815260200182805461110f90612b09565b801561115c5780601f106111315761010080835404028352916020019161115c565b820191906000526020600020905b81548152906001019060200180831161113f57829003601f168201915b5050505050815260200160028201805461117590612b09565b80601f01602080910402602001604051908101604052809291908181526020018280546111a190612b09565b80156111ee5780601f106111c3576101008083540402835291602001916111ee565b820191906000526020600020905b8154815290600101906020018083116111d157829003601f168201915b5050505050815260200160038201548152602001600482015481526020016005820160009054906101000a900473ffffffffffffffffffffffffffffffffffffffff1673ffffffffffffffffffffffffffffffffffffffff1673ffffffffffffffffffffffffffffffffffffffff1681525050815260200190600101906110a6565b50505050905090565b60007f01ffc9a7000000000000000000000000000000000000000000000000000000007bffffffffffffffffffffffffffffffffffffffffffffffffffffffff1916827bffffffffffffffffffffffffffffffffffffffffffffffffffffffff1916149050919050565b60008073ffffffffffffffffffffffffffffffffffffffff166002600084815260200190815260200160002060009054906101000a900473ffffffffffffffffffffffffffffffffffffffff1673ffffffffffffffffffffffffffffffffffffffff1614159050919050565b600033905090565b816004600083815260200190815260200160002060006101000a81548173ffffffffffffffffffffffffffffffffffffffff021916908373ffffffffffffffffffffffffffffffffffffffff160217905550808273ffffffffffffffffffffffffffffffffffffffff166113ca836108de565b73ffffffffffffffffffffffffffffffffffffffff167f8c5be1e5ebec7d5bd14f71427d1e84f3dd0314c0f7b2291e5b200ac8c7c3b92560405160405180910390a45050565b600061141b826112e3565b61145a576040517f08c379a0000000000000000000000000000000000000000000000000000000008152600401611451906130b0565b60405180910390fd5b6000611465836108de565b90508073ffffffffffffffffffffffffffffffffffffffff168473ffffffffffffffffffffffffffffffffffffffff1614806114a757506114a68185610ef8565b5b806114e557508373ffffffffffffffffffffffffffffffffffffffff166114cd84610546565b73ffffffffffffffffffffffffffffffffffffffff16145b91505092915050565b8273ffffffffffffffffffffffffffffffffffffffff1661150e826108de565b73ffffffffffffffffffffffffffffffffffffffff1614611564576040517f08c379a000000000000000000000000000000000000000000000000000000000815260040161155b90613142565b60405180910390fd5b600073ffffffffffffffffffffffffffffffffffffffff168273ffffffffffffffffffffffffffffffffffffffff16036115d3576040517f08c379a00000000000000000000000000000000000000000000000000000000081526004016115ca906131d4565b60405180910390fd5b6115de838383611afe565b6115e9600082611357565b6001600360008573ffffffffffffffffffffffffffffffffffffffff1673ffffffffffffffffffffffffffffffffffffffff168152602001908152602001600020600082825461163991906131f4565b925050819055506001600360008473ffffffffffffffffffffffffffffffffffffffff1673ffffffffffffffffffffffffffffffffffffffff16815260200190815260200160002060008282546116909190613228565b92505081905550816002600083815260200190815260200160002060006101000a81548173ffffffffffffffffffffffffffffffffffffffff021916908373ffffffffffffffffffffffffffffffffffffffff160217905550808273ffffffffffffffffffffffffffffffffffffffff168473ffffffffffffffffffffffffffffffffffffffff167fddf252ad1be2c89b69c2b068fc378daa952ba7f163c4a11628f55a4df523b3ef60405160405180910390a461174f838383611b03565b505050565b8173ffffffffffffffffffffffffffffffffffffffff168373ffffffffffffffffffffffffffffffffffffffff16036117c2576040517f08c379a00000000000000000000000000000000000000000000000000000000081526004016117b9906132ca565b60405180910390fd5b80600560008573ffffffffffffffffffffffffffffffffffffffff1673ffffffffffffffffffffffffffffffffffffffff16815260200190815260200160002060008473ffffffffffffffffffffffffffffffffffffffff1673ffffffffffffffffffffffffffffffffffffffff16815260200190815260200160002060006101000a81548160ff0219169083151502179055508173ffffffffffffffffffffffffffffffffffffffff168373ffffffffffffffffffffffffffffffffffffffff167f17307eab39ab6107e8899845ad3d59bd9653f200f220920489ca2b5937696c31836040516118b391906120bd565b60405180910390a3505050565b600081600001549050919050565b60006118da60066118c0565b90506118e68282611b08565b6118f06006611b26565b7fa45ff7f93c63954d431581aff2486c78fce6c5caad8de2a034753a6ae70e8f728160405161191f91906123bc565b60405180910390a15050565b6119368484846114ee565b61194284848484611b3c565b611981576040517f08c379a00000000000000000000000000000000000000000000000000000000081526004016119789061335c565b60405180910390fd5b50505050565b606060405180602001604052806000815250905090565b6060600082036119e5576040518060400160405280600181526020017f30000000000000000000000000000000000000000000000000000000000000008152509050611af9565b600082905060005b60008214611a17578080611a0090612ff6565b915050600a82611a1091906133ab565b91506119ed565b60008167ffffffffffffffff811115611a3357611a3261244d565b5b6040519080825280601f01601f191660200182016040528015611a655781602001600182028036833780820191505090505b5090505b60008514611af257600182611a7e91906131f4565b9150600a85611a8d91906133dc565b6030611a999190613228565b60f81b818381518110611aaf57611aae612f98565b5b60200101907effffffffffffffffffffffffffffffffffffffffffffffffffffffffffffff1916908160001a905350600a85611aeb91906133ab565b9450611a69565b8093505050505b919050565b505050565b505050565b611b22828260405180602001604052806000815250611cc3565b5050565b6001816000016000828254019250508190555050565b6000611b5d8473ffffffffffffffffffffffffffffffffffffffff16611d1e565b15611cb6578373ffffffffffffffffffffffffffffffffffffffff1663150b7a02611b8661134f565b8786866040518563ffffffff1660e01b8152600401611ba89493929190613462565b6020604051808303816000875af1925050508015611be457506040513d601f19601f82011682018060405250810190611be191906134c3565b60015b611c66573d8060008114611c14576040519150601f19603f3d011682016040523d82523d6000602084013e611c19565b606091505b506000815103611c5e576040517f08c379a0000000000000000000000000000000000000000000000000000000008152600401611c559061335c565b60405180910390fd5b805181602001fd5b63150b7a0260e01b7bffffffffffffffffffffffffffffffffffffffffffffffffffffffff1916817bffffffffffffffffffffffffffffffffffffffffffffffffffffffff191614915050611cbb565b600190505b949350505050565b611ccd8383611d41565b611cda6000848484611b3c565b611d19576040517f08c379a0000000000000000000000000000000000000000000000000000000008152600401611d109061335c565b60405180910390fd5b505050565b6000808273ffffffffffffffffffffffffffffffffffffffff163b119050919050565b600073ffffffffffffffffffffffffffffffffffffffff168273ffffffffffffffffffffffffffffffffffffffff1603611db0576040517f08c379a0000000000000000000000000000000000000000000000000000000008152600401611da79061353c565b60405180910390fd5b611db9816112e3565b15611df9576040517f08c379a0000000000000000000000000000000000000000000000000000000008152600401611df0906135a8565b60405180910390fd5b611e0560008383611afe565b6001600360008473ffffffffffffffffffffffffffffffffffffffff1673ffffffffffffffffffffffffffffffffffffffff1681526020019081526020016000206000828254611e559190613228565b92505081905550816002600083815260200190815260200160002060006101000a81548173ffffffffffffffffffffffffffffffffffffffff021916908373ffffffffffffffffffffffffffffffffffffffff160217905550808273ffffffffffffffffffffffffffffffffffffffff16600073ffffffffffffffffffffffffffffffffffffffff167fddf252ad1be2c89b69c2b068fc378daa952ba7f163c4a11628f55a4df523b3ef60405160405180910390a4611f1660008383611b03565b5050565b828054611f2690612b09565b90600052602060002090601f016020900481019282611f485760008555611f8f565b82601f10611f6157805160ff1916838001178555611f8f565b82800160010185558215611f8f579182015b82811115611f8e578251825591602001919060010190611f73565b5b509050611f9c9190611fec565b5090565b6040518060c001604052806000815260200160608152602001606081526020016000815260200160008152602001600073ffffffffffffffffffffffffffffffffffffffff1681525090565b5b80821115612005576000816000905550600101611fed565b5090565b6000604051905090565b600080fd5b600080fd5b60007fffffffff0000000000000000000000000000000000000000000000000000000082169050919050565b6120528161201d565b811461205d57600080fd5b50565b60008135905061206f81612049565b92915050565b60006020828403121561208b5761208a612013565b5b600061209984828501612060565b91505092915050565b60008115159050919050565b6120b7816120a2565b82525050565b60006020820190506120d260008301846120ae565b92915050565b600081519050919050565b600082825260208201905092915050565b60005b838110156121125780820151818401526020810190506120f7565b83811115612121576000848401525b50505050565b6000601f19601f8301169050919050565b6000612143826120d8565b61214d81856120e3565b935061215d8185602086016120f4565b61216681612127565b840191505092915050565b6000602082019050818103600083015261218b8184612138565b905092915050565b6000819050919050565b6121a681612193565b81146121b157600080fd5b50565b6000813590506121c38161219d565b92915050565b6000602082840312156121df576121de612013565b5b60006121ed848285016121b4565b91505092915050565b600073ffffffffffffffffffffffffffffffffffffffff82169050919050565b6000612221826121f6565b9050919050565b61223181612216565b82525050565b600060208201905061224c6000830184612228565b92915050565b61225b81612216565b811461226657600080fd5b50565b60008135905061227881612252565b92915050565b6000806040838503121561229557612294612013565b5b60006122a385828601612269565b92505060206122b4858286016121b4565b9150509250929050565b6000806000606084860312156122d7576122d6612013565b5b60006122e586828701612269565b93505060206122f686828701612269565b9250506040612307868287016121b4565b9150509250925092565b61231a81612193565b82525050565b600060c0820190506123356000830189612311565b81810360208301526123478188612138565b9050818103604083015261235b8187612138565b905061236a6060830186612311565b6123776080830185612311565b61238460a0830184612228565b979650505050505050565b6000602082840312156123a5576123a4612013565b5b60006123b384828501612269565b91505092915050565b60006020820190506123d16000830184612311565b92915050565b6123e0816120a2565b81146123eb57600080fd5b50565b6000813590506123fd816123d7565b92915050565b6000806040838503121561241a57612419612013565b5b600061242885828601612269565b9250506020612439858286016123ee565b9150509250929050565b600080fd5b600080fd5b7f4e487b7100000000000000000000000000000000000000000000000000000000600052604160045260246000fd5b61248582612127565b810181811067ffffffffffffffff821117156124a4576124a361244d565b5b80604052505050565b60006124b7612009565b90506124c3828261247c565b919050565b600067ffffffffffffffff8211156124e3576124e261244d565b5b6124ec82612127565b9050602081019050919050565b82818337600083830152505050565b600061251b612516846124c8565b6124ad565b90508281526020810184848401111561253757612536612448565b5b6125428482856124f9565b509392505050565b600082601f83011261255f5761255e612443565b5b813561256f848260208601612508565b91505092915050565b6000806000806080858703121561259257612591612013565b5b600085013567ffffffffffffffff8111156125b0576125af612018565b5b6125bc8782880161254a565b94505060206125cd878288016121b4565b93505060406125de878288016121b4565b925050606085013567ffffffffffffffff8111156125ff576125fe612018565b5b61260b8782880161254a565b91505092959194509250565b600067ffffffffffffffff8211156126325761263161244d565b5b61263b82612127565b9050602081019050919050565b600061265b61265684612617565b6124ad565b90508281526020810184848401111561267757612676612448565b5b6126828482856124f9565b509392505050565b600082601f83011261269f5761269e612443565b5b81356126af848260208601612648565b91505092915050565b600080600080608085870312156126d2576126d1612013565b5b60006126e087828801612269565b94505060206126f187828801612269565b9350506040612702878288016121b4565b925050606085013567ffffffffffffffff81111561272357612722612018565b5b61272f8782880161268a565b91505092959194509250565b61274481612193565b82525050565b600082825260208201905092915050565b6000612766826120d8565b612770818561274a565b93506127808185602086016120f4565b61278981612127565b840191505092915050565b61279d81612216565b82525050565b600060c0830160008301516127bb600086018261273b565b50602083015184820360208601526127d3828261275b565b915050604083015184820360408601526127ed828261275b565b9150506060830151612802606086018261273b565b506080830151612815608086018261273b565b5060a083015161282860a0860182612794565b508091505092915050565b6000602082019050818103600083015261284d81846127a3565b905092915050565b6000806040838503121561286c5761286b612013565b5b600061287a85828601612269565b925050602061288b85828601612269565b9150509250929050565b600081519050919050565b600082825260208201905092915050565b6000819050602082019050919050565b60006128cd838361273b565b60208301905092915050565b6000602082019050919050565b60006128f182612895565b6128fb81856128a0565b9350612906836128b1565b8060005b8381101561293757815161291e88826128c1565b9750612929836128d9565b92505060018101905061290a565b5085935050505092915050565b6000602082019050818103600083015261295e81846128e6565b905092915050565b600081519050919050565b600082825260208201905092915050565b6000819050602082019050919050565b600060c0830160008301516129aa600086018261273b565b50602083015184820360208601526129c2828261275b565b915050604083015184820360408601526129dc828261275b565b91505060608301516129f1606086018261273b565b506080830151612a04608086018261273b565b5060a0830151612a1760a0860182612794565b508091505092915050565b6000612a2e8383612992565b905092915050565b6000602082019050919050565b6000612a4e82612966565b612a588185612971565b935083602082028501612a6a85612982565b8060005b85811015612aa65784840389528151612a878582612a22565b9450612a9283612a36565b925060208a01995050600181019050612a6e565b50829750879550505050505092915050565b60006020820190508181036000830152612ad28184612a43565b905092915050565b7f4e487b7100000000000000000000000000000000000000000000000000000000600052602260045260246000fd5b60006002820490506001821680612b2157607f821691505b602082108103612b3457612b33612ada565b5b50919050565b7f4552433732313a20617070726f76656420717565727920666f72206e6f6e657860008201527f697374656e7420746f6b656e0000000000000000000000000000000000000000602082015250565b6000612b96602c836120e3565b9150612ba182612b3a565b604082019050919050565b60006020820190508181036000830152612bc581612b89565b9050919050565b7f4552433732313a20617070726f76616c20746f2063757272656e74206f776e6560008201527f7200000000000000000000000000000000000000000000000000000000000000602082015250565b6000612c286021836120e3565b9150612c3382612bcc565b604082019050919050565b60006020820190508181036000830152612c5781612c1b565b9050919050565b7f4552433732313a20617070726f76652063616c6c6572206973206e6f74206f7760008201527f6e6572206e6f7220617070726f76656420666f7220616c6c0000000000000000602082015250565b6000612cba6038836120e3565b9150612cc582612c5e565b604082019050919050565b60006020820190508181036000830152612ce981612cad565b9050919050565b7f4552433732313a207472616e736665722063616c6c6572206973206e6f74206f60008201527f776e6572206e6f7220617070726f766564000000000000000000000000000000602082015250565b6000612d4c6031836120e3565b9150612d5782612cf0565b604082019050919050565b60006020820190508181036000830152612d7b81612d3f565b9050919050565b7f4552433732313a206f776e657220717565727920666f72206e6f6e657869737460008201527f656e7420746f6b656e0000000000000000000000000000000000000000000000602082015250565b6000612dde6029836120e3565b9150612de982612d82565b604082019050919050565b60006020820190508181036000830152612e0d81612dd1565b9050919050565b7f4552433732313a2062616c616e636520717565727920666f7220746865207a6560008201527f726f206164647265737300000000000000000000000000000000000000000000602082015250565b6000612e70602a836120e3565b9150612e7b82612e14565b604082019050919050565b60006020820190508181036000830152612e9f81612e63565b9050919050565b7f4552433732314d657461646174613a2055524920717565727920666f72206e6f60008201527f6e6578697374656e7420746f6b656e0000000000000000000000000000000000602082015250565b6000612f02602f836120e3565b9150612f0d82612ea6565b604082019050919050565b60006020820190508181036000830152612f3181612ef5565b9050919050565b600081905092915050565b6000612f4e826120d8565b612f588185612f38565b9350612f688185602086016120f4565b80840191505092915050565b6000612f808285612f43565b9150612f8c8284612f43565b91508190509392505050565b7f4e487b7100000000000000000000000000000000000000000000000000000000600052603260045260246000fd5b7f4e487b7100000000000000000000000000000000000000000000000000000000600052601160045260246000fd5b600061300182612193565b91507fffffffffffffffffffffffffffffffffffffffffffffffffffffffffffffffff820361303357613032612fc7565b5b600182019050919050565b7f4552433732313a206f70657261746f7220717565727920666f72206e6f6e657860008201527f697374656e7420746f6b656e0000000000000000000000000000000000000000602082015250565b600061309a602c836120e3565b91506130a58261303e565b604082019050919050565b600060208201905081810360008301526130c98161308d565b9050919050565b7f4552433732313a207472616e736665722066726f6d20696e636f72726563742060008201527f6f776e6572000000000000000000000000000000000000000000000000000000602082015250565b600061312c6025836120e3565b9150613137826130d0565b604082019050919050565b6000602082019050818103600083015261315b8161311f565b9050919050565b7f4552433732313a207472616e7366657220746f20746865207a65726f2061646460008201527f7265737300000000000000000000000000000000000000000000000000000000602082015250565b60006131be6024836120e3565b91506131c982613162565b604082019050919050565b600060208201905081810360008301526131ed816131b1565b9050919050565b60006131ff82612193565b915061320a83612193565b92508282101561321d5761321c612fc7565b5b828203905092915050565b600061323382612193565b915061323e83612193565b9250827fffffffffffffffffffffffffffffffffffffffffffffffffffffffffffffffff0382111561327357613272612fc7565b5b828201905092915050565b7f4552433732313a20617070726f766520746f2063616c6c657200000000000000600082015250565b60006132b46019836120e3565b91506132bf8261327e565b602082019050919050565b600060208201905081810360008301526132e3816132a7565b9050919050565b7f4552433732313a207472616e7366657220746f206e6f6e20455243373231526560008201527f63656976657220696d706c656d656e7465720000000000000000000000000000602082015250565b60006133466032836120e3565b9150613351826132ea565b604082019050919050565b6000602082019050818103600083015261337581613339565b9050919050565b7f4e487b7100000000000000000000000000000000000000000000000000000000600052601260045260246000fd5b60006133b682612193565b91506133c183612193565b9250826133d1576133d061337c565b5b828204905092915050565b60006133e782612193565b91506133f283612193565b9250826134025761340161337c565b5b828206905092915050565b600081519050919050565b600082825260208201905092915050565b60006134348261340d565b61343e8185613418565b935061344e8185602086016120f4565b61345781612127565b840191505092915050565b60006080820190506134776000830187612228565b6134846020830186612228565b6134916040830185612311565b81810360608301526134a38184613429565b905095945050505050565b6000815190506134bd81612049565b92915050565b6000602082840312156134d9576134d8612013565b5b60006134e7848285016134ae565b91505092915050565b7f4552433732313a206d696e7420746f20746865207a65726f2061646472657373600082015250565b60006135266020836120e3565b9150613531826134f0565b602082019050919050565b6000602082019050818103600083015261355581613519565b9050919050565b7f4552433732313a20746f6b656e20616c7265616479206d696e74656400000000600082015250565b6000613592601c836120e3565b915061359d8261355c565b602082019050919050565b600060208201905081810360008301526135c181613585565b905091905056fea2646970667358221220e334dda31ff0ee5b586f57af6951ef93f4066d93ca8561f8960cdabe77a4a9c564736f6c634300080e0033",
  "immutableReferences": {},
  "source": "// SPDX-License-Identifier: UNLICENCED\npragma solidity >=0.4.22 <0.9.0;\n\nimport \"./PlotNFT.sol\";\n\ncontract Plot is PlotNFT {\n    function getPlotsByOwner(address _owner)\n        external\n        view\n        returns (uint256[] memory)\n    {\n        uint256 plotBalance = balanceOf(_owner);\n        uint256[] memory result = new uint256[](plotBalance);\n        uint256 counter = 0;\n        for (uint256 i = 0; i < plots.length; i++) {\n            if (ownerOf(i) == _owner) {\n                result[counter] = i;\n                counter++;\n            }\n        }\n        return result;\n    }\n\n    function getPlots() external view returns (Plot[] memory) {\n        return plots;\n    }\n\n    function getPlot(uint256 _index) external view returns (Plot memory) {\n        return plots[_index];\n    }\n}\n",
  "sourcePath": "/home/sergio/Documentos/sergio/projects/drones/smartcontracts/contracts/Plot.sol",
  "compiler": {
    "name": "solc",
    "version": "0.8.14+commit.80d49f37.Emscripten.clang"
  },
  "schemaVersion": "3.4.7",
  "updatedAt": "2022-07-03T19:04:41.067Z",
  "devdoc": {
    "kind": "dev",
    "methods": {
      "approve(address,uint256)": {
        "details": "See {IERC721-approve}."
      },
      "balanceOf(address)": {
        "details": "See {IERC721-balanceOf}."
      },
      "getApproved(uint256)": {
        "details": "See {IERC721-getApproved}."
      },
      "isApprovedForAll(address,address)": {
        "details": "See {IERC721-isApprovedForAll}."
      },
      "name()": {
        "details": "See {IERC721Metadata-name}."
      },
      "ownerOf(uint256)": {
        "details": "See {IERC721-ownerOf}."
      },
      "safeTransferFrom(address,address,uint256)": {
        "details": "See {IERC721-safeTransferFrom}."
      },
      "safeTransferFrom(address,address,uint256,bytes)": {
        "details": "See {IERC721-safeTransferFrom}."
      },
      "setApprovalForAll(address,bool)": {
        "details": "See {IERC721-setApprovalForAll}."
      },
      "supportsInterface(bytes4)": {
        "details": "See {IERC165-supportsInterface}."
      },
      "symbol()": {
        "details": "See {IERC721Metadata-symbol}."
      },
      "tokenURI(uint256)": {
        "details": "See {IERC721Metadata-tokenURI}."
      },
      "transferFrom(address,address,uint256)": {
        "details": "See {IERC721-transferFrom}."
      }
    },
    "version": 1
  },
  "userdoc": {
    "kind": "user",
    "methods": {},
    "version": 1
  }
}