{
  "contractName": "PlotNFT",
  "abi": [
    {
      "inputs": [],
      "stateMutability": "nonpayable",
      "type": "constructor"
    },
    {
      "anonymous": false,
      "inputs": [
        {
          "indexed": true,
          "internalType": "address",
          "name": "owner",
          "type": "address"
        },
        {
          "indexed": true,
          "internalType": "address",
          "name": "approved",
          "type": "address"
        },
        {
          "indexed": true,
          "internalType": "uint256",
          "name": "tokenId",
          "type": "uint256"
        }
      ],
      "name": "Approval",
      "type": "event"
    },
    {
      "anonymous": false,
      "inputs": [
        {
          "indexed": true,
          "internalType": "address",
          "name": "owner",
          "type": "address"
        },
        {
          "indexed": true,
          "internalType": "address",
          "name": "operator",
          "type": "address"
        },
        {
          "indexed": false,
          "internalType": "bool",
          "name": "approved",
          "type": "bool"
        }
      ],
      "name": "ApprovalForAll",
      "type": "event"
    },
    {
      "anonymous": false,
      "inputs": [
        {
          "indexed": false,
          "internalType": "uint256",
          "name": "id",
          "type": "uint256"
        }
      ],
      "name": "NewPlotCreated",
      "type": "event"
    },
    {
      "anonymous": false,
      "inputs": [
        {
          "indexed": true,
          "internalType": "address",
          "name": "from",
          "type": "address"
        },
        {
          "indexed": true,
          "internalType": "address",
          "name": "to",
          "type": "address"
        },
        {
          "indexed": true,
          "internalType": "uint256",
          "name": "tokenId",
          "type": "uint256"
        }
      ],
      "name": "Transfer",
      "type": "event"
    },
    {
      "inputs": [
        {
          "internalType": "address",
          "name": "to",
          "type": "address"
        },
        {
          "internalType": "uint256",
          "name": "tokenId",
          "type": "uint256"
        }
      ],
      "name": "approve",
      "outputs": [],
      "stateMutability": "nonpayable",
      "type": "function"
    },
    {
      "inputs": [
        {
          "internalType": "address",
          "name": "owner",
          "type": "address"
        }
      ],
      "name": "balanceOf",
      "outputs": [
        {
          "internalType": "uint256",
          "name": "",
          "type": "uint256"
        }
      ],
      "stateMutability": "view",
      "type": "function"
    },
    {
      "inputs": [
        {
          "internalType": "uint256",
          "name": "tokenId",
          "type": "uint256"
        }
      ],
      "name": "getApproved",
      "outputs": [
        {
          "internalType": "address",
          "name": "",
          "type": "address"
        }
      ],
      "stateMutability": "view",
      "type": "function"
    },
    {
      "inputs": [
        {
          "internalType": "address",
          "name": "owner",
          "type": "address"
        },
        {
          "internalType": "address",
          "name": "operator",
          "type": "address"
        }
      ],
      "name": "isApprovedForAll",
      "outputs": [
        {
          "internalType": "bool",
          "name": "",
          "type": "bool"
        }
      ],
      "stateMutability": "view",
      "type": "function"
    },
    {
      "inputs": [],
      "name": "name",
      "outputs": [
        {
          "internalType": "string",
          "name": "",
          "type": "string"
        }
      ],
      "stateMutability": "view",
      "type": "function"
    },
    {
      "inputs": [
        {
          "internalType": "uint256",
          "name": "tokenId",
          "type": "uint256"
        }
      ],
      "name": "ownerOf",
      "outputs": [
        {
          "internalType": "address",
          "name": "",
          "type": "address"
        }
      ],
      "stateMutability": "view",
      "type": "function"
    },
    {
      "inputs": [
        {
          "internalType": "uint256",
          "name": "",
          "type": "uint256"
        }
      ],
      "name": "plots",
      "outputs": [
        {
          "internalType": "uint256",
          "name": "id",
          "type": "uint256"
        },
        {
          "internalType": "string",
          "name": "ownerName",
          "type": "string"
        },
        {
          "internalType": "string",
          "name": "acceptedPesticide",
          "type": "string"
        },
        {
          "internalType": "uint256",
          "name": "allowedMaxFlightAltitude",
          "type": "uint256"
        },
        {
          "internalType": "uint256",
          "name": "allowedMinFlightAltitude",
          "type": "uint256"
        },
        {
          "internalType": "address",
          "name": "owner",
          "type": "address"
        }
      ],
      "stateMutability": "view",
      "type": "function"
    },
    {
      "inputs": [
        {
          "internalType": "address",
          "name": "from",
          "type": "address"
        },
        {
          "internalType": "address",
          "name": "to",
          "type": "address"
        },
        {
          "internalType": "uint256",
          "name": "tokenId",
          "type": "uint256"
        }
      ],
      "name": "safeTransferFrom",
      "outputs": [],
      "stateMutability": "nonpayable",
      "type": "function"
    },
    {
      "inputs": [
        {
          "internalType": "address",
          "name": "from",
          "type": "address"
        },
        {
          "internalType": "address",
          "name": "to",
          "type": "address"
        },
        {
          "internalType": "uint256",
          "name": "tokenId",
          "type": "uint256"
        },
        {
          "internalType": "bytes",
          "name": "_data",
          "type": "bytes"
        }
      ],
      "name": "safeTransferFrom",
      "outputs": [],
      "stateMutability": "nonpayable",
      "type": "function"
    },
    {
      "inputs": [
        {
          "internalType": "address",
          "name": "operator",
          "type": "address"
        },
        {
          "internalType": "bool",
          "name": "approved",
          "type": "bool"
        }
      ],
      "name": "setApprovalForAll",
      "outputs": [],
      "stateMutability": "nonpayable",
      "type": "function"
    },
    {
      "inputs": [
        {
          "internalType": "bytes4",
          "name": "interfaceId",
          "type": "bytes4"
        }
      ],
      "name": "supportsInterface",
      "outputs": [
        {
          "internalType": "bool",
          "name": "",
          "type": "bool"
        }
      ],
      "stateMutability": "view",
      "type": "function"
    },
    {
      "inputs": [],
      "name": "symbol",
      "outputs": [
        {
          "internalType": "string",
          "name": "",
          "type": "string"
        }
      ],
      "stateMutability": "view",
      "type": "function"
    },
    {
      "inputs": [
        {
          "internalType": "uint256",
          "name": "tokenId",
          "type": "uint256"
        }
      ],
      "name": "tokenURI",
      "outputs": [
        {
          "internalType": "string",
          "name": "",
          "type": "string"
        }
      ],
      "stateMutability": "view",
      "type": "function"
    },
    {
      "inputs": [
        {
          "internalType": "address",
          "name": "from",
          "type": "address"
        },
        {
          "internalType": "address",
          "name": "to",
          "type": "address"
        },
        {
          "internalType": "uint256",
          "name": "tokenId",
          "type": "uint256"
        }
      ],
      "name": "transferFrom",
      "outputs": [],
      "stateMutability": "nonpayable",
      "type": "function"
    },
    {
      "inputs": [
        {
          "internalType": "string",
          "name": "_ownerName",
          "type": "string"
        },
        {
          "internalType": "uint256",
          "name": "_allowedMaxFlightAltitude",
          "type": "uint256"
        },
        {
          "internalType": "uint256",
          "name": "_allowedMinFlightAltitude",
          "type": "uint256"
        },
        {
          "internalType": "string",
          "name": "_pesticide",
          "type": "string"
        }
      ],
      "name": "mintNewPlot",
      "outputs": [],
      "stateMutability": "nonpayable",
      "type": "function"
    }
  ],
  "bytecode": "0x60806040523480156200001157600080fd5b506040518060400160405280600481526020017f504c4f54000000000000000000000000000000000000000000000000000000008152506040518060400160405280600381526020017f504c540000000000000000000000000000000000000000000000000000000000815250816000908051906020019062000096929190620000b8565b508060019080519060200190620000af929190620000b8565b505050620001cc565b828054620000c69062000197565b90600052602060002090601f016020900481019282620000ea576000855562000136565b82601f106200010557805160ff191683800117855562000136565b8280016001018555821562000136579182015b828111156200013557825182559160200191906001019062000118565b5b50905062000145919062000149565b5090565b5b80821115620001645760008160009055506001016200014a565b5090565b7f4e487b7100000000000000000000000000000000000000000000000000000000600052602260045260246000fd5b60006002820490506001821680620001b057607f821691505b602082108103620001c657620001c562000168565b5b50919050565b612cf380620001dc6000396000f3fe608060405234801561001057600080fd5b50600436106100f55760003560e01c80636352211e11610097578063a63f08a711610066578063a63f08a71461029b578063b88d4fde146102b7578063c87b56dd146102d3578063e985e9c514610303576100f5565b80636352211e1461020157806370a082311461023157806395d89b4114610261578063a22cb4651461027f576100f5565b8063095ea7b3116100d3578063095ea7b31461017857806323b872dd1461019457806342842e0e146101b057806361bf49ee146101cc576100f5565b806301ffc9a7146100fa57806306fdde031461012a578063081812fc14610148575b600080fd5b610114600480360381019061010f9190611ac9565b610333565b6040516101219190611b11565b60405180910390f35b610132610415565b60405161013f9190611bc5565b60405180910390f35b610162600480360381019061015d9190611c1d565b6104a7565b60405161016f9190611c8b565b60405180910390f35b610192600480360381019061018d9190611cd2565b61052c565b005b6101ae60048036038101906101a99190611d12565b610643565b005b6101ca60048036038101906101c59190611d12565b6106a3565b005b6101e660048036038101906101e19190611c1d565b6106c3565b6040516101f896959493929190611d74565b60405180910390f35b61021b60048036038101906102169190611c1d565b61083f565b6040516102289190611c8b565b60405180910390f35b61024b60048036038101906102469190611de3565b6108f0565b6040516102589190611e10565b60405180910390f35b6102696109a7565b6040516102769190611bc5565b60405180910390f35b61029960048036038101906102949190611e57565b610a39565b005b6102b560048036038101906102b09190611fcc565b610a4f565b005b6102d160048036038101906102cc919061210c565b610b7c565b005b6102ed60048036038101906102e89190611c1d565b610bde565b6040516102fa9190611bc5565b60405180910390f35b61031d6004803603810190610318919061218f565b610c85565b60405161032a9190611b11565b60405180910390f35b60007f80ac58cd000000000000000000000000000000000000000000000000000000007bffffffffffffffffffffffffffffffffffffffffffffffffffffffff1916827bffffffffffffffffffffffffffffffffffffffffffffffffffffffff191614806103fe57507f5b5e139f000000000000000000000000000000000000000000000000000000007bffffffffffffffffffffffffffffffffffffffffffffffffffffffff1916827bffffffffffffffffffffffffffffffffffffffffffffffffffffffff1916145b8061040e575061040d82610d19565b5b9050919050565b606060008054610424906121fe565b80601f0160208091040260200160405190810160405280929190818152602001828054610450906121fe565b801561049d5780601f106104725761010080835404028352916020019161049d565b820191906000526020600020905b81548152906001019060200180831161048057829003601f168201915b5050505050905090565b60006104b282610d83565b6104f1576040517f08c379a00000000000000000000000000000000000000000000000000000000081526004016104e8906122a1565b60405180910390fd5b6004600083815260200190815260200160002060009054906101000a900473ffffffffffffffffffffffffffffffffffffffff169050919050565b60006105378261083f565b90508073ffffffffffffffffffffffffffffffffffffffff168373ffffffffffffffffffffffffffffffffffffffff16036105a7576040517f08c379a000000000000000000000000000000000000000000000000000000000815260040161059e90612333565b60405180910390fd5b8073ffffffffffffffffffffffffffffffffffffffff166105c6610def565b73ffffffffffffffffffffffffffffffffffffffff1614806105f557506105f4816105ef610def565b610c85565b5b610634576040517f08c379a000000000000000000000000000000000000000000000000000000000815260040161062b906123c5565b60405180910390fd5b61063e8383610df7565b505050565b61065461064e610def565b82610eb0565b610693576040517f08c379a000000000000000000000000000000000000000000000000000000000815260040161068a90612457565b60405180910390fd5b61069e838383610f8e565b505050565b6106be83838360405180602001604052806000815250610b7c565b505050565b600781815481106106d357600080fd5b90600052602060002090600602016000915090508060000154908060010180546106fc906121fe565b80601f0160208091040260200160405190810160405280929190818152602001828054610728906121fe565b80156107755780601f1061074a57610100808354040283529160200191610775565b820191906000526020600020905b81548152906001019060200180831161075857829003601f168201915b50505050509080600201805461078a906121fe565b80601f01602080910402602001604051908101604052809291908181526020018280546107b6906121fe565b80156108035780601f106107d857610100808354040283529160200191610803565b820191906000526020600020905b8154815290600101906020018083116107e657829003601f168201915b5050505050908060030154908060040154908060050160009054906101000a900473ffffffffffffffffffffffffffffffffffffffff16905086565b6000806002600084815260200190815260200160002060009054906101000a900473ffffffffffffffffffffffffffffffffffffffff169050600073ffffffffffffffffffffffffffffffffffffffff168173ffffffffffffffffffffffffffffffffffffffff16036108e7576040517f08c379a00000000000000000000000000000000000000000000000000000000081526004016108de906124e9565b60405180910390fd5b80915050919050565b60008073ffffffffffffffffffffffffffffffffffffffff168273ffffffffffffffffffffffffffffffffffffffff1603610960576040517f08c379a00000000000000000000000000000000000000000000000000000000081526004016109579061257b565b60405180910390fd5b600360008373ffffffffffffffffffffffffffffffffffffffff1673ffffffffffffffffffffffffffffffffffffffff168152602001908152602001600020549050919050565b6060600180546109b6906121fe565b80601f01602080910402602001604051908101604052809291908181526020018280546109e2906121fe565b8015610a2f5780601f10610a0457610100808354040283529160200191610a2f565b820191906000526020600020905b815481529060010190602001808311610a1257829003601f168201915b5050505050905090565b610a4b610a44610def565b83836111f4565b5050565b600033905060076040518060c00160405280610a6b6006611360565b81526020018781526020018481526020018681526020018581526020018373ffffffffffffffffffffffffffffffffffffffff168152509080600181540180825580915050600190039060005260206000209060060201600090919091909150600082015181600001556020820151816001019080519060200190610af19291906119ba565b506040820151816002019080519060200190610b0e9291906119ba565b50606082015181600301556080820151816004015560a08201518160050160006101000a81548173ffffffffffffffffffffffffffffffffffffffff021916908373ffffffffffffffffffffffffffffffffffffffff1602179055505050610b758161136e565b5050505050565b610b8d610b87610def565b83610eb0565b610bcc576040517f08c379a0000000000000000000000000000000000000000000000000000000008152600401610bc390612457565b60405180910390fd5b610bd8848484846113cb565b50505050565b6060610be982610d83565b610c28576040517f08c379a0000000000000000000000000000000000000000000000000000000008152600401610c1f9061260d565b60405180910390fd5b6000610c32611427565b90506000815111610c525760405180602001604052806000815250610c7d565b80610c5c8461143e565b604051602001610c6d929190612669565b6040516020818303038152906040525b915050919050565b6000600560008473ffffffffffffffffffffffffffffffffffffffff1673ffffffffffffffffffffffffffffffffffffffff16815260200190815260200160002060008373ffffffffffffffffffffffffffffffffffffffff1673ffffffffffffffffffffffffffffffffffffffff16815260200190815260200160002060009054906101000a900460ff16905092915050565b60007f01ffc9a7000000000000000000000000000000000000000000000000000000007bffffffffffffffffffffffffffffffffffffffffffffffffffffffff1916827bffffffffffffffffffffffffffffffffffffffffffffffffffffffff1916149050919050565b60008073ffffffffffffffffffffffffffffffffffffffff166002600084815260200190815260200160002060009054906101000a900473ffffffffffffffffffffffffffffffffffffffff1673ffffffffffffffffffffffffffffffffffffffff1614159050919050565b600033905090565b816004600083815260200190815260200160002060006101000a81548173ffffffffffffffffffffffffffffffffffffffff021916908373ffffffffffffffffffffffffffffffffffffffff160217905550808273ffffffffffffffffffffffffffffffffffffffff16610e6a8361083f565b73ffffffffffffffffffffffffffffffffffffffff167f8c5be1e5ebec7d5bd14f71427d1e84f3dd0314c0f7b2291e5b200ac8c7c3b92560405160405180910390a45050565b6000610ebb82610d83565b610efa576040517f08c379a0000000000000000000000000000000000000000000000000000000008152600401610ef1906126ff565b60405180910390fd5b6000610f058361083f565b90508073ffffffffffffffffffffffffffffffffffffffff168473ffffffffffffffffffffffffffffffffffffffff161480610f475750610f468185610c85565b5b80610f8557508373ffffffffffffffffffffffffffffffffffffffff16610f6d846104a7565b73ffffffffffffffffffffffffffffffffffffffff16145b91505092915050565b8273ffffffffffffffffffffffffffffffffffffffff16610fae8261083f565b73ffffffffffffffffffffffffffffffffffffffff1614611004576040517f08c379a0000000000000000000000000000000000000000000000000000000008152600401610ffb90612791565b60405180910390fd5b600073ffffffffffffffffffffffffffffffffffffffff168273ffffffffffffffffffffffffffffffffffffffff1603611073576040517f08c379a000000000000000000000000000000000000000000000000000000000815260040161106a90612823565b60405180910390fd5b61107e83838361159e565b611089600082610df7565b6001600360008573ffffffffffffffffffffffffffffffffffffffff1673ffffffffffffffffffffffffffffffffffffffff16815260200190815260200160002060008282546110d99190612872565b925050819055506001600360008473ffffffffffffffffffffffffffffffffffffffff1673ffffffffffffffffffffffffffffffffffffffff168152602001908152602001600020600082825461113091906128a6565b92505081905550816002600083815260200190815260200160002060006101000a81548173ffffffffffffffffffffffffffffffffffffffff021916908373ffffffffffffffffffffffffffffffffffffffff160217905550808273ffffffffffffffffffffffffffffffffffffffff168473ffffffffffffffffffffffffffffffffffffffff167fddf252ad1be2c89b69c2b068fc378daa952ba7f163c4a11628f55a4df523b3ef60405160405180910390a46111ef8383836115a3565b505050565b8173ffffffffffffffffffffffffffffffffffffffff168373ffffffffffffffffffffffffffffffffffffffff1603611262576040517f08c379a000000000000000000000000000000000000000000000000000000000815260040161125990612948565b60405180910390fd5b80600560008573ffffffffffffffffffffffffffffffffffffffff1673ffffffffffffffffffffffffffffffffffffffff16815260200190815260200160002060008473ffffffffffffffffffffffffffffffffffffffff1673ffffffffffffffffffffffffffffffffffffffff16815260200190815260200160002060006101000a81548160ff0219169083151502179055508173ffffffffffffffffffffffffffffffffffffffff168373ffffffffffffffffffffffffffffffffffffffff167f17307eab39ab6107e8899845ad3d59bd9653f200f220920489ca2b5937696c31836040516113539190611b11565b60405180910390a3505050565b600081600001549050919050565b600061137a6006611360565b905061138682826115a8565b61139060066115c6565b7fa45ff7f93c63954d431581aff2486c78fce6c5caad8de2a034753a6ae70e8f72816040516113bf9190611e10565b60405180910390a15050565b6113d6848484610f8e565b6113e2848484846115dc565b611421576040517f08c379a0000000000000000000000000000000000000000000000000000000008152600401611418906129da565b60405180910390fd5b50505050565b606060405180602001604052806000815250905090565b606060008203611485576040518060400160405280600181526020017f30000000000000000000000000000000000000000000000000000000000000008152509050611599565b600082905060005b600082146114b75780806114a0906129fa565b915050600a826114b09190612a71565b915061148d565b60008167ffffffffffffffff8111156114d3576114d2611ea1565b5b6040519080825280601f01601f1916602001820160405280156115055781602001600182028036833780820191505090505b5090505b600085146115925760018261151e9190612872565b9150600a8561152d9190612aa2565b603061153991906128a6565b60f81b81838151811061154f5761154e612ad3565b5b60200101907effffffffffffffffffffffffffffffffffffffffffffffffffffffffffffff1916908160001a905350600a8561158b9190612a71565b9450611509565b8093505050505b919050565b505050565b505050565b6115c2828260405180602001604052806000815250611763565b5050565b6001816000016000828254019250508190555050565b60006115fd8473ffffffffffffffffffffffffffffffffffffffff166117be565b15611756578373ffffffffffffffffffffffffffffffffffffffff1663150b7a02611626610def565b8786866040518563ffffffff1660e01b81526004016116489493929190612b57565b6020604051808303816000875af192505050801561168457506040513d601f19601f820116820180604052508101906116819190612bb8565b60015b611706573d80600081146116b4576040519150601f19603f3d011682016040523d82523d6000602084013e6116b9565b606091505b5060008151036116fe576040517f08c379a00000000000000000000000000000000000000000000000000000000081526004016116f5906129da565b60405180910390fd5b805181602001fd5b63150b7a0260e01b7bffffffffffffffffffffffffffffffffffffffffffffffffffffffff1916817bffffffffffffffffffffffffffffffffffffffffffffffffffffffff19161491505061175b565b600190505b949350505050565b61176d83836117e1565b61177a60008484846115dc565b6117b9576040517f08c379a00000000000000000000000000000000000000000000000000000000081526004016117b0906129da565b60405180910390fd5b505050565b6000808273ffffffffffffffffffffffffffffffffffffffff163b119050919050565b600073ffffffffffffffffffffffffffffffffffffffff168273ffffffffffffffffffffffffffffffffffffffff1603611850576040517f08c379a000000000000000000000000000000000000000000000000000000000815260040161184790612c31565b60405180910390fd5b61185981610d83565b15611899576040517f08c379a000000000000000000000000000000000000000000000000000000000815260040161189090612c9d565b60405180910390fd5b6118a56000838361159e565b6001600360008473ffffffffffffffffffffffffffffffffffffffff1673ffffffffffffffffffffffffffffffffffffffff16815260200190815260200160002060008282546118f591906128a6565b92505081905550816002600083815260200190815260200160002060006101000a81548173ffffffffffffffffffffffffffffffffffffffff021916908373ffffffffffffffffffffffffffffffffffffffff160217905550808273ffffffffffffffffffffffffffffffffffffffff16600073ffffffffffffffffffffffffffffffffffffffff167fddf252ad1be2c89b69c2b068fc378daa952ba7f163c4a11628f55a4df523b3ef60405160405180910390a46119b6600083836115a3565b5050565b8280546119c6906121fe565b90600052602060002090601f0160209004810192826119e85760008555611a2f565b82601f10611a0157805160ff1916838001178555611a2f565b82800160010185558215611a2f579182015b82811115611a2e578251825591602001919060010190611a13565b5b509050611a3c9190611a40565b5090565b5b80821115611a59576000816000905550600101611a41565b5090565b6000604051905090565b600080fd5b600080fd5b60007fffffffff0000000000000000000000000000000000000000000000000000000082169050919050565b611aa681611a71565b8114611ab157600080fd5b50565b600081359050611ac381611a9d565b92915050565b600060208284031215611adf57611ade611a67565b5b6000611aed84828501611ab4565b91505092915050565b60008115159050919050565b611b0b81611af6565b82525050565b6000602082019050611b266000830184611b02565b92915050565b600081519050919050565b600082825260208201905092915050565b60005b83811015611b66578082015181840152602081019050611b4b565b83811115611b75576000848401525b50505050565b6000601f19601f8301169050919050565b6000611b9782611b2c565b611ba18185611b37565b9350611bb1818560208601611b48565b611bba81611b7b565b840191505092915050565b60006020820190508181036000830152611bdf8184611b8c565b905092915050565b6000819050919050565b611bfa81611be7565b8114611c0557600080fd5b50565b600081359050611c1781611bf1565b92915050565b600060208284031215611c3357611c32611a67565b5b6000611c4184828501611c08565b91505092915050565b600073ffffffffffffffffffffffffffffffffffffffff82169050919050565b6000611c7582611c4a565b9050919050565b611c8581611c6a565b82525050565b6000602082019050611ca06000830184611c7c565b92915050565b611caf81611c6a565b8114611cba57600080fd5b50565b600081359050611ccc81611ca6565b92915050565b60008060408385031215611ce957611ce8611a67565b5b6000611cf785828601611cbd565b9250506020611d0885828601611c08565b9150509250929050565b600080600060608486031215611d2b57611d2a611a67565b5b6000611d3986828701611cbd565b9350506020611d4a86828701611cbd565b9250506040611d5b86828701611c08565b9150509250925092565b611d6e81611be7565b82525050565b600060c082019050611d896000830189611d65565b8181036020830152611d9b8188611b8c565b90508181036040830152611daf8187611b8c565b9050611dbe6060830186611d65565b611dcb6080830185611d65565b611dd860a0830184611c7c565b979650505050505050565b600060208284031215611df957611df8611a67565b5b6000611e0784828501611cbd565b91505092915050565b6000602082019050611e256000830184611d65565b92915050565b611e3481611af6565b8114611e3f57600080fd5b50565b600081359050611e5181611e2b565b92915050565b60008060408385031215611e6e57611e6d611a67565b5b6000611e7c85828601611cbd565b9250506020611e8d85828601611e42565b9150509250929050565b600080fd5b600080fd5b7f4e487b7100000000000000000000000000000000000000000000000000000000600052604160045260246000fd5b611ed982611b7b565b810181811067ffffffffffffffff82111715611ef857611ef7611ea1565b5b80604052505050565b6000611f0b611a5d565b9050611f178282611ed0565b919050565b600067ffffffffffffffff821115611f3757611f36611ea1565b5b611f4082611b7b565b9050602081019050919050565b82818337600083830152505050565b6000611f6f611f6a84611f1c565b611f01565b905082815260208101848484011115611f8b57611f8a611e9c565b5b611f96848285611f4d565b509392505050565b600082601f830112611fb357611fb2611e97565b5b8135611fc3848260208601611f5c565b91505092915050565b60008060008060808587031215611fe657611fe5611a67565b5b600085013567ffffffffffffffff81111561200457612003611a6c565b5b61201087828801611f9e565b945050602061202187828801611c08565b935050604061203287828801611c08565b925050606085013567ffffffffffffffff81111561205357612052611a6c565b5b61205f87828801611f9e565b91505092959194509250565b600067ffffffffffffffff82111561208657612085611ea1565b5b61208f82611b7b565b9050602081019050919050565b60006120af6120aa8461206b565b611f01565b9050828152602081018484840111156120cb576120ca611e9c565b5b6120d6848285611f4d565b509392505050565b600082601f8301126120f3576120f2611e97565b5b813561210384826020860161209c565b91505092915050565b6000806000806080858703121561212657612125611a67565b5b600061213487828801611cbd565b945050602061214587828801611cbd565b935050604061215687828801611c08565b925050606085013567ffffffffffffffff81111561217757612176611a6c565b5b612183878288016120de565b91505092959194509250565b600080604083850312156121a6576121a5611a67565b5b60006121b485828601611cbd565b92505060206121c585828601611cbd565b9150509250929050565b7f4e487b7100000000000000000000000000000000000000000000000000000000600052602260045260246000fd5b6000600282049050600182168061221657607f821691505b602082108103612229576122286121cf565b5b50919050565b7f4552433732313a20617070726f76656420717565727920666f72206e6f6e657860008201527f697374656e7420746f6b656e0000000000000000000000000000000000000000602082015250565b600061228b602c83611b37565b91506122968261222f565b604082019050919050565b600060208201905081810360008301526122ba8161227e565b9050919050565b7f4552433732313a20617070726f76616c20746f2063757272656e74206f776e6560008201527f7200000000000000000000000000000000000000000000000000000000000000602082015250565b600061231d602183611b37565b9150612328826122c1565b604082019050919050565b6000602082019050818103600083015261234c81612310565b9050919050565b7f4552433732313a20617070726f76652063616c6c6572206973206e6f74206f7760008201527f6e6572206e6f7220617070726f76656420666f7220616c6c0000000000000000602082015250565b60006123af603883611b37565b91506123ba82612353565b604082019050919050565b600060208201905081810360008301526123de816123a2565b9050919050565b7f4552433732313a207472616e736665722063616c6c6572206973206e6f74206f60008201527f776e6572206e6f7220617070726f766564000000000000000000000000000000602082015250565b6000612441603183611b37565b915061244c826123e5565b604082019050919050565b6000602082019050818103600083015261247081612434565b9050919050565b7f4552433732313a206f776e657220717565727920666f72206e6f6e657869737460008201527f656e7420746f6b656e0000000000000000000000000000000000000000000000602082015250565b60006124d3602983611b37565b91506124de82612477565b604082019050919050565b60006020820190508181036000830152612502816124c6565b9050919050565b7f4552433732313a2062616c616e636520717565727920666f7220746865207a6560008201527f726f206164647265737300000000000000000000000000000000000000000000602082015250565b6000612565602a83611b37565b915061257082612509565b604082019050919050565b6000602082019050818103600083015261259481612558565b9050919050565b7f4552433732314d657461646174613a2055524920717565727920666f72206e6f60008201527f6e6578697374656e7420746f6b656e0000000000000000000000000000000000602082015250565b60006125f7602f83611b37565b91506126028261259b565b604082019050919050565b60006020820190508181036000830152612626816125ea565b9050919050565b600081905092915050565b600061264382611b2c565b61264d818561262d565b935061265d818560208601611b48565b80840191505092915050565b60006126758285612638565b91506126818284612638565b91508190509392505050565b7f4552433732313a206f70657261746f7220717565727920666f72206e6f6e657860008201527f697374656e7420746f6b656e0000000000000000000000000000000000000000602082015250565b60006126e9602c83611b37565b91506126f48261268d565b604082019050919050565b60006020820190508181036000830152612718816126dc565b9050919050565b7f4552433732313a207472616e736665722066726f6d20696e636f72726563742060008201527f6f776e6572000000000000000000000000000000000000000000000000000000602082015250565b600061277b602583611b37565b91506127868261271f565b604082019050919050565b600060208201905081810360008301526127aa8161276e565b9050919050565b7f4552433732313a207472616e7366657220746f20746865207a65726f2061646460008201527f7265737300000000000000000000000000000000000000000000000000000000602082015250565b600061280d602483611b37565b9150612818826127b1565b604082019050919050565b6000602082019050818103600083015261283c81612800565b9050919050565b7f4e487b7100000000000000000000000000000000000000000000000000000000600052601160045260246000fd5b600061287d82611be7565b915061288883611be7565b92508282101561289b5761289a612843565b5b828203905092915050565b60006128b182611be7565b91506128bc83611be7565b9250827fffffffffffffffffffffffffffffffffffffffffffffffffffffffffffffffff038211156128f1576128f0612843565b5b828201905092915050565b7f4552433732313a20617070726f766520746f2063616c6c657200000000000000600082015250565b6000612932601983611b37565b915061293d826128fc565b602082019050919050565b6000602082019050818103600083015261296181612925565b9050919050565b7f4552433732313a207472616e7366657220746f206e6f6e20455243373231526560008201527f63656976657220696d706c656d656e7465720000000000000000000000000000602082015250565b60006129c4603283611b37565b91506129cf82612968565b604082019050919050565b600060208201905081810360008301526129f3816129b7565b9050919050565b6000612a0582611be7565b91507fffffffffffffffffffffffffffffffffffffffffffffffffffffffffffffffff8203612a3757612a36612843565b5b600182019050919050565b7f4e487b7100000000000000000000000000000000000000000000000000000000600052601260045260246000fd5b6000612a7c82611be7565b9150612a8783611be7565b925082612a9757612a96612a42565b5b828204905092915050565b6000612aad82611be7565b9150612ab883611be7565b925082612ac857612ac7612a42565b5b828206905092915050565b7f4e487b7100000000000000000000000000000000000000000000000000000000600052603260045260246000fd5b600081519050919050565b600082825260208201905092915050565b6000612b2982612b02565b612b338185612b0d565b9350612b43818560208601611b48565b612b4c81611b7b565b840191505092915050565b6000608082019050612b6c6000830187611c7c565b612b796020830186611c7c565b612b866040830185611d65565b8181036060830152612b988184612b1e565b905095945050505050565b600081519050612bb281611a9d565b92915050565b600060208284031215612bce57612bcd611a67565b5b6000612bdc84828501612ba3565b91505092915050565b7f4552433732313a206d696e7420746f20746865207a65726f2061646472657373600082015250565b6000612c1b602083611b37565b9150612c2682612be5565b602082019050919050565b60006020820190508181036000830152612c4a81612c0e565b9050919050565b7f4552433732313a20746f6b656e20616c7265616479206d696e74656400000000600082015250565b6000612c87601c83611b37565b9150612c9282612c51565b602082019050919050565b60006020820190508181036000830152612cb681612c7a565b905091905056fea264697066735822122060d150295d861087834872865f732c9f895bf6d72ef4d71da03cbda5b2b7e4b364736f6c634300080e0033",
  "immutableReferences": {},
  "source": "// SPDX-License-Identifier: UNLICENCED\npragma solidity >=0.4.22 <0.9.0;\n\nimport \"./models/PlotModel.sol\";\nimport \"@openzeppelin/contracts/token/ERC721/ERC721.sol\";\nimport \"@openzeppelin/contracts/utils/Counters.sol\";\n\ncontract PlotNFT is ERC721, PlotModel {\n    using Counters for Counters.Counter;\n    Counters.Counter private _currentTokenId;\n\n    constructor() ERC721(\"PLOT\", \"PLT\") {}\n\n    event NewPlotCreated(uint256 id);\n\n    Plot[] public plots;\n\n    function _plotMint(address to) private {\n        uint256 currentId = _currentTokenId.current();\n        _safeMint(to, currentId);\n        _currentTokenId.increment();\n        emit NewPlotCreated(currentId);\n    }\n\n    function mintNewPlot(\n        string memory _ownerName,\n        uint256 _allowedMaxFlightAltitude,\n        uint256 _allowedMinFlightAltitude,\n        string memory _pesticide\n    ) external {\n        address owner = msg.sender;\n        plots.push(\n            Plot(\n                _currentTokenId.current(),\n                _ownerName,\n                _pesticide,\n                _allowedMaxFlightAltitude,\n                _allowedMinFlightAltitude,\n                owner\n            )\n        );\n        _plotMint(owner);\n    }\n}\n",
  "sourcePath": "/home/sergio/Documentos/sergio/projects/drones/smartcontracts/contracts/PlotNFT.sol",
  "compiler": {
    "name": "solc",
    "version": "0.8.14+commit.80d49f37.Emscripten.clang"
  },
  "schemaVersion": "3.4.7",
  "updatedAt": "2022-07-03T18:22:48.587Z",
  "devdoc": {
    "kind": "dev",
    "methods": {
      "approve(address,uint256)": {
        "details": "See {IERC721-approve}."
      },
      "balanceOf(address)": {
        "details": "See {IERC721-balanceOf}."
      },
      "getApproved(uint256)": {
        "details": "See {IERC721-getApproved}."
      },
      "isApprovedForAll(address,address)": {
        "details": "See {IERC721-isApprovedForAll}."
      },
      "name()": {
        "details": "See {IERC721Metadata-name}."
      },
      "ownerOf(uint256)": {
        "details": "See {IERC721-ownerOf}."
      },
      "safeTransferFrom(address,address,uint256)": {
        "details": "See {IERC721-safeTransferFrom}."
      },
      "safeTransferFrom(address,address,uint256,bytes)": {
        "details": "See {IERC721-safeTransferFrom}."
      },
      "setApprovalForAll(address,bool)": {
        "details": "See {IERC721-setApprovalForAll}."
      },
      "supportsInterface(bytes4)": {
        "details": "See {IERC165-supportsInterface}."
      },
      "symbol()": {
        "details": "See {IERC721Metadata-symbol}."
      },
      "tokenURI(uint256)": {
        "details": "See {IERC721Metadata-tokenURI}."
      },
      "transferFrom(address,address,uint256)": {
        "details": "See {IERC721-transferFrom}."
      }
    },
    "version": 1
  },
  "userdoc": {
    "kind": "user",
    "methods": {},
    "version": 1
  }
}