{
  "contractName": "PlotNFT",
  "abi": [
    {
      "inputs": [],
      "stateMutability": "nonpayable",
      "type": "constructor"
    },
    {
      "anonymous": false,
      "inputs": [
        {
          "indexed": true,
          "internalType": "address",
          "name": "owner",
          "type": "address"
        },
        {
          "indexed": true,
          "internalType": "address",
          "name": "approved",
          "type": "address"
        },
        {
          "indexed": true,
          "internalType": "uint256",
          "name": "tokenId",
          "type": "uint256"
        }
      ],
      "name": "Approval",
      "type": "event"
    },
    {
      "anonymous": false,
      "inputs": [
        {
          "indexed": true,
          "internalType": "address",
          "name": "owner",
          "type": "address"
        },
        {
          "indexed": true,
          "internalType": "address",
          "name": "operator",
          "type": "address"
        },
        {
          "indexed": false,
          "internalType": "bool",
          "name": "approved",
          "type": "bool"
        }
      ],
      "name": "ApprovalForAll",
      "type": "event"
    },
    {
      "anonymous": false,
      "inputs": [
        {
          "indexed": false,
          "internalType": "uint256",
          "name": "id",
          "type": "uint256"
        }
      ],
      "name": "NewPlotCreated",
      "type": "event"
    },
    {
      "anonymous": false,
      "inputs": [
        {
          "indexed": true,
          "internalType": "address",
          "name": "previousOwner",
          "type": "address"
        },
        {
          "indexed": true,
          "internalType": "address",
          "name": "newOwner",
          "type": "address"
        }
      ],
      "name": "OwnershipTransferred",
      "type": "event"
    },
    {
      "anonymous": false,
      "inputs": [
        {
          "indexed": true,
          "internalType": "address",
          "name": "from",
          "type": "address"
        },
        {
          "indexed": true,
          "internalType": "address",
          "name": "to",
          "type": "address"
        },
        {
          "indexed": true,
          "internalType": "uint256",
          "name": "tokenId",
          "type": "uint256"
        }
      ],
      "name": "Transfer",
      "type": "event"
    },
    {
      "inputs": [
        {
          "internalType": "address",
          "name": "to",
          "type": "address"
        },
        {
          "internalType": "uint256",
          "name": "tokenId",
          "type": "uint256"
        }
      ],
      "name": "approve",
      "outputs": [],
      "stateMutability": "nonpayable",
      "type": "function"
    },
    {
      "inputs": [
        {
          "internalType": "address",
          "name": "owner",
          "type": "address"
        }
      ],
      "name": "balanceOf",
      "outputs": [
        {
          "internalType": "uint256",
          "name": "",
          "type": "uint256"
        }
      ],
      "stateMutability": "view",
      "type": "function"
    },
    {
      "inputs": [
        {
          "internalType": "uint256",
          "name": "tokenId",
          "type": "uint256"
        }
      ],
      "name": "getApproved",
      "outputs": [
        {
          "internalType": "address",
          "name": "",
          "type": "address"
        }
      ],
      "stateMutability": "view",
      "type": "function"
    },
    {
      "inputs": [
        {
          "internalType": "address",
          "name": "owner",
          "type": "address"
        },
        {
          "internalType": "address",
          "name": "operator",
          "type": "address"
        }
      ],
      "name": "isApprovedForAll",
      "outputs": [
        {
          "internalType": "bool",
          "name": "",
          "type": "bool"
        }
      ],
      "stateMutability": "view",
      "type": "function"
    },
    {
      "inputs": [],
      "name": "name",
      "outputs": [
        {
          "internalType": "string",
          "name": "",
          "type": "string"
        }
      ],
      "stateMutability": "view",
      "type": "function"
    },
    {
      "inputs": [],
      "name": "owner",
      "outputs": [
        {
          "internalType": "address",
          "name": "",
          "type": "address"
        }
      ],
      "stateMutability": "view",
      "type": "function"
    },
    {
      "inputs": [
        {
          "internalType": "uint256",
          "name": "tokenId",
          "type": "uint256"
        }
      ],
      "name": "ownerOf",
      "outputs": [
        {
          "internalType": "address",
          "name": "",
          "type": "address"
        }
      ],
      "stateMutability": "view",
      "type": "function"
    },
    {
      "inputs": [
        {
          "internalType": "uint256",
          "name": "",
          "type": "uint256"
        }
      ],
      "name": "plots",
      "outputs": [
        {
          "internalType": "uint256",
          "name": "maxFlightAltitude",
          "type": "uint256"
        },
        {
          "internalType": "uint256",
          "name": "minFlightAltitude",
          "type": "uint256"
        },
        {
          "internalType": "string",
          "name": "acceptedPesticide",
          "type": "string"
        }
      ],
      "stateMutability": "view",
      "type": "function"
    },
    {
      "inputs": [],
      "name": "renounceOwnership",
      "outputs": [],
      "stateMutability": "nonpayable",
      "type": "function"
    },
    {
      "inputs": [
        {
          "internalType": "address",
          "name": "from",
          "type": "address"
        },
        {
          "internalType": "address",
          "name": "to",
          "type": "address"
        },
        {
          "internalType": "uint256",
          "name": "tokenId",
          "type": "uint256"
        }
      ],
      "name": "safeTransferFrom",
      "outputs": [],
      "stateMutability": "nonpayable",
      "type": "function"
    },
    {
      "inputs": [
        {
          "internalType": "address",
          "name": "from",
          "type": "address"
        },
        {
          "internalType": "address",
          "name": "to",
          "type": "address"
        },
        {
          "internalType": "uint256",
          "name": "tokenId",
          "type": "uint256"
        },
        {
          "internalType": "bytes",
          "name": "_data",
          "type": "bytes"
        }
      ],
      "name": "safeTransferFrom",
      "outputs": [],
      "stateMutability": "nonpayable",
      "type": "function"
    },
    {
      "inputs": [
        {
          "internalType": "address",
          "name": "operator",
          "type": "address"
        },
        {
          "internalType": "bool",
          "name": "approved",
          "type": "bool"
        }
      ],
      "name": "setApprovalForAll",
      "outputs": [],
      "stateMutability": "nonpayable",
      "type": "function"
    },
    {
      "inputs": [
        {
          "internalType": "bytes4",
          "name": "interfaceId",
          "type": "bytes4"
        }
      ],
      "name": "supportsInterface",
      "outputs": [
        {
          "internalType": "bool",
          "name": "",
          "type": "bool"
        }
      ],
      "stateMutability": "view",
      "type": "function"
    },
    {
      "inputs": [],
      "name": "symbol",
      "outputs": [
        {
          "internalType": "string",
          "name": "",
          "type": "string"
        }
      ],
      "stateMutability": "view",
      "type": "function"
    },
    {
      "inputs": [
        {
          "internalType": "uint256",
          "name": "tokenId",
          "type": "uint256"
        }
      ],
      "name": "tokenURI",
      "outputs": [
        {
          "internalType": "string",
          "name": "",
          "type": "string"
        }
      ],
      "stateMutability": "view",
      "type": "function"
    },
    {
      "inputs": [
        {
          "internalType": "address",
          "name": "from",
          "type": "address"
        },
        {
          "internalType": "address",
          "name": "to",
          "type": "address"
        },
        {
          "internalType": "uint256",
          "name": "tokenId",
          "type": "uint256"
        }
      ],
      "name": "transferFrom",
      "outputs": [],
      "stateMutability": "nonpayable",
      "type": "function"
    },
    {
      "inputs": [
        {
          "internalType": "address",
          "name": "newOwner",
          "type": "address"
        }
      ],
      "name": "transferOwnership",
      "outputs": [],
      "stateMutability": "nonpayable",
      "type": "function"
    },
    {
      "inputs": [
        {
          "internalType": "uint256",
          "name": "maxFlightAltitude",
          "type": "uint256"
        },
        {
          "internalType": "uint256",
          "name": "minFlightAltitude",
          "type": "uint256"
        },
        {
          "internalType": "string",
          "name": "pesticide",
          "type": "string"
        }
      ],
      "name": "_mintNewPlot",
      "outputs": [],
      "stateMutability": "nonpayable",
      "type": "function"
    }
  ],
  "bytecode": "0x60806040523480156200001157600080fd5b506040518060400160405280600481526020017f504c4f54000000000000000000000000000000000000000000000000000000008152506040518060400160405280600381526020017f504c540000000000000000000000000000000000000000000000000000000000815250816000908051906020019062000096929190620001a6565b508060019080519060200190620000af929190620001a6565b505050620000d2620000c6620000d860201b60201c565b620000e060201b60201c565b620002ba565b600033905090565b6000600660009054906101000a900473ffffffffffffffffffffffffffffffffffffffff16905081600660006101000a81548173ffffffffffffffffffffffffffffffffffffffff021916908373ffffffffffffffffffffffffffffffffffffffff1602179055508173ffffffffffffffffffffffffffffffffffffffff168173ffffffffffffffffffffffffffffffffffffffff167f8be0079c531659141344cd1fd0a4f28419497f9722a3daafe3b4186f6b6457e060405160405180910390a35050565b828054620001b49062000285565b90600052602060002090601f016020900481019282620001d8576000855562000224565b82601f10620001f357805160ff191683800117855562000224565b8280016001018555821562000224579182015b828111156200022357825182559160200191906001019062000206565b5b50905062000233919062000237565b5090565b5b808211156200025257600081600090555060010162000238565b5090565b7f4e487b7100000000000000000000000000000000000000000000000000000000600052602260045260246000fd5b600060028204905060018216806200029e57607f821691505b602082108103620002b457620002b362000256565b5b50919050565b612f0780620002ca6000396000f3fe608060405234801561001057600080fd5b50600436106101165760003560e01c806370a08231116100a2578063a22cb46511610071578063a22cb465146102e1578063b88d4fde146102fd578063c87b56dd14610319578063e985e9c514610349578063f2fde38b1461037957610116565b806370a082311461026b578063715018a61461029b5780638da5cb5b146102a557806395d89b41146102c357610116565b80631875e836116100e95780631875e836146101b557806323b872dd146101d157806342842e0e146101ed57806361bf49ee146102095780636352211e1461023b57610116565b806301ffc9a71461011b57806306fdde031461014b578063081812fc14610169578063095ea7b314610199575b600080fd5b61013560048036038101906101309190611c40565b610395565b6040516101429190611c88565b60405180910390f35b610153610477565b6040516101609190611d3c565b60405180910390f35b610183600480360381019061017e9190611d94565b610509565b6040516101909190611e02565b60405180910390f35b6101b360048036038101906101ae9190611e49565b61058e565b005b6101cf60048036038101906101ca9190611fbe565b6106a5565b005b6101eb60048036038101906101e6919061202d565b610732565b005b6102076004803603810190610202919061202d565b610792565b005b610223600480360381019061021e9190611d94565b6107b2565b6040516102329392919061208f565b60405180910390f35b61025560048036038101906102509190611d94565b610874565b6040516102629190611e02565b60405180910390f35b610285600480360381019061028091906120cd565b610925565b60405161029291906120fa565b60405180910390f35b6102a36109dc565b005b6102ad610a64565b6040516102ba9190611e02565b60405180910390f35b6102cb610a8e565b6040516102d89190611d3c565b60405180910390f35b6102fb60048036038101906102f69190612141565b610b20565b005b61031760048036038101906103129190612222565b610b36565b005b610333600480360381019061032e9190611d94565b610b98565b6040516103409190611d3c565b60405180910390f35b610363600480360381019061035e91906122a5565b610c3f565b6040516103709190611c88565b60405180910390f35b610393600480360381019061038e91906120cd565b610cd3565b005b60007f80ac58cd000000000000000000000000000000000000000000000000000000007bffffffffffffffffffffffffffffffffffffffffffffffffffffffff1916827bffffffffffffffffffffffffffffffffffffffffffffffffffffffff1916148061046057507f5b5e139f000000000000000000000000000000000000000000000000000000007bffffffffffffffffffffffffffffffffffffffffffffffffffffffff1916827bffffffffffffffffffffffffffffffffffffffffffffffffffffffff1916145b80610470575061046f82610dca565b5b9050919050565b60606000805461048690612314565b80601f01602080910402602001604051908101604052809291908181526020018280546104b290612314565b80156104ff5780601f106104d4576101008083540402835291602001916104ff565b820191906000526020600020905b8154815290600101906020018083116104e257829003601f168201915b5050505050905090565b600061051482610e34565b610553576040517f08c379a000000000000000000000000000000000000000000000000000000000815260040161054a906123b7565b60405180910390fd5b6004600083815260200190815260200160002060009054906101000a900473ffffffffffffffffffffffffffffffffffffffff169050919050565b600061059982610874565b90508073ffffffffffffffffffffffffffffffffffffffff168373ffffffffffffffffffffffffffffffffffffffff1603610609576040517f08c379a000000000000000000000000000000000000000000000000000000000815260040161060090612449565b60405180910390fd5b8073ffffffffffffffffffffffffffffffffffffffff16610628610ea0565b73ffffffffffffffffffffffffffffffffffffffff161480610657575061065681610651610ea0565b610c3f565b5b610696576040517f08c379a000000000000000000000000000000000000000000000000000000000815260040161068d906124db565b60405180910390fd5b6106a08383610ea8565b505050565b60003390506008604051806060016040528086815260200185815260200184815250908060018154018082558091505060019003906000526020600020906003020160009091909190915060008201518160000155602082015181600101556040820151816002019080519060200190610720929190611b31565b50505061072c81610f61565b50505050565b61074361073d610ea0565b82610fbe565b610782576040517f08c379a00000000000000000000000000000000000000000000000000000000081526004016107799061256d565b60405180910390fd5b61078d83838361109c565b505050565b6107ad83838360405180602001604052806000815250610b36565b505050565b600881815481106107c257600080fd5b90600052602060002090600302016000915090508060000154908060010154908060020180546107f190612314565b80601f016020809104026020016040519081016040528092919081815260200182805461081d90612314565b801561086a5780601f1061083f5761010080835404028352916020019161086a565b820191906000526020600020905b81548152906001019060200180831161084d57829003601f168201915b5050505050905083565b6000806002600084815260200190815260200160002060009054906101000a900473ffffffffffffffffffffffffffffffffffffffff169050600073ffffffffffffffffffffffffffffffffffffffff168173ffffffffffffffffffffffffffffffffffffffff160361091c576040517f08c379a0000000000000000000000000000000000000000000000000000000008152600401610913906125ff565b60405180910390fd5b80915050919050565b60008073ffffffffffffffffffffffffffffffffffffffff168273ffffffffffffffffffffffffffffffffffffffff1603610995576040517f08c379a000000000000000000000000000000000000000000000000000000000815260040161098c90612691565b60405180910390fd5b600360008373ffffffffffffffffffffffffffffffffffffffff1673ffffffffffffffffffffffffffffffffffffffff168152602001908152602001600020549050919050565b6109e4610ea0565b73ffffffffffffffffffffffffffffffffffffffff16610a02610a64565b73ffffffffffffffffffffffffffffffffffffffff1614610a58576040517f08c379a0000000000000000000000000000000000000000000000000000000008152600401610a4f906126fd565b60405180910390fd5b610a626000611302565b565b6000600660009054906101000a900473ffffffffffffffffffffffffffffffffffffffff16905090565b606060018054610a9d90612314565b80601f0160208091040260200160405190810160405280929190818152602001828054610ac990612314565b8015610b165780601f10610aeb57610100808354040283529160200191610b16565b820191906000526020600020905b815481529060010190602001808311610af957829003601f168201915b5050505050905090565b610b32610b2b610ea0565b83836113c8565b5050565b610b47610b41610ea0565b83610fbe565b610b86576040517f08c379a0000000000000000000000000000000000000000000000000000000008152600401610b7d9061256d565b60405180910390fd5b610b9284848484611534565b50505050565b6060610ba382610e34565b610be2576040517f08c379a0000000000000000000000000000000000000000000000000000000008152600401610bd99061278f565b60405180910390fd5b6000610bec611590565b90506000815111610c0c5760405180602001604052806000815250610c37565b80610c16846115a7565b604051602001610c279291906127eb565b6040516020818303038152906040525b915050919050565b6000600560008473ffffffffffffffffffffffffffffffffffffffff1673ffffffffffffffffffffffffffffffffffffffff16815260200190815260200160002060008373ffffffffffffffffffffffffffffffffffffffff1673ffffffffffffffffffffffffffffffffffffffff16815260200190815260200160002060009054906101000a900460ff16905092915050565b610cdb610ea0565b73ffffffffffffffffffffffffffffffffffffffff16610cf9610a64565b73ffffffffffffffffffffffffffffffffffffffff1614610d4f576040517f08c379a0000000000000000000000000000000000000000000000000000000008152600401610d46906126fd565b60405180910390fd5b600073ffffffffffffffffffffffffffffffffffffffff168173ffffffffffffffffffffffffffffffffffffffff1603610dbe576040517f08c379a0000000000000000000000000000000000000000000000000000000008152600401610db590612881565b60405180910390fd5b610dc781611302565b50565b60007f01ffc9a7000000000000000000000000000000000000000000000000000000007bffffffffffffffffffffffffffffffffffffffffffffffffffffffff1916827bffffffffffffffffffffffffffffffffffffffffffffffffffffffff1916149050919050565b60008073ffffffffffffffffffffffffffffffffffffffff166002600084815260200190815260200160002060009054906101000a900473ffffffffffffffffffffffffffffffffffffffff1673ffffffffffffffffffffffffffffffffffffffff1614159050919050565b600033905090565b816004600083815260200190815260200160002060006101000a81548173ffffffffffffffffffffffffffffffffffffffff021916908373ffffffffffffffffffffffffffffffffffffffff160217905550808273ffffffffffffffffffffffffffffffffffffffff16610f1b83610874565b73ffffffffffffffffffffffffffffffffffffffff167f8c5be1e5ebec7d5bd14f71427d1e84f3dd0314c0f7b2291e5b200ac8c7c3b92560405160405180910390a45050565b6000610f6d6007611707565b9050610f798282611715565b7fa45ff7f93c63954d431581aff2486c78fce6c5caad8de2a034753a6ae70e8f7281604051610fa891906120fa565b60405180910390a1610fba6007611733565b5050565b6000610fc982610e34565b611008576040517f08c379a0000000000000000000000000000000000000000000000000000000008152600401610fff90612913565b60405180910390fd5b600061101383610874565b90508073ffffffffffffffffffffffffffffffffffffffff168473ffffffffffffffffffffffffffffffffffffffff16148061105557506110548185610c3f565b5b8061109357508373ffffffffffffffffffffffffffffffffffffffff1661107b84610509565b73ffffffffffffffffffffffffffffffffffffffff16145b91505092915050565b8273ffffffffffffffffffffffffffffffffffffffff166110bc82610874565b73ffffffffffffffffffffffffffffffffffffffff1614611112576040517f08c379a0000000000000000000000000000000000000000000000000000000008152600401611109906129a5565b60405180910390fd5b600073ffffffffffffffffffffffffffffffffffffffff168273ffffffffffffffffffffffffffffffffffffffff1603611181576040517f08c379a000000000000000000000000000000000000000000000000000000000815260040161117890612a37565b60405180910390fd5b61118c838383611749565b611197600082610ea8565b6001600360008573ffffffffffffffffffffffffffffffffffffffff1673ffffffffffffffffffffffffffffffffffffffff16815260200190815260200160002060008282546111e79190612a86565b925050819055506001600360008473ffffffffffffffffffffffffffffffffffffffff1673ffffffffffffffffffffffffffffffffffffffff168152602001908152602001600020600082825461123e9190612aba565b92505081905550816002600083815260200190815260200160002060006101000a81548173ffffffffffffffffffffffffffffffffffffffff021916908373ffffffffffffffffffffffffffffffffffffffff160217905550808273ffffffffffffffffffffffffffffffffffffffff168473ffffffffffffffffffffffffffffffffffffffff167fddf252ad1be2c89b69c2b068fc378daa952ba7f163c4a11628f55a4df523b3ef60405160405180910390a46112fd83838361174e565b505050565b6000600660009054906101000a900473ffffffffffffffffffffffffffffffffffffffff16905081600660006101000a81548173ffffffffffffffffffffffffffffffffffffffff021916908373ffffffffffffffffffffffffffffffffffffffff1602179055508173ffffffffffffffffffffffffffffffffffffffff168173ffffffffffffffffffffffffffffffffffffffff167f8be0079c531659141344cd1fd0a4f28419497f9722a3daafe3b4186f6b6457e060405160405180910390a35050565b8173ffffffffffffffffffffffffffffffffffffffff168373ffffffffffffffffffffffffffffffffffffffff1603611436576040517f08c379a000000000000000000000000000000000000000000000000000000000815260040161142d90612b5c565b60405180910390fd5b80600560008573ffffffffffffffffffffffffffffffffffffffff1673ffffffffffffffffffffffffffffffffffffffff16815260200190815260200160002060008473ffffffffffffffffffffffffffffffffffffffff1673ffffffffffffffffffffffffffffffffffffffff16815260200190815260200160002060006101000a81548160ff0219169083151502179055508173ffffffffffffffffffffffffffffffffffffffff168373ffffffffffffffffffffffffffffffffffffffff167f17307eab39ab6107e8899845ad3d59bd9653f200f220920489ca2b5937696c31836040516115279190611c88565b60405180910390a3505050565b61153f84848461109c565b61154b84848484611753565b61158a576040517f08c379a000000000000000000000000000000000000000000000000000000000815260040161158190612bee565b60405180910390fd5b50505050565b606060405180602001604052806000815250905090565b6060600082036115ee576040518060400160405280600181526020017f30000000000000000000000000000000000000000000000000000000000000008152509050611702565b600082905060005b6000821461162057808061160990612c0e565b915050600a826116199190612c85565b91506115f6565b60008167ffffffffffffffff81111561163c5761163b611e93565b5b6040519080825280601f01601f19166020018201604052801561166e5781602001600182028036833780820191505090505b5090505b600085146116fb576001826116879190612a86565b9150600a856116969190612cb6565b60306116a29190612aba565b60f81b8183815181106116b8576116b7612ce7565b5b60200101907effffffffffffffffffffffffffffffffffffffffffffffffffffffffffffff1916908160001a905350600a856116f49190612c85565b9450611672565b8093505050505b919050565b600081600001549050919050565b61172f8282604051806020016040528060008152506118da565b5050565b6001816000016000828254019250508190555050565b505050565b505050565b60006117748473ffffffffffffffffffffffffffffffffffffffff16611935565b156118cd578373ffffffffffffffffffffffffffffffffffffffff1663150b7a0261179d610ea0565b8786866040518563ffffffff1660e01b81526004016117bf9493929190612d6b565b6020604051808303816000875af19250505080156117fb57506040513d601f19601f820116820180604052508101906117f89190612dcc565b60015b61187d573d806000811461182b576040519150601f19603f3d011682016040523d82523d6000602084013e611830565b606091505b506000815103611875576040517f08c379a000000000000000000000000000000000000000000000000000000000815260040161186c90612bee565b60405180910390fd5b805181602001fd5b63150b7a0260e01b7bffffffffffffffffffffffffffffffffffffffffffffffffffffffff1916817bffffffffffffffffffffffffffffffffffffffffffffffffffffffff1916149150506118d2565b600190505b949350505050565b6118e48383611958565b6118f16000848484611753565b611930576040517f08c379a000000000000000000000000000000000000000000000000000000000815260040161192790612bee565b60405180910390fd5b505050565b6000808273ffffffffffffffffffffffffffffffffffffffff163b119050919050565b600073ffffffffffffffffffffffffffffffffffffffff168273ffffffffffffffffffffffffffffffffffffffff16036119c7576040517f08c379a00000000000000000000000000000000000000000000000000000000081526004016119be90612e45565b60405180910390fd5b6119d081610e34565b15611a10576040517f08c379a0000000000000000000000000000000000000000000000000000000008152600401611a0790612eb1565b60405180910390fd5b611a1c60008383611749565b6001600360008473ffffffffffffffffffffffffffffffffffffffff1673ffffffffffffffffffffffffffffffffffffffff1681526020019081526020016000206000828254611a6c9190612aba565b92505081905550816002600083815260200190815260200160002060006101000a81548173ffffffffffffffffffffffffffffffffffffffff021916908373ffffffffffffffffffffffffffffffffffffffff160217905550808273ffffffffffffffffffffffffffffffffffffffff16600073ffffffffffffffffffffffffffffffffffffffff167fddf252ad1be2c89b69c2b068fc378daa952ba7f163c4a11628f55a4df523b3ef60405160405180910390a4611b2d6000838361174e565b5050565b828054611b3d90612314565b90600052602060002090601f016020900481019282611b5f5760008555611ba6565b82601f10611b7857805160ff1916838001178555611ba6565b82800160010185558215611ba6579182015b82811115611ba5578251825591602001919060010190611b8a565b5b509050611bb39190611bb7565b5090565b5b80821115611bd0576000816000905550600101611bb8565b5090565b6000604051905090565b600080fd5b600080fd5b60007fffffffff0000000000000000000000000000000000000000000000000000000082169050919050565b611c1d81611be8565b8114611c2857600080fd5b50565b600081359050611c3a81611c14565b92915050565b600060208284031215611c5657611c55611bde565b5b6000611c6484828501611c2b565b91505092915050565b60008115159050919050565b611c8281611c6d565b82525050565b6000602082019050611c9d6000830184611c79565b92915050565b600081519050919050565b600082825260208201905092915050565b60005b83811015611cdd578082015181840152602081019050611cc2565b83811115611cec576000848401525b50505050565b6000601f19601f8301169050919050565b6000611d0e82611ca3565b611d188185611cae565b9350611d28818560208601611cbf565b611d3181611cf2565b840191505092915050565b60006020820190508181036000830152611d568184611d03565b905092915050565b6000819050919050565b611d7181611d5e565b8114611d7c57600080fd5b50565b600081359050611d8e81611d68565b92915050565b600060208284031215611daa57611da9611bde565b5b6000611db884828501611d7f565b91505092915050565b600073ffffffffffffffffffffffffffffffffffffffff82169050919050565b6000611dec82611dc1565b9050919050565b611dfc81611de1565b82525050565b6000602082019050611e176000830184611df3565b92915050565b611e2681611de1565b8114611e3157600080fd5b50565b600081359050611e4381611e1d565b92915050565b60008060408385031215611e6057611e5f611bde565b5b6000611e6e85828601611e34565b9250506020611e7f85828601611d7f565b9150509250929050565b600080fd5b600080fd5b7f4e487b7100000000000000000000000000000000000000000000000000000000600052604160045260246000fd5b611ecb82611cf2565b810181811067ffffffffffffffff82111715611eea57611ee9611e93565b5b80604052505050565b6000611efd611bd4565b9050611f098282611ec2565b919050565b600067ffffffffffffffff821115611f2957611f28611e93565b5b611f3282611cf2565b9050602081019050919050565b82818337600083830152505050565b6000611f61611f5c84611f0e565b611ef3565b905082815260208101848484011115611f7d57611f7c611e8e565b5b611f88848285611f3f565b509392505050565b600082601f830112611fa557611fa4611e89565b5b8135611fb5848260208601611f4e565b91505092915050565b600080600060608486031215611fd757611fd6611bde565b5b6000611fe586828701611d7f565b9350506020611ff686828701611d7f565b925050604084013567ffffffffffffffff81111561201757612016611be3565b5b61202386828701611f90565b9150509250925092565b60008060006060848603121561204657612045611bde565b5b600061205486828701611e34565b935050602061206586828701611e34565b925050604061207686828701611d7f565b9150509250925092565b61208981611d5e565b82525050565b60006060820190506120a46000830186612080565b6120b16020830185612080565b81810360408301526120c38184611d03565b9050949350505050565b6000602082840312156120e3576120e2611bde565b5b60006120f184828501611e34565b91505092915050565b600060208201905061210f6000830184612080565b92915050565b61211e81611c6d565b811461212957600080fd5b50565b60008135905061213b81612115565b92915050565b6000806040838503121561215857612157611bde565b5b600061216685828601611e34565b92505060206121778582860161212c565b9150509250929050565b600067ffffffffffffffff82111561219c5761219b611e93565b5b6121a582611cf2565b9050602081019050919050565b60006121c56121c084612181565b611ef3565b9050828152602081018484840111156121e1576121e0611e8e565b5b6121ec848285611f3f565b509392505050565b600082601f83011261220957612208611e89565b5b81356122198482602086016121b2565b91505092915050565b6000806000806080858703121561223c5761223b611bde565b5b600061224a87828801611e34565b945050602061225b87828801611e34565b935050604061226c87828801611d7f565b925050606085013567ffffffffffffffff81111561228d5761228c611be3565b5b612299878288016121f4565b91505092959194509250565b600080604083850312156122bc576122bb611bde565b5b60006122ca85828601611e34565b92505060206122db85828601611e34565b9150509250929050565b7f4e487b7100000000000000000000000000000000000000000000000000000000600052602260045260246000fd5b6000600282049050600182168061232c57607f821691505b60208210810361233f5761233e6122e5565b5b50919050565b7f4552433732313a20617070726f76656420717565727920666f72206e6f6e657860008201527f697374656e7420746f6b656e0000000000000000000000000000000000000000602082015250565b60006123a1602c83611cae565b91506123ac82612345565b604082019050919050565b600060208201905081810360008301526123d081612394565b9050919050565b7f4552433732313a20617070726f76616c20746f2063757272656e74206f776e6560008201527f7200000000000000000000000000000000000000000000000000000000000000602082015250565b6000612433602183611cae565b915061243e826123d7565b604082019050919050565b6000602082019050818103600083015261246281612426565b9050919050565b7f4552433732313a20617070726f76652063616c6c6572206973206e6f74206f7760008201527f6e6572206e6f7220617070726f76656420666f7220616c6c0000000000000000602082015250565b60006124c5603883611cae565b91506124d082612469565b604082019050919050565b600060208201905081810360008301526124f4816124b8565b9050919050565b7f4552433732313a207472616e736665722063616c6c6572206973206e6f74206f60008201527f776e6572206e6f7220617070726f766564000000000000000000000000000000602082015250565b6000612557603183611cae565b9150612562826124fb565b604082019050919050565b600060208201905081810360008301526125868161254a565b9050919050565b7f4552433732313a206f776e657220717565727920666f72206e6f6e657869737460008201527f656e7420746f6b656e0000000000000000000000000000000000000000000000602082015250565b60006125e9602983611cae565b91506125f48261258d565b604082019050919050565b60006020820190508181036000830152612618816125dc565b9050919050565b7f4552433732313a2062616c616e636520717565727920666f7220746865207a6560008201527f726f206164647265737300000000000000000000000000000000000000000000602082015250565b600061267b602a83611cae565b91506126868261261f565b604082019050919050565b600060208201905081810360008301526126aa8161266e565b9050919050565b7f4f776e61626c653a2063616c6c6572206973206e6f7420746865206f776e6572600082015250565b60006126e7602083611cae565b91506126f2826126b1565b602082019050919050565b60006020820190508181036000830152612716816126da565b9050919050565b7f4552433732314d657461646174613a2055524920717565727920666f72206e6f60008201527f6e6578697374656e7420746f6b656e0000000000000000000000000000000000602082015250565b6000612779602f83611cae565b91506127848261271d565b604082019050919050565b600060208201905081810360008301526127a88161276c565b9050919050565b600081905092915050565b60006127c582611ca3565b6127cf81856127af565b93506127df818560208601611cbf565b80840191505092915050565b60006127f782856127ba565b915061280382846127ba565b91508190509392505050565b7f4f776e61626c653a206e6577206f776e657220697320746865207a65726f206160008201527f6464726573730000000000000000000000000000000000000000000000000000602082015250565b600061286b602683611cae565b91506128768261280f565b604082019050919050565b6000602082019050818103600083015261289a8161285e565b9050919050565b7f4552433732313a206f70657261746f7220717565727920666f72206e6f6e657860008201527f697374656e7420746f6b656e0000000000000000000000000000000000000000602082015250565b60006128fd602c83611cae565b9150612908826128a1565b604082019050919050565b6000602082019050818103600083015261292c816128f0565b9050919050565b7f4552433732313a207472616e736665722066726f6d20696e636f72726563742060008201527f6f776e6572000000000000000000000000000000000000000000000000000000602082015250565b600061298f602583611cae565b915061299a82612933565b604082019050919050565b600060208201905081810360008301526129be81612982565b9050919050565b7f4552433732313a207472616e7366657220746f20746865207a65726f2061646460008201527f7265737300000000000000000000000000000000000000000000000000000000602082015250565b6000612a21602483611cae565b9150612a2c826129c5565b604082019050919050565b60006020820190508181036000830152612a5081612a14565b9050919050565b7f4e487b7100000000000000000000000000000000000000000000000000000000600052601160045260246000fd5b6000612a9182611d5e565b9150612a9c83611d5e565b925082821015612aaf57612aae612a57565b5b828203905092915050565b6000612ac582611d5e565b9150612ad083611d5e565b9250827fffffffffffffffffffffffffffffffffffffffffffffffffffffffffffffffff03821115612b0557612b04612a57565b5b828201905092915050565b7f4552433732313a20617070726f766520746f2063616c6c657200000000000000600082015250565b6000612b46601983611cae565b9150612b5182612b10565b602082019050919050565b60006020820190508181036000830152612b7581612b39565b9050919050565b7f4552433732313a207472616e7366657220746f206e6f6e20455243373231526560008201527f63656976657220696d706c656d656e7465720000000000000000000000000000602082015250565b6000612bd8603283611cae565b9150612be382612b7c565b604082019050919050565b60006020820190508181036000830152612c0781612bcb565b9050919050565b6000612c1982611d5e565b91507fffffffffffffffffffffffffffffffffffffffffffffffffffffffffffffffff8203612c4b57612c4a612a57565b5b600182019050919050565b7f4e487b7100000000000000000000000000000000000000000000000000000000600052601260045260246000fd5b6000612c9082611d5e565b9150612c9b83611d5e565b925082612cab57612caa612c56565b5b828204905092915050565b6000612cc182611d5e565b9150612ccc83611d5e565b925082612cdc57612cdb612c56565b5b828206905092915050565b7f4e487b7100000000000000000000000000000000000000000000000000000000600052603260045260246000fd5b600081519050919050565b600082825260208201905092915050565b6000612d3d82612d16565b612d478185612d21565b9350612d57818560208601611cbf565b612d6081611cf2565b840191505092915050565b6000608082019050612d806000830187611df3565b612d8d6020830186611df3565b612d9a6040830185612080565b8181036060830152612dac8184612d32565b905095945050505050565b600081519050612dc681611c14565b92915050565b600060208284031215612de257612de1611bde565b5b6000612df084828501612db7565b91505092915050565b7f4552433732313a206d696e7420746f20746865207a65726f2061646472657373600082015250565b6000612e2f602083611cae565b9150612e3a82612df9565b602082019050919050565b60006020820190508181036000830152612e5e81612e22565b9050919050565b7f4552433732313a20746f6b656e20616c7265616479206d696e74656400000000600082015250565b6000612e9b601c83611cae565b9150612ea682612e65565b602082019050919050565b60006020820190508181036000830152612eca81612e8e565b905091905056fea2646970667358221220870f64a51484c3a1ff07c762183c1bc1c2589769ccd14427490dfa6931aad50d64736f6c634300080e0033",
  "immutableReferences": {},
  "source": "// SPDX-License-Identifier: UNLICENCED\npragma solidity >=0.4.22 <0.9.0;\n\nimport \"./models/PlotModel.sol\";\nimport \"@openzeppelin/contracts/token/ERC721/ERC721.sol\";\nimport \"@openzeppelin/contracts/utils/Counters.sol\";\nimport \"@openzeppelin/contracts/access/Ownable.sol\";\n\ncontract PlotNFT is ERC721, Ownable, PlotModel {\n\n    using Counters for Counters.Counter;\n    Counters.Counter private _currentTokenId;\n\n    constructor() ERC721(\"PLOT\", \"PLT\") {}\n\n    event NewPlotCreated(uint id);\n\n    Plot[] public plots;\n    \n    function _plotMint(address to) private {\n        uint currentId = _currentTokenId.current();\n        _safeMint(to, currentId);\n        emit NewPlotCreated(currentId);\n        _currentTokenId.increment();\n    } \n\n    function _mintNewPlot(uint maxFlightAltitude, uint minFlightAltitude, string memory pesticide) external {\n        address owner = msg.sender;\n        plots.push(Plot(maxFlightAltitude, minFlightAltitude, pesticide));\n        _plotMint(owner);\n    }\n    \n}",
  "sourcePath": "/home/sergio/Documentos/sergio/projects/drones/smartcontracts/contracts/Plot.sol",
  "compiler": {
    "name": "solc",
    "version": "0.8.14+commit.80d49f37.Emscripten.clang"
  },
  "schemaVersion": "3.4.7",
  "updatedAt": "2022-06-16T18:38:46.488Z",
  "devdoc": {
    "kind": "dev",
    "methods": {
      "approve(address,uint256)": {
        "details": "See {IERC721-approve}."
      },
      "balanceOf(address)": {
        "details": "See {IERC721-balanceOf}."
      },
      "getApproved(uint256)": {
        "details": "See {IERC721-getApproved}."
      },
      "isApprovedForAll(address,address)": {
        "details": "See {IERC721-isApprovedForAll}."
      },
      "name()": {
        "details": "See {IERC721Metadata-name}."
      },
      "owner()": {
        "details": "Returns the address of the current owner."
      },
      "ownerOf(uint256)": {
        "details": "See {IERC721-ownerOf}."
      },
      "renounceOwnership()": {
        "details": "Leaves the contract without owner. It will not be possible to call `onlyOwner` functions anymore. Can only be called by the current owner. NOTE: Renouncing ownership will leave the contract without an owner, thereby removing any functionality that is only available to the owner."
      },
      "safeTransferFrom(address,address,uint256)": {
        "details": "See {IERC721-safeTransferFrom}."
      },
      "safeTransferFrom(address,address,uint256,bytes)": {
        "details": "See {IERC721-safeTransferFrom}."
      },
      "setApprovalForAll(address,bool)": {
        "details": "See {IERC721-setApprovalForAll}."
      },
      "supportsInterface(bytes4)": {
        "details": "See {IERC165-supportsInterface}."
      },
      "symbol()": {
        "details": "See {IERC721Metadata-symbol}."
      },
      "tokenURI(uint256)": {
        "details": "See {IERC721Metadata-tokenURI}."
      },
      "transferFrom(address,address,uint256)": {
        "details": "See {IERC721-transferFrom}."
      },
      "transferOwnership(address)": {
        "details": "Transfers ownership of the contract to a new account (`newOwner`). Can only be called by the current owner."
      }
    },
    "version": 1
  },
  "userdoc": {
    "kind": "user",
    "methods": {},
    "version": 1
  }
}