{
  "contractName": "PlotNFT",
  "abi": [
    {
      "inputs": [],
      "stateMutability": "nonpayable",
      "type": "constructor"
    },
    {
      "anonymous": false,
      "inputs": [
        {
          "indexed": true,
          "internalType": "address",
          "name": "owner",
          "type": "address"
        },
        {
          "indexed": true,
          "internalType": "address",
          "name": "approved",
          "type": "address"
        },
        {
          "indexed": true,
          "internalType": "uint256",
          "name": "tokenId",
          "type": "uint256"
        }
      ],
      "name": "Approval",
      "type": "event"
    },
    {
      "anonymous": false,
      "inputs": [
        {
          "indexed": true,
          "internalType": "address",
          "name": "owner",
          "type": "address"
        },
        {
          "indexed": true,
          "internalType": "address",
          "name": "operator",
          "type": "address"
        },
        {
          "indexed": false,
          "internalType": "bool",
          "name": "approved",
          "type": "bool"
        }
      ],
      "name": "ApprovalForAll",
      "type": "event"
    },
    {
      "anonymous": false,
      "inputs": [
        {
          "indexed": false,
          "internalType": "uint256",
          "name": "id",
          "type": "uint256"
        }
      ],
      "name": "NewPlotCreated",
      "type": "event"
    },
    {
      "anonymous": false,
      "inputs": [
        {
          "indexed": true,
          "internalType": "address",
          "name": "from",
          "type": "address"
        },
        {
          "indexed": true,
          "internalType": "address",
          "name": "to",
          "type": "address"
        },
        {
          "indexed": true,
          "internalType": "uint256",
          "name": "tokenId",
          "type": "uint256"
        }
      ],
      "name": "Transfer",
      "type": "event"
    },
    {
      "inputs": [
        {
          "internalType": "address",
          "name": "to",
          "type": "address"
        },
        {
          "internalType": "uint256",
          "name": "tokenId",
          "type": "uint256"
        }
      ],
      "name": "approve",
      "outputs": [],
      "stateMutability": "nonpayable",
      "type": "function"
    },
    {
      "inputs": [
        {
          "internalType": "address",
          "name": "owner",
          "type": "address"
        }
      ],
      "name": "balanceOf",
      "outputs": [
        {
          "internalType": "uint256",
          "name": "",
          "type": "uint256"
        }
      ],
      "stateMutability": "view",
      "type": "function"
    },
    {
      "inputs": [
        {
          "internalType": "uint256",
          "name": "tokenId",
          "type": "uint256"
        }
      ],
      "name": "getApproved",
      "outputs": [
        {
          "internalType": "address",
          "name": "",
          "type": "address"
        }
      ],
      "stateMutability": "view",
      "type": "function"
    },
    {
      "inputs": [
        {
          "internalType": "address",
          "name": "owner",
          "type": "address"
        },
        {
          "internalType": "address",
          "name": "operator",
          "type": "address"
        }
      ],
      "name": "isApprovedForAll",
      "outputs": [
        {
          "internalType": "bool",
          "name": "",
          "type": "bool"
        }
      ],
      "stateMutability": "view",
      "type": "function"
    },
    {
      "inputs": [],
      "name": "name",
      "outputs": [
        {
          "internalType": "string",
          "name": "",
          "type": "string"
        }
      ],
      "stateMutability": "view",
      "type": "function"
    },
    {
      "inputs": [
        {
          "internalType": "uint256",
          "name": "tokenId",
          "type": "uint256"
        }
      ],
      "name": "ownerOf",
      "outputs": [
        {
          "internalType": "address",
          "name": "",
          "type": "address"
        }
      ],
      "stateMutability": "view",
      "type": "function"
    },
    {
      "inputs": [
        {
          "internalType": "uint256",
          "name": "",
          "type": "uint256"
        }
      ],
      "name": "plots",
      "outputs": [
        {
          "internalType": "string",
          "name": "ownerName",
          "type": "string"
        },
        {
          "internalType": "string",
          "name": "acceptedPesticide",
          "type": "string"
        },
        {
          "internalType": "uint256",
          "name": "allowedMaxFlightAltitude",
          "type": "uint256"
        },
        {
          "internalType": "uint256",
          "name": "allowedMinFlightAltitude",
          "type": "uint256"
        },
        {
          "internalType": "address",
          "name": "owner",
          "type": "address"
        }
      ],
      "stateMutability": "view",
      "type": "function"
    },
    {
      "inputs": [
        {
          "internalType": "address",
          "name": "from",
          "type": "address"
        },
        {
          "internalType": "address",
          "name": "to",
          "type": "address"
        },
        {
          "internalType": "uint256",
          "name": "tokenId",
          "type": "uint256"
        }
      ],
      "name": "safeTransferFrom",
      "outputs": [],
      "stateMutability": "nonpayable",
      "type": "function"
    },
    {
      "inputs": [
        {
          "internalType": "address",
          "name": "from",
          "type": "address"
        },
        {
          "internalType": "address",
          "name": "to",
          "type": "address"
        },
        {
          "internalType": "uint256",
          "name": "tokenId",
          "type": "uint256"
        },
        {
          "internalType": "bytes",
          "name": "_data",
          "type": "bytes"
        }
      ],
      "name": "safeTransferFrom",
      "outputs": [],
      "stateMutability": "nonpayable",
      "type": "function"
    },
    {
      "inputs": [
        {
          "internalType": "address",
          "name": "operator",
          "type": "address"
        },
        {
          "internalType": "bool",
          "name": "approved",
          "type": "bool"
        }
      ],
      "name": "setApprovalForAll",
      "outputs": [],
      "stateMutability": "nonpayable",
      "type": "function"
    },
    {
      "inputs": [
        {
          "internalType": "bytes4",
          "name": "interfaceId",
          "type": "bytes4"
        }
      ],
      "name": "supportsInterface",
      "outputs": [
        {
          "internalType": "bool",
          "name": "",
          "type": "bool"
        }
      ],
      "stateMutability": "view",
      "type": "function"
    },
    {
      "inputs": [],
      "name": "symbol",
      "outputs": [
        {
          "internalType": "string",
          "name": "",
          "type": "string"
        }
      ],
      "stateMutability": "view",
      "type": "function"
    },
    {
      "inputs": [
        {
          "internalType": "uint256",
          "name": "tokenId",
          "type": "uint256"
        }
      ],
      "name": "tokenURI",
      "outputs": [
        {
          "internalType": "string",
          "name": "",
          "type": "string"
        }
      ],
      "stateMutability": "view",
      "type": "function"
    },
    {
      "inputs": [
        {
          "internalType": "address",
          "name": "from",
          "type": "address"
        },
        {
          "internalType": "address",
          "name": "to",
          "type": "address"
        },
        {
          "internalType": "uint256",
          "name": "tokenId",
          "type": "uint256"
        }
      ],
      "name": "transferFrom",
      "outputs": [],
      "stateMutability": "nonpayable",
      "type": "function"
    },
    {
      "inputs": [
        {
          "internalType": "string",
          "name": "_ownerName",
          "type": "string"
        },
        {
          "internalType": "uint256",
          "name": "_allowedMaxFlightAltitude",
          "type": "uint256"
        },
        {
          "internalType": "uint256",
          "name": "_allowedMinFlightAltitude",
          "type": "uint256"
        },
        {
          "internalType": "string",
          "name": "_pesticide",
          "type": "string"
        }
      ],
      "name": "mintNewPlot",
      "outputs": [],
      "stateMutability": "nonpayable",
      "type": "function"
    }
  ],
  "bytecode": "0x60806040523480156200001157600080fd5b506040518060400160405280600481526020017f504c4f54000000000000000000000000000000000000000000000000000000008152506040518060400160405280600381526020017f504c540000000000000000000000000000000000000000000000000000000000815250816000908051906020019062000096929190620000b8565b508060019080519060200190620000af929190620000b8565b505050620001cc565b828054620000c69062000197565b90600052602060002090601f016020900481019282620000ea576000855562000136565b82601f106200010557805160ff191683800117855562000136565b8280016001018555821562000136579182015b828111156200013557825182559160200191906001019062000118565b5b50905062000145919062000149565b5090565b5b80821115620001645760008160009055506001016200014a565b5090565b7f4e487b7100000000000000000000000000000000000000000000000000000000600052602260045260246000fd5b60006002820490506001821680620001b057607f821691505b602082108103620001c657620001c562000168565b5b50919050565b612cc580620001dc6000396000f3fe608060405234801561001057600080fd5b50600436106100f55760003560e01c80636352211e11610097578063a63f08a711610066578063a63f08a71461029a578063b88d4fde146102b6578063c87b56dd146102d2578063e985e9c514610302576100f5565b80636352211e1461020057806370a082311461023057806395d89b4114610260578063a22cb4651461027e576100f5565b8063095ea7b3116100d3578063095ea7b31461017857806323b872dd1461019457806342842e0e146101b057806361bf49ee146101cc576100f5565b806301ffc9a7146100fa57806306fdde031461012a578063081812fc14610148575b600080fd5b610114600480360381019061010f9190611aa9565b610332565b6040516101219190611af1565b60405180910390f35b610132610414565b60405161013f9190611ba5565b60405180910390f35b610162600480360381019061015d9190611bfd565b6104a6565b60405161016f9190611c6b565b60405180910390f35b610192600480360381019061018d9190611cb2565b61052b565b005b6101ae60048036038101906101a99190611cf2565b610642565b005b6101ca60048036038101906101c59190611cf2565b6106a2565b005b6101e660048036038101906101e19190611bfd565b6106c2565b6040516101f7959493929190611d54565b60405180910390f35b61021a60048036038101906102159190611bfd565b610838565b6040516102279190611c6b565b60405180910390f35b61024a60048036038101906102459190611db5565b6108e9565b6040516102579190611de2565b60405180910390f35b6102686109a0565b6040516102759190611ba5565b60405180910390f35b61029860048036038101906102939190611e29565b610a32565b005b6102b460048036038101906102af9190611f9e565b610a48565b005b6102d060048036038101906102cb91906120de565b610b5c565b005b6102ec60048036038101906102e79190611bfd565b610bbe565b6040516102f99190611ba5565b60405180910390f35b61031c60048036038101906103179190612161565b610c65565b6040516103299190611af1565b60405180910390f35b60007f80ac58cd000000000000000000000000000000000000000000000000000000007bffffffffffffffffffffffffffffffffffffffffffffffffffffffff1916827bffffffffffffffffffffffffffffffffffffffffffffffffffffffff191614806103fd57507f5b5e139f000000000000000000000000000000000000000000000000000000007bffffffffffffffffffffffffffffffffffffffffffffffffffffffff1916827bffffffffffffffffffffffffffffffffffffffffffffffffffffffff1916145b8061040d575061040c82610cf9565b5b9050919050565b606060008054610423906121d0565b80601f016020809104026020016040519081016040528092919081815260200182805461044f906121d0565b801561049c5780601f106104715761010080835404028352916020019161049c565b820191906000526020600020905b81548152906001019060200180831161047f57829003601f168201915b5050505050905090565b60006104b182610d63565b6104f0576040517f08c379a00000000000000000000000000000000000000000000000000000000081526004016104e790612273565b60405180910390fd5b6004600083815260200190815260200160002060009054906101000a900473ffffffffffffffffffffffffffffffffffffffff169050919050565b600061053682610838565b90508073ffffffffffffffffffffffffffffffffffffffff168373ffffffffffffffffffffffffffffffffffffffff16036105a6576040517f08c379a000000000000000000000000000000000000000000000000000000000815260040161059d90612305565b60405180910390fd5b8073ffffffffffffffffffffffffffffffffffffffff166105c5610dcf565b73ffffffffffffffffffffffffffffffffffffffff1614806105f457506105f3816105ee610dcf565b610c65565b5b610633576040517f08c379a000000000000000000000000000000000000000000000000000000000815260040161062a90612397565b60405180910390fd5b61063d8383610dd7565b505050565b61065361064d610dcf565b82610e90565b610692576040517f08c379a000000000000000000000000000000000000000000000000000000000815260040161068990612429565b60405180910390fd5b61069d838383610f6e565b505050565b6106bd83838360405180602001604052806000815250610b5c565b505050565b600781815481106106d257600080fd5b90600052602060002090600502016000915090508060000180546106f5906121d0565b80601f0160208091040260200160405190810160405280929190818152602001828054610721906121d0565b801561076e5780601f106107435761010080835404028352916020019161076e565b820191906000526020600020905b81548152906001019060200180831161075157829003601f168201915b505050505090806001018054610783906121d0565b80601f01602080910402602001604051908101604052809291908181526020018280546107af906121d0565b80156107fc5780601f106107d1576101008083540402835291602001916107fc565b820191906000526020600020905b8154815290600101906020018083116107df57829003601f168201915b5050505050908060020154908060030154908060040160009054906101000a900473ffffffffffffffffffffffffffffffffffffffff16905085565b6000806002600084815260200190815260200160002060009054906101000a900473ffffffffffffffffffffffffffffffffffffffff169050600073ffffffffffffffffffffffffffffffffffffffff168173ffffffffffffffffffffffffffffffffffffffff16036108e0576040517f08c379a00000000000000000000000000000000000000000000000000000000081526004016108d7906124bb565b60405180910390fd5b80915050919050565b60008073ffffffffffffffffffffffffffffffffffffffff168273ffffffffffffffffffffffffffffffffffffffff1603610959576040517f08c379a00000000000000000000000000000000000000000000000000000000081526004016109509061254d565b60405180910390fd5b600360008373ffffffffffffffffffffffffffffffffffffffff1673ffffffffffffffffffffffffffffffffffffffff168152602001908152602001600020549050919050565b6060600180546109af906121d0565b80601f01602080910402602001604051908101604052809291908181526020018280546109db906121d0565b8015610a285780601f106109fd57610100808354040283529160200191610a28565b820191906000526020600020905b815481529060010190602001808311610a0b57829003601f168201915b5050505050905090565b610a44610a3d610dcf565b83836111d4565b5050565b600033905060076040518060a001604052808781526020018481526020018681526020018581526020018373ffffffffffffffffffffffffffffffffffffffff1681525090806001815401808255809150506001900390600052602060002090600502016000909190919091506000820151816000019080519060200190610ad192919061199a565b506020820151816001019080519060200190610aee92919061199a565b50604082015181600201556060820151816003015560808201518160040160006101000a81548173ffffffffffffffffffffffffffffffffffffffff021916908373ffffffffffffffffffffffffffffffffffffffff1602179055505050610b5581611340565b5050505050565b610b6d610b67610dcf565b83610e90565b610bac576040517f08c379a0000000000000000000000000000000000000000000000000000000008152600401610ba390612429565b60405180910390fd5b610bb88484848461139d565b50505050565b6060610bc982610d63565b610c08576040517f08c379a0000000000000000000000000000000000000000000000000000000008152600401610bff906125df565b60405180910390fd5b6000610c126113f9565b90506000815111610c325760405180602001604052806000815250610c5d565b80610c3c84611410565b604051602001610c4d92919061263b565b6040516020818303038152906040525b915050919050565b6000600560008473ffffffffffffffffffffffffffffffffffffffff1673ffffffffffffffffffffffffffffffffffffffff16815260200190815260200160002060008373ffffffffffffffffffffffffffffffffffffffff1673ffffffffffffffffffffffffffffffffffffffff16815260200190815260200160002060009054906101000a900460ff16905092915050565b60007f01ffc9a7000000000000000000000000000000000000000000000000000000007bffffffffffffffffffffffffffffffffffffffffffffffffffffffff1916827bffffffffffffffffffffffffffffffffffffffffffffffffffffffff1916149050919050565b60008073ffffffffffffffffffffffffffffffffffffffff166002600084815260200190815260200160002060009054906101000a900473ffffffffffffffffffffffffffffffffffffffff1673ffffffffffffffffffffffffffffffffffffffff1614159050919050565b600033905090565b816004600083815260200190815260200160002060006101000a81548173ffffffffffffffffffffffffffffffffffffffff021916908373ffffffffffffffffffffffffffffffffffffffff160217905550808273ffffffffffffffffffffffffffffffffffffffff16610e4a83610838565b73ffffffffffffffffffffffffffffffffffffffff167f8c5be1e5ebec7d5bd14f71427d1e84f3dd0314c0f7b2291e5b200ac8c7c3b92560405160405180910390a45050565b6000610e9b82610d63565b610eda576040517f08c379a0000000000000000000000000000000000000000000000000000000008152600401610ed1906126d1565b60405180910390fd5b6000610ee583610838565b90508073ffffffffffffffffffffffffffffffffffffffff168473ffffffffffffffffffffffffffffffffffffffff161480610f275750610f268185610c65565b5b80610f6557508373ffffffffffffffffffffffffffffffffffffffff16610f4d846104a6565b73ffffffffffffffffffffffffffffffffffffffff16145b91505092915050565b8273ffffffffffffffffffffffffffffffffffffffff16610f8e82610838565b73ffffffffffffffffffffffffffffffffffffffff1614610fe4576040517f08c379a0000000000000000000000000000000000000000000000000000000008152600401610fdb90612763565b60405180910390fd5b600073ffffffffffffffffffffffffffffffffffffffff168273ffffffffffffffffffffffffffffffffffffffff1603611053576040517f08c379a000000000000000000000000000000000000000000000000000000000815260040161104a906127f5565b60405180910390fd5b61105e838383611570565b611069600082610dd7565b6001600360008573ffffffffffffffffffffffffffffffffffffffff1673ffffffffffffffffffffffffffffffffffffffff16815260200190815260200160002060008282546110b99190612844565b925050819055506001600360008473ffffffffffffffffffffffffffffffffffffffff1673ffffffffffffffffffffffffffffffffffffffff16815260200190815260200160002060008282546111109190612878565b92505081905550816002600083815260200190815260200160002060006101000a81548173ffffffffffffffffffffffffffffffffffffffff021916908373ffffffffffffffffffffffffffffffffffffffff160217905550808273ffffffffffffffffffffffffffffffffffffffff168473ffffffffffffffffffffffffffffffffffffffff167fddf252ad1be2c89b69c2b068fc378daa952ba7f163c4a11628f55a4df523b3ef60405160405180910390a46111cf838383611575565b505050565b8173ffffffffffffffffffffffffffffffffffffffff168373ffffffffffffffffffffffffffffffffffffffff1603611242576040517f08c379a00000000000000000000000000000000000000000000000000000000081526004016112399061291a565b60405180910390fd5b80600560008573ffffffffffffffffffffffffffffffffffffffff1673ffffffffffffffffffffffffffffffffffffffff16815260200190815260200160002060008473ffffffffffffffffffffffffffffffffffffffff1673ffffffffffffffffffffffffffffffffffffffff16815260200190815260200160002060006101000a81548160ff0219169083151502179055508173ffffffffffffffffffffffffffffffffffffffff168373ffffffffffffffffffffffffffffffffffffffff167f17307eab39ab6107e8899845ad3d59bd9653f200f220920489ca2b5937696c31836040516113339190611af1565b60405180910390a3505050565b600061134c600661157a565b90506113588282611588565b61136260066115a6565b7fa45ff7f93c63954d431581aff2486c78fce6c5caad8de2a034753a6ae70e8f72816040516113919190611de2565b60405180910390a15050565b6113a8848484610f6e565b6113b4848484846115bc565b6113f3576040517f08c379a00000000000000000000000000000000000000000000000000000000081526004016113ea906129ac565b60405180910390fd5b50505050565b606060405180602001604052806000815250905090565b606060008203611457576040518060400160405280600181526020017f3000000000000000000000000000000000000000000000000000000000000000815250905061156b565b600082905060005b60008214611489578080611472906129cc565b915050600a826114829190612a43565b915061145f565b60008167ffffffffffffffff8111156114a5576114a4611e73565b5b6040519080825280601f01601f1916602001820160405280156114d75781602001600182028036833780820191505090505b5090505b60008514611564576001826114f09190612844565b9150600a856114ff9190612a74565b603061150b9190612878565b60f81b81838151811061152157611520612aa5565b5b60200101907effffffffffffffffffffffffffffffffffffffffffffffffffffffffffffff1916908160001a905350600a8561155d9190612a43565b94506114db565b8093505050505b919050565b505050565b505050565b600081600001549050919050565b6115a2828260405180602001604052806000815250611743565b5050565b6001816000016000828254019250508190555050565b60006115dd8473ffffffffffffffffffffffffffffffffffffffff1661179e565b15611736578373ffffffffffffffffffffffffffffffffffffffff1663150b7a02611606610dcf565b8786866040518563ffffffff1660e01b81526004016116289493929190612b29565b6020604051808303816000875af192505050801561166457506040513d601f19601f820116820180604052508101906116619190612b8a565b60015b6116e6573d8060008114611694576040519150601f19603f3d011682016040523d82523d6000602084013e611699565b606091505b5060008151036116de576040517f08c379a00000000000000000000000000000000000000000000000000000000081526004016116d5906129ac565b60405180910390fd5b805181602001fd5b63150b7a0260e01b7bffffffffffffffffffffffffffffffffffffffffffffffffffffffff1916817bffffffffffffffffffffffffffffffffffffffffffffffffffffffff19161491505061173b565b600190505b949350505050565b61174d83836117c1565b61175a60008484846115bc565b611799576040517f08c379a0000000000000000000000000000000000000000000000000000000008152600401611790906129ac565b60405180910390fd5b505050565b6000808273ffffffffffffffffffffffffffffffffffffffff163b119050919050565b600073ffffffffffffffffffffffffffffffffffffffff168273ffffffffffffffffffffffffffffffffffffffff1603611830576040517f08c379a000000000000000000000000000000000000000000000000000000000815260040161182790612c03565b60405180910390fd5b61183981610d63565b15611879576040517f08c379a000000000000000000000000000000000000000000000000000000000815260040161187090612c6f565b60405180910390fd5b61188560008383611570565b6001600360008473ffffffffffffffffffffffffffffffffffffffff1673ffffffffffffffffffffffffffffffffffffffff16815260200190815260200160002060008282546118d59190612878565b92505081905550816002600083815260200190815260200160002060006101000a81548173ffffffffffffffffffffffffffffffffffffffff021916908373ffffffffffffffffffffffffffffffffffffffff160217905550808273ffffffffffffffffffffffffffffffffffffffff16600073ffffffffffffffffffffffffffffffffffffffff167fddf252ad1be2c89b69c2b068fc378daa952ba7f163c4a11628f55a4df523b3ef60405160405180910390a461199660008383611575565b5050565b8280546119a6906121d0565b90600052602060002090601f0160209004810192826119c85760008555611a0f565b82601f106119e157805160ff1916838001178555611a0f565b82800160010185558215611a0f579182015b82811115611a0e5782518255916020019190600101906119f3565b5b509050611a1c9190611a20565b5090565b5b80821115611a39576000816000905550600101611a21565b5090565b6000604051905090565b600080fd5b600080fd5b60007fffffffff0000000000000000000000000000000000000000000000000000000082169050919050565b611a8681611a51565b8114611a9157600080fd5b50565b600081359050611aa381611a7d565b92915050565b600060208284031215611abf57611abe611a47565b5b6000611acd84828501611a94565b91505092915050565b60008115159050919050565b611aeb81611ad6565b82525050565b6000602082019050611b066000830184611ae2565b92915050565b600081519050919050565b600082825260208201905092915050565b60005b83811015611b46578082015181840152602081019050611b2b565b83811115611b55576000848401525b50505050565b6000601f19601f8301169050919050565b6000611b7782611b0c565b611b818185611b17565b9350611b91818560208601611b28565b611b9a81611b5b565b840191505092915050565b60006020820190508181036000830152611bbf8184611b6c565b905092915050565b6000819050919050565b611bda81611bc7565b8114611be557600080fd5b50565b600081359050611bf781611bd1565b92915050565b600060208284031215611c1357611c12611a47565b5b6000611c2184828501611be8565b91505092915050565b600073ffffffffffffffffffffffffffffffffffffffff82169050919050565b6000611c5582611c2a565b9050919050565b611c6581611c4a565b82525050565b6000602082019050611c806000830184611c5c565b92915050565b611c8f81611c4a565b8114611c9a57600080fd5b50565b600081359050611cac81611c86565b92915050565b60008060408385031215611cc957611cc8611a47565b5b6000611cd785828601611c9d565b9250506020611ce885828601611be8565b9150509250929050565b600080600060608486031215611d0b57611d0a611a47565b5b6000611d1986828701611c9d565b9350506020611d2a86828701611c9d565b9250506040611d3b86828701611be8565b9150509250925092565b611d4e81611bc7565b82525050565b600060a0820190508181036000830152611d6e8188611b6c565b90508181036020830152611d828187611b6c565b9050611d916040830186611d45565b611d9e6060830185611d45565b611dab6080830184611c5c565b9695505050505050565b600060208284031215611dcb57611dca611a47565b5b6000611dd984828501611c9d565b91505092915050565b6000602082019050611df76000830184611d45565b92915050565b611e0681611ad6565b8114611e1157600080fd5b50565b600081359050611e2381611dfd565b92915050565b60008060408385031215611e4057611e3f611a47565b5b6000611e4e85828601611c9d565b9250506020611e5f85828601611e14565b9150509250929050565b600080fd5b600080fd5b7f4e487b7100000000000000000000000000000000000000000000000000000000600052604160045260246000fd5b611eab82611b5b565b810181811067ffffffffffffffff82111715611eca57611ec9611e73565b5b80604052505050565b6000611edd611a3d565b9050611ee98282611ea2565b919050565b600067ffffffffffffffff821115611f0957611f08611e73565b5b611f1282611b5b565b9050602081019050919050565b82818337600083830152505050565b6000611f41611f3c84611eee565b611ed3565b905082815260208101848484011115611f5d57611f5c611e6e565b5b611f68848285611f1f565b509392505050565b600082601f830112611f8557611f84611e69565b5b8135611f95848260208601611f2e565b91505092915050565b60008060008060808587031215611fb857611fb7611a47565b5b600085013567ffffffffffffffff811115611fd657611fd5611a4c565b5b611fe287828801611f70565b9450506020611ff387828801611be8565b935050604061200487828801611be8565b925050606085013567ffffffffffffffff81111561202557612024611a4c565b5b61203187828801611f70565b91505092959194509250565b600067ffffffffffffffff82111561205857612057611e73565b5b61206182611b5b565b9050602081019050919050565b600061208161207c8461203d565b611ed3565b90508281526020810184848401111561209d5761209c611e6e565b5b6120a8848285611f1f565b509392505050565b600082601f8301126120c5576120c4611e69565b5b81356120d584826020860161206e565b91505092915050565b600080600080608085870312156120f8576120f7611a47565b5b600061210687828801611c9d565b945050602061211787828801611c9d565b935050604061212887828801611be8565b925050606085013567ffffffffffffffff81111561214957612148611a4c565b5b612155878288016120b0565b91505092959194509250565b6000806040838503121561217857612177611a47565b5b600061218685828601611c9d565b925050602061219785828601611c9d565b9150509250929050565b7f4e487b7100000000000000000000000000000000000000000000000000000000600052602260045260246000fd5b600060028204905060018216806121e857607f821691505b6020821081036121fb576121fa6121a1565b5b50919050565b7f4552433732313a20617070726f76656420717565727920666f72206e6f6e657860008201527f697374656e7420746f6b656e0000000000000000000000000000000000000000602082015250565b600061225d602c83611b17565b915061226882612201565b604082019050919050565b6000602082019050818103600083015261228c81612250565b9050919050565b7f4552433732313a20617070726f76616c20746f2063757272656e74206f776e6560008201527f7200000000000000000000000000000000000000000000000000000000000000602082015250565b60006122ef602183611b17565b91506122fa82612293565b604082019050919050565b6000602082019050818103600083015261231e816122e2565b9050919050565b7f4552433732313a20617070726f76652063616c6c6572206973206e6f74206f7760008201527f6e6572206e6f7220617070726f76656420666f7220616c6c0000000000000000602082015250565b6000612381603883611b17565b915061238c82612325565b604082019050919050565b600060208201905081810360008301526123b081612374565b9050919050565b7f4552433732313a207472616e736665722063616c6c6572206973206e6f74206f60008201527f776e6572206e6f7220617070726f766564000000000000000000000000000000602082015250565b6000612413603183611b17565b915061241e826123b7565b604082019050919050565b6000602082019050818103600083015261244281612406565b9050919050565b7f4552433732313a206f776e657220717565727920666f72206e6f6e657869737460008201527f656e7420746f6b656e0000000000000000000000000000000000000000000000602082015250565b60006124a5602983611b17565b91506124b082612449565b604082019050919050565b600060208201905081810360008301526124d481612498565b9050919050565b7f4552433732313a2062616c616e636520717565727920666f7220746865207a6560008201527f726f206164647265737300000000000000000000000000000000000000000000602082015250565b6000612537602a83611b17565b9150612542826124db565b604082019050919050565b600060208201905081810360008301526125668161252a565b9050919050565b7f4552433732314d657461646174613a2055524920717565727920666f72206e6f60008201527f6e6578697374656e7420746f6b656e0000000000000000000000000000000000602082015250565b60006125c9602f83611b17565b91506125d48261256d565b604082019050919050565b600060208201905081810360008301526125f8816125bc565b9050919050565b600081905092915050565b600061261582611b0c565b61261f81856125ff565b935061262f818560208601611b28565b80840191505092915050565b6000612647828561260a565b9150612653828461260a565b91508190509392505050565b7f4552433732313a206f70657261746f7220717565727920666f72206e6f6e657860008201527f697374656e7420746f6b656e0000000000000000000000000000000000000000602082015250565b60006126bb602c83611b17565b91506126c68261265f565b604082019050919050565b600060208201905081810360008301526126ea816126ae565b9050919050565b7f4552433732313a207472616e736665722066726f6d20696e636f72726563742060008201527f6f776e6572000000000000000000000000000000000000000000000000000000602082015250565b600061274d602583611b17565b9150612758826126f1565b604082019050919050565b6000602082019050818103600083015261277c81612740565b9050919050565b7f4552433732313a207472616e7366657220746f20746865207a65726f2061646460008201527f7265737300000000000000000000000000000000000000000000000000000000602082015250565b60006127df602483611b17565b91506127ea82612783565b604082019050919050565b6000602082019050818103600083015261280e816127d2565b9050919050565b7f4e487b7100000000000000000000000000000000000000000000000000000000600052601160045260246000fd5b600061284f82611bc7565b915061285a83611bc7565b92508282101561286d5761286c612815565b5b828203905092915050565b600061288382611bc7565b915061288e83611bc7565b9250827fffffffffffffffffffffffffffffffffffffffffffffffffffffffffffffffff038211156128c3576128c2612815565b5b828201905092915050565b7f4552433732313a20617070726f766520746f2063616c6c657200000000000000600082015250565b6000612904601983611b17565b915061290f826128ce565b602082019050919050565b60006020820190508181036000830152612933816128f7565b9050919050565b7f4552433732313a207472616e7366657220746f206e6f6e20455243373231526560008201527f63656976657220696d706c656d656e7465720000000000000000000000000000602082015250565b6000612996603283611b17565b91506129a18261293a565b604082019050919050565b600060208201905081810360008301526129c581612989565b9050919050565b60006129d782611bc7565b91507fffffffffffffffffffffffffffffffffffffffffffffffffffffffffffffffff8203612a0957612a08612815565b5b600182019050919050565b7f4e487b7100000000000000000000000000000000000000000000000000000000600052601260045260246000fd5b6000612a4e82611bc7565b9150612a5983611bc7565b925082612a6957612a68612a14565b5b828204905092915050565b6000612a7f82611bc7565b9150612a8a83611bc7565b925082612a9a57612a99612a14565b5b828206905092915050565b7f4e487b7100000000000000000000000000000000000000000000000000000000600052603260045260246000fd5b600081519050919050565b600082825260208201905092915050565b6000612afb82612ad4565b612b058185612adf565b9350612b15818560208601611b28565b612b1e81611b5b565b840191505092915050565b6000608082019050612b3e6000830187611c5c565b612b4b6020830186611c5c565b612b586040830185611d45565b8181036060830152612b6a8184612af0565b905095945050505050565b600081519050612b8481611a7d565b92915050565b600060208284031215612ba057612b9f611a47565b5b6000612bae84828501612b75565b91505092915050565b7f4552433732313a206d696e7420746f20746865207a65726f2061646472657373600082015250565b6000612bed602083611b17565b9150612bf882612bb7565b602082019050919050565b60006020820190508181036000830152612c1c81612be0565b9050919050565b7f4552433732313a20746f6b656e20616c7265616479206d696e74656400000000600082015250565b6000612c59601c83611b17565b9150612c6482612c23565b602082019050919050565b60006020820190508181036000830152612c8881612c4c565b905091905056fea26469706673582212206783873fa5d2d0695e746fac4f1c83f0769e3e32b4998989b9ad85d5465747d164736f6c634300080e0033",
  "immutableReferences": {},
  "source": "// SPDX-License-Identifier: UNLICENCED\npragma solidity >=0.4.22 <0.9.0;\n\nimport \"./models/PlotModel.sol\";\nimport \"@openzeppelin/contracts/token/ERC721/ERC721.sol\";\nimport \"@openzeppelin/contracts/utils/Counters.sol\";\n\ncontract PlotNFT is ERC721, PlotModel {\n    using Counters for Counters.Counter;\n    Counters.Counter private _currentTokenId;\n\n    constructor() ERC721(\"PLOT\", \"PLT\") {}\n\n    event NewPlotCreated(uint256 id);\n\n    Plot[] public plots;\n\n    function _plotMint(address to) private {\n        uint256 currentId = _currentTokenId.current();\n        _safeMint(to, currentId);\n        _currentTokenId.increment();\n        emit NewPlotCreated(currentId);\n    }\n\n    function mintNewPlot(\n        string memory _ownerName,\n        uint256 _allowedMaxFlightAltitude,\n        uint256 _allowedMinFlightAltitude,\n        string memory _pesticide\n    ) external {\n        address owner = msg.sender;\n        plots.push(\n            Plot(\n                _ownerName,\n                _pesticide,\n                _allowedMaxFlightAltitude,\n                _allowedMinFlightAltitude,\n                owner\n            )\n        );\n        _plotMint(owner);\n    }\n}\n",
  "sourcePath": "/home/sergio/Documentos/sergio/projects/drones/smartcontracts/contracts/PlotNFT.sol",
  "compiler": {
    "name": "solc",
    "version": "0.8.14+commit.80d49f37.Emscripten.clang"
  },
  "schemaVersion": "3.4.7",
  "updatedAt": "2022-07-03T12:32:21.076Z",
  "devdoc": {
    "kind": "dev",
    "methods": {
      "approve(address,uint256)": {
        "details": "See {IERC721-approve}."
      },
      "balanceOf(address)": {
        "details": "See {IERC721-balanceOf}."
      },
      "getApproved(uint256)": {
        "details": "See {IERC721-getApproved}."
      },
      "isApprovedForAll(address,address)": {
        "details": "See {IERC721-isApprovedForAll}."
      },
      "name()": {
        "details": "See {IERC721Metadata-name}."
      },
      "ownerOf(uint256)": {
        "details": "See {IERC721-ownerOf}."
      },
      "safeTransferFrom(address,address,uint256)": {
        "details": "See {IERC721-safeTransferFrom}."
      },
      "safeTransferFrom(address,address,uint256,bytes)": {
        "details": "See {IERC721-safeTransferFrom}."
      },
      "setApprovalForAll(address,bool)": {
        "details": "See {IERC721-setApprovalForAll}."
      },
      "supportsInterface(bytes4)": {
        "details": "See {IERC165-supportsInterface}."
      },
      "symbol()": {
        "details": "See {IERC721Metadata-symbol}."
      },
      "tokenURI(uint256)": {
        "details": "See {IERC721Metadata-tokenURI}."
      },
      "transferFrom(address,address,uint256)": {
        "details": "See {IERC721-transferFrom}."
      }
    },
    "version": 1
  },
  "userdoc": {
    "kind": "user",
    "methods": {},
    "version": 1
  }
}